:02000002D0002C
:1040000000400D00C86F0D00000005000E00050106
:0840100004014601000000005C
:1040180070690D0009480A49884208B505D0094A5F
:10402800824202D0121A02F0C5FB0748074A002153
:10403800121A02F0CAFB014808BD00BF30E3032092
:10404800206F0D00B0E30320B0E30320F0E7032066
:1040580070B502F089F9074C074BE41AA40800254B
:104068001E46A54204D056F8253098470135F8E792
:1040780070BD00BF206F0D00EC6E0D0000F010B990
:1040880008B500F055F8BDE8084002F03BB900F06B
:1040980041BC00F03FBC00F045BC00F043BC0078D8
:1040A800B0FA80F040097047012303707047106828
:1040B8007047000013B5054B1B788DF800303C2382
:1040C800044600F0D9FD204602B010BDB8E3032035
:1040D80070B580B286B00E46154602F08AF933688C
:1040E800B0F5176FACBFC82400249C4201D0C82C7F
:1040F80001D0B4B9ABB10A222146346002A801F05C
:104108008AFB029A0848294601F00AF902A801F038
:10411800FDFA02F063F800942B46044A012101F0ED
:1041280081FA06B070BD00BFECE3032084690D007E
:1041380008B50F4B1B68012B19D10E4B0E4A186896
:104148000E49FFF7C5FF0E4B0E4A18680E49FFF7D8
:10415800BFFF0E4B0E4A18680E49FFF7B9FF0E4B0A
:104168000E4A18680E49BDE80840FFF7B1BF08BD00
:1041780038E3032040E303208F690D00B4E30320F4
:104188003CE3032095690D00D4E3032034E30320C6
:104198009B690D00D0E3032030E30320A2690D00E2
:1041A800CCE303201FB50A22FF21684601F033FB48
:1041B800009A0749074801F0B3F8684601F0A6FAE3
:1041C80040F2726000F0D6FB05B05DF804FB00BF5A
:1041D8008F690D00ECE3032008B50B4B002118880C
:1041E80002F01EF9094B0021188802F019F9084B52
:1041F8000021188802F014F9064B00211888BDE840
:10420800084002F00DB900BF40E303203CE303205F
:1042180034E3032030E3032010B5002204460549A7
:10422800054801F07DF8FFF7D7FF2046BDE81040AC
:1042380000F0A0BBA9690D00ECE3032008B5FFF767
:10424800B1FF0A20BDE80840FFF7E6BF08B5074BF5
:104258001B68012B06D0064901F023FB20B1FFF7AC
:10426800EDFF01E0002008BD012008BD38E3032070
:10427800B0690D0038B5046805467CB16368013B38
:1042880063605BB9236820469B689847A368013B35
:10429800A3601BB923682046DB689847284638BDC9
:1042A80037B501F09BFF4FF4165101F08BFF244BFB
:1042B800244D1888244C002102F08AF8234B002151
:1042C800188802F085F8224B0021188802F080F83F
:1042D800204B0021188802F07BF82A681E4968469E
:1042E800FFF7E8FE01A8FFF7C5FF21681B4B1C4A32
:1042F8006846012918BF1A461A49FFF7DBFE01A8CC
:10430800FFF7B8FF0823ADF80030174B0193294693
:104318006B460422154800F08DFA0023214602223C
:10432800104800F087FA124A1249134800F084FB3B
:10433800124A1349104800F07FFB03B030BD00BF9C
:1043480040E30320BCE3032038E303203CE30320DD
:1043580030E3032034E30320C9690D00BF690D0071
:10436800B7690D00DD690D00B7400D00E8690D0063
:10437800F3690D008D430D00154A0D00FE690D000F
:1043880055420D0037B5054601F09DFA134CA0B90A
:104398001349284601F085FA08B1012305E01149BF
:1043A800284601F07EFA08B10223236021680E4BEB
:1043B8000E4A012918BF1A4605E00B4B0B4A20602C
:1043C800012818BF1A460A496846FFF773FE01A874
:1043D800FFF750FF012003B030BD00BF38E30320D2
:1043E800086A0D000B6A0D00BF690D00B7690D0062
:1043F800DD690D0010B5084B084C00221A7000F05A
:1044080055F80749204601F0C8F92046054A0649EB
:10441800BDE8104002F06CB8B8E30320BCE3032009
:10442800106A0D00B0E3032015570D0008B5024BC4
:104438001B689B68019308BD4802030008B5024B3E
:104448001B681B69019308BD4802030008B5024BAD
:104458001B685B69019308BD4802030008B5024B5D
:104468001B681B6B019308BD4802030008B5024B8B
:104478001B685B6C019308BD4802030008B5024B3A
:104488001B68DB6C019308BD4802030008B5024BAA
:104498001B685B6D019308BD4802030008B5024B19
:1044A8001B685B69019308BD1802030008B5024B3D
:1044B8001B681B68019308BD2C02030008B5024B5A
:1044C8001B685B68019308BD2C02030008B5024B0A
:1044D8001B689B68019308BD2C02030008B5024BBA
:1044E8001B68DB68019308BD2C02030008B5024B6A
:1044F8001B689B6A019308BD2C02030008B5024B98
:104508001B681B6B019308BD2C02030008B5024B06
:104518001B689B6F019308BD2C02030008B5024B72
:104528001B681B6A019308BD2802030008B5024BEB
:104538001B685B6A019308BD2802030008B5024B9B
:104548001B689B6A019308BD2802030008B5024B4B
:104558001B68DB6A019308BD2802030008B5024BFB
:104568001B681B6B019308BD2802030008B5024BAA
:104578001B685B6B019308BD2802030008B5024B5A
:104588001B681B6C019308BD2802030008B5024B89
:104598001B681B69019308BD6C02030008B5024B38
:1045A8001B685B69019308BD6C02030008B5024BE8
:1045B8001B689B69019308BD6C02030008B5024B98
:1045C8001B685B6D019308BD6C02030008B5024BC4
:1045D8001B689B6D019308BD6C02030008B5024B74
:1045E8001B685B69019308BD6402030008B5024BB0
:1045F8001B689B69019308BD6402030008B5024B60
:104608001B681B6A019308BD6402030008B5024BCE
:104618001B685B6A019308BD6402030008B5024B7E
:104628001B689B6A019308BD6402030008B5024B2E
:104638001B689B68019308BD6802030008B5024B1C
:104648001B68DB68019308BD6802030008B5024BCC
:104658001B685B68019308BD3802030008B5024B6C
:104668001B689B69019308BD3802030008B5024B1B
:104678001B68DB69019308BD3802030008B5024BCB
:104688001B68DB6A019308BD3802030008B5024BBA
:104698001B685B6B019308BD3802030008B5024B29
:1046A8001B689B6B019308BD3802030008B5024BD9
:1046B8001B68DB69019308BD3002030008B5024B93
:1046C8001B681B6A019308BD3002030008B5024B42
:1046D8001B681B68019308BD3C02030008B5024B28
:1046E8001B68DB68019308BD3C02030008B5024B58
:1046F8001B681B69019308BD3C02030008B5024B07
:104708001B685B69019308BD3C02030008B5024BB6
:104718001B689B69019308BD3C02030008B5024B66
:104728001B68DB69019308BD3C02030008B5024B16
:104738001B681B6A019308BD3C02030008B5024BC5
:104748001B689B6A019308BD3C02030008B5024B35
:104758001B681B68019308BD4C02030008B5024B97
:104768001B685B68019308BD4C02030008B5024B47
:104778001B681B69019308BD4C02030008B5024B76
:104788001B685B69019308BD4C02030008B5024B26
:104798001B689B69019308BD4C02030008B5024BD6
:1047A8001B68DB69019308BD4C02030008B5024B86
:1047B8001B681B6A019308BD4C02030008B5024B35
:1047C8001B681B6D019308BD6002030008B5024B0E
:1047D8001B685B68019308BD2002030008B5024B03
:1047E8001B685B69019308BD2002030008B5024BF2
:1047F8001B68DB6C019308BD2002030008B5024B5F
:104808001B685B6D019308BD2002030008B5034BCC
:104818001B68D3F88830019308BD0000200203000C
:1048280008B5034B1B68D3F89430019308BD00000A
:104838002002030008B5024B1B681B68019308BDE2
:104848004402030008B5024B1B685B68019308BD6E
:104858004402030008B5024B1B681B6A019308BD9C
:104868004402030008B5024B1B68DB6B019308BDCB
:104878004402030008B5024B1B685B68019308BD3E
:104888004002030008B5024B1B689B68019308BDF2
:104898004002030008B5024B1B68DB68019308BDA2
:1048A8004002030008B5024B1B681B69019308BD51
:1048B8004002030008B5024B1B685B69019308BD01
:1048C8004002030008B5024B1B689B69019308BDB1
:1048D8004002030008B5024B1B68DB69019308BD61
:1048E8004002030008B5024B1B681B6A019308BD10
:1048F8004002030008B5024B1B681B6B019308BDFF
:104908004002030008B5024B1B685B6B019308BDAE
:104918004002030008B5024B1B681B68019308BDE1
:104928001C02030008B5024B1B685B68019308BDB5
:104938001C02030008B5024B1B689B68019308BD65
:104948001C02030008B5024B1B685B6A019308BD93
:104958001C02030008B5024B1B68DB6A019308BD03
:104968001C02030008B5024B1B681B6B019308BDB2
:104978001C0203000021FFF731BF10B5836804460D
:104988000BB901F0BAFDC3689847A3681BB10322AD
:104998002146204698472046BDE81040FFF77BBBDC
:1049A80070470020704710B50446FFF774FB204697
:1049B80010BD08B508B1FFF7F6FF08BD10B583684C
:1049C800044613B1032201469847204610BD38B566
:1049D800C468D4B12378022B02D1E068FFF7A2FFA4
:1049E80065682DB12846FFF7E9FF2846FFF753FB16
:1049F800A5682DB12846FFF7E1FF2846FFF74BFBD6
:104A08002046BDE83840FFF746BB38BD10B588B032
:104A18000446684600F0C1FE694604A800F0DFFEBF
:104A280004A8A047044604A800F070FE684600F0F9
:104A38006DFE204608B010BDF0B5102485B00746BD
:104A48000E46154600212246684601F0BEFE0022A9
:104A580069461046ADF80040029703960195FFF7A6
:104A6800F1FE05B0F0BD13B5044691E8050000233A
:104A78004B600B602060626001A801930093FFF710
:104A8800F9FB204602B010BD0B68036013B15A68E9
:104A980001325A607047F7B50C4602AD54F8043B32
:104AA80045F8083D06460F4601A82146FFF7ECFFEA
:104AB80029463046FFF7D7FF01A8FFF7DBFB204662
:104AC800FFF7D8FB3846FFF7E6FA304603B0F0BDEB
:104AD80013B50B46044603C88DE8030093E80300AA
:104AE80084E803009DE8030083E8030002B010BDDA
:104AF800826810B50AB901F000FDC368BDE810402E
:104B0800184708B5006800F11001FFF7F1FF08BD6C
:104B1800826810B50AB901F0F0FCC368BDE810401E
:104B2800184708B5006800F11001FFF7F1FF08BD4C
:104B380038B5002383608B6804460D462BB10222EA
:104B48009847EB68E360AB68A360204638BD000077
:104B58002DE9F0414FF69C7386B00468B1F9042042
:104B68008B8000230F688DF800300B604FF0020037
:104B7800D4E84F1F994203D1C4E8450F002DF7D15F
:104B880002D08DF800106AE014F10C051EBFE76032
:104B980022821F460123BFF35F8F0020637004F158
:104BA8000803BFF35F8F53E8006F43E80002002A51
:104BB800F9D1BFF35F8F002E51D0FFF717FE20B158
:104BC80029463046FFF794FF43E031466846FFF731
:104BD800AFFFE068B4F9105008B101F011FE04907D
:104BE8001020ADF81450FFF752FA054630B34FF0D5
:104BF8000008C0F808801820FFF749FA0446C0B139
:104C0800C0F8088001466846FFF762FF029BA26869
:104C1800A360039B0292E268E360BDF81430A382AC
:104C28004FF69C73ADF81430049B03922361CDF8C2
:104C380010800E4BEB600E4B2C60AB600498FFF7B6
:104C480071FE6846FFF7BAFE002229460948FFF7B9
:104C5800D5FD3046FFF7B2FE3046FFF71CFA38465E
:104C6800FFF760FE06B0BDE8F08100BF0B4B0D00FA
:104C7800694D0D0083490D002DE9F04F8BB007AD4C
:104C88004FF0000B0646994614200C230F46904619
:104C98009DF850A0C5F804B0C5F808B00793FFF711
:104CA800F6F9044638B180F800B080F801B0C0F8D1
:104CB80004B0C0F808B00023102003940493FFF751
:104CC800E6F928B1012343608360234B0360C46085
:104CD8000490224B08930820FFF7D9F9044628B11D
:104CE800039B40F8043B04A9FFF7CEFE00955FFA4A
:104CF8008AF34A46414638460994FFF7ABFDB8B9EE
:104D0800039B5B7803F0FF0293B94FF69C7305A9E8
:104D180003A80592ADF81830FFF71AFF0598FFF7BA
:104D280001FE05A80999FFF7B6FE06A8FFF7A2FA43
:104D3800039B059304A906A8FFF7A6FE05A930461C
:104D4800FFF791FE06A8FFF795FA04A8FFF792FA75
:104D580030460BB0BDE8F08F206A0D00D14E0D0033
:104D6800022AF8B5044606D0032A17D0012A20D112
:104D78000B6803601DE018200E68FFF788F90546E8
:104D880050B13146FFF7D4FE3069B6F9147008B156
:104D980001F036FD2861AF8225600AE0046844B15D
:104DA8002069FFF7BFFD2046FFF708FE2046FFF702
:104DB80072F90020F8BD38B5002383608B6804467B
:104DC8000D462BB102229847EB68E360AB68A360FD
:104DD800204638BD022A70B5044606D0032A11D0F1
:104DE800012A17D10B68036014E014200E68FFF73E
:104DF8004EF9054620B13146FFF7DDFF337C2B74B1
:104E0800256007E004682CB12046FFF7D7FD20464F
:104E1800FFF741F9002070BDF0B5002387B00C46BC
:104E2800BFF35F8F50E8006F40E80032002AF9D1E5
:104E3800BFF35F8F002E3ED01846FFF7D7FC07461A
:104E480020B121463046FFF763FE2EE0314601A827
:104E5800FFF7B1FF23788DF814301020FFF717F90A
:104E68000546D0B187601420FFF711F9044678B1E0
:104E78008760014601A8FFF72BFE039BA268A36089
:104E8800049B0392E268E3609DF814300492237453
:104E98000A4BEB600A4B2C60AB6001A8FFF78EFD54
:104EA800002229460748FFF7A9FC3046FFF786FD90
:104EB8003046FFF7F0F807B0F0BD00BF2B4B0D00F0
:104EC800DD4D0D0083490D0030B585B004460D4613
:104ED80068461146FFF7DFFD7CB124B228460DB1C4
:104EE80001F08EFC029002A96846ADF80C40FFF76D
:104EF8002FFE0298FFF716FD1DE000988DF8084078
:104F08004FF00102D0E84F3FA34203D1C0E8412F40
:104F18000029F7D102D08DF808300CE010F10C010F
:104F28004FF0010318BF0373BFF35F8F043000F81D
:104F3800033CFFF771FF01A8FFF79CF905B030BDEE
:104F4800002211464068FFF7CDBC00221146406898
:104F5800FFF7D8BC00224068FFF7CCBC002281F0E4
:104F680001014068FFF7B6BC00231A46194640689D
:104F7800FFF7A8BC00231A4619464068FFF79ABCF9
:104F8800002211464068FFF78DBC00221146406898
:104F9800FFF778BC002202214068FFF77BBC0023A2
:104FA8001A464068FFF766BC024B03225A60024A61
:104FB8001A607047D8E303203C6A0D007047F8B5C3
:104FC800064615460C468F18BC4206D0336814F8BE
:104FD800011B9B6830469847F6E72846F8BD002233
:104FE800007CFFF79BBA0021007CFFF79FBA0021E5
:104FF800007CFFF7A3BA0021007CFFF7A7BA0021C5
:10500800007CFFF7ABBA10B50446FFF744F820461A
:1050180010BD000010B504464FF47A730846A3602B
:105028000021044B207461602360FFF7A7FA204633
:1050380010BD00BF706A0D000021007CFFF796BA12
:10504800704710B50446FFF726F8204610BDF0B5A6
:10505800037D062B8DB00E4600F104074FF00004C7
:1050680002D000F1080518E00CAD394605F8304DBE
:105078002F232A460A20FFF7B1FA284601F0DBFB66
:1050880033680246DB682946304698470FE024B16A
:105098002E21304600F088FA044415F8011D0A2232
:1050A800304600F0BDFABD420444F0D120460DB0B0
:1050B800F0BD000010B5054B0446112240F8043B32
:1050C800002101F082FB204610BD00BF986A0D0048
:1050D8000346074A10B543F8042B01F1100251F8B2
:1050E800044B43F8044B9142F9D10A781A7010BD69
:1050F800986A0D00037D042B01D1406808E0062B57
:105108000AD1436853B1836843B1C36833B10069B6
:10511800003018BF012070470020704718467047BC
:1051280010B59DF8084044EA032343EA024242EAE4
:10513800016104234160037510BD37B50D788B7884
:105148004A78C97800912946FFF7EAFF03B030BDD5
:10515800014B024A1A607047E0E30320546B0D00CC
:10516800002211464068FFF7BDBB00221146406887
:10517800FFF7C8BB00224068FFF7BCBB002281F0E4
:1051880001014068FFF7A6BB00231A46194640688C
:10519800FFF798BB00231A4619464068FFF78ABBF9
:1051A800002211464068FFF77DBB00221146406887
:1051B800FFF768BB002202214068FFF76BBB0023A2
:1051C8001A464068FFF756BB10B103685B6818477A
:1051D800704738B504460068D0B1FFF727F9B8B969
:1051E800237C1BB9206808B1FFF728F9656855B119
:1051F800AB681BB103222946284698472846FEF784
:105208004AFF002363602068FFF720F9002323602A
:1052180038BD000038B50B4B03600446D0F8CC010C
:1052280008B1FEF73AFFD4F8C4512DB12846FFF76C
:10523800D0FF2846FEF72FFFA06808B1FFF7C4FF8C
:10524800204638BD886B0D000068FFF717B90000CD
:1052580030B58DB004461122002101A801F0B5FA3D
:10526800062301AA09498DF814300A20FFF7BEF970
:1052780007AD01A906A8FFF72BFF0FCD04340FC413
:105288002B68237000200DB030BD00BFB46B0D003B
:1052980030B5044689B000F5E070FFF7D5FF236804
:1052A80083BB4C20FEF7F3FE054608B100F020FE54
:1052B8002068256008B1FFF787FF206820B3002227
:1052C8004FF49A6100F043FE08A9002501F8195D22
:1052D8001148FFF75BF920689DF80720036849F239
:1052E80069011B6A984702A8FFF7E4FE02A8FFF7C6
:1052F800AFFF002804DB02A9206800F0AEFE04E03E
:10530800054602E0002500E0044DD4F8C001FFF78F
:10531800BDF8284609B030BDC16B0D00FCFEFFFF8B
:105328002DE9F04705468CB016460F4609B10B78B3
:105338000BB9354C64E0084601F07DFA8046002E32
:105348005CD0304601F077FA441C08F1020323448C
:10535800B3F59A6F4FD805F5E070FFF775FF28464B
:10536800FFF796FF002840DB6846FFF7A3FE684674
:10537800FFF76EFF002838DBD5F800A0DAF8003018
:105388000DF1040CD3F83890204B0693BCE80F00BD
:105398000DF11C0EAEE80F00DCF800308EF800307E
:1053A80049F2690206A95046C84700281DDB0023B8
:1053B80028688DF8183003680122DB6806A9984729
:1053C8002868036808F10102DB68394698472CB160
:1053D800286803682246DB683146984728680368CE
:1053E8001B6C984700EAE07400E00446D5F8C00159
:1053F800FFF74CF804E06FF0BD0401E03446A4E781
:1054080020460CB0BDE8F087F2FEFFFF986A0D0059
:1054180038B50D4C0D4B23600025022304F5E470CC
:105428006360A560C4F8C451C4F8C851FFF71EF8FA
:10543800074BC4F8CC5123602046064A0649BDE80C
:10544800384001F055B800BFE4E30320EC6B0D00D1
:10545800886B0D00B0E303201D520D0000231A468F
:105468004068FFF707BA002202214068FFF712BA26
:10547800002211464068FFF705BA0022114640682D
:10548800FFF710BA00231A4619464068FFF712BA08
:1054980000231A4619464068FFF714BA002281F023
:1054A80001014068FFF716BA00224068FFF722BAE8
:1054B800002211464068FFF725BA002211464068CD
:1054C800FFF710BA70B58CB014460646FFF7F2FD28
:1054D8000CAB0022114643F8302D2046FFF7AEF8FA
:1054E800014658BB009B4BB35A68022A0ED00A2AC1
:1054F80024D15C69112201A801F067F906238DF80F
:10550800143001AD04F10803183405E05969304638
:105518000431FFF712FE11E0186859682A4603C2E1
:105528000833A3421546F7D101A906A807ADFFF72E
:10553800CFFD0FCD341D0FC42B6823700098FFF7E3
:1055480075F830460CB070BD024B034A1A60002251
:105558005A607047B4E50320EC6B0D00F8B50646B9
:105568000D468F180024BD420CD0336815F8011B76
:105578009B6830469847002801DB0444F3E7002C79
:1055880008BF04462046F8BD70B505460C460846D7
:1055980049B101F050F92B68024621462846DB68DC
:1055A800BDE87040184770BD03689B68184738B558
:1055B8000D210546FFF7F8FF0A2104462846FFF7A4
:1055C800F3FF204438BD30B58BB00B4600218DF871
:1055D8002410012A98BF0A220DF12304B3FBF2F527
:1055E80005FB123303F0FF03092B94BF3033373325
:1055F800DBB2214604F801392B46002DEED1FFF726
:10560800C3FF0BB030BD10B42AB903685DF8044B72
:105618009B68C9B21847D2B25DF8044BFFF7D3BFF5
:10562800FFF7F1BF0CB42DE9F04387B000AF07F1E5
:105638003804054654F8049B3C600E4623464A4607
:105648001421381DFFF77EF9132805D8391D28467F
:10565800FFF79AFF044613E000F1080323F007035D
:10566800E846ADEB030D411C23464A4668463C60BC
:10567800FFF768F969462846FFF786FF0446C546DE
:105688001EB12846FFF793FF044420461C37BD4649
:10569800BDE8F04302B0704710B50446FFF78EF935
:1056A800204610BD0348044A04490023836000F0E3
:1056B8001FBF00BFBCE50320B0E30320A1560D00C7
:1056C800704710B50446FEF7E6FC204610BD000002
:1056D80070B5084B0360044600250E4640F80C5F81
:1056E800FEF7BCFE30462671FEF7E0FFA5602046B7
:1056F80070BD00BF206C0D000079FEF7DFBF70475A
:1057080010B50446FEF7C7FC204610BD10B5044688
:105718000068FFF707F9204610BD10B50446006879
:1057280008B1FFF7FFF800232360A360636010BD92
:1057380038B504460D4600680131FFF7FBF810B193
:1057480084E82100012038BD10B50368044613B170
:1057580043688B4207D22046FFF7EAFF20B1A368CF
:105768000BB922681370012010BD70B50E461146A2
:1057780004461546FFF7E8FF18B92046FFF7CDFFA6
:1057880009E02A463146A560206801F013F822682E
:10579800A3680021D154204670BD38B500230446C3
:1057A80003604360836003730D4639B1084601F016
:1057B80042F8294602462046FFF7D7FF204638BD63
:1057C800884210B50B46044607D0096819B19A6893
:1057D800FFF7CBFF01E0FFF7A0FF204610BD10B593
:1057E800002304460360436083600373FFF7E8FF08
:1057F800204610BD38B505460C4641B1084601F0B3
:105808001AF8214602462846FFF7AFFF01E0FFF7E6
:1058180084FF284638BD10B5044600238AB02360AB
:105828006360A3602373084601A900F036FD01A94F
:105838002046FFF7DFFF20460AB010BD70B50446CA
:105848000E4609B9002070BD6AB18368D51829468B
:10585800FFF77AFF0028F5D02068A368314618447E
:1058680000F0C5FFA560012070BD38B5044680680A
:105878008568FFF7E3FFA3689868401B38BD07B544
:1058880000238DF80410012201A98DF80530FFF7D7
:10589800D5FF03B05DF804FB08B58068FFF7EFFF9C
:1058A80008BD08B582680B4612B919B9012008BDB0
:1058B80011B90368187802E0006800F08EFFB0FAAA
:1058C80080F0400908BD006808B100F061BF70476A
:1058D80030B585B000230D460293036043608360B2
:1058E80003731421064B019304460390FFF72CFF22
:1058F8002B6801A91B6828469847204605B030BD8B
:10590800306C0D00054B4FF69C7200205A804FF604
:10591800FF7218709A80FEF759BF00BFCCE50320CC
:10592800024B1A68024B1A60704700BF44E3032019
:10593800D4E5032010B40468246BA4465DF8044B36
:10594800604703689B6C1847808E7047028FC08E33
:10595800101A704713B502AB026803F8011DD4682A
:1059680019460122A04702B010BD10B503681B6993
:105978000446984728B1E38EE26B591CE186D05C57
:1059880010BD4FF0FF3010BD10B503681B69044609
:10599800984718B1E38EE26BD05C10BD4FF0FF3032
:1059A80010BD704710B403460846DC6BD98E1A8FB9
:1059B8000368521ADB6821445DF8044B1847A0F1CC
:1059C8001000FFF7EFBFF0B503688DB01C265B6AC7
:1059D80004460F461546984701233246002105A87C
:1059E800029300F0F2FE8DF8146038460A268DF80E
:1059F8001560FEF713FE1122ADF81600022130469D
:105A0800FEF74CFE0028606124DB0422009202AB02
:105A180040F6FF71FEF722FEE0B995B10390ADF8AC
:105A2800100003A9E8B2FEF7B9FD98B90623009360
:105A380041F20B0203AB40F6FF716069FEF70EFE00
:105A480040B91C2205A96069FEF700FE10B965641B
:105A5800012004E0236820465B6A984700200DB0C7
:105A6800F0BD10B504464069002801DBFEF7FEFDD5
:105A78004FF0FF3363610023E386238710BD38B5F9
:105A8800C36B0546C08E13B12C6C241A00E01C466B
:105A9800944228BF14462246184400F08BFEEB8E31
:105AA8002344EB86204638BD70B503681B6904465D
:105AB8000E461546984788B1236820461B699847C3
:105AC800E38EE16B8542A8BF054619442A46304655
:105AD80000F070FEE38E2B44E38601E04FF0FF35C3
:105AE800284670BD70B50446054B44F8043B01F1E7
:105AF800200506460FCD0FC42B682370304670BDB5
:105B0800986A0D00F0B59446026889B0976A0A4A07
:105B180002921D1D8E4606460FCD03AC0FC42B689E
:105B28002370BDF838300093624602AB71463046A8
:105B3800B84709B0F0BD00BF986A0D00F0B503681A
:105B4800B0F836E09F6A0D4B89B000F12006044694
:105B580002930FCE03AD0FC533682B70A38E00934D
:105B6800724602ABE16B2046B84723680546DB69FD
:105B780020469847284609B0F0BD00BF986A0D0036
:105B8800F0B54378022B8DB005460C46174601D177
:105B9800011D33E00A2B35D11122002101A800F0A4
:105BA80014FEAB6843B9EB6833B94FF6FF702E6942
:105BB800FEF724FD86421FD005F1080301AE05F16A
:105BC800180E18685968324603C2083373451646DA
:105BD800F7D1062301A906A807AE8DF81430FFF700
:105BE80077FA0FCE04340FC43368237057B168882E
:105BF800FEF70CFD388005E005F114012046FFF79B
:105C08009CFAF3E70DB0F0BD2DE9F0418EB00EAB74
:105C1800002506461746084643F8345D2A462946B5
:105C2800FEF70CFD00281FDB019BFBB15B69EBB1A4
:105C380002A8FFF73FFA019B2A46586902A9FFF715
:105C48009FFF02A8FFF756FA80B1336803ADD3F877
:105C580038800B4B08930FCD09AC0FC42B68237009
:105C68003A4608A93046C047044601E04FF0FF34E1
:105C78000198FEF7DBFC20460EB0BDE8F08100BFBE
:105C8800986A0D002DE9F047D0F81480B8F1000F9C
:105C980098B005460C461746994600DB11B94FF0F7
:105CA800FF304EE04FF01C0A09AE52460021304644
:105CB80000F08BFDCDF810A0B9F1000F14D04FF40F
:105CC8007A72B9FBF2F1109102FB11914A43082351
:105CD8001192009341F2060210AB40F6FF71404664
:105CE800FEF7BCFC08B12CE0082004AB0193214668
:105CF800034600963A466869FEF7C0FC041E1FDB9F
:105D080005F11C0705F1340230463946FFF738FF24
:105D180000262023394605A810931196FFF7D8FDD1
:105D2800AB8E0393059B0293074B009301200194CC
:105D3800334610AA0549FEF741FD05A8FFF7E6FC22
:105D4800204618B0BDE8F087696C0D00CD6B0D00DA
:105D580038B5054614462B7D062B084611D11C2361
:105D680013700A235370FEF759FC083424F8060C04
:105D78002B1D143553F8042B44F8042BAB42F9D1EE
:105D880038BD042B0AD11023137002235370FEF779
:105D980045FC60806868FEF731FC606038BD000033
:105DA8002DE9F04F984691B02023002482468B4677
:105DB80004A841461646BDF8689008930994FFF771
:105DC80087FD049B029308AD154B164900932A469C
:105DD80023460120CDF80C900196FEF7EFFC1C2716
:105DE80004A8FFF793FC3A462146284600F0EDFC4C
:105DF8002A4649464046FFF7ABFF9DF821304BB194
:105E08008DE8A000234632465946DAF81400FEF71A
:105E18003DFC01E04FF0FF3011B0BDE8F08F00BF4E
:105E2800866C0D00CD6B0D00F0B591B00C460646A2
:105E38000021154609A81C221F4600F0C6FC09AA25
:105E480000212046FFF784FF9DF82530022B2ED134
:105E5800002305930A9B0493DDB102A92846FEF7A7
:105E6800A5FBB0B910A941F8340D0298FEF7A6FBBE
:105E780060B9039B53B1DA6812685178022903D1DB
:105E880052680AB1059201E01B68F3E70398FEF730
:105E98009DFB002F4FF00803009318BF032204ABAB
:105EA80008BF042200213046FEF7D8FB1EE00A2B6B
:105EB8001AD104AC14220021204600F086FC0BAB5A
:105EC8000FCB002F84E80F004FF01403009318BF86
:105ED8000C22234608BF0D22292130460895FEF7DB
:105EE800BDFB00EAE07001E04FF0FF3011B0F0BDFB
:105EF80038B54FF47A7383600B4B03F108026C33A7
:105F0800002503614FF0FF3304464560026043619A
:105F18001C30FFF7CFF84FF40073E5862587E5635B
:105F280023646564204638BDB46C0D0010B590F844
:105F3800483004461BB1C06B08B1FEF7ACF800232B
:105F4800E36384F848302364E386238710BD70B583
:105F5800044616460D46FFF7E9FF0023E66323646F
:105F68003EB935B12846FEF794F80123E06384F87A
:105F78004830E36B03B12564206C003018BF012062
:105F880070BD70B5C26B04461AB9016C09B1FFF750
:105F9800DEFFE16B0023E386238741B1226C32B137
:105FA8002068056B2046A8470028C8BF20872368BB
:105FB80020461B69BDE8704018470000F0B591B055
:105FC80020230546002604A817460C460893099680
:105FD800FFF77EFC049B0193104B009308AA3346FD
:105FE8000F4902970120FEF7E9FB04A8FFF78EFB93
:105FF800EA6B22B9296C11B12846FFF7A8FF0434CF
:106008000FCC05F120060FC623683370286CAF86C5
:106018000023EB862B8711B0F0BD00BFA06C0D00EC
:10602800CD6B0D0010B5074B03F108026C33044625
:1060380002600361FFF715FD2046FFF777FF204652
:1060480010BD00BFB46C0D0010B50446FFF7EAFFA1
:106058002046FEF720F8204610BD02464069002879
:1060680004DB012392F84420FFF7DEBE4FF0FF3037
:106078007047704741747047007CFEF75FBB007C37
:10608800FEF734BB007CFEF741BB007CFEF736BB55
:10609800007CFEF743BB10B50446FDF7FCFF204625
:1060A80010BD70B5457C04460E4625B9007CFEF748
:1060B80045FB002805DD3146207CBDE87040FEF731
:1060C8000DBB284670BD000010B5044608461146B1
:1060D800002262604FF47A72A260054A22600122AF
:1060E800207462741A46FEF7F1FA204610BD00BF0C
:1060F8002C6D0D00007CFEF719BB000038B50C4D67
:10610800296811F0010411D12846FDF7C8FF68B1CC
:10611800084A094B09482146FFF7D6FF2846FDF7EC
:10612800C3FF074A0749054800F0E2F9034838BDAC
:1061380070E6032074E60320ECE50320D8E503208D
:10614800B0E303207B600D00417470477047002165
:10615800007CFEF71BBB0121007CFEF717BB007C0F
:10616800FEF70CBB007CFEF701BB38B50446007C8B
:106178000D46FEF703FB002801DC607C20B12946B0
:10618800207CFEF70BFB012038BD007CFEF70EBB20
:1061980010B50446FDF77FFF204610BD10B5044634
:1061A800002363604FF47A73A360054B23600123D7
:1061B8000846217463741146FEF7C8FA204610BDDC
:1061C8005C6D0D000022007CFEF7C8BA10B51422E1
:1061D8000446002100F0F9FA204610BD30B50E4DF6
:1061E80087B001A8FFF7F2FF296811F0010410D168
:1061F8002846FDF754FF60B101AA21460748FFF77A
:10620800CDFF2846FDF750FF054A0649034800F030
:106218006FF9024807B030BDF8E60320FCE603201A
:10622800B0E3032055610D0010B5044600F003FBF0
:10623800013823182046984206D20278197800F8C7
:10624800011B03F80129F6E710BD70B50C46911E35
:10625800222920D82546294610B9234430220EE0A9
:10626800B0FBF2F602FB1600C1B205F8011B0928C3
:1062780094BF3031573105F8011C3046EBE799429D
:1062880002D201F8012BFAE7002320460B70FFF732
:10629800CBFF204670BD002070BD38B5031E0C46EC
:1062A80015460BDAB3F1004F4FF02D0214BF5842D8
:1062B800184601230A702A46194400E00123FFF713
:1062C800C4FF204638BD000008B50C4B33B1FFF7BA
:1062D80085FF03681B699847002809DC084B63B1F0
:1062E800FFF70CFF03681B699847002803DC08BD0B
:1062F800AFF30080F2E7AFF3008008BD00000000B4
:106308000000000008B5FFF7DFFFFEF7C7F8014BF4
:10631800186008BD14E7032007B5002300931A4648
:106328006FF07701FEF77CFA03B05DF804FB00001C
:1063380007B543880A2B08D0502B09D1094B1B6895
:106348003BB103B05DF804EB1847FFF7E5FF06E043
:10635800002300931A466FF07701FEF761FA03B045
:106368005DF804FB10E7032008B500210448FEF798
:1063780079FA00210348BDE80840FEF747BA00BF94
:106388000000000039630D0010B504460F48FFF700
:10639800B3F928B1A4F10B03022B01D8002010BDDA
:1063A80000F064F8FEF748FE08B1012CF6D9FFF7B3
:1063B800A5FEFFF79FFE18B1A4F10903012BEDD943
:1063C8001E2C8CBF0020012010BD00BF30E7032029
:1063D8001E2838B504460D460AD8FF2908D0FFF70D
:1063E800D3FF28B129462046BDE83840FEF76EB8ED
:1063F80038BD0D2810B504469CBF0E34A4B2204603
:10640800FFF7C2FF50B103212046FEF757F80328D3
:1064180004D12046BDE81040FEF770B8002010BD3A
:1064280038B504460D46FFF7AFFFF0B1042120460A
:10643800FEF744F8042805D1A9B22046BDE8384043
:10644800FEF754B802212046FEF738F802280CD18E
:106458002046FEF743F8012801D0042805D1294633
:106468002046BDE83840FEF751B838BD38B50B4D69
:10647800296811F001040FD12846FDF710FE58B124
:1064880021460748FEF7C6FD2846FDF70DFE054ADA
:106498000549034800F02CF8014838BD18E70320E7
:1064A8001CE70320B0E30320C54F0D0070B50C4C6A
:1064B8000C4E0D4D00212046FFF70AF920460B4CE3
:1064C8003246294600F014F801212046FFF700F96A
:1064D800324629462046BDE8704000F009B800BFA2
:1064E80030E70320B0E30320C9560D0040E703203E
:1064F8000B460146184600F04FB908B5FEF72AFAD0
:10650800244B1A68D0075CBF01221A60224B1A6814
:10651800D1075CBF01221A60204B1A68D2075CBF02
:1065280001221A601E4B1A68D0075CBF01221A604C
:106538001C4B1A68D1075CBF01221A601A4B1A68F3
:10654800D2075CBF01221A60184B1A68D0075CBFDB
:1065580001221A60164B1A68D1075CBF01221A6023
:10656800144B1A68D2075CBF01221A60124B1A68D2
:10657800D0075CBF01221A60104B1A68D1075CBFB4
:1065880001221A600E4B1A68D2075CBF01221A60FA
:10659800704700BF7CE7032078E7032074E70320F7
:1065A80070E703206CE7032068E7032064E7032013
:1065B80060E703205CE7032058E7032054E7032043
:1065C80050E70320184B1A68D1075CBF01221A60F4
:1065D800164B1A68D2075CBF01221A60144B1A685E
:1065E800D0075CBF01221A60124B1A68D1075CBF42
:1065F80001221A60104B1A68D2075CBF01221A6088
:106608000E4B1A68D0075CBF01221A600C4B1A683F
:10661800D1075CBF01221A600A4B1A68D2075CBF17
:1066280001221A60704700BF9CE7032098E7032007
:1066380094E7032090E703208CE7032088E70320F2
:1066480084E7032080E70320184B1A68D1075CBF52
:1066580001221A60164B1A68D2075CBF01221A6021
:10666800144B1A68D0075CBF01221A60124B1A68D3
:10667800D1075CBF01221A60104B1A68D2075CBFB1
:1066880001221A600E4B1A68D0075CBF01221A60FB
:106698000C4B1A68D1075CBF01221A600A4B1A68B2
:1066A800D2075CBF01221A60704700BFBCE7032015
:1066B800B8E70320B4E70320B0E70320ACE70320E2
:1066C800A8E70320A4E70320A0E70320244B1A68C7
:1066D800D0075CBF01221A60224B1A68D1075CBF41
:1066E80001221A60204B1A68D2075CBF01221A6087
:1066F8001E4B1A68D0075CBF01221A601C4B1A682F
:10670800D1075CBF01221A601A4B1A68D2075CBF16
:1067180001221A60184B1A68D0075CBF01221A6060
:10672800164B1A68D1075CBF01221A60144B1A680D
:10673800D2075CBF01221A60124B1A68D0075CBFEF
:1067480001221A60104B1A68D1075CBF01221A6037
:106758000E4B1A68D2075CBF01221A60704700BF4F
:10676800ECE70320E8E70320E4E70320E0E7032061
:10677800DCE70320D8E70320D4E70320D0E7032091
:10678800CCE70320C8E70320C4E70320C0E70320C1
:106798000A22002100F0DEB810B5054C13462CB1D2
:1067A8000A4601460220AFF3008010BD204610BD06
:1067B8000000000010B5431E0A44914204D011F8AD
:1067C800014B03F8014FF8E710BD0244034693421A
:1067D80002D003F8011BFAE7704710F8012B11F8F3
:1067E800013B012A28BF9A42F7D0D01A70470346C6
:1067F80011F8012B03F8012B002AF9D1704700008A
:10680800024B0146186800F003B800BFACE3032050
:1068180070B5064608460C4600F00DF8451C29469A
:106828003046FEF79FF8064618B12A462146FFF77C
:10683800C1FF304670BD034613F8012B002AFBD177
:10684800181A0138704700002DE9F0478046404883
:10685800D0F800900F463D4615F8014B09EB0400AF
:10686800407800F0080000F0FF0608B12F46F2E774
:106878002D2C03D1BD1C7C78012603E02B2C04BFF2
:106888007C78BD1C13B1102B0AD15BE0302C57D19A
:10689800287800F0DF0058284DD16C781023023595
:1068A800002E14BF4FF0004C6FF0004C0027BCFBCB
:1068B800F3FA384603FB1ACC09EB040E9EF801E004
:1068C8001EF0040F01D0303C0BE01EF0030E1BD06D
:1068D800BEF1010F0CBF4FF0370E4FF0570ECEEB45
:1068E8000404A34210DDB7F1FF3F0AD0504506D893
:1068F80001D1644503DC03FB0040012701E04FF0B0
:10690800FF3715F8014BD7E77B1C0CD1002E4FF051
:10691800220314BF4FF000406FF00040C8F8003069
:106928002AB9BDE8F08706B1404272B107B1691EC5
:106938001160BDE8F0873024002BB1D10823AFE700
:106948000A23ADE7302CA3D0AAE7BDE8F08700BF43
:1069580048E3032013460A46014602480068FFF749
:1069680073BF00BFACE303201D400D0059400D006C
:1069780085400D0089400D00000000002573207639
:10698800616C3A202569006C65667452006C656616
:106998007446007269676874520072696768744661
:1069A80000616C6C4F666600666F6C6C6F770052A6
:1069B80043204D6F64650044656D6F204D6F6465BD
:1069C80000737761726D2D6C65616465722D6F6EF1
:1069D8006C696E6500737761726D2D6D6F6465000B
:1069E80066772D76657273696F6E00737769746365
:1069F800684D6F646500737761726D44656D6F00F3
:106A080072630064656D6F0076312E3100000000FE
:106A18000000000000000000A9490D00AF490D006A
:106A2800D7490D00BB490D00AB490D00000000001F
:106A380000000000A74F0D009D4F0D00934F0D0063
:106A4800894F0D007D4F0D00714F0D00654F0D00F2
:106A58005D4F0D00534F0D00494F0D00CD540D00F3
:106A68000000000000000000C54F0D000F500D0091
:106A7800E74F0D00C74F0D00EF4F0D00F74F0D000A
:106A8800FF4F0D0007500D0000000000000000003F
:106A980057500D0049500D004B500D006C6E0066AC
:106AA8006E00636F64650064657461696C000D0A4B
:106AB80000253031307520005D20002C2000282969
:106AC8003A2000205B00636F6465203D2000646508
:106AD8007461696C73203D200062617564005365C0
:106AE8007269616C0053657269616C310074797008
:106AF8006500706172616D00636D640069640068AF
:106B08006E64007374726D0066696C74006C766CE8
:106B18000061646448616E646C65720072656D6FD3
:106B2800766548616E646C657200656E756D486166
:106B38006E646C657273004A534F4E53747265618C
:106B48006D4C6F6748616E646C65720061707000AF
:106B58006E6F6E6500747261636500696E666F00C2
:106B68007761726E006572726F720070616E696330
:106B780000616C6C000000000000000000000000D4
:106B8800C7510D00BD510D00B3510D00A9510D00A5
:106B98009D510D0091510D0085510D007D510D0045
:106BA80073510D0069510D00CD540D0066663033E8
:106BB8003A3A313A3130303100746831006D6573DA
:106BC8006870756200776972696E670070617273C8
:106BD80065207061636B6574202564000000000007
:106BE8000000000065540D006F540D0079540D002D
:106BF80083540D008D540D0099540D00A5540D00BB
:106C0800B1540D00B9540D00C3540D00CD540D00FE
:106C18000000000000000000C9560D00CB560D0012
:106C2800000000000000000007570D0009570D0084
:106C3800A1580D0073580D005A00252B3033643AC3
:106C4800253032750025592D256D2D25645425488C
:106C58003A254D3A2553257A0061736374696D6549
:106C680000726563656976656420256420627974BD
:106C780065732066726F6D20257323256400736524
:106C88006E645061636B65742073697A652025644E
:106C98002C20257323256400626567696E20706166
:106CA800636B6574202573232564000000000000D1
:106CB800000000002D600D0051600D005D590D00B1
:106CC800875A0D0055590D0073590D0091590D0043
:106CD800AB590D00CF590D006B5A0D00A95D0D0081
:106CE8000D5B0D008D5C0D003D590D00C55F0D005D
:106CF800115C0D00455B0D008B5F0D00B15A0D0056
:106D08004B590D00ED5A0D0051590D00AD590D00AC
:106D1800F0FFFFFF00000000C7590D000000000051
:106D2800000000007B600D009F600D00AB600D004F
:106D380065550D0087600D0093600D008D600D0096
:106D480099600D007D600D0081600D00000000005D
:106D58000000000055610D0099610D0073610D0080
:106D680065550D006D610D0057610D005F610D00E7
:106D780093610D0067610D0051610D000020202016
:106D880020202020202028282828282020202020D3
:106D980020202020202020202020202020881010A3
:106DA80010101010101010101010101010040404FF
:106DB80004040404040404101010101010104141BD
:106DC80041414141010101010101010101010101AB
:106DD80001010101010101011010101010104242BF
:106DE800424242420202020202020202020202027B
:106DF800020202020202020210101010200000001B
:106E0800000000000000000000000000000000007A
:106E1800000000000000000000000000000000006A
:106E2800000000000000000000000000000000005A
:106E3800000000000000000000000000000000004A
:106E4800000000000000000000000000000000003A
:106E5800000000000000000000000000000000002A
:106E6800000000000000000000000000000000001A
:106E7800000000000000000000000000000000000A
:106E880000000000000000000000000000000000FA
:106E980000000000000000000000000000000000EA
:106EA80000000000000000000000000000000000DA
:106EB80000000000000000000000000000000000CA
:106EC80000000000000000000000000000000000BA
:106ED80000000000000000000000000000000000AA
:106EE80043000000FD430D00B14F0D0059510D0046
:106EF80019540D0051550D00AD560D000D590D00DA
:106F080029590D00B5640D0009650D00CD650D000A
:086F180051660D00D5660D0065
:106F2000110000001000000001000000120000002D
:106F300013000000616C0D00846D0D000000000066
:106F4000886E0D00A86E0D00C86E0D0000000000D8
:106F5000000000000000000000000000E86E0D00CE
:106F60000000000000000000000000000000000021
:106F70000000000000000000000000000000000011
:106F80000000000000000000000000000000000001
:106F90000000000000000000000000004CE303209F
:106FA000FFFFFFFF00000102030405060708090AAE
:106FB0000B0C0D0E0F101112131415161718191AA9
:086FC0001B1C1D1E1F202800F0
:046FC80078563412B1
:04000003D0004018D1
:00000001FF
