:02000002D0002C
:1040000000400D0018760D00000005000E000501AF
:0840100004014601000000005C
:10401800A46F0D0009480A49884208B505D0094A25
:10402800824202D0121A02F0C5FE0748074A002150
:10403800121A02F0CAFE014808BD00BF2CE3032093
:1040480070750D00ACE30320ACE30320F0E7032018
:1040580070B502F075FC074C074BE41AA40800255C
:104068001E46A54204D056F8253098470135F8E792
:1040780070BD00BF64750D002C750D0000F014BBF9
:1040880008B500F037FABDE8084002F027BC00F098
:1040980075BE00F073BE00F079BE00F077BE007800
:1040A800B0FA80F040097047012303707047106828
:1040B8007047000013B5054B1B788DF800303C2382
:1040C800044601F00DF8204602B010BDB8E3032005
:1040D80008B50B4B0021188802F08EFC094B002113
:1040E800188802F089FC084B0021188802F084FC2B
:1040F800064B00211888BDE8084002F07DBC00BFCF
:104108003CE3032038E3032030E303202CE30320BF
:1041180010B5002204460549054801F035FBFFF7B4
:10412800D7FF2046BDE8104000F058BEB86F0D001C
:10413800ECE30320F0B5184D85B004460F4616464B
:1041480001460A22684601F0D2FD009A1349284622
:1041580001F01AFB684601F00DFD21460A22684667
:1041680001F0C5FD009A0E49284601F00DFB68468E
:1041780001F000FD0B4B2146188802F03DFC0A4B6C
:104188002146188802F038FC384600F027FE3046F1
:10419800FFF7BEFF05B0F0BDECE30320BF6F0D00D5
:1041A800C56F0D0038E303202CE303201FB5C82298
:1041B8004FF4C871FF20FFF7BDFF0A22FF216846B0
:1041C80001F082FD009A1449144801F0DDFA6846AE
:1041D80001F0D0FC0A22FF21684601F075FD009A23
:1041E8000F490E4801F0D0FA684601F0C3FC0D4BA8
:1041F800FF21188802F000FC0B4BFF21188802F001
:10420800FBFB0A4B1868002808BF4FF4C87000F081
:10421800E5FD05B05DF804FBCC6F0D00ECE3032071
:10422800C56F0D003CE303202CE30320B0E303201B
:104238001FB5C8224FF4C871FF20FFF77BFF0A2281
:10424800FF21684601F040FD009A1449144801F026
:104258009BFA684601F08EFC0A22FF21684601F0AD
:1042680033FD009A0F490E4801F08EFA684601F0B6
:1042780081FC0D4BFF21188802F0BEFB0B4BFF2180
:10428800188802F0B9FB0A4B1868002808BF4FF4D9
:10429800C87000F0A3FD05B05DF804FBBF6F0D000A
:1042A800ECE30320D26F0D0038E3032030E3032052
:1042B800B0E3032008B5FFF779FFC820FFF728FF10
:1042C800FFF7B6FFC820BDE80840FFF721BF000090
:1042D800F0B5184D85B004460F46164601460A2229
:1042E800684601F004FD009A1349284601F04CFA8B
:1042F800684601F03FFC21460A22684601F0F7FCB7
:10430800009A0E49284601F03FFA684601F032FC4F
:104318000B4B2146188802F06FFB0A4B2146188880
:1043280002F06AFB384600F059FD3046FFF7F0FE10
:1043380005B0F0BDECE30320CC6F0D00D26F0D008B
:104348003CE3032030E303201FB504460A22FF2183
:10435800684601F0B9FC009A1549164801F014FAAC
:10436800684601F007FC0A22FF21684601F0ACFC10
:10437800009A11490F4801F007FA684601F0FAFB64
:104388000E4BFF21188802F037FB0D4BFF211888D0
:1043980002F032FB0B4B186840F24923002808BF93
:1043A800184600F01BFD2046FFF7B2FE04B010BD12
:1043B800CC6F0D00ECE30320C56F0D003CE3032038
:1043C8002CE30320B0E3032010B504246422104634
:1043D8004FF42F71FFF7AEFE6420FFF7B5FF013CE5
:1043E800F4D110BD1FB504460A22FF21684601F02A
:1043F8006BFC009A1549164801F0C6F9684601F0A9
:10440800B9FB0A22FF21684601F05EFC009A1149B7
:104418000F4801F0B9F9684601F0ACFB0E4BFF21DB
:10442800188802F0E9FA0D4BFF21188802F0E4FA27
:104438000B4B186840F24923002808BF184600F0C3
:10444800CDFC2046FFF764FE04B010BDD26F0D000E
:10445800ECE30320BF6F0D0030E3032038E30320B3
:10446800B0E3032008B564224FF448717D20FFF7BC
:1044780061FE4FF47A724FF448717D20FFF728FFF0
:104488004FF4FA70FFF7AEFF0A20BDE80840FFF7C7
:104498005BBF000070B580B286B00E46154602F0CC
:1044A80094FA3368B0F5176FACBF7D2400249C42A2
:1044B80001D07D2C01D0B4B9ABB10A2221463460B9
:1044C80002A801F001FC029A0848294601F05CF9AB
:1044D80002A801F04FFB02F02FF900942B46044A82
:1044E800012101F0D3FA06B070BD00BFECE3032050
:1044F800D96F0D0008B50F4B1B68012B19D10E4B56
:104508000E4A18680E49FFF7C5FF0E4B0E4A186889
:104518000E49FFF7BFFF0E4B0E4A18680E49FFF70A
:10452800B9FF0E4B0E4A18680E49BDE80840FFF760
:10453800B1BF08BD34E303203CE30320CC6F0D007A
:10454800B4E3032038E30320BF6F0D00D4E3032056
:1045580030E30320D26F0D00D0E303202CE30320C7
:10456800C56F0D00CCE303207FB505462820FFF773
:1045780090FD044678B11022022300F1080680E875
:104588000C001D49304601F03CFB04F118001A49A3
:1045980001F037FB34461949684601F032FB694699
:1045A800284601F00BFC0646684601F0E3FA731C46
:1045B80004D12946204601F054FB19E03346002275
:1045C8002946684601F0FEFB6946204601F063FB78
:1045D800684601F0CFFA721C2946684601F01AFCB9
:1045E800694604F1100001F056FB684601F0C2FA72
:1045F800204604B070BD00BFF8700D00E46F0D00D8
:104608001FB5194B1B68012B014627D0684601F0DE
:1046180037FB6846FFF7A8FF0446684601F0AAFA88
:1046280004F1100001F0FDFB104B11491860204601
:1046380001F0A3FB10B1FFF715FF11E00D4920466B
:1046480001F09BFB10B1FFF735FE09E00A4920464F
:1046580001F093FB20B1FFF7B7FE01E0002000E076
:10466800012004B010BD00BF34E30320B0E30320F1
:10467800E66F0D00ED6F0D00F26F0D0038B50468A0
:1046880005467CB16368013B63605BB923682046DB
:104698009B689847A368013BA3601BB92368204621
:1046A800DB689847284638BD37B502F045F84FF41F
:1046B800165102F035F8244B244D1888244C00215B
:1046C80002F072F9234B0021188802F06DF9224B91
:1046D8000021188802F068F9204B0021188802F0A0
:1046E80063F92A681E496846FFF7E4FC01A8FFF74A
:1046F800C5FF21681B4B1C4A6846012918BF1A468A
:104708001A49FFF7D7FC01A8FFF7B8FF0823ADF84F
:104718000030174B019329466B460422154800F0D8
:10472800BDFA002321460222104800F0B7FA124AC7
:104738001249134800F0B4FB124A1349104800F01C
:10474800AFFB03B030BD00BF3CE30320BCE3032054
:1047580034E3032038E303202CE3032030E3032071
:104768000B700D0001700D00F96F0D001F700D002A
:10477800B7400D002A700D0035700D0095470D00EB
:104788007D4E0D0040700D0009460D0073B50646BC
:1047980001F047FB264D0446002839D1254930460B
:1047A80001F0EBFA90B101232B60234B21461888C6
:1047B80002F0FAF8214B2146188802F0F5F8204B50
:1047C8002146188802F0F0F8214616E01D493046C7
:1047D80001F0D3FAA8B102232B60174B01211888E6
:1047E80002F0E2F8154B0121188802F0DDF8144BAD
:1047F8000121188802F0D8F80121134B188802F01B
:10480800D3F82968114B124A012918BF1A4605E046
:104818000E4B0F4A2860012818BF1A460D496846F2
:10482800FFF748FC01A8FFF729FF012002B070BD7F
:1048380034E303204A700D003CE3032038E30320EF
:104848002CE303204D700D0030E3032001700D00B0
:10485800F96F0D001F700D0010B5084B084C0022B1
:104868001A7000F057F80749204601F0CAF92046A7
:10487800054A0649BDE8104002F026B9B8E303200E
:10488800BCE3032052700D00ACE303207D5B0D00F8
:1048980000F040B808B5024B1B689B68019308BD3F
:1048A8004802030008B5024B1B681B69019308BD49
:1048B8004802030008B5024B1B685B69019308BDF9
:1048C8004802030008B5024B1B681B6B019308BD27
:1048D8004802030008B5024B1B685B6C019308BDD6
:1048E8004802030008B5024B1B68DB6C019308BD46
:1048F8004802030008B5024B1B685B6D019308BDB5
:104908004802030008B5024B1B685B69019308BDA8
:104918001802030008B5024B1B681B68019308BD09
:104928002C02030008B5024B1B685B68019308BDA5
:104938002C02030008B5024B1B689B68019308BD55
:104948002C02030008B5024B1B68DB68019308BD05
:104958002C02030008B5024B1B689B6A019308BD33
:104968002C02030008B5024B1B681B6B019308BDA2
:104978002C02030008B5024B1B689B6F019308BD0E
:104988002C02030008B5024B1B681B6A019308BD83
:104998002802030008B5024B1B685B6A019308BD37
:1049A8002802030008B5024B1B689B6A019308BDE7
:1049B8002802030008B5024B1B68DB6A019308BD97
:1049C8002802030008B5024B1B681B6B019308BD46
:1049D8002802030008B5024B1B685B6B019308BDF6
:1049E8002802030008B5024B1B681B6C019308BD25
:1049F8002802030008B5024B1B681B69019308BD18
:104A08006C02030008B5024B1B685B69019308BD83
:104A18006C02030008B5024B1B689B69019308BD33
:104A28006C02030008B5024B1B685B6D019308BD5F
:104A38006C02030008B5024B1B689B6D019308BD0F
:104A48006C02030008B5024B1B685B69019308BD43
:104A58006402030008B5024B1B689B69019308BDFB
:104A68006402030008B5024B1B681B6A019308BD6A
:104A78006402030008B5024B1B685B6A019308BD1A
:104A88006402030008B5024B1B689B6A019308BDCA
:104A98006402030008B5024B1B689B68019308BDBC
:104AA8006802030008B5024B1B68DB68019308BD68
:104AB8006802030008B5024B1B685B68019308BDD8
:104AC8003802030008B5024B1B689B69019308BDB7
:104AD8003802030008B5024B1B68DB69019308BD67
:104AE8003802030008B5024B1B68DB6A019308BD56
:104AF8003802030008B5024B1B685B6B019308BDC5
:104B08003802030008B5024B1B689B6B019308BD74
:104B18003802030008B5024B1B68DB69019308BD26
:104B28003002030008B5024B1B681B6A019308BDDD
:104B38003002030008B5024B1B681B68019308BDCF
:104B48003C02030008B5024B1B68DB68019308BDF3
:104B58003C02030008B5024B1B681B69019308BDA2
:104B68003C02030008B5024B1B685B69019308BD52
:104B78003C02030008B5024B1B689B69019308BD02
:104B88003C02030008B5024B1B68DB69019308BDB2
:104B98003C02030008B5024B1B681B6A019308BD61
:104BA8003C02030008B5024B1B689B6A019308BDD1
:104BB8003C02030008B5024B1B681B68019308BD43
:104BC8004C02030008B5024B1B685B68019308BDE3
:104BD8004C02030008B5024B1B681B69019308BD12
:104BE8004C02030008B5024B1B685B69019308BDC2
:104BF8004C02030008B5024B1B689B69019308BD72
:104C08004C02030008B5024B1B68DB69019308BD21
:104C18004C02030008B5024B1B681B6A019308BDD0
:104C28004C02030008B5024B1B681B6D019308BDBD
:104C38006002030008B5024B1B685B68019308BD5E
:104C48002002030008B5024B1B685B69019308BD8D
:104C58002002030008B5024B1B68DB6C019308BDFA
:104C68002002030008B5024B1B685B6D019308BD69
:104C78002002030008B5034B1B68D3F88830019362
:104C880008BD00002002030008B5034B1B68D3F8D9
:104C98009430019308BD00002002030008B5024BC0
:104CA8001B681B68019308BD4402030008B5024B4A
:104CB8001B685B68019308BD4402030008B5024BFA
:104CC8001B681B6A019308BD4402030008B5024B28
:104CD8001B68DB6B019308BD4402030008B5024B57
:104CE8001B685B68019308BD4002030008B5024BCE
:104CF8001B689B68019308BD4002030008B5024B7E
:104D08001B68DB68019308BD4002030008B5024B2D
:104D18001B681B69019308BD4002030008B5024BDC
:104D28001B685B69019308BD4002030008B5024B8C
:104D38001B689B69019308BD4002030008B5024B3C
:104D48001B68DB69019308BD4002030008B5024BEC
:104D58001B681B6A019308BD4002030008B5024B9B
:104D68001B681B6B019308BD4002030008B5024B8A
:104D78001B685B6B019308BD4002030008B5024B3A
:104D88001B681B68019308BD1C02030008B5024B91
:104D98001B685B68019308BD1C02030008B5024B41
:104DA8001B689B68019308BD1C02030008B5024BF1
:104DB8001B685B6A019308BD1C02030008B5024B1F
:104DC8001B68DB6A019308BD1C02030008B5024B8F
:104DD8001B681B6B019308BD1C0203000021FFF731
:104DE80031BF10B5836804460BB901F072FEC36881
:104DF8009847A3681BB103222146204698472046BE
:104E0800BDE81040FFF747B970470020704710B55C
:104E18000446FFF740F9204610BD08B508B1FFF772
:104E2800F6FF08BD10B58368044613B10322014696
:104E38009847204610BD38B5C468D4B12378022BF2
:104E480002D1E068FFF7A2FF65682DB12846FFF799
:104E5800E9FF2846FFF71FF9A5682DB12846FFF797
:104E6800E1FF2846FFF717F92046BDE83840FFF76D
:104E780012B938BD10B588B00446684600F0C1FEC6
:104E8800694604A800F0FCFE04A8A047044604A84C
:104E980000F070FE684600F06DFE204608B010BDB8
:104EA800F0B5102485B007460E4615460021224667
:104EB800684601F08AFF002269461046ADF80040B6
:104EC800029703960195FFF7F1FE05B0F0BD13B503
:104ED800044691E8050000234B600B602060626087
:104EE80001A801930093FFF7C9FB204602B010BD4B
:104EF8000B68036013B15A6801325A607047F7B5FE
:104F08000C4602AD54F8043B45F8083D06460F46EA
:104F180001A82146FFF7ECFF29463046FFF7D7FFE7
:104F280001A8FFF7ABFB2046FFF7A8FB3846FFF7C1
:104F3800B2F8304603B0F0BD13B50B46044603C8BB
:104F48008DE8030093E8030084E803009DE803006C
:104F580083E8030002B010BD826810B50AB901F0F9
:104F6800B8FDC368BDE81040184708B5006800F1EF
:104F78001001FFF7F1FF08BD826810B50AB901F00A
:104F8800A8FDC368BDE81040184708B5006800F1DF
:104F98001001FFF7F1FF08BD38B5002383608B6867
:104FA80004460D462BB102229847EB68E360AB68D4
:104FB800A360204638BD00002DE9F0414FF69C73F0
:104FC80086B00468B1F904208B8000230F688DF83F
:104FD80000300B604FF00200D4E84F1F994203D114
:104FE800C4E8450F002DF7D102D08DF800106AE013
:104FF80014F10C051EBFE76022821F460123BFF390
:105008005F8F0020637004F10803BFF35F8F53E8DC
:10501800006F43E80002002AF9D1BFF35F8F002E2A
:1050280051D0FFF717FE20B129463046FFF794FF0D
:1050380043E031466846FFF7AFFFE068B4F9105027
:1050480008B101F0DDFE04901020ADF81450FFF710
:105058001EF8054630B34FF00008C0F80880182045
:10506800FFF715F80446C0B1C0F808800146684645
:10507800FFF762FF029BA268A360039B0292E268AB
:10508800E360BDF81430A3824FF69C73ADF814307A
:10509800049B03922361CDF810800E4BEB600E4BFE
:1050A8002C60AB600498FFF771FE6846FFF7BAFE04
:1050B800002229460948FFF7D5FD3046FFF7B2FE22
:1050C8003046FEF7E8FF3846FFF760FE06B0BDE859
:1050D800F08100BF734F0D00D1510D00EB4D0D0055
:1050E8002DE9F04F8BB007AD4FF0000B06469946FF
:1050F80014200C230F4690469DF850A0C5F804B024
:10510800C5F808B00793FEF7C2FF044638B180F827
:1051180000B080F801B0C0F804B0C0F808B00023AF
:10512800102003940493FEF7B2FF28B101234360D3
:105138008360234B0360C4600490224B08930820CB
:10514800FEF7A5FF044628B1039B40F8043B04A9D9
:10515800FFF7CEFE00955FFA8AF34A464146384685
:105168000994FFF7ABFDB8B9039B5B7803F0FF0226
:1051780093B94FF69C7305A903A80592ADF81830AA
:10518800FFF71AFF0598FFF701FE05A80999FFF731
:10519800B6FE06A8FFF772FA039B059304A906A8B2
:1051A800FFF7A6FE05A93046FFF791FE06A8FFF710
:1051B80065FA04A8FFF762FA30460BB0BDE8F08F35
:1051C80060700D0039530D00022AF8B5044606D068
:1051D800032A17D0012A20D10B6803601DE018208C
:1051E8000E68FEF754FF054650B13146FFF7D4FE6E
:1051F8003069B6F9147008B101F002FE2861AF8277
:1052080025600AE0046844B12069FFF7BFFD204625
:10521800FFF708FE2046FEF73EFF0020F8BD38B530
:10522800002383608B6804460D462BB10222984701
:10523800EB68E360AB68A360204638BD022A70B50E
:10524800044606D0032A11D0012A17D10B6803603F
:1052580014E014200E68FEF71AFF054620B1314607
:10526800FFF7DDFF337C2B74256007E004682CB161
:105278002046FFF7D7FD2046FEF70DFF002070BD42
:10528800F0B5002387B00C46BFF35F8F50E8006F7E
:1052980040E80032002AF9D1BFF35F8F002E3ED0DC
:1052A8001846FFF7D7FC074620B121463046FFF7DE
:1052B80063FE2EE0314601A8FFF7B1FF23788DF891
:1052C80014301020FEF7E3FE0546D0B187601420A5
:1052D800FEF7DDFE044678B18760014601A8FFF7B6
:1052E8002BFE039BA268A360049B0392E268E36021
:1052F8009DF81430049223740A4BEB600A4B2C601F
:10530800AB6001A8FFF78EFD002229460748FFF78A
:10531800A9FC3046FFF786FD3046FEF7BCFE07B015
:10532800F0BD00BF934F0D0045520D00EB4D0D0031
:1053380030B585B004460D4668461146FFF7DFFDD7
:105348007CB124B228460DB101F05AFD029002A9A1
:105358006846ADF80C40FFF72FFE0298FFF716FDE0
:105368001DE000988DF808404FF00102D0E84F3F4B
:10537800A34203D1C0E8412F0029F7D102D08DF80C
:1053880008300CE010F10C014FF0010318BF037353
:10539800BFF35F8F043000F8033CFFF771FF01A8EB
:1053A800FFF76CF905B030BD002211464068FFF7E1
:1053B800CDBC002211464068FFF7D8BC00224068E7
:1053C800FFF7CCBC002281F001014068FFF7B6BCB2
:1053D80000231A4619464068FFF7A8BC00231A465E
:1053E80019464068FFF79ABC002211464068FFF74B
:1053F8008DBC002211464068FFF778BC00220221CC
:105408004068FFF77BBC00231A464068FFF766BC7C
:10541800024B03225A60024A1A607047D8E30320FD
:105428007C700D007047F8B5064615460C468F1877
:10543800BC4206D0336814F8011B9B683046984775
:10544800F6E72846F8BD0022007CFFF79BBA00214A
:10545800007CFFF79FBA0021007CFFF7A3BA002168
:10546800007CFFF7A7BA0021007CFFF7ABBA10B5A4
:105478000446FEF710FE204610BD000010B5044695
:105488004FF47A730846A3600021044B20746160CE
:105498002360FFF7A7FA204610BD00BFB0700D00CB
:1054A8000021007CFFF796BA704710B50446FEF756
:1054B800F2FD204610BDF0B5037D062B8DB00E46DB
:1054C80000F104074FF0000402D000F1080518E0CD
:1054D8000CAD394605F8304D2F232A460A20FFF730
:1054E800B1FA284601F0A7FC33680246DB68294672
:1054F800304698470FE024B12E21304600F088FA54
:10550800044415F8011D0A22304600F0BDFABD42D8
:105518000444F0D120460DB0F0BD000010B5054B95
:105528000446112240F8043B002101F04EFC2046BD
:1055380010BD00BFD8700D000346074A10B543F8E8
:10554800042B01F1100251F8044B43F8044B91422B
:10555800F9D10A781A7010BDD8700D00037D042B9C
:1055680001D1406808E0062B0AD1436853B183682B
:1055780043B1C36833B10069003018BF01207047D8
:10558800002070471846704710B59DF8084044EA57
:10559800032343EA024242EA01610423416003759E
:1055A80010BD37B50D788B784A78C97800912946AF
:1055B800FFF7EAFF03B030BD014B024A1A6070479B
:1055C800E0E3032094710D00002211464068FFF7C4
:1055D800BDBB002211464068FFF7C8BB00224068E7
:1055E800FFF7BCBB002281F001014068FFF7A6BBB2
:1055F80000231A4619464068FFF798BB00231A464D
:1056080019464068FFF78ABB002211464068FFF739
:105618007DBB002211464068FFF768BB00220221CB
:105628004068FFF76BBB00231A464068FFF756BB7C
:1056380010B103685B681847704738B504460068BE
:10564800D0B1FFF727F9B8B9237C1BB9206808B196
:10565800FFF728F9656855B1AB681BB103222946E5
:10566800284698472846FEF716FD00236360206801
:10567800FFF720F90023236038BD000038B50B4B35
:1056880003600446D0F8CC0108B1FEF706FDD4F853
:10569800C4512DB12846FFF7D0FF2846FEF7FBFC82
:1056A800A06808B1FFF7C4FF204638BDC8710D00D7
:1056B8000068FFF717B9000030B58DB00446112215
:1056C800002101A801F081FB062301AA09498DF8F0
:1056D80014300A20FFF7BEF907AD01A906A8FFF7A5
:1056E8002BFF0FCD04340FC42B68237000200DB09E
:1056F80030BD00BFF4710D0030B5044689B000F527
:10570800E070FFF7D5FF236883BB4C20FEF7BFFC92
:10571800054608B100F09AFE2068256008B1FFF739
:1057280087FF206820B300224FF49A6100F0BDFE85
:1057380008A9002501F8195D1148FFF75BF92068F1
:105748009DF80720036849F269011B6A984702A877
:10575800FFF7E4FE02A8FFF7AFFF002804DB02A969
:10576800206800F028FF04E0054602E0002500E07C
:10577800044DD4F8C001FFF7BDF8284609B030BD84
:1057880001720D00FCFEFFFF2DE9F04705468CB0C5
:1057980016460F4609B10B780BB9354C64E008463C
:1057A80001F049FB8046002E5CD0304601F043FBF7
:1057B800441C08F102032344B3F59A6F4FD805F54A
:1057C800E070FFF775FF2846FFF796FF002840DBDB
:1057D8006846FFF7A3FE6846FFF76EFF002838DB30
:1057E800D5F800A0DAF800300DF1040CD3F83890A1
:1057F800204B0693BCE80F000DF11C0EAEE80F001D
:10580800DCF800308EF8003049F2690206A95046EB
:10581800C84700281DDB002328688DF81830036866
:105828000122DB6806A998472868036808F1010285
:10583800DB68394698472CB1286803682246DB683C
:1058480031469847286803681B6C984700EAE0745B
:1058580000E00446D5F8C001FFF74CF804E06FF00B
:10586800BD0401E03446A4E720460CB0BDE8F0874B
:10587800F2FEFFFFD8700D0038B50D4C0D4B2360BC
:105888000025022304F5E4706360A560C4F8C451E0
:10589800C4F8C851FFF71EF8074BC4F8CC51236071
:1058A8002046064A0649BDE8384001F00DB900BF58
:1058B800E4E303202C720D00C8710D00ACE3032053
:1058C80085560D0000231A464068FFF707BA0022E4
:1058D80002214068FFF712BA002211464068FFF71C
:1058E80005BA002211464068FFF710BA00231A468D
:1058F80019464068FFF712BA00231A46194640684D
:10590800FFF714BA002281F001014068FFF716BAC8
:1059180000224068FFF722BA002211464068FFF7CC
:1059280025BA002211464068FFF710BA70B58CB04E
:1059380014460646FFF7F2FD0CAB0022114643F869
:10594800302D2046FFF7AEF8014658BB009B4BB3FD
:105958005A68022A0ED00A2A24D15C69112201A8A9
:1059680001F033FA06238DF8143001AD04F1080371
:10597800183405E0596930460431FFF712FE11E08A
:10598800186859682A4603C20833A3421546F7D156
:1059980001A906A807ADFFF7CFFD0FCD341D0FC431
:1059A8002B6823700098FFF775F830460CB070BD6F
:1059B800024B034A1A6000225A607047B4E503207C
:1059C8002C720D00F8B506460D468F180024BD420E
:1059D8000CD0336815F8011B9B683046984700289F
:1059E80001DB0444F3E7002C08BF04462046F8BD59
:1059F80070B505460C46084649B101F01CFA2B68FB
:105A0800024621462846DB68BDE87040184770BD4D
:105A180003689B68184738B50D210546FFF7F8FF5E
:105A28000A2104462846FFF7F3FF204438BD30B565
:105A38008BB00B4600218DF82410012A98BF0A224A
:105A48000DF12304B3FBF2F505FB123303F0FF035A
:105A5800092B94BF30333733DBB2214604F80139C0
:105A68002B46002DEED1FFF7C3FF0BB030BD10B4AD
:105A78002AB903685DF8044B9B68C9B21847D2B2CB
:105A88005DF8044BFFF7D3BFFFF7F1BF0CB42DE966
:105A9800F04387B000AF07F13804054654F8049B7B
:105AA8003C600E4623464A461421381DFFF77EF90E
:105AB800132805D8391D2846FFF79AFF044613E036
:105AC80000F1080323F00703E846ADEB030D411C82
:105AD80023464A4668463C60FFF768F96946284607
:105AE800FFF786FF0446C5461EB12846FFF793FF19
:105AF800044420461C37BD46BDE8F04302B0704759
:105B080010B50446FFF78EF9204610BD0348044A35
:105B180004490023836000F0D7BF00BFBCE5032021
:105B2800ACE30320095B0D00704710B50446FEF78F
:105B3800B2FA204610BD000070B5084B0360044659
:105B480000250E4640F80C5FFEF7BCFE3046267175
:105B5800FEF7E0FFA560204670BD00BF60720D0033
:105B68000079FEF7DFBF704710B50446FEF793FAD9
:105B7800204610BD10B504460068FFF707F9204617
:105B880010BD10B50446006808B1FFF7FFF8002300
:105B98002360A360636010BD38B504460D460068F5
:105BA8000131FFF7FBF810B184E82100012038BD6E
:105BB80010B50368044613B143688B4207D22046E8
:105BC800FFF7EAFF20B1A3680BB922681370012020
:105BD80010BD70B50E46114604461546FFF7E8FF9E
:105BE80018B92046FFF7CDFF09E02A463146A560DF
:105BF800206801F0DFF82268A3680021D15420460C
:105C080070BD38B5002304460360436083600373A6
:105C18000D4639B1084601F00EF9294602462046DC
:105C2800FFF7D7FF204638BD38B5054600680C4653
:105C380060B16A688B689A4206D3096801F0D7F8A0
:105C4800A368AB6000230AE0FFF7A0F823682B6085
:105C580063686B60A368AB60002323606360A36024
:105C680038BD884210B50B46044607D0096819B1FB
:105C78009A68FFF7AEFF01E0FFF783FF204610BDEB
:105C880010B5002304460360436083600373FFF785
:105C9800E8FF204610BD884210B5044601D0FFF742
:105CA800C3FF204610BD38B505460C4641B108462D
:105CB80001F0C1F8214602462846FFF78AFF01E0B5
:105CC800FFF75FFF284638BD10B5044600238AB0A9
:105CD80023606360A3602373084601A900F0CAFD2E
:105CE80001A92046FFF7DFFF20460AB010BD10B516
:105CF800044600238AB023606360A36023730846C8
:105D080001A900F050FD01A92046FFF7CCFF20466D
:105D18000AB010BD70B504460E4609B9002070BD22
:105D28006AB18368D5182946FFF742FF0028F5D0E5
:105D38002068A3683146184401F059F8A56001208D
:105D480070BD38B5044680688568FFF7E3FFA3682F
:105D58009868401B38BD07B500238DF80410012250
:105D680001A98DF80530FFF7D5FF03B05DF804FBF6
:105D780008B58068FFF7EFFF08BD08B582680B46D5
:105D880012B919B9012008BD11B90368187802E0E1
:105D9800006801F022F8B0FA80F0400908BD10B59B
:105DA8008368934207D904680968A01801F04BF882
:105DB80008B1001B10BD4FF0FF3010BD0022FFF7E7
:105DC800EEBF00002DE9F0419A420E461C461049EC
:105DD80088BF13461546074684BF25461C46FFF76D
:105DE80010FFB1688D420FD88C4228BF0C4633682B
:105DF800002213F804801A55316838462944FFF701
:105E080052FF336803F804803846BDE8F08100BFCC
:105E1800F8700D0010B504468B68FFF7D3FF2046D5
:105E280010BD006808B100F09FBF704730B585B05D
:105E380000230D46029303604360836003731421BB
:105E4800064B019304460390FFF7B2FE2B6801A9A5
:105E58001B6828469847204605B030BD70720D0073
:105E6800054B4FF69C7200205A804FF6FF7218704F
:105E78009A80FEF7DFBE00BFCCE50320024B1A680C
:105E8800024B1A60704700BF40E30320D4E50320AB
:105E980010B40468246BA4465DF8044B604703689B
:105EA8009B6C1847808E7047028FC08E101A7047FF
:105EB80013B502AB026803F8011DD4681946012224
:105EC800A04702B010BD10B503681B690446984787
:105ED80028B1E38EE26B591CE186D05C10BD4FF00F
:105EE800FF3010BD10B503681B690446984718B108
:105EF800E38EE26BD05C10BD4FF0FF3010BD7047F1
:105F080010B403460846DC6BD98E1A8F0368521A00
:105F1800DB6821445DF8044B1847A0F11000FFF737
:105F2800EFBFF0B503688DB01C265B6A04460F46C8
:105F38001546984701233246002105A8029300F030
:105F480044FF8DF8146038460A268DF81560FEF770
:105F580099FD1122ADF8160002213046FEF7D2FD58
:105F68000028606124DB0422009202AB40F6FF7136
:105F7800FEF7A8FDE0B995B10390ADF8100003A9AC
:105F8800E8B2FEF73FFD98B90623009341F20B02F1
:105F980003AB40F6FF716069FEF794FD40B91C221F
:105FA80005A96069FEF786FD10B96564012004E063
:105FB800236820465B6A984700200DB0F0BD10B5F5
:105FC80004464069002801DBFEF784FD4FF0FF33EB
:105FD80063610023E386238710BD38B5C36B05468C
:105FE800C08E13B12C6C241A00E01C46944228BFC2
:105FF80014462246184400F0DDFEEB8E2344EB865F
:10600800204638BD70B503681B6904460E46154620
:10601800984788B1236820461B699847E38EE16B4F
:106028008542A8BF054619442A46304600F0C2FEFC
:10603800E38E2B44E38601E04FF0FF35284670BD20
:1060480070B50446054B44F8043B01F120050646AB
:106058000FCD0FC42B682370304670BDD8700D006B
:10606800F0B59446026889B0976A0A4A02921D1DE3
:106078008E4606460FCD03AC0FC42B682370BDF8BF
:1060880038300093624602AB71463046B84709B0D3
:10609800F0BD00BFD8700D00F0B50368B0F836E069
:1060A8009F6A0D4B89B000F12006044602930FCE7B
:1060B80003AD0FC533682B70A38E0093724602ABF5
:1060C800E16B2046B84723680546DB6920469847B8
:1060D800284609B0F0BD00BFD8700D00F0B5437870
:1060E800022B8DB005460C46174601D1011D33E041
:1060F8000A2B35D11122002101A800F066FEAB68F9
:1061080043B9EB6833B94FF6FF702E69FEF7AAFC66
:1061180086421FD005F1080301AE05F1180E186874
:106128005968324603C2083373451646F7D1062329
:1061380001A906A807AE8DF81430FFF7FDF90FCEB8
:1061480004340FC43368237057B16888FEF792FC93
:10615800388005E005F114012046FFF722FAF3E73D
:106168000DB0F0BD2DE9F0418EB00EAB002506460E
:106178001746084643F8345D2A462946FEF792FC3E
:1061880000281FDB019BFBB15B69EBB102A8FFF79D
:10619800C5F9019B2A46586902A9FFF79FFF02A883
:1061A800FFF7DCF980B1336803ADD3F838800B4BC7
:1061B80008930FCD09AC0FC42B6823703A4608A981
:1061C8003046C047044601E04FF0FF340198FEF71F
:1061D80061FC20460EB0BDE8F08100BFD8700D000C
:1061E8002DE9F047D0F81480B8F1000F98B00546B3
:1061F8000C461746994600DB11B94FF0FF304EE0C8
:106208004FF01C0A09AE52460021304600F0DDFD71
:10621800CDF810A0B9F1000F14D04FF47A72B9FB81
:10622800F2F1109102FB11914A4308231192009355
:1062380041F2060210AB40F6FF714046FEF742FC01
:1062480008B12CE0082004AB0193214603460096D0
:106258003A466869FEF746FC041E1FDB05F11C0779
:1062680005F1340230463946FFF738FF002620236F
:10627800394605A810931196FFF7D8FDAB8E039306
:10628800059B0293074B009301200194334610AA03
:106298000549FEF7C7FC05A8FFF76CFC204618B0B7
:1062A800BDE8F087A9720D000D720D0038B50546DE
:1062B80014462B7D062B084611D11C2313700A2384
:1062C8005370FEF7DFFB083424F8060C2B1D143539
:1062D80053F8042B44F8042BAB42F9D138BD042BF6
:1062E8000AD11023137002235370FEF7CBFB608092
:1062F8006868FEF7B7FB606038BD00002DE9F04F15
:10630800984691B02023002482468B4604A8414633
:106318001646BDF8689008930994FFF787FD049B1B
:10632800029308AD154B164900932A4623460120CF
:10633800CDF80C900196FEF775FC1C2704A8FFF712
:1063480019FC3A462146284600F03FFD2A464946B0
:106358004046FFF7ABFF9DF821304BB18DE8A00018
:10636800234632465946DAF81400FEF7C3FB01E02B
:106378004FF0FF3011B0BDE8F08F00BFC6720D00BE
:106388000D720D00F0B591B00C4606460021154679
:1063980009A81C221F4600F018FD09AA0021204662
:1063A800FFF784FF9DF82530022B2ED1002305939B
:1063B8000A9B0493DDB102A92846FEF72BFBB0B96E
:1063C80010A941F8340D0298FEF72CFB60B9039B25
:1063D80053B1DA6812685178022903D152680AB1B8
:1063E800059201E01B68F3E70398FEF723FB002FF3
:1063F8004FF00803009318BF032204AB08BF042220
:1064080000213046FEF75EFB1EE00A2B1AD104ACD1
:1064180014220021204600F0D8FC0BAB0FCB002F34
:1064280084E80F004FF01403009318BF0C22234692
:1064380008BF0D22292130460895FEF743FB00EAE4
:10644800E07001E04FF0FF3011B0F0BD38B54FF407
:106458007A7383600B4B03F108026C3300250361E8
:106468004FF0FF3304464560026043611C30FFF77C
:1064780055F84FF40073E5862587E5632364656462
:10648800204638BDF4720D0010B590F84830044627
:106498001BB1C06B08B1FDF7FEFD0023E36384F870
:1064A80048302364E386238710BD70B5044616463A
:1064B8000D46FFF7E9FF0023E66323643EB935B1D3
:1064C8002846FDF7E6FD0123E06384F84830E36BD6
:1064D80003B12564206C003018BF012070BD70B571
:1064E800C26B04461AB9016C09B1FFF7DEFFE16B14
:1064F8000023E386238741B1226C32B12068056B03
:106508002046A8470028C8BF2087236820461B6963
:10651800BDE8704018470000F0B591B0202305464B
:10652800002604A817460C4608930996FFF77EFC38
:10653800049B0193104B009308AA33460F49029716
:106548000120FEF76FFB04A8FFF714FBEA6B22B9E2
:10655800296C11B12846FFF7A8FF04340FCC05F1C8
:1065680020060FC623683370286CAF860023EB869D
:106578002B8711B0F0BD00BFE0720D000D720D0049
:1065880010B5074B03F108026C330446026003613F
:10659800FFF715FD2046FFF777FF204610BD00BF27
:1065A800F4720D0010B50446FFF7EAFF2046FDF728
:1065B80072FD204610BD02464069002804DB012315
:1065C80092F84420FFF7DEBE4FF0FF307047704767
:1065D80041747047007CFEF7E5BA007CFEF7BABA52
:1065E800007CFEF7C7BA007CFEF7BCBA007CFEF759
:1065F800C9BA10B50446FDF74EFD204610BD70B56A
:10660800457C04460E4625B9007CFEF7CBFA0028E7
:1066180005DD3146207CBDE87040FEF793BA284678
:1066280070BD000010B5044608461146002262609D
:106638004FF47A72A260054A2260012220746274C3
:106648001A46FEF777FA204610BD00BF6C730D009E
:10665800007CFEF79FBA000038B50C4D296811F090
:10666800010411D12846FDF71AFD68B1084A094B03
:1066780009482146FFF7D6FF2846FDF715FD074ACA
:106688000749054800F020FA034838BD70E60320A2
:1066980074E60320ECE50320D8E50320ACE30320EF
:1066A800D7650D004174704770470021007CFEF7E4
:1066B800A1BA0121007CFEF79DBA007CFEF792BAD0
:1066C800007CFEF787BA38B50446007C0D46FEF715
:1066D80089FA002801DC607C20B12946207CFEF77D
:1066E80091FA012038BD007CFEF794BA10B5044633
:1066F800FDF7D1FC204610BD10B5044600236360A9
:106708004FF47A73A360054B236001230846217474
:1067180063741146FEF74EFA204610BD9C730D00B7
:106728000022007CFEF74EBA10B514220446002160
:1067380000F04BFB204610BD30B50E4D87B001A8C8
:10674800FFF7F2FF296811F0010410D12846FDF780
:10675800A6FC60B101AA21460748FFF7CDFF2846ED
:10676800FDF7A2FC054A0649034800F0ADF90248C6
:1067780007B030BDF8E60320FCE60320ACE30320B5
:10678800B1660D0010B5044600F055FB013823181A
:106798002046984206D20278197800F8011B03F8BF
:1067A8000129F6E710BD2DE9F041931E232B15466C
:1067B8008CB034BF15460A2500230A2D0C468DF8E7
:1067C8002C3007D1984205DA2D2301F101080B700E
:1067D800404201E0B0B1A0460DF12B0601272A4640
:1067E800014601A800F0D2FA029B0198092BCCBF00
:1067F8003722302252FA83F306F80139013700288C
:10680800EDD106E030238DF82B30A0460DF12A0695
:1068180002273A46711C404600F0CCFA20460CB0DC
:10682800BDE8F08170B50C46911E222920D8254676
:10683800294610B9234430220EE0B0FBF2F602FBE1
:106848001600C1B205F8011B092894BF3031573131
:1068580005F8011C3046EBE7994202D201F8012BFA
:10686800FAE7002320460B70FFF78CFF204670BD27
:10687800002070BD38B5031E0C4615460BDAB3F17F
:10688800004F4FF02D0214BF5842184601230A70DA
:106898002A46194400E00123FFF7C4FF204638BD0B
:1068A80008B50C4B33B1FFF747FF03681B699847DE
:1068B800002809DC084B63B1FFF7CEFE03681B69AB
:1068C8009847002803DC08BDAFF30080F2E7AFF378
:1068D800008008BD000000000000000008B5FFF7B8
:1068E800DFFFFEF70FF8014B186008BD14E703201F
:1068F80007B5002300931A466FF07701FEF7C4F935
:1069080003B05DF804FB000007B543880A2B08D0E4
:10691800502B09D1094B1B683BB103B05DF804EB60
:106928001847FFF7E5FF06E0002300931A466FF0CB
:106938007701FEF7A9F903B05DF804FB10E703201F
:1069480008B500210448FEF7C1F900210348BDE855
:106958000840FEF78FB900BF0000000011690D0064
:1069680010B504460F48FFF7FBF828B1A4F10B0354
:10697800022B01D8002010BD00F064F8FEF790FD4E
:1069880008B1012CF6D9FFF767FEFFF761FE18B1D1
:10699800A4F10903012BEDD91E2C8CBF0020012086
:1069A80010BD00BF30E703201E2838B504460D4649
:1069B8000AD8FF2908D0FFF7D3FF28B12946204677
:1069C800BDE83840FDF7B6BF38BD0D2810B5044600
:1069D8009CBF0E34A4B22046FFF7C2FF50B103217A
:1069E8002046FDF79FFF032804D12046BDE810404C
:1069F800FDF7B8BF002010BD38B504460D46FFF7B7
:106A0800AFFFF0B104212046FDF78CFF042805D123
:106A1800A9B22046BDE83840FDF79CBF02212046B8
:106A2800FDF780FF02280CD12046FDF78BFF0128D7
:106A380001D0042805D129462046BDE83840FDF795
:106A480099BF38BD38B50B4D296811F001040FD135
:106A58002846FDF724FB58B121460748FEF70EFDEE
:106A68002846FDF721FB054A0549034800F02CF8A4
:106A7800014838BD18E703201CE70320ACE30320D6
:106A88002D540D0070B50C4C0C4E0D4D00212046B8
:106A9800FFF752F820460B4C3246294600F014F80E
:106AA80001212046FFF748F8324629462046BDE82E
:106AB800704000F009B800BF30E70320ACE30320C2
:106AC800315B0D0040E703200B460146184600F0F5
:106AD8004FB908B5FEF772F9244B1A68D0075CBFA6
:106AE80001221A60224B1A68D1075CBF01221A6082
:106AF800204B1A68D2075CBF01221A601E4B1A6825
:106B0800D0075CBF01221A601C4B1A68D1075CBF12
:106B180001221A601A4B1A68D2075CBF01221A6058
:106B2800184B1A68D0075CBF01221A60164B1A6806
:106B3800D1075CBF01221A60144B1A68D2075CBFE8
:106B480001221A60124B1A68D0075CBF01221A6032
:106B5800104B1A68D1075CBF01221A600E4B1A68E5
:106B6800D2075CBF01221A60704700BF7CE7032090
:106B780078E7032074E7032070E703206CE703201D
:106B880068E7032064E7032060E703205CE703204D
:106B980058E7032054E7032050E70320184B1A68EE
:106BA800D1075CBF01221A60164B1A68D2075CBF76
:106BB80001221A60144B1A68D0075CBF01221A60C0
:106BC800124B1A68D1075CBF01221A60104B1A6871
:106BD800D2075CBF01221A600E4B1A68D0075CBF4F
:106BE80001221A600C4B1A68D1075CBF01221A6097
:106BF8000A4B1A68D2075CBF01221A60704700BFAF
:106C08009CE7032098E7032094E7032090E70320FC
:106C18008CE7032088E7032084E7032080E703202C
:106C2800184B1A68D1075CBF01221A60164B1A6804
:106C3800D2075CBF01221A60144B1A68D0075CBFE8
:106C480001221A60124B1A68D1075CBF01221A6030
:106C5800104B1A68D2075CBF01221A600E4B1A68E3
:106C6800D0075CBF01221A600C4B1A68D1075CBFC1
:106C780001221A600A4B1A68D2075CBF01221A6007
:106C8800704700BFBCE70320B8E70320B4E7032040
:106C9800B0E70320ACE70320A8E70320A4E703201C
:106CA800A0E70320244B1A68D0075CBF01221A60B2
:106CB800224B1A68D1075CBF01221A60204B1A6860
:106CC800D2075CBF01221A601E4B1A68D0075CBF4E
:106CD80001221A601C4B1A68D1075CBF01221A6096
:106CE8001A4B1A68D2075CBF01221A60184B1A683F
:106CF800D0075CBF01221A60164B1A68D1075CBF27
:106D080001221A60144B1A68D2075CBF01221A606C
:106D1800124B1A68D0075CBF01221A60104B1A6820
:106D2800D1075CBF01221A600E4B1A68D2075CBFFC
:106D380001221A60704700BFECE70320E8E7032050
:106D4800E4E70320E0E70320DCE70320D8E703209B
:106D5800D4E70320D0E70320CCE70320C8E70320CB
:106D6800C4E70320C0E703200A22002100F00CB981
:106D780010B5054C13462CB10A4601460220AFF364
:106D8800008010BD204610BD00000000002910B58D
:106D980091FBF2F402FB141304DB002B07DA013435
:106DA8009B1A04E0002BC4BF04F1FF349B18046055
:106DB800436010BD10B5431E0A44914204D011F837
:106DC800014B03F8014FF8E710BD02440346934214
:106DD80002D003F8011BFAE7704710F8012B11F8ED
:106DE800013B012A28BF9A42F7D0D01A70470346C0
:106DF80011F8012B03F8012B002AF9D17047000084
:106E0800024B0146186800F003B800BFA8E303204E
:106E180070B5064608460C4600F00DF8451C294694
:106E28003046FDF7D3FF064618B12A462146FFF73C
:106E3800C1FF304670BD034613F8012B002AFBD171
:106E4800181A01387047F0B5037863B90B78002B2E
:106E580018BF0020F0BD15F8012F62B114F8017FAA
:106E680097423046F7D00346461C007810B14D1EB5
:106E78005C1EF0E7F0BD1846F0BD00002DE9F047B4
:106E880080464048D0F800900F463D4615F8014B23
:106E980009EB0400407800F0080000F0FF0608B194
:106EA8002F46F2E72D2C03D1BD1C7C78012603E088
:106EB8002B2C04BF7C78BD1C13B1102B0AD15BE0CE
:106EC800302C57D1287800F0DF0058284DD16C7845
:106ED80010230235002E14BF4FF0004C6FF0004C09
:106EE8000027BCFBF3FA384603FB1ACC09EB040E67
:106EF8009EF801E01EF0040F01D0303C0BE01EF0BC
:106F0800030E1BD0BEF1010F0CBF4FF0370E4FF030
:106F1800570ECEEB0404A34210DDB7F1FF3F0AD0B1
:106F2800504506D801D1644503DC03FB0040012726
:106F380001E04FF0FF3715F8014BD7E77B1C0CD168
:106F4800002E4FF0220314BF4FF000406FF00040B6
:106F5800C8F800302AB9BDE8F08706B1404272B1DE
:106F680007B1691E1160BDE8F0873024002BB1D14C
:106F78000823AFE70A23ADE7302CA3D0AAE7BDE882
:106F8800F08700BF44E3032013460A46014602483F
:106F98000068FFF773BF00BFA8E303201D400D0082
:106FA80059400D0085400D0089400D00000000008B
:106FB800616C6C4F6666006C656674460072696742
:106FC800687446006C65667452007269676874522A
:106FD8000025732076616C3A202569002C00666FC5
:106FE8006C6C6F77007370696E0073656E7472797C
:106FF800005243204D6F64650044656D6F204D6FEE
:10700800646500737761726D2D6C65616465722DBE
:107018006F6E6C696E6500737761726D2D6D6F644C
:10702800650066772D76657273696F6E0073776990
:107038007463684D6F646500737761726D44656D44
:107048006F0072630064656D6F0076312E32000048
:107058000000000000000000114E0D00174E0D004A
:107068003F4E0D00234E0D00134E0D000000000092
:10707800000000000F540D0005540D00FB530D00D7
:10708800F1530D00E5530D00D9530D00CD530D00FC
:10709800C5530D00BB530D00B1530D0035590D00FC
:1070A80000000000000000002D540D0077540D0072
:1070B8004F540D002F540D0057540D005F540D0010
:1070C80067540D006F540D00000000000000000020
:1070D800BF540D00B1540D00B3540D006C6E006622
:1070E8006E00636F64650064657461696C000D0A05
:1070F80000253031307520005D20002C2000282923
:107108003A2000205B00636F6465203D20006465C1
:107118007461696C73203D20006261756400536579
:107128007269616C0053657269616C3100747970C1
:107138006500706172616D00636D64006964006868
:107148006E64007374726D0066696C74006C766CA2
:107158000061646448616E646C65720072656D6F8D
:10716800766548616E646C657200656E756D486120
:107178006E646C657273004A534F4E537472656146
:107188006D4C6F6748616E646C6572006170700069
:107198006E6F6E6500747261636500696E666F007C
:1071A8007761726E006572726F720070616E6963EA
:1071B80000616C6C0000000000000000000000008E
:1071C8002F560D0025560D001B560D0011560D00AB
:1071D80005560D00F9550D00ED550D00E5550D004E
:1071E800DB550D00D1550D0035590D00666630335D
:1071F8003A3A313A3130303100746831006D657394
:107208006870756200776972696E67007061727381
:1072180065207061636B65742025640000000000C0
:1072280000000000CD580D00D7580D00E1580D00A2
:10723800EB580D00F5580D0001590D000D590D00C2
:1072480019590D0021590D002B590D0035590D0004
:107258000000000000000000315B0D00335B0D00F2
:1072680000000000000000006F5B0D00715B0D0066
:10727800795D0D004B5D0D005A00252B3033643AC3
:10728800253032750025592D256D2D256454254846
:107298003A254D3A2553257A0061736374696D6503
:1072A8000072656365697665642025642062797477
:1072B80065732066726F6D202573232564007365DE
:1072C8006E645061636B65742073697A6520256408
:1072D8002C20257323256400626567696E20706120
:1072E800636B65742025732325640000000000008B
:1072F8000000000089650D00AD650D00B95E0D0048
:10730800E35F0D00B15E0D00CF5E0D00ED5E0D0078
:10731800075F0D002B5F0D00C75F0D0005630D00B3
:1073280069600D00E9610D00995E0D0021650D0091
:107338006D610D00A1600D00E7640D000D600D008A
:10734800A75E0D0049600D00AD5E0D00095F0D00E0
:10735800F0FFFFFF00000000235F0D0000000000A9
:1073680000000000D7650D00FB650D0007660D00E5
:10737800CD590D00E3650D00EF650D00E9650D00C1
:10738800F5650D00D9650D00DD650D0000000000F4
:1073980000000000B1660D00F5660D00CF660D0017
:1073A800CD590D00C9660D00B3660D00BB660D0012
:1073B800EF660D00C3660D00AD660D0000202020AD
:1073C800202020202020282828282820202020208D
:1073D800202020202020202020202020208810105D
:1073E80010101010101010101010101010040404B9
:1073F8000404040404040410101010101010414177
:107408004141414101010101010101010101010164
:107418000101010101010101101010101010424278
:107428004242424202020202020202020202020234
:1074380002020202020202021010101020000000D4
:107448000000000000000000000000000000000034
:107458000000000000000000000000000000000024
:107468000000000000000000000000000000000014
:107478000000000000000000000000000000000004
:1074880000000000000000000000000000000000F4
:1074980000000000000000000000000000000000E4
:1074A80000000000000000000000000000000000D4
:1074B80000000000000000000000000000000000C4
:1074C80000000000000000000000000000000000B4
:1074D80000000000000000000000000000000000A4
:1074E8000000000000000000000000000000000094
:1074F8000000000000000000000000000000000084
:107508000000000000000000000000000000000073
:107518000000000000000000000000000000000063
:107528004300000061480D0099480D0019540D00F2
:10753800C1550D0081580D00B9590D00155B0D009E
:10754800695E0D00855E0D008D6A0D00E16A0D0013
:10755800A56B0D00296C0D00AD6C0D00000000003E
:0875680000000000000000001B
:1075700011000000100000000100000012000000D7
:1075800013000000A1720D00C4730D000000000084
:10759000C8740D00E8740D0008750D0000000000AF
:1075A00000000000000000000000000028750D0031
:1075B00000000000000000000000000000000000CB
:1075C00000000000000000000000000000000000BB
:1075D00000000000000000000000000000000000AB
:1075E00000000000000000000000000048E303204D
:1075F000FFFFFFFF00000102030405060708090A58
:107600000B0C0D0E0F101112131415161718191A52
:087610001B1C1D1E1F20280099
:04761800785634125A
:04000003D0004018D1
:00000001FF
