:02000002D0002C
:1040000000400D00386E0D00000005000E00050197
:0840100004014601000000005C
:10401800F8670D0009480A49884208B505D0094AD9
:10402800824202D0121A02F009FB0748074A00210F
:10403800121A02F00EFB014808BD00BF30E303204E
:10404800906D0D00B0E30320B0E30320F0E70320F8
:1040580070B502F0F3F8074C074BE41AA4080025E2
:104068001E46A54204D056F8253098470135F8E792
:1040780070BD00BF906D0D005C6D0D0000F0A8B81C
:1040880008B500F055F8BDE8084002F0A5B800F002
:10409800AFBB00F0ADBB00F0B3BB00F0B1BB007824
:1040A800B0FA80F040097047012303707047106828
:1040B8007047000013B5054B1B788DF800303C2382
:1040C800044600F043FD204602B010BDB8E30320CB
:1040D80070B580B286B00E46154602F0F4F8336823
:1040E800B0F5176FACBFC82400249C4201D0C82C7F
:1040F80001D0B4B9ABB10A222146346002A801F05C
:10410800F4FA029A0848294601F074F802A801F066
:1041180067FA01F0CDFF00942B46044A012101F013
:10412800EBF906B070BD00BFECE303200C680D008E
:1041380008B50F4B1B68012B19D10E4B0E4A186896
:104148000E49FFF7C5FF0E4B0E4A18680E49FFF7D8
:10415800BFFF0E4B0E4A18680E49FFF7B9FF0E4B0A
:104168000E4A18680E49BDE80840FFF7B1BF08BD00
:1041780038E3032040E3032017680D00B4E303206D
:104188003CE303201D680D00D4E3032034E303203F
:1041980023680D00D0E3032030E303202A680D00D4
:1041A800CCE3032038B5046805467CB16368013B5D
:1041B80063605BB9236820469B689847A368013B06
:1041C800A3601BB923682046DB689847284638BD9A
:1041D80037B501F06DFF4FF4165101F05DFF214B2B
:1041E800214D1888214C002102F05CF8204B002159
:1041F800188802F057F81F4B0021188802F052F86F
:104208001D4B0021188802F04DF82A681B496846A2
:10421800FFF750FF01A8FFF7C5FF2168184B194A9F
:104228006846012918BF1A461749FFF743FF01A836
:10423800FFF7B8FF0823ADF80030144B0193294667
:104248006B460422124800F063FA0023214602223A
:104258000D4800F05DFA0F4A0F49104800F057FB6F
:1042680003B030BD40E30320BCE3032038E3032060
:104278003CE3032030E3032034E3032043680D00CC
:1042880039680D0031680D0057680D00B7400D0002
:1042980062680D006D680D00A9420D00EB480D0025
:1042A80037B5054601F079FA134CA0B913492846E9
:1042B80001F061FA08B1012305E01149284601F02F
:1042C8005AFA08B10223236021680E4B0E4A0129CD
:1042D80018BF1A4605E00B4B0B4A2060012818BF8F
:1042E8001A460A496846FFF7E5FE01A8FFF75AFF94
:1042F800012003B030BD00BF38E3032078680D000B
:104308007B680D0039680D0031680D0057680D0095
:1043180010B5084B084C00221A7000F055F80749F0
:10432800204601F0A4F92046054A0649BDE8104098
:1043380002F022B8B8E30320BCE3032080680D0034
:10434800B0E30320E9550D0008B5024B1B689B68D4
:10435800019308BD4802030008B5024B1B681B699E
:10436800019308BD4802030008B5024B1B685B694E
:10437800019308BD4802030008B5024B1B681B6B7C
:10438800019308BD4802030008B5024B1B685B6C2B
:10439800019308BD4802030008B5024B1B68DB6C9B
:1043A800019308BD4802030008B5024B1B685B6D0A
:1043B800019308BD4802030008B5024B1B685B69FE
:1043C800019308BD1802030008B5024B1B681B685F
:1043D800019308BD2C02030008B5024B1B685B68FB
:1043E800019308BD2C02030008B5024B1B689B68AB
:1043F800019308BD2C02030008B5024B1B681B6B18
:10440800019308BD2C02030008B5024B1B681B6A08
:10441800019308BD2802030008B5024B1B685B6ABC
:10442800019308BD2802030008B5024B1B689B6A6C
:10443800019308BD2802030008B5024B1B68DB6A1C
:10444800019308BD2802030008B5024B1B681B6BCB
:10445800019308BD2802030008B5024B1B685B6B7B
:10446800019308BD2802030008B5024B1B681B6CAA
:10447800019308BD2802030008B5024B1B681B699D
:10448800019308BD6C02030008B5024B1B685B6909
:10449800019308BD6C02030008B5024B1B689B69B9
:1044A800019308BD6C02030008B5024B1B685B6DE5
:1044B800019308BD6C02030008B5024B1B689B6D95
:1044C800019308BD6C02030008B5024B1B685B69C9
:1044D800019308BD6402030008B5024B1B689B6981
:1044E800019308BD6402030008B5024B1B681B6AF0
:1044F800019308BD6402030008B5024B1B685B6AA0
:10450800019308BD6402030008B5024B1B689B6A4F
:10451800019308BD6402030008B5024B1B689B6841
:10452800019308BD6802030008B5024B1B68DB68ED
:10453800019308BD6802030008B5024B1B685B685D
:10454800019308BD3802030008B5024B1B689B693C
:10455800019308BD3802030008B5024B1B68DB69EC
:10456800019308BD3802030008B5024B1B68DB6ADB
:10457800019308BD3802030008B5024B1B685B6B4A
:10458800019308BD3802030008B5024B1B689B6BFA
:10459800019308BD3802030008B5024B1B68DB69AC
:1045A800019308BD3002030008B5024B1B681B6A63
:1045B800019308BD3002030008B5024B1B681B6855
:1045C800019308BD3C02030008B5024B1B68DB6879
:1045D800019308BD3C02030008B5024B1B681B6928
:1045E800019308BD3C02030008B5024B1B685B69D8
:1045F800019308BD3C02030008B5024B1B689B6988
:10460800019308BD3C02030008B5024B1B68DB6937
:10461800019308BD3C02030008B5024B1B681B6AE6
:10462800019308BD3C02030008B5024B1B689B6A56
:10463800019308BD3C02030008B5024B1B681B68C8
:10464800019308BD4C02030008B5024B1B685B6868
:10465800019308BD4C02030008B5024B1B681B6997
:10466800019308BD4C02030008B5024B1B685B6947
:10467800019308BD4C02030008B5024B1B689B69F7
:10468800019308BD4C02030008B5024B1B68DB69A7
:10469800019308BD4C02030008B5024B1B681B6A56
:1046A800019308BD4C02030008B5024B1B681B6D43
:1046B800019308BD6002030008B5024B1B685B68E4
:1046C800019308BD2002030008B5024B1B68DB6C90
:1046D800019308BD2002030008B5024B1B685B6DFF
:1046E800019308BD2002030008B5034B1B68D3F8EB
:1046F8008830019308BD00002002030008B5034B71
:104708001B68D3F89430019308BD00002002030011
:1047180008B5024B1B681B68019308BD44020300DF
:1047280008B5024B1B685B68019308BD440203008F
:1047380008B5024B1B681B6A019308BD44020300BD
:1047480008B5024B1B68DB6B019308BD44020300EC
:1047580008B5024B1B685B68019308BD4002030063
:1047680008B5024B1B689B68019308BD4002030013
:1047780008B5024B1B68DB68019308BD40020300C3
:1047880008B5024B1B681B69019308BD4002030072
:1047980008B5024B1B685B69019308BD4002030022
:1047A80008B5024B1B689B69019308BD40020300D2
:1047B80008B5024B1B68DB69019308BD4002030082
:1047C80008B5024B1B681B6A019308BD4002030031
:1047D80008B5024B1B681B6B019308BD4002030020
:1047E80008B5024B1B685B6B019308BD40020300D0
:1047F80008B5024B1B681B68019308BD1C02030027
:1048080008B5024B1B685B68019308BD1C020300D6
:1048180008B5024B1B689B68019308BD1C02030086
:1048280008B5024B1B685B6A019308BD1C020300B4
:1048380008B5024B1B68DB6A019308BD1C02030024
:1048480008B5024B1B681B6B019308BD1C020300D3
:1048580010B5836804460BB901F093FDC368984707
:10486800A3681BB103222146204698472046BDE88D
:104878001040FFF710BC70470020704710B5044681
:10488800FFF709FC204610BD08B508B1FFF7F6FF91
:1048980008BD10B58368044613B103220146984742
:1048A800204610BD38B5C468D4B12378022B02D194
:1048B800E068FFF7A5FF65682DB12846FFF7E9FF17
:1048C8002846FFF7E8FBA5682DB12846FFF7E1FF6A
:1048D8002846FFF7E0FB2046BDE83840FFF7DBBB82
:1048E80038BD10B588B00446684600F0C0FE694679
:1048F80004A800F0DEFE04A8A047044604A800F0BF
:104908006FFE684600F06CFE204608B010BDF0B59A
:10491800102485B007460E461546002122466846F3
:1049280001F097FE002269461046ADF80040029754
:1049380003960195FFF7F4FE05B0F0BD13B50446E4
:1049480091E8050000234B600B602060626001A8BD
:1049580001930093FFF726FC204602B010BD0B68B8
:10496800036013B15A6801325A607047F7B50C46B4
:1049780002AD54F8043B45F8083D06460F4601A829
:104988002146FFF7ECFF29463046FFF7D7FF01A87D
:10499800FFF708FC2046FFF705FC3846FFF77BFBCE
:1049A800304603B0F0BD13B50B46044603C88DE886
:1049B800030093E8030084E803009DE8030083E80C
:1049C800030002B010BD826810B50AB901F0D9FC25
:1049D800C368BDE81040184708B5006800F1100129
:1049E800FFF7F1FF08BD826810B50AB901F0C9FCEC
:1049F800C368BDE81040184708B5006800F1100109
:104A0800FFF7F1FF08BD38B5002383608B680446C3
:104A18000D462BB102229847EB68E360AB68A360B0
:104A2800204638BD2DE9F0414FF69C7386B00468E6
:104A3800B1F904208B8000230F688DF800300B60DB
:104A48004FF00200D4E84F1F994203D1C4E8450F44
:104A5800002DF7D102D08DF800106AE014F10C0592
:104A68001EBFE76022821F460123BFF35F8F00202D
:104A7800637004F10803BFF35F8F53E8006F43E8E6
:104A88000002002AF9D1BFF35F8F002E51D0FFF743
:104A98001BFE20B129463046FFF795FF43E031461B
:104AA8006846FFF7B0FFE068B4F9105008B101F0AC
:104AB800EBFD04901020ADF81450FFF7E8FA054616
:104AC80030B34FF00008C0F808801820FFF7DFFA6D
:104AD8000446C0B1C0F8088001466846FFF763FF86
:104AE800029BA268A360039B0292E268E360BDF8A0
:104AF8001430A3824FF69C73ADF81430049B0392D4
:104B08002361CDF810800E4BEB600E4B2C60AB6030
:104B18000498FFF775FE6846FFF7BBFE002229469A
:104B28000948FFF7D9FD3046FFF7B3FE3046FFF7D7
:104B3800B2FA3846FFF764FE06B0BDE8F08100BF60
:104B4800E1490D003D4C0D0059480D002DE9F04F8D
:104B58008BB007AD4FF0000B0646994614200C2386
:104B68000F4690469DF850A0C5F804B0C5F808B0A7
:104B78000793FFF78CFA044638B180F800B080F844
:104B880001B0C0F804B0C0F808B0002310200394A6
:104B98000493FFF77CFA28B1012343608360234B19
:104BA8000360C4600490224B08930820FFF76FFA53
:104BB800044628B1039B40F8043B04A9FFF7CFFE45
:104BC80000955FFA8AF34A46414638460994FFF74A
:104BD800AFFDB8B9039B5B7803F0FF0293B94FF6BA
:104BE8009C7305A903A80592ADF81830FFF71AFFC2
:104BF8000598FFF705FE05A80999FFF7B7FE06A86F
:104C0800FFF7D0FA039B059304A906A8FFF7A7FEB0
:104C180005A93046FFF792FE06A8FFF7C3FA04A8D5
:104C2800FFF7C0FA30460BB0BDE8F08F90680D0072
:104C3800A54D0D00022AF8B5044606D0032A17D060
:104C4800012A20D10B6803601DE018200E68FFF7C9
:104C58001EFA054650B13146FFF7D5FE3069B6F960
:104C6800147008B101F010FD2861AF8225600AE0D8
:104C7800046844B12069FFF7C3FD2046FFF709FE29
:104C88002046FFF708FA0020F8BD38B500238360F6
:104C98008B6804460D462BB102229847EB68E36007
:104CA800AB68A360204638BD022A70B5044606D01A
:104CB800032A11D0012A17D10B68036014E01420CD
:104CC8000E68FFF7E4F9054620B13146FFF7DDFF2E
:104CD800337C2B74256007E004682CB12046FFF76D
:104CE800D8FD2046FFF7D7F9002070BDF0B50023A6
:104CF80087B00C46BFF35F8F50E8006F40E8003282
:104D0800002AF9D1BFF35F8F002E3ED01846FFF777
:104D1800DBFC074620B121463046FFF764FE2EE053
:104D2800314601A8FFF7B1FF23788DF81430102021
:104D3800FFF7ADF90546D0B187601420FFF7A7F952
:104D4800044678B18760014601A8FFF72CFE039B53
:104D5800A268A360049B0392E268E3609DF81430A4
:104D6800049223740A4BEB600A4B2C60AB6001A8D9
:104D7800FFF78FFD002229460748FFF7ADFC3046B4
:104D8800FFF787FD3046FFF786F907B0F0BD00BF93
:104D9800014A0D00B14C0D0059480D0030B585B0E1
:104DA80004460D4668461146FFF7E0FD7CB124B283
:104DB80028460DB101F068FC029002A96846ADF8DA
:104DC8000C40FFF72FFE0298FFF71AFD1DE0009830
:104DD8008DF808404FF00102D0E84F3FA34203D1BD
:104DE800C0E8412F0029F7D102D08DF808300CE037
:104DF80010F10C014FF0010318BF0373BFF35F8F6D
:104E0800043000F8033CFFF771FF01A8FFF7CAF967
:104E180005B030BD002211464068FFF7D1BC002222
:104E280011464068FFF7DCBC00224068FFF7D0BCA1
:104E3800002281F001014068FFF7BABC00231A463E
:104E480019464068FFF7ACBC00231A46194640686B
:104E5800FFF79EBC002211464068FFF791BC002274
:104E680011464068FFF77CBC002202214068FFF72A
:104E78007FBC00231A464068FFF76ABC024B032236
:104E88005A60024A1A607047D8E30320AC680D00E4
:104E98007047F8B5064615460C468F18BC4206D032
:104EA800336814F8011B9B6830469847F6E7284694
:104EB800F8BD0022007CFFF7A7BA0021007CFFF7AD
:104EC800ABBA0021007CFFF7AFBA0021007CFFF7E6
:104ED800B3BA0021007CFFF7B7BA10B50446FFF754
:104EE800DAF8204610BD000010B504464FF47A7376
:104EF8000846A3600021044B207461602360FFF71B
:104F0800B3FA204610BD00BFE0680D000021007C08
:104F1800FFF7A2BA704710B50446FFF7BCF8204661
:104F280010BDF0B5037D062B8DB00E4600F10407C9
:104F38004FF0000402D000F1080518E00CAD394626
:104F480005F8304D2F232A460A20FFF7BDFA2846D8
:104F580001F0B5FB33680246DB68294630469847BE
:104F68000FE024B12E21304600F088FA044415F8E9
:104F7800011D0A22304600F0BDFABD420444F0D1BA
:104F880020460DB0F0BD000010B5054B04461122B7
:104F980040F8043B002101F05CFB204610BD00BF37
:104FA80008690D000346074A10B543F8042B01F1C0
:104FB800100251F8044B43F8044B9142F9D10A7896
:104FC8001A7010BD08690D00037D042B01D14068DB
:104FD80008E0062B0AD1436853B1836843B1C3681C
:104FE80033B10069003018BF0120704700207047B6
:104FF8001846704710B59DF8084044EA032343EA71
:10500800024242EA016104234160037510BD37B5CD
:105018000D788B784A78C97800912946FFF7EAFF1E
:1050280003B030BD014B024A1A607047E0E3032029
:10503800C6690D00002211464068FFF7C1BB002277
:1050480011464068FFF7CCBB00224068FFF7C0BBA1
:10505800002281F001014068FFF7AABB00231A462D
:1050680019464068FFF79CBB00231A46194640685A
:10507800FFF78EBB002211464068FFF781BB002274
:1050880011464068FFF76CBB002202214068FFF719
:105098006FBB00231A464068FFF75ABB10B103687C
:1050A8005B681847704738B504460068D0B1FFF709
:1050B8004BF9B8B9237C1BB9206808B1FFF74CF944
:1050C800656855B1AB681BB1032229462846984745
:1050D8002846FEF7E0FF002363602068FFF744F9E5
:1050E8000023236038BD000038B50B4B036004462D
:1050F800D0F8CC0108B1FEF7D0FFD4F8C4512DB1D7
:105108002846FFF7D0FF2846FEF7C5FFA06808B17C
:10511800FFF7C4FF204638BDF8690D000068FFF7A7
:105128003BB9000030B58DB004461122002101A81A
:1051380001F08FFA062301AA09498DF814300A20D4
:10514800FFF7CAF907AD01A906A8FFF72BFF0FCD96
:1051580004340FC42B68237000200DB030BD00BF8D
:10516800246A0D0030B5044689B000F5E070FFF7F9
:10517800D5FF236883BB4C20FEF789FF054608B19D
:1051880000F020FE2068256008B1FFF787FF20683F
:1051980020B300224FF49A6100F043FE08A90025CD
:1051A80001F8195D1148FFF767F920689DF8072095
:1051B800036849F269011B6A984702A8FFF7E4FEF1
:1051C80002A8FFF7AFFF002804DB02A9206800F05F
:1051D800AEFE04E0054602E0002500E0044DD4F8E8
:1051E800C001FFF7E1F8284609B030BD316A0D006B
:1051F800FCFEFFFF2DE9F04705468CB016460F462A
:1052080009B10B780BB9354C64E0084601F057FA40
:105218008046002E5CD0304601F051FA441C08F15B
:1052280002032344B3F59A6F4FD805F5E070FFF7F2
:1052380075FF2846FFF796FF002840DB6846FFF712
:10524800A3FE6846FFF76EFF002838DBD5F800A0FC
:10525800DAF800300DF1040CD3F83890204B06939F
:10526800BCE80F000DF11C0EAEE80F00DCF80030B2
:105278008EF8003049F2690206A95046C84700284E
:105288001DDB002328688DF8183003680122DB68CD
:1052980006A998472868036808F10102DB683946BF
:1052A80098472CB1286803682246DB68314698473E
:1052B800286803681B6C984700EAE07400E004461D
:1052C800D5F8C001FFF770F804E06FF0BD0401E005
:1052D8003446A4E720460CB0BDE8F087F2FEFFFF95
:1052E80008690D0038B50D4C0D4B236000250223CD
:1052F80004F5E4706360A560C4F8C451C4F8C851EB
:10530800FFF742F8074BC4F8CC5123602046064A01
:105318000649BDE8384001F02FB800BFE4E3032098
:105328005C6A0D00F8690D00B0E30320F1500D0030
:1053380000231A464068FFF70BBA00220221406892
:10534800FFF716BA002211464068FFF709BA002293
:1053580011464068FFF714BA00231A4619464068F8
:10536800FFF716BA00231A4619464068FFF718BA1D
:10537800002281F001014068FFF71ABA0022406854
:10538800FFF726BA002211464068FFF729BA002223
:1053980011464068FFF714BA70B58CB0144606463B
:1053A800FFF7F2FD0CAB0022114643F8302D2046E2
:1053B800FFF7BAF8014658BB009B4BB35A68022A5C
:1053C8000ED00A2A24D15C69112201A801F041F902
:1053D80006238DF8143001AD04F10803183405E0F4
:1053E800596930460431FFF712FE11E01868596810
:1053F8002A4603C20833A3421546F7D101A906A8D5
:1054080007ADFFF7CFFD0FCD341D0FC42B682370F8
:105418000098FFF781F830460CB070BD024B034A84
:105428001A6000225A607047B4E503205C6A0D00D8
:10543800F8B506460D468F180024BD420CD03368D7
:1054480015F8011B9B6830469847002801DB044487
:10545800F3E7002C08BF04462046F8BD70B50546A2
:105468000C46084649B101F02AF92B680246214644
:105478002846DB68BDE87040184770BD03689B6824
:10548800184738B50D210546FFF7F8FF0A210446ED
:105498002846FFF7F3FF204438BD30B58BB00B46E4
:1054A80000218DF82410012A98BF0A220DF1230447
:1054B800B3FBF2F505FB123303F0FF03092B94BF8E
:1054C80030333733DBB2214604F801392B46002D3F
:1054D800EED1FFF7C3FF0BB030BD10B42AB9036893
:1054E8005DF8044B9B68C9B21847D2B25DF8044B0B
:1054F800FFF7D3BFFFF7F1BF0CB42DE9F04387B036
:1055080000AF07F13804054654F8049B3C600E468A
:1055180023464A461421381DFFF782F9132805D877
:10552800391D2846FFF79AFF044613E000F10803E7
:1055380023F00703E846ADEB030D411C23464A461A
:1055480068463C60FFF76CF969462846FFF786FF16
:105558000446C5461EB12846FFF793FF044420467B
:105568001C37BD46BDE8F04302B0704710B504468D
:10557800FFF78FF9204610BD0348044A0449002369
:10558800836000F0F9BE00BFBCE50320B0E3032050
:1055980075550D00704710B50446FEF77CFD204692
:1055A80010BD000070B5084B0360044600250E4688
:1055B80040F80C5FFEF7E0FE30462671FEF7ECFF80
:1055C800A560204670BD00BF906A0D000079FEF707
:1055D800EBBF704710B50446FEF75DFD204610BDD1
:1055E80010B504460068FFF70BF9204610BD10B54A
:1055F8000446006808B1FFF703F900232360A3609D
:10560800636010BD38B504460D4600680131FFF7E8
:10561800FFF810B184E82100012038BD10B50368F7
:10562800044613B143688B4207D22046FFF7EAFFCE
:1056380020B1A3680BB922681370012010BD70B5A2
:105648000E46114604461546FFF7E8FF18B92046EE
:10565800FFF7CDFF09E02A463146A560206800F033
:10566800EDFF2268A3680021D154204670BD38B5EB
:105678000023044603604360836003730D4639B119
:10568800084601F01CF8294602462046FFF7D7FFD6
:10569800204638BD884210B50B46044607D0096835
:1056A80019B19A68FFF7CBFF01E0FFF7A0FF20468A
:1056B80010BD10B500230446036043608360037384
:1056C800FFF7E8FF204610BD38B505460C4641B146
:1056D800084600F0F4FF214602462846FFF7AFFFD0
:1056E80001E0FFF784FF284638BD10B504460023C3
:1056F8008AB023606360A3602373084601A900F0A1
:1057080036FD01A92046FFF7DFFF20460AB010BD8D
:1057180070B504460E4609B9002070BD6AB18368A9
:10572800D5182946FFF77AFF0028F5D02068A36826
:105738003146184400F09FFFA560012070BD38B5C0
:10574800044680688568FFF7E3FFA3689868401BF4
:1057580038BD07B500238DF80410012201A98DF882
:105768000530FFF7D5FF03B05DF804FB08B5806886
:10577800FFF7EFFF08BD08B582680B4612B919B9E3
:10578800012008BD11B90368187802E0006800F02C
:1057980068FFB0FA80F0400908BD006808B100F061
:1057A8003BBF704730B585B000230D4602930360B8
:1057B8004360836003731421064B019304460390EE
:1057C800FFF72CFF2B6801A91B682846984720463D
:1057D80005B030BDA06A0D00054B4FF69C72002045
:1057E8005A804FF6FF7218709A80FEF765BF00BFA7
:1057F800CCE50320024B1A68024B1A60704700BFC1
:1058080044E30320D4E5032010B40468246BA446C1
:105818005DF8044B604703689B6C1847808E70479F
:10582800028FC08E101A704713B502AB026803F8D6
:10583800011DD46819460122A04702B010BD10B559
:1058480003681B690446984728B1E38EE26B591C2C
:10585800E186D05C10BD4FF0FF3010BD10B5036875
:105868001B690446984718B1E38EE26BD05C10BD03
:105878004FF0FF3010BD704710B403460846DC6B8C
:10588800D98E1A8F0368521ADB6821445DF8044BDD
:105898001847A0F11000FFF7EFBFF0B503688DB00F
:1058A8001C265B6A04460F46154698470123324674
:1058B800002105A8029300F0CCFE8DF8146038464C
:1058C8000A268DF81560FEF71FFE1122ADF81600A6
:1058D80002213046FEF758FE0028606124DB0422CE
:1058E800009202AB40F6FF71FEF72EFEE0B995B1CB
:1058F8000390ADF8100003A9E8B2FEF7C5FD98B90A
:105908000623009341F20B0203AB40F6FF71606976
:10591800FEF71AFE40B91C2205A96069FEF70CFEC5
:1059280010B96564012004E0236820465B6A984743
:1059380000200DB0F0BD10B504464069002801DB19
:10594800FEF70AFE4FF0FF3363610023E3862387E7
:1059580010BD38B5C36B0546C08E13B12C6C241A24
:1059680000E01C46944228BF14462246184400F022
:1059780065FEEB8E2344EB86204638BD70B5036880
:105988001B6904460E461546984788B12368204689
:105998001B699847E38EE16B8542A8BF0546194409
:1059A8002A46304600F04AFEE38E2B44E38601E0A7
:1059B8004FF0FF35284670BD70B50446054B44F8D6
:1059C800043B01F1200506460FCD0FC42B68237058
:1059D800304670BD08690D00F0B59446026889B07C
:1059E800976A0A4A02921D1D8E4606460FCD03ACE1
:1059F8000FC42B682370BDF838300093624602ABA1
:105A080071463046B84709B0F0BD00BF08690D00BF
:105A1800F0B50368B0F836E09F6A0D4B89B000F125
:105A28002006044602930FCE03AD0FC533682B70D2
:105A3800A38E0093724602ABE16B2046B8472368F9
:105A48000546DB6920469847284609B0F0BD00BFE7
:105A580008690D00F0B54378022B8DB005460C4659
:105A6800174601D1011D33E00A2B35D1112200213F
:105A780001A800F0EEFDAB6843B9EB6833B94FF607
:105A8800FF702E69FEF730FD86421FD005F108032E
:105A980001AE05F1180E18685968324603C208337A
:105AA80073451646F7D1062301A906A807AE8DF857
:105AB8001430FFF777FA0FCE04340FC4336823701D
:105AC80057B16888FEF718FD388005E005F1140124
:105AD8002046FFF79CFAF3E70DB0F0BD2DE9F04141
:105AE8008EB00EAB002506461746084643F8345DCF
:105AF8002A462946FEF718FD00281FDB019BFBB14B
:105B08005B69EBB102A8FFF73FFA019B2A46586987
:105B180002A9FFF79FFF02A8FFF756FA80B1336882
:105B280003ADD3F838800B4B08930FCD09AC0FC4E5
:105B38002B6823703A4608A93046C047044601E05E
:105B48004FF0FF340198FEF7E7FC20460EB0BDE8A1
:105B5800F08100BF08690D002DE9F047D0F81480E6
:105B6800B8F1000F98B005460C461746994600DB79
:105B780011B94FF0FF304EE04FF01C0A09AE524603
:105B88000021304600F065FDCDF810A0B9F1000FF6
:105B980014D04FF47A72B9FBF2F1109102FB119113
:105BA8004A4308231192009341F2060210AB40F6D3
:105BB800FF714046FEF7C8FC08B12CE0082004AB92
:105BC80001932146034600963A466869FEF7CCFCE5
:105BD800041E1FDB05F11C0705F134023046394667
:105BE800FFF738FF00262023394605A810931196A1
:105BF800FFF7D8FDAB8E0393059B0293074B0093E9
:105C080001200194334610AA0549FEF74DFD05A869
:105C1800FFF7E6FC204618B0BDE8F087D96A0D000A
:105C28003D6A0D0038B5054614462B7D062B0846FF
:105C380011D11C2313700A235370FEF765FC083436
:105C480024F8060C2B1D143553F8042B44F8042BA8
:105C5800AB42F9D138BD042B0AD1102313700223AB
:105C68005370FEF751FC60806868FEF73DFC606089
:105C780038BD00002DE9F04F984691B0202300244C
:105C880082468B4604A841461646BDF8689008939C
:105C98000994FFF787FD049B029308AD154B16493D
:105CA80000932A4623460120CDF80C900196FEF772
:105CB800FBFC1C2704A8FFF793FC3A46214628461C
:105CC80000F0C7FC2A4649464046FFF7ABFF9DF85F
:105CD80021304BB18DE8A000234632465946DAF808
:105CE8001400FEF749FC01E04FF0FF3011B0BDE8A9
:105CF800F08F00BFF66A0D003D6A0D00F0B591B057
:105D08000C4606460021154609A81C221F4600F02D
:105D1800A0FC09AA00212046FFF784FF9DF8253042
:105D2800022B2ED1002305930A9B0493DDB102A90F
:105D38002846FEF7B1FBB0B910A941F8340D029816
:105D4800FEF7B2FB60B9039B53B1DA681268517869
:105D5800022903D152680AB1059201E01B68F3E7F2
:105D68000398FEF7A9FB002F4FF00803009318BF14
:105D7800032204AB08BF042200213046FEF7E4FBEF
:105D88001EE00A2B1AD104AC14220021204600F090
:105D980060FC0BAB0FCB002F84E80F004FF014030F
:105DA800009318BF0C22234608BF0D222921304634
:105DB8000895FEF7C9FB00EAE07001E04FF0FF30FC
:105DC80011B0F0BD38B54FF47A7383600B4B03F113
:105DD80008026C33002503614FF0FF330446456029
:105DE800026043611C30FFF7CFF84FF40073E5867B
:105DF8002587E56323646564204638BD246B0D0060
:105E080010B590F8483004461BB1C06B08B1FEF7D6
:105E180042F90023E36384F848302364E386238748
:105E280010BD70B5044616460D46FFF7E9FF00237E
:105E3800E66323643EB935B12846FEF72AF9012303
:105E4800E06384F84830E36B03B12564206C0030CC
:105E580018BF012070BD70B5C26B04461AB9016C39
:105E680009B1FFF7DEFFE16B0023E386238741B129
:105E7800226C32B12068056B2046A8470028C8BFAD
:105E88002087236820461B69BDE87040184700003A
:105E9800F0B591B020230546002604A817460C4605
:105EA80008930996FFF77EFC049B0193104B00931F
:105EB80008AA33460F4902970120FEF7F5FB04A80C
:105EC800FFF78EFBEA6B22B9296C11B12846FFF760
:105ED800A8FF04340FCC05F120060FC623683370E1
:105EE800286CAF860023EB862B8711B0F0BD00BF6E
:105EF800106B0D003D6A0D0010B5074B03F1080249
:105F08006C33044602600361FFF715FD2046FFF776
:105F180077FF204610BD00BF246B0D0010B5044666
:105F2800FFF7EAFF2046FEF7B6F8204610BD024606
:105F38004069002804DB012392F84420FFF7DEBE05
:105F48004FF0FF307047704741747047007CFEF790
:105F58006BBB007CFEF740BB007CFEF74DBB007CB2
:105F6800FEF742BB007CFEF74FBB10B50446FEF7B8
:105F780092F8204610BD70B5457C04460E4625B9FA
:105F8800007CFEF751FB002805DD3146207CBDE88A
:105F98007040FEF719BB284670BD000010B50446D6
:105FA80008461146002262604FF47A72A260054AE0
:105FB80022600122207462741A46FEF7FDFA204618
:105FC80010BD00BF9C6B0D00007CFEF725BB0000D8
:105FD80038B50C4D296811F0010411D12846FEF797
:105FE8005EF868B1084A094B09482146FFF7D6FF11
:105FF8002846FEF759F8074A0749054800F0BCF952
:10600800034838BD70E6032074E60320ECE503205E
:10601800D8E50320B0E303204F5F0D0041747047BB
:1060280070470021007CFEF727BB0121007CFEF7AA
:1060380023BB007CFEF718BB007CFEF70DBB38B510
:106048000446007C0D46FEF70FFB002801DC607C4F
:1060580020B12946207CFEF717FB012038BD007CC3
:10606800FEF71ABB10B50446FEF715F8204610BD1A
:1060780010B50446002363604FF47A73A360054BA0
:10608800236001230846217463741146FEF7D4FA8D
:10609800204610BDCC6B0D000022007CFEF7D4BA60
:1060A80010B514220446002100F0D3FA204610BD92
:1060B80030B50E4D87B001A8FFF7F2FF296811F03F
:1060C800010410D12846FDF7EAFF60B101AA214674
:1060D8000748FFF7CDFF2846FDF7E6FF054A0649C2
:1060E800034800F049F9024807B030BDF8E603203C
:1060F800FCE60320B0E3032029600D0010B5044638
:1061080000F0DDFA013823182046984206D20278BA
:10611800197800F8011B03F80129F6E710BD70B5DE
:106128000C46911E222920D82546294610B9234419
:1061380030220EE0B0FBF2F602FB1600C1B205F801
:10614800011B092894BF3031573105F8011C30462E
:10615800EBE7994202D201F8012BFAE70023204627
:106168000B70FFF7CBFF204670BD002070BD38B51F
:10617800031E0C4615460BDAB3F1004F4FF02D0203
:1061880014BF5842184601230A702A46194400E0F1
:106198000123FFF7C4FF204638BD000008B50C4BAB
:1061A80033B1FFF785FF03681B699847002809DCAE
:1061B800084B63B1FFF70CFF03681B699847002879
:1061C80003DC08BDAFF30080F2E7AFF3008008BD41
:1061D800000000000000000008B5FFF7DFFFFEF731
:1061E800EBF8014B186008BD14E7032007B500233E
:1061F80000931A466FF07701FEF780FA03B05DF856
:1062080004FB000007B543880A2B08D0502B09D19E
:10621800094B1B683BB103B05DF804EB1847FFF767
:10622800E5FF06E0002300931A466FF07701FEF7BA
:1062380065FA03B05DF804FB10E7032008B50021F8
:106248000448FEF77DFA00210348BDE80840FEF740
:106258004BBA00BF000000000D620D0010B50446E7
:106268000F48FFF7B3F928B1A4F10B03022B01D8AB
:10627800002010BD00F03EF8FEF748FE08B1012CE2
:10628800F6D9FFF7A5FEFFF79FFE18B1A4F10903A1
:10629800012BEDD91E2C8CBF0020012010BD00BFA2
:1062A80030E703201E2838B504460D460AD8FF29D2
:1062B80008D0FFF7D3FF28B129462046BDE838406B
:1062C800FEF792B838BD0D2810B504469CBF0E34B1
:1062D800A4B22046FFF7C2FF50B103212046FEF7C3
:1062E8007BF8032804D12046BDE81040FEF784B8A7
:1062F800002010BD38B50B4D296811F001040FD1ED
:106308002846FDF7CCFE58B121460748FEF7ECFDBC
:106318002846FDF7C9FE054A0549034800F02CF850
:10632800014838BD18E703201CE70320B0E3032029
:10633800994E0D0070B50C4C0C4E0D4D00212046A9
:10634800FFF730F920460B4C3246294600F014F886
:1063580001212046FFF726F9324629462046BDE8A6
:10636800704000F009B800BF30E70320B0E3032015
:106378009D550D0040E703200B460146184600F0E6
:106388004FB908B5FEF754FA244B1A68D0075CBF1A
:1063980001221A60224B1A68D1075CBF01221A60D9
:1063A800204B1A68D2075CBF01221A601E4B1A687C
:1063B800D0075CBF01221A601C4B1A68D1075CBF6A
:1063C80001221A601A4B1A68D2075CBF01221A60B0
:1063D800184B1A68D0075CBF01221A60164B1A685E
:1063E800D1075CBF01221A60144B1A68D2075CBF40
:1063F80001221A60124B1A68D0075CBF01221A608A
:10640800104B1A68D1075CBF01221A600E4B1A683C
:10641800D2075CBF01221A60704700BF7CE70320E7
:1064280078E7032074E7032070E703206CE7032074
:1064380068E7032064E7032060E703205CE70320A4
:1064480058E7032054E7032050E70320184B1A6845
:10645800D1075CBF01221A60164B1A68D2075CBFCD
:1064680001221A60144B1A68D0075CBF01221A6017
:10647800124B1A68D1075CBF01221A60104B1A68C8
:10648800D2075CBF01221A600E4B1A68D0075CBFA6
:1064980001221A600C4B1A68D1075CBF01221A60EE
:1064A8000A4B1A68D2075CBF01221A60704700BF06
:1064B8009CE7032098E7032094E7032090E7032054
:1064C8008CE7032088E7032084E7032080E7032084
:1064D800184B1A68D1075CBF01221A60164B1A685C
:1064E800D2075CBF01221A60144B1A68D0075CBF40
:1064F80001221A60124B1A68D1075CBF01221A6088
:10650800104B1A68D2075CBF01221A600E4B1A683A
:10651800D0075CBF01221A600C4B1A68D1075CBF18
:1065280001221A600A4B1A68D2075CBF01221A605E
:10653800704700BFBCE70320B8E70320B4E7032097
:10654800B0E70320ACE70320A8E70320A4E7032073
:10655800A0E70320244B1A68D0075CBF01221A6009
:10656800224B1A68D1075CBF01221A60204B1A68B7
:10657800D2075CBF01221A601E4B1A68D0075CBFA5
:1065880001221A601C4B1A68D1075CBF01221A60ED
:106598001A4B1A68D2075CBF01221A60184B1A6896
:1065A800D0075CBF01221A60164B1A68D1075CBF7E
:1065B80001221A60144B1A68D2075CBF01221A60C4
:1065C800124B1A68D0075CBF01221A60104B1A6878
:1065D800D1075CBF01221A600E4B1A68D2075CBF54
:1065E80001221A60704700BFECE70320E8E70320A8
:1065F800E4E70320E0E70320DCE70320D8E70320F3
:10660800D4E70320D0E70320CCE70320C8E7032022
:10661800C4E70320C0E703200A22002100F0DEB807
:1066280010B5054C13462CB10A4601460220AFF3BB
:10663800008010BD204610BD0000000010B5431EAC
:106648000A44914204D011F8014B03F8014FF8E7CE
:1066580010BD02440346934202D003F8011BFAE737
:10666800704710F8012B11F8013B012A28BF9A4204
:10667800F7D0D01A7047034611F8012B03F8012B05
:10668800002AF9D170470000024B0146186800F053
:1066980003B800BFACE3032070B5064608460C46B5
:1066A80000F00DF8451C29463046FEF7C9F80646A5
:1066B80018B12A462146FFF7C1FF304670BD034690
:1066C80013F8012B002AFBD1181A01387047000073
:1066D8002DE9F04780464048D0F800900F463D46E7
:1066E80015F8014B09EB0400407800F0080000F0B1
:1066F800FF0608B12F46F2E72D2C03D1BD1C7C788C
:10670800012603E02B2C04BF7C78BD1C13B1102B91
:106718000AD15BE0302C57D1287800F0DF005828E8
:106728004DD16C7810230235002E14BF4FF0004C69
:106738006FF0004C0027BCFBF3FA384603FB1ACC79
:1067480009EB040E9EF801E01EF0040F01D0303C66
:106758000BE01EF0030E1BD0BEF1010F0CBF4FF073
:10676800370E4FF0570ECEEB0404A34210DDB7F1FD
:10677800FF3F0AD0504506D801D1644503DC03FB2E
:106788000040012701E04FF0FF3715F8014BD7E72C
:106798007B1C0CD1002E4FF0220314BF4FF0004099
:1067A8006FF00040C8F800302AB9BDE8F08706B19C
:1067B800404272B107B1691E1160BDE8F08730240C
:1067C800002BB1D10823AFE70A23ADE7302CA3D0C3
:1067D800AAE7BDE8F08700BF48E3032013460A464E
:1067E800014602480068FFF773BF00BFACE303200F
:1067F8001D400D0059400D0085400D0089400D00D9
:106808000000000025732076616C3A202569006C31
:1068180065667452006C65667446007269676874D0
:106828005200726967687446005243204D6F646570
:106838000044656D6F204D6F646500737761726DFC
:106848002D6C65616465722D6F6E6C696E65007381
:106858007761726D2D6D6F64650066772D76657250
:1068680073696F6E007377697463684D6F64650050
:1068780072630064656D6F0076312E310000000090
:1068880000000000000000007F480D0085480D0052
:10689800AD480D0091480D0081480D000000000032
:1068A800000000007B4E0D00714E0D00674E0D007C
:1068B8005D4E0D00514E0D00454E0D00394E0D0038
:1068C800314E0D00274E0D001D4E0D00A1530D0039
:1068D8000000000000000000994E0D00E34E0D007E
:1068E800BB4E0D009B4E0D00C34E0D00CB4E0D0050
:1068F800D34E0D00DB4E0D0000000000000000002C
:106908002B4F0D001D4F0D001F4F0D0066006C6EC4
:1069180000666E00636F64650064657461696C008D
:106928000D0A00253031307520005D20002C200034
:1069380028293A2000205B00636F6465203D200011
:1069480064657461696C73203D2000626175640040
:1069580053657269616C0053657269616C310074CA
:1069680079706500706172616D00636D64006964BF
:1069780000686E64007374726D0066696C74006CF4
:10698800766C0061646448616E646C65720072655F
:106998006D6F766548616E646C657200656E756DC5
:1069A80048616E646C657273004A534F4E5374723B
:1069B80065616D4C6F6748616E646C6572006170EB
:1069C80070006E6F6E6500747261636500696E6653
:1069D8006F007761726E006572726F720070616E1F
:1069E800696300616C6C000000000000000000009A
:1069F8009B500D0091500D0087500D007D500D00EB
:106A080071500D0065500D0059500D0051500D008A
:106A180047500D003D500D00A1530D006666303300
:106A28003A3A313A3130303100746831006D65736B
:106A38006870756200776972696E67007061727359
:106A480065207061636B6574202564000000000098
:106A58000000000039530D0043530D004D530D0045
:106A680057530D0061530D006D530D0079530D0000
:106A780085530D008D530D0097530D00A1530D0044
:106A880000000000000000009D550D009F550D00FE
:106A98000000000000000000DB550D00DD550D0072
:106AA80075570D0047570D005A00252B3033643AAF
:106AB800253032750025592D256D2D25645425481E
:106AC8003A254D3A2553257A0061736374696D65DB
:106AD800007265636569766564202564206279744F
:106AE80065732066726F6D202573232564007365B6
:106AF8006E645061636B65742073697A65202564E0
:106B08002C20257323256400626567696E207061F7
:106B1800636B657420257323256400000000000062
:106B280000000000015F0D00255F0D0031580D00C9
:106B38005B590D0029580D0047580D0065580D0088
:106B48007F580D00A3580D003F590D007D5C0D00C6
:106B5800E1590D00615B0D0011580D00995E0D00A3
:106B6800E55A0D00195A0D005F5E0D0085590D009C
:106B78001F580D00C1590D0025580D0081580D00F2
:106B8800F0FFFFFF000000009B580D000000000010
:106B9800000000004F5F0D00735F0D007F5F0D0068
:106BA80039540D005B5F0D00675F0D00615F0D00DC
:106BB8006D5F0D00515F0D00555F0D000000000076
:106BC8000000000029600D006D600D0047600D0099
:106BD80039540D0041600D002B600D0033600D002D
:106BE80067600D003B600D0025600D00002020202F
:106BF8002020202020202828282828202020202065
:106C08002020202020202020202020202088101034
:106C18001010101010101010101010101004040490
:106C2800040404040404041010101010101041414E
:106C3800414141410101010101010101010101013C
:106C48000101010101010101101010101010424250
:106C5800424242420202020202020202020202020C
:106C680002020202020202021010101020000000AC
:106C7800000000000000000000000000000000000C
:106C880000000000000000000000000000000000FC
:106C980000000000000000000000000000000000EC
:106CA80000000000000000000000000000000000DC
:106CB80000000000000000000000000000000000CC
:106CC80000000000000000000000000000000000BC
:106CD80000000000000000000000000000000000AC
:106CE800000000000000000000000000000000009C
:106CF800000000000000000000000000000000008C
:106D0800000000000000000000000000000000007B
:106D1800000000000000000000000000000000006B
:106D2800000000000000000000000000000000005B
:106D3800000000000000000000000000000000004B
:106D4800000000000000000000000000000000003B
:106D58004300000019430D00854E0D002D500D0015
:106D6800ED520D0025540D0081550D00E1570D0021
:106D7800FD570D003D630D0091630D0055640D0036
:086D8800D9640D005D650D00EA
:106D900011000000100000000100000012000000BF
:106DA00013000000D16A0D00F46B0D00000000001C
:106DB000F86C0D00186D0D00386D0D00000000001E
:106DC000000000000000000000000000586D0D00F1
:106DD00000000000000000000000000000000000B3
:106DE00000000000000000000000000000000000A3
:106DF0000000000000000000000000000000000093
:106E00000000000000000000000000004CE3032030
:106E1000FFFFFFFF00000102030405060708090A3F
:106E20000B0C0D0E0F101112131415161718191A3A
:086E30001B1C1D1E1F20280081
:046E38007856341242
:04000003D0004018D1
:00000001FF
