:02000002D0002C
:1040000000400D00406A0D00000005000E00050193
:0840100004014601000000005C
:1040180034650D0009480A49884208B505D0094A9F
:10402800824202D0121A02F041FA0748074A0021D8
:10403800121A02F046FA014808BD00BF38E303200F
:10404800A0690D00B0E30320B0E30320F0E70320EC
:1040580070B502F01BF8074C074BE41AA4080025BA
:104068001E46A54204D056F8253098470135F8E792
:1040780070BD00BF98690D0064690D0000F01AB8A2
:1040880008B500F097F8BDE8084001F0CDBF00F092
:104098002DBB00F02BBB00F031BB00F02FBB00782C
:1040A800B0FA80F040097047012303707047106828
:1040B800704700001FB501F033FF4FF4165101F0AF
:1040C80023FF1F4B0021188802F014F81D4B002114
:1040D800188802F00FF81C4B0021188802F00AF823
:1040E8001A4B0021188802F005F8194B19491A686B
:1040F800194B1B788DF8003002A83C2300F08EFC89
:10410800039C7CB16368013B63605BB9236820460C
:104118009B689847A368013BA3601BB923682046A6
:10412800DB6898470823ADF808300C4B039304224A
:1041380002AB07490A4800F071FA04B010BD00BF8D
:1041480044E3032040E3032038E303203CE3032057
:10415800BCE3032048650D00B8E30320B7400D0019
:104168005C650D0070B580B20E4686B0154601F04C
:10417800D2FF33689842044615D0014630600A22BF
:1041880002A801F000FA029A0848294600F09AFFAE
:1041980002A801F08DF901F0C3FE00942B46044AF1
:1041A800012101F011F906B070BD00BFECE3032056
:1041B80067650D0008B50D4B0D4A18680D49FFF7E6
:1041C800D1FF0D4B0D4A18680D49FFF7CBFF0D4B7A
:1041D8000D4A18680D49FFF7C5FF0D4B0D4A1868C1
:1041E8000D49BDE80840FFF7BDBF00BF44E3032009
:1041F80072650D00B4E3032040E3032078650D00E9
:10420800D0E303203CE303207E650D00CCE30320CC
:1042180038E3032085650D00D4E3032010B5084B6F
:10422800084C00221A7000F055F80749204601F0A2
:1042380086F92046054A0649BDE8104001F0C4BF8A
:10424800B8E30320BCE303208C650D00B0E3032032
:10425800B9540D0008B5024B1B689B68019308BD53
:104268004802030008B5024B1B681B69019308BD8F
:104278004802030008B5024B1B685B69019308BD3F
:104288004802030008B5024B1B681B6B019308BD6D
:104298004802030008B5024B1B685B6C019308BD1C
:1042A8004802030008B5024B1B68DB6C019308BD8C
:1042B8004802030008B5024B1B685B6D019308BDFB
:1042C8004802030008B5024B1B685B69019308BDEF
:1042D8001802030008B5024B1B681B68019308BD50
:1042E8002C02030008B5024B1B685B68019308BDEC
:1042F8002C02030008B5024B1B689B68019308BD9C
:104308002C02030008B5024B1B681B6B019308BD08
:104318002C02030008B5024B1B681B6A019308BDF9
:104328002802030008B5024B1B685B6A019308BDAD
:104338002802030008B5024B1B689B6A019308BD5D
:104348002802030008B5024B1B68DB6A019308BD0D
:104358002802030008B5024B1B681B6B019308BDBC
:104368002802030008B5024B1B685B6B019308BD6C
:104378002802030008B5024B1B681B6C019308BD9B
:104388002802030008B5024B1B681B69019308BD8E
:104398006C02030008B5024B1B685B69019308BDFA
:1043A8006C02030008B5024B1B689B69019308BDAA
:1043B8006C02030008B5024B1B685B6D019308BDD6
:1043C8006C02030008B5024B1B689B6D019308BD86
:1043D8006C02030008B5024B1B685B69019308BDBA
:1043E8006402030008B5024B1B689B69019308BD72
:1043F8006402030008B5024B1B681B6A019308BDE1
:104408006402030008B5024B1B685B6A019308BD90
:104418006402030008B5024B1B689B6A019308BD40
:104428006402030008B5024B1B689B68019308BD32
:104438006802030008B5024B1B68DB68019308BDDE
:104448006802030008B5024B1B685B68019308BD4E
:104458003802030008B5024B1B689B69019308BD2D
:104468003802030008B5024B1B68DB69019308BDDD
:104478003802030008B5024B1B68DB6A019308BDCC
:104488003802030008B5024B1B685B6B019308BD3B
:104498003802030008B5024B1B689B6B019308BDEB
:1044A8003802030008B5024B1B68DB69019308BD9D
:1044B8003002030008B5024B1B681B6A019308BD54
:1044C8003002030008B5024B1B681B68019308BD46
:1044D8003C02030008B5024B1B68DB68019308BD6A
:1044E8003C02030008B5024B1B681B69019308BD19
:1044F8003C02030008B5024B1B685B69019308BDC9
:104508003C02030008B5024B1B689B69019308BD78
:104518003C02030008B5024B1B68DB69019308BD28
:104528003C02030008B5024B1B681B6A019308BDD7
:104538003C02030008B5024B1B689B6A019308BD47
:104548003C02030008B5024B1B681B68019308BDB9
:104558004C02030008B5024B1B685B68019308BD59
:104568004C02030008B5024B1B681B69019308BD88
:104578004C02030008B5024B1B685B69019308BD38
:104588004C02030008B5024B1B689B69019308BDE8
:104598004C02030008B5024B1B68DB69019308BD98
:1045A8004C02030008B5024B1B681B6A019308BD47
:1045B8004C02030008B5024B1B681B6D019308BD34
:1045C8006002030008B5024B1B685B68019308BDD5
:1045D8002002030008B5024B1B68DB6C019308BD81
:1045E8002002030008B5024B1B685B6D019308BDF0
:1045F8002002030008B5034B1B68D3F888300193E9
:1046080008BD00002002030008B5034B1B68D3F85F
:104618009430019308BD00002002030008B5024B46
:104628001B681B68019308BD4402030008B5024BD0
:104638001B681B6A019308BD4402030008B5024BBE
:104648001B68DB6B019308BD4402030008B5024BED
:104658001B685B68019308BD4002030008B5024B64
:104668001B689B68019308BD4002030008B5024B14
:104678001B68DB68019308BD4002030008B5024BC4
:104688001B681B69019308BD4002030008B5024B73
:104698001B685B69019308BD4002030008B5024B23
:1046A8001B689B69019308BD4002030008B5024BD3
:1046B8001B68DB69019308BD4002030008B5024B83
:1046C8001B681B6A019308BD4002030008B5024B32
:1046D8001B681B6B019308BD4002030008B5024B21
:1046E8001B685B6B019308BD4002030008B5024BD1
:1046F8001B681B68019308BD1C02030008B5024B28
:104708001B685B68019308BD1C02030008B5024BD7
:104718001B689B68019308BD1C02030008B5024B87
:104728001B685B6A019308BD1C02030008B5024BB5
:104738001B68DB6A019308BD1C02030008B5024B25
:104748001B681B6B019308BD1C02030010B583682E
:1047580004460BB901F03DFDC3689847A3681BB137
:1047680003222146204698472046BDE81040FFF71F
:1047780092BC70470020704710B50446FFF78BFCC9
:10478800204610BD08B508B1FFF7F6FF08BD10B503
:104798008368044613B1032201469847204610BD9A
:1047A80038B5C468D4B12378022B02D1E068FFF78A
:1047B800A5FF65682DB12846FFF7E9FF2846FFF7F2
:1047C8006AFCA5682DB12846FFF7E1FF2846FFF7E8
:1047D80062FC2046BDE83840FFF75DBC38BD38B5FF
:1047E800046805467CB16368013B63605BB9236874
:1047F80020469B689847A368013BA3601BB92368C0
:104808002046DB689847284638BD13B5044691E82A
:10481800050000234B600B602060626001A80193D3
:104828000093FFF7DCFF204602B010BD0B68036061
:1048380013B15A6801325A607047F7B50C4602AD99
:1048480054F8043B45F8083D06460F4601A82146A2
:10485800FFF7ECFF29463046FFF7D7FF01A8FFF71F
:10486800BEFF2046FFF7BBFF3846FFF714FC304673
:1048780003B0F0BD13B50B46044603C88DE803002A
:1048880093E8030084E803009DE8030083E803003D
:1048980002B010BD826810B50AB901F09AFCC3686D
:1048A800BDE81040184708B5006800F11001FFF78F
:1048B800F1FF08BD826810B50AB901F08AFCC36827
:1048C800BDE81040184708B5006800F11001FFF76F
:1048D800F1FF08BD38B5002383608B6804460D4698
:1048E8002BB102229847EB68E360AB68A3602046CF
:1048F80038BD00002DE9F0414FF69C7386B004687E
:10490800B1F904208B8000230F688DF800300B600C
:104918004FF00200D4E84F1F994203D1C4E8450F75
:10492800002DF7D102D08DF800106AE014F10C05C3
:104938001EBFE76022821F460123BFF35F8F00205E
:10494800637004F10803BFF35F8F53E8006F43E817
:104958000002002AF9D1BFF35F8F002E51D0FFF774
:1049680039FE20B129463046FFF794FF43E031462F
:104978006846FFF7AFFFE068B4F9105008B101F0DE
:10498800B1FD04901020ADF81450FFF780FB0546E8
:1049980030B34FF00008C0F808801820FFF777FB05
:1049A8000446C0B1C0F8088001466846FFF762FFB8
:1049B800029BA268A360039B0292E268E360BDF8D1
:1049C8001430A3824FF69C73ADF81430049B039205
:1049D8002361CDF810800E4BEB600E4B2C60AB6062
:1049E8000498FFF78BFE6846FFF7D1FE00222946A0
:1049F8000948FFF7F7FD3046FFF7C9FE3046FFF7D5
:104A08004AFB3846FFF77AFE06B0BDE8F08100BFE2
:104A1800AF480D000D4B0D0055470D002DE9F04F27
:104A28008BB007AD4FF0000B0646994614200C23B7
:104A38000F4690469DF850A0C5F804B0C5F808B0D8
:104A48000793FFF724FB044638B180F800B080F8DC
:104A580001B0C0F804B0C0F808B0002310200394D7
:104A68000493FFF714FB28B1012343608360234BB1
:104A78000360C4600490224B08930820FFF707FBEB
:104A8800044628B1039B40F8043B04A9FFF7CEFE77
:104A980000955FFA8AF34A46414638460994FFF77B
:104AA800C5FDB8B9039B5B7803F0FF0293B94FF6D5
:104AB8009C7305A903A80592ADF81830FFF71AFFF3
:104AC8000598FFF71BFE05A80999FFF7B6FE06A88B
:104AD800FFF785FE039B059304A906A8FFF7A6FE2A
:104AE80005A93046FFF791FE06A8FFF778FE04A84F
:104AF800FFF775FE30460BB0BDE8F08F9C650D00E2
:104B0800754C0D00022AF8B5044606D0032A17D0C2
:104B1800012A20D10B6803601DE018200E68FFF7FA
:104B2800B6FA054650B13146FFF7D4FE3069B6F9FA
:104B3800147008B101F0D6FC2861AF8225600AE044
:104B4800046844B12069FFF7D9FD2046FFF71FFE2E
:104B58002046FFF7A0FA0020F8BD38B5002383608F
:104B68008B6804460D462BB102229847EB68E36038
:104B7800AB68A360204638BD022A70B5044606D04B
:104B8800032A11D0012A17D10B68036014E01420FE
:104B98000E68FFF77CFA054620B13146FFF7DDFFC6
:104BA800337C2B74256007E004682CB12046FFF79E
:104BB800EEFD2046FFF76FFA002070BDF0B5002328
:104BC80087B00C46BFF35F8F50E8006F40E80032B3
:104BD800002AF9D1BFF35F8F002E3ED01846FFF7A9
:104BE800F9FC074620B121463046FFF763FE2EE068
:104BF800314601A8FFF7B1FF23788DF81430102053
:104C0800FFF745FA0546D0B187601420FFF73FFA51
:104C1800044678B18760014601A8FFF72BFE039B85
:104C2800A268A360049B0392E268E3609DF81430D5
:104C3800049223740A4BEB600A4B2C60AB6001A80A
:104C4800FFF7A5FD002229460748FFF7CBFC3046B1
:104C5800FFF79DFD3046FFF71EFA07B0F0BD00BF15
:104C6800CF480D00814B0D0055470D0030B585B07C
:104C780004460D4668461146FFF7DFFD7CB124B2B5
:104C880028460DB101F02EFC029002A96846ADF845
:104C98000C40FFF72FFE0298FFF730FD1DE000984B
:104CA8008DF808404FF00102D0E84F3FA34203D1EE
:104CB800C0E8412F0029F7D102D08DF808300CE068
:104CC80010F10C014FF0010318BF0373BFF35F8F9E
:104CD800043000F8033CFFF771FF01A8FFF77FFDE0
:104CE80005B030BD002211464068FFF7E7BC00223E
:104CF80011464068FFF7F2BC00224068FFF7E6BCA7
:104D0800002281F001014068FFF7D0BC00231A4659
:104D180019464068FFF7C2BC00231A461946406886
:104D2800FFF7B4BC002211464068FFF7A7BC002279
:104D380011464068FFF792BC002202214068FFF745
:104D480095BC00231A464068FFF780BC024B03223B
:104D58005A60024A1A607047D8E30320B8650D000C
:104D68007047F8B5064615460C468F18BC4206D063
:104D7800336814F8011B9B6830469847F6E72846C5
:104D8800F8BD0022007CFFF7C5BA0021007CFFF7C0
:104D9800C9BA0021007CFFF7CDBA0021007CFFF7DB
:104DA800D1BA0021007CFFF7D5BA10B50446FFF749
:104DB80072F9204610BD000010B504464FF47A730E
:104DC8000846A3600021044B207461602360FFF74C
:104DD800D1FA204610BD00BFEC650D000021007C13
:104DE800FFF7C0BA704710B50446FFF754F92046DC
:104DF80010BDF0B5037D062B8DB00E4600F10407FB
:104E08004FF0000402D000F1080518E00CAD394657
:104E180005F8304D2F232A460A20FFF7DBFA2846EB
:104E280001F07BFB33680246DB6829463046984729
:104E38000FE024B12E21304600F088FA044415F81A
:104E4800011D0A22304600F0BDFABD420444F0D1EB
:104E580020460DB0F0BD000010B5054B04461122E8
:104E680040F8043B002101F02CFB204610BD00BF98
:104E780014660D000346074A10B543F8042B01F1E8
:104E8800100251F8044B43F8044B9142F9D10A78C7
:104E98001A7010BD14660D00037D042B01D1406803
:104EA80008E0062B0AD1436853B1836843B1C3684D
:104EB80033B10069003018BF0120704700207047E7
:104EC8001846704710B59DF8084044EA032343EAA2
:104ED800024242EA016104234160037510BD37B5FF
:104EE8000D788B784A78C97800912946FFF7EAFF50
:104EF80003B030BD014B024A1A607047E0E303205B
:104F0800D2660D00002211464068FFF7D7BB002289
:104F180011464068FFF7E2BB00224068FFF7D6BBA6
:104F2800002281F001014068FFF7C0BB00231A4648
:104F380019464068FFF7B2BB00231A461946406875
:104F4800FFF7A4BB002211464068FFF797BB002279
:104F580011464068FFF782BB002202214068FFF734
:104F680085BB00231A464068FFF770BB10B1036881
:104F78005B681847704738B504460068D0B1FFF73A
:104F880069F9B8B9237C1BB9206808B1FFF76AF939
:104F9800656855B1AB681BB1032229462846984776
:104FA8002846FFF778F8002363602068FFF762F966
:104FB8000023236038BD000038B50B4B036004465E
:104FC800D0F8CC0108B1FFF768F8D4F8C4512DB176
:104FD8002846FFF7D0FF2846FFF75DF8A06808B11C
:104FE800FFF7C4FF204638BD04670D000068FFF7CF
:104FF80059B9000030B58DB004461122002101A82E
:1050080001F05FFA062301AA09498DF814300A2035
:10501800FFF7E8F907AD01A906A8FFF72BFF0FCDA9
:1050280004340FC42B68237000200DB030BD00BFBE
:1050380030670D0030B5044689B000F5E070FFF721
:10504800D5FF236883BB4C20FFF721F8054608B13C
:1050580000F0F0FD2068256008B1FFF787FF2068A1
:1050680020B300224FF49A6100F013FE08A900252E
:1050780001F8195D1148FFF785F920689DF80720A8
:10508800036849F269011B6A984702A8FFF7E4FE22
:1050980002A8FFF7AFFF002804DB02A9206800F090
:1050A8007EFE04E0054602E0002500E0044DD4F849
:1050B800C001FFF7FFF8284609B030BD3D670D0075
:1050C800FCFEFFFF2DE9F04705468CB016460F465B
:1050D80009B10B780BB9354C64E0084601F01DFAAC
:1050E8008046002E5CD0304601F017FA441C08F1C7
:1050F80002032344B3F59A6F4FD805F5E070FFF724
:1051080075FF2846FFF796FF002840DB6846FFF743
:10511800A3FE6846FFF76EFF002838DBD5F800A02D
:10512800DAF800300DF1040CD3F83890204B0693D0
:10513800BCE80F000DF11C0EAEE80F00DCF80030E3
:105148008EF8003049F2690206A95046C84700287F
:105158001DDB002328688DF8183003680122DB68FE
:1051680006A998472868036808F10102DB683946F0
:1051780098472CB1286803682246DB68314698476F
:10518800286803681B6C984700EAE07400E004464E
:10519800D5F8C001FFF78EF804E06FF0BD0401E018
:1051A8003446A4E720460CB0BDE8F087F2FEFFFFC6
:1051B80014660D0038B50D4C0D4B236000250223F5
:1051C80004F5E4706360A560C4F8C451C4F8C8511C
:1051D800FFF760F8074BC4F8CC5123602046064A15
:1051E8000649BDE8384000F0EFBF00BFE4E3032004
:1051F80068670D0004670D00B0E30320C14F0D0080
:1052080000231A464068FFF721BA002202214068AD
:10521800FFF72CBA002211464068FFF71FBA002298
:1052280011464068FFF72ABA00231A461946406813
:10523800FFF72CBA00231A4619464068FFF72EBA22
:10524800002281F001014068FFF730BA002240686F
:10525800FFF73CBA002211464068FFF73FBA002228
:1052680011464068FFF72ABA70B58CB01446064656
:10527800FFF7F2FD0CAB0022114643F8302D204613
:10528800FFF7D8F8014658BB009B4BB35A68022A6F
:105298000ED00A2A24D15C69112201A801F011F963
:1052A80006238DF8143001AD04F10803183405E025
:1052B800596930460431FFF712FE11E01868596841
:1052C8002A4603C20833A3421546F7D101A906A806
:1052D80007ADFFF7CFFD0FCD341D0FC42B6823702A
:1052E8000098FFF79FF830460CB070BD024B034A98
:1052F8001A6000225A607047B4E5032068670D0001
:10530800F8B506460D468F180024BD420CD0336808
:1053180015F8011B9B6830469847002801DB0444B8
:10532800F3E7002C08BF04462046F8BD70B50546D3
:105338000C46084649B101F0F0F82B6802462146B0
:105348002846DB68BDE87040184770BD03689B6855
:10535800184738B50D210546FFF7F8FF0A2104461E
:105368002846FFF7F3FF204438BD30B58BB00B4615
:1053780000218DF82410012A98BF0A220DF1230478
:10538800B3FBF2F505FB123303F0FF03092B94BFBF
:1053980030333733DBB2214604F801392B46002D70
:1053A800EED1FFF7C3FF0BB030BD10B42AB90368C4
:1053B8005DF8044B9B68C9B21847D2B25DF8044B3C
:1053C800FFF7D3BFFFF7F1BF0CB42DE9F04387B067
:1053D80000AF07F13804054654F8049B3C600E46BC
:1053E80023464A461421381DFFF798F9132805D893
:1053F800391D2846FFF79AFF044613E000F1080319
:1054080023F00703E846ADEB030D411C23464A464B
:1054180068463C60FFF782F969462846FFF786FF31
:105428000446C5461EB12846FFF793FF04442046AC
:105438001C37BD46BDE8F04302B0704710B50446BE
:10544800FFF7A5F9204610BD0348044A0449002384
:10545800836000F0B9BE00BFBCE50320B0E30320C1
:1054680045540D00704710B50446FEF714FE20465B
:1054780010BD000070B5084B0360044600250E46B9
:1054880040F80C5FFEF7FEFE30462671FFF70AF87B
:10549800A560204670BD00BF9C670D000079FFF72E
:1054A80009B8704710B50446FEF7F5FD204610BD53
:1054B80010B504460068FFF721F9204610BD10B565
:1054C8000446006808B1FFF719F900232360A360B8
:1054D800636010BD38B504460D4600680131FFF71A
:1054E80015F910B184E82100012038BD10B5036812
:1054F800044613B143688B4207D22046FFF7EAFF00
:1055080020B1A3680BB922681370012010BD70B5D3
:105518000E46114604461546FFF7E8FF18B920461F
:10552800FFF7CDFF09E02A463146A560206800F064
:10553800BDFF2268A3680021D154204670BD38B54C
:105548000023044603604360836003730D4639B14A
:10555800084600F0E2FF294602462046FFF7D7FF3B
:10556800204638BD38B505460C4641B1084600F01E
:10557800D4FF214602462846FFF7C9FF01E0FFF79E
:105588009EFF284638BD10B5044600238AB0236024
:105598006360A3602373084601A900F0E7FC01A932
:1055A8002046FFF7DFFF20460AB010BD70B504465D
:1055B8000E4609B9002070BD6AB18368D51829461E
:1055C800FFF794FF0028F5D02068A36831461844F7
:1055D80000F07FFFA560012070BD38B504468068E3
:1055E8008568FFF7E3FFA3689868401B38BD07B5D7
:1055F80000238DF80410012201A98DF80530FFF76A
:10560800D5FF03B05DF804FB08B58068FFF7EFFF2E
:1056180008BD000030B585B000230D460293036035
:105628004360836003731421064B0193044603907F
:10563800FFF75CFF2B6801A91B682846984720469E
:1056480005B030BDAC670D00054B4FF69C720020CD
:105658005A804FF6FF7218709A80FEF7B3BF00BFEA
:10566800CCE50320024B1A68024B1A60704700BF52
:1056780048E30320D4E5032010B40468246BA4464F
:105688005DF8044B604703689B6C1847808E704731
:10569800028FC08E101A704713B502AB026803F868
:1056A800011DD46819460122A04702B010BD10B5EB
:1056B80003681B690446984728B1E38EE26B591CBE
:1056C800E186D05C10BD4FF0FF3010BD10B5036807
:1056D8001B690446984718B1E38EE26BD05C10BD95
:1056E8004FF0FF3010BD704710B403460846DC6B1E
:1056F800D98E1A8F0368521ADB6821445DF8044B6F
:105708001847A0F11000FFF7EFBFF0B503688DB0A0
:105718001C265B6A04460F46154698470123324605
:10572800002105A8029300F0CCFE8DF814603846DD
:105738000A268DF81560FEF76DFE1122ADF81600E9
:1057480002213046FEF7A6FE0028606124DB042211
:10575800009202AB40F6FF71FEF77CFEE0B995B10E
:105768000390ADF8100003A9E8B2FEF713FE98B94C
:105778000623009341F20B0203AB40F6FF71606908
:10578800FEF768FE40B91C2205A96069FEF75AFEBB
:1057980010B96564012004E0236820465B6A9847D5
:1057A80000200DB0F0BD10B504464069002801DBAB
:1057B800FEF758FE4FF0FF3363610023E38623872B
:1057C80010BD38B5C36B0546C08E13B12C6C241AB6
:1057D80000E01C46944228BF14462246184400F0B4
:1057E80065FEEB8E2344EB86204638BD70B5036812
:1057F8001B6904460E461546984788B1236820461B
:105808001B699847E38EE16B8542A8BF054619449A
:105818002A46304600F04AFEE38E2B44E38601E038
:105828004FF0FF35284670BD70B50446054B44F867
:10583800043B01F1200506460FCD0FC42B682370E9
:10584800304670BD14660D00F0B59446026889B004
:10585800976A0A4A02921D1D8E4606460FCD03AC72
:105868000FC42B682370BDF838300093624602AB32
:1058780071463046B84709B0F0BD00BF14660D0048
:10588800F0B50368B0F836E09F6A0D4B89B000F1B7
:105898002006044602930FCE03AD0FC533682B7064
:1058A800A38E0093724602ABE16B2046B84723688B
:1058B8000546DB6920469847284609B0F0BD00BF79
:1058C80014660D00F0B54378022B8DB005460C46E2
:1058D800174601D1011D33E00A2B35D111220021D1
:1058E80001A800F0EEFDAB6843B9EB6833B94FF699
:1058F800FF702E69FEF77EFD86421FD005F1080372
:1059080001AE05F1180E18685968324603C208330B
:1059180073451646F7D1062301A906A807AE8DF8E8
:105928001430FFF7A7FA0FCE04340FC4336823707E
:1059380057B16888FEF766FD388005E005F1140167
:105948002046FFF7CCFAF3E70DB0F0BD2DE9F041A2
:105958008EB00EAB002506461746084643F8345D60
:105968002A462946FEF766FD00281FDB019BFBB18E
:105978005B69EBB102A8FFF76FFA019B2A465869E9
:1059880002A9FFF79FFF02A8FFF786FA80B13368E4
:1059980003ADD3F838800B4B08930FCD09AC0FC477
:1059A8002B6823703A4608A93046C047044601E0F0
:1059B8004FF0FF340198FEF735FD20460EB0BDE8E4
:1059C800F08100BF14660D002DE9F047D0F814806F
:1059D800B8F1000F98B005460C461746994600DB0B
:1059E80011B94FF0FF304EE04FF01C0A09AE524695
:1059F8000021304600F065FDCDF810A0B9F1000F88
:105A080014D04FF47A72B9FBF2F1109102FB1191A4
:105A18004A4308231192009341F2060210AB40F664
:105A2800FF714046FEF716FD08B12CE0082004ABD4
:105A380001932146034600963A466869FEF71AFD27
:105A4800041E1FDB05F11C0705F1340230463946F8
:105A5800FFF738FF00262023394605A81093119632
:105A6800FFF7D8FDAB8E0393059B0293074B00937A
:105A780001200194334610AA0549FEF79BFD05A8AD
:105A8800FFF716FD204618B0BDE8F087E5670D0062
:105A980049670D0038B5054614462B7D062B084688
:105AA80011D11C2313700A235370FEF7B3FC08347A
:105AB80024F8060C2B1D143553F8042B44F8042B3A
:105AC800AB42F9D138BD042B0AD11023137002233D
:105AD8005370FEF79FFC60806868FEF78BFC60607F
:105AE80038BD00002DE9F04F984691B020230024DE
:105AF80082468B4604A841461646BDF8689008932E
:105B08000994FFF787FD049B029308AD154B1649CE
:105B180000932A4623460120CDF80C900196FEF703
:105B280049FD1C2704A8FFF7C3FC3A46214628462E
:105B380000F0C7FC2A4649464046FFF7ABFF9DF8F0
:105B480021304BB18DE8A000234632465946DAF899
:105B58001400FEF797FC01E04FF0FF3011B0BDE8EC
:105B6800F08F00BF02680D0049670D00F0B591B0D5
:105B78000C4606460021154609A81C221F4600F0BF
:105B8800A0FC09AA00212046FFF784FF9DF82530D4
:105B9800022B2ED1002305930A9B0493DDB102A9A1
:105BA8002846FEF7FFFBB0B910A941F8340D02985A
:105BB800FEF700FC60B9039B53B1DA6812685178AC
:105BC800022903D152680AB1059201E01B68F3E784
:105BD8000398FEF7F7FB002F4FF00803009318BF58
:105BE800032204AB08BF042200213046FEF732FC32
:105BF8001EE00A2B1AD104AC14220021204600F022
:105C080060FC0BAB0FCB002F84E80F004FF01403A0
:105C1800009318BF0C22234608BF0D2229213046C5
:105C28000895FEF717FC00EAE07001E04FF0FF303E
:105C380011B0F0BD38B54FF47A7383600B4B03F1A4
:105C480008026C33002503614FF0FF3304464560BA
:105C5800026043611C30FFF7FFF84FF40073E586DC
:105C68002587E56323646564204638BD30680D00E8
:105C780010B590F8483004461BB1C06B08B1FEF768
:105C88000AFA0023E36384F848302364E386238711
:105C980010BD70B5044616460D46FFF7E9FF002310
:105CA800E66323643EB935B12846FEF7F2F90123CD
:105CB800E06384F84830E36B03B12564206C00305E
:105CC80018BF012070BD70B5C26B04461AB9016CCB
:105CD80009B1FFF7DEFFE16B0023E386238741B1BB
:105CE800226C32B12068056B2046A8470028C8BF3F
:105CF8002087236820461B69BDE8704018470000CC
:105D0800F0B591B020230546002604A817460C4696
:105D180008930996FFF77EFC049B0193104B0093B0
:105D280008AA33460F4902970120FEF743FC04A84E
:105D3800FFF7BEFBEA6B22B9296C11B12846FFF7C1
:105D4800A8FF04340FCC05F120060FC62368337072
:105D5800286CAF860023EB862B8711B0F0BD00BFFF
:105D68001C680D0049670D0010B5074B03F10802C8
:105D78006C33044602600361FFF715FD2046FFF708
:105D880077FF204610BD00BF30680D0010B50446EF
:105D9800FFF7EAFF2046FEF77EF9204610BD0246CF
:105DA8004069002804DB012392F84420FFF7DEBE97
:105DB8004FF0FF307047704741747047007CFEF722
:105DC800B9BB007CFEF78EBB007CFEF79BBB007C5A
:105DD800FEF790BB007CFEF79DBB10B50446FEF7AE
:105DE8005AF9204610BD70B5457C04460E4625B9C3
:105DF800007CFEF79FFB002805DD3146207CBDE8CE
:105E08007040FEF767BB284670BD000010B5044619
:105E180008461146002262604FF47A72A260054A71
:105E280022600122207462741A46FEF74BFB20465A
:105E380010BD00BFA8680D00007CFEF773BB000012
:105E480038B50C4D296811F0010411D12846FEF728
:105E580026F968B1084A094B09482146FFF7D6FFD9
:105E68002846FEF721F9074A0749054800F0ACF92A
:105E7800034838BD70E6032074E60320ECE50320F0
:105E8800D8E50320B0E30320BF5D0D0041747047DF
:105E980070470021007CFEF775BB0121007CFEF7EE
:105EA80071BB007CFEF766BB007CFEF75BBB38B5B8
:105EB8000446007C0D46FEF75DFB002801DC607C93
:105EC80020B12946207CFEF765FB012038BD007C07
:105ED800FEF768BB10B50446FEF7DDF8204610BD96
:105EE80010B50446002363604FF47A73A360054B32
:105EF800236001230846217463741146FEF722FBD0
:105F0800204610BDD8680D000022007CFEF722BB99
:105F180010B514220446002100F0D3FA204610BD23
:105F280030B50E4D87B001A8FFF7F2FF296811F0D0
:105F3800010410D12846FEF7B2F860B101AA214643
:105F48000748FFF7CDFF2846FEF7AEF8054A064991
:105F5800034800F039F9024807B030BDF8E60320DD
:105F6800FCE60320B0E30320995E0D002DE9F04123
:105F7800931E232B15468CB034BF15460A250023E3
:105F88000A2D0C468DF82C3007D1984205DA2D23BE
:105F980001F101080B70404201E0B0B1A0460DF1DB
:105FA8002B0601272A46014601A800F06BFA029B3E
:105FB8000198092BCCBF3722302252FA83F306F816
:105FC800013901370028EDD106E030238DF82B3058
:105FD800A0460DF12A0602273A46711C404600F0F9
:105FE80065FA20460CB0BDE8F081000008B50C4BFE
:105FF80033B1FFF795FF03681B699847002809DC50
:10600800084B63B1FFF71CFF03681B69984700281A
:1060180003DC08BDAFF30080F2E7AFF3008008BDF2
:10602800000000000000000008B5FFF7DFFFFEF7E2
:1060380049F9014B186008BD14E7032007B5002390
:1060480000931A466FF07701FEF7DEFA03B05DF8A9
:1060580004FB000007B543880A2B08D0502B09D150
:10606800094B1B683BB103B05DF804EB1847FFF719
:10607800E5FF06E0002300931A466FF07701FEF76C
:10608800C3FA03B05DF804FB10E7032008B500214C
:106098000448FEF7D3FA00210348BDE80840FEF79C
:1060A800A9BA00BF000000005D600D0010B50446ED
:1060B8000F48FFF7F3F928B1A4F10B03022B01D81D
:1060C800002010BD00F03EF8FEF788FE08B1012C54
:1060D800F6D9FFF7B5FEFFF7AFFE18B1A4F1090333
:1060E800012BEDD91E2C8CBF0020012010BD00BF54
:1060F80030E703201E2838B504460D460AD8FF2984
:1061080008D0FFF7D3FF28B129462046BDE838401C
:10611800FEF7F0B838BD0D2810B504469CBF0E3404
:10612800A4B22046FFF7C2FF50B103212046FEF774
:10613800D9F8032804D12046BDE81040FEF7E2B89C
:10614800002010BD38B50B4D296811F001040FD19E
:106158002846FDF7A4FF58B121460748FEF72CFE54
:106168002846FDF7A1FF054A0549034800F02CF829
:10617800014838BD18E703201CE70320B0E30320DB
:10618800694D0D0070B50C4C0C4E0D4D002120468C
:10619800FFF770F920460B4C3246294600F014F8F8
:1061A80001212046FFF766F9324629462046BDE818
:1061B800704000F009B800BF30E70320B0E30320C7
:1061C8006D540D0040E703200B460146184600F0C9
:1061D8004BB908B5FEF7AAFA244B1A68D0075CBF7A
:1061E80001221A60224B1A68D1075CBF01221A608B
:1061F800204B1A68D2075CBF01221A601E4B1A682E
:10620800D0075CBF01221A601C4B1A68D1075CBF1B
:1062180001221A601A4B1A68D2075CBF01221A6061
:10622800184B1A68D0075CBF01221A60164B1A680F
:10623800D1075CBF01221A60144B1A68D2075CBFF1
:1062480001221A60124B1A68D0075CBF01221A603B
:10625800104B1A68D1075CBF01221A600E4B1A68EE
:10626800D2075CBF01221A60704700BF7CE7032099
:1062780078E7032074E7032070E703206CE7032026
:1062880068E7032064E7032060E703205CE7032056
:1062980058E7032054E7032050E70320184B1A68F7
:1062A800D1075CBF01221A60164B1A68D2075CBF7F
:1062B80001221A60144B1A68D0075CBF01221A60C9
:1062C800124B1A68D1075CBF01221A60104B1A687A
:1062D800D2075CBF01221A600E4B1A68D0075CBF58
:1062E80001221A600C4B1A68D1075CBF01221A60A0
:1062F8000A4B1A68D2075CBF01221A60704700BFB8
:106308009CE7032098E7032094E7032090E7032005
:106318008CE7032088E7032084E7032080E7032035
:10632800184B1A68D1075CBF01221A60164B1A680D
:10633800D2075CBF01221A60144B1A68D0075CBFF1
:1063480001221A60124B1A68D1075CBF01221A6039
:10635800104B1A68D2075CBF01221A600E4B1A68EC
:10636800D0075CBF01221A600C4B1A68D1075CBFCA
:1063780001221A600A4B1A68D2075CBF01221A6010
:10638800704700BFBCE70320B8E70320B4E7032049
:10639800B0E70320ACE70320A8E70320A4E7032025
:1063A800A0E70320244B1A68D0075CBF01221A60BB
:1063B800224B1A68D1075CBF01221A60204B1A6869
:1063C800D2075CBF01221A601E4B1A68D0075CBF57
:1063D80001221A601C4B1A68D1075CBF01221A609F
:1063E8001A4B1A68D2075CBF01221A60184B1A6848
:1063F800D0075CBF01221A60164B1A68D1075CBF30
:1064080001221A60144B1A68D2075CBF01221A6075
:10641800124B1A68D0075CBF01221A60104B1A6829
:10642800D1075CBF01221A600E4B1A68D2075CBF05
:1064380001221A60704700BFECE70320E8E7032059
:10644800E4E70320E0E70320DCE70320D8E70320A4
:10645800D4E70320D0E70320CCE70320C8E70320D4
:10646800C4E70320C0E7032010B5054C13462CB140
:106478000A4601460220AFF3008010BD204610BD39
:1064880000000000002910B591FBF2F402FB141380
:1064980004DB002B07DA01349B1A04E0002BC4BF8D
:1064A80004F1FF349B180460436010BD10B5431E0F
:1064B8000A44914204D011F8014B03F8014FF8E760
:1064C80010BD02440346934202D003F8011BFAE7C9
:1064D8007047034611F8012B03F8012B002AF9D164
:1064E80070470000024B0146186800F003B800BF6F
:1064F800ACE3032070B5064608460C4600F00DF8DC
:10650800451C29463046FEF719F9064618B12A46B1
:106518002146FFF7CBFF304670BD034613F8012B29
:10652800002AFBD1181A0138704700001D400D00E1
:1065380059400D0085400D0089400D000000000005
:10654800737761726D2D6C65616465722D6F6E6C09
:10655800696E650066772D76657273696F6E0025C2
:10656800732056616C3A202569006C656674520088
:106578006C65667446007269676874520072696770
:106588006874460076312E300000000000000000DC
:10659800000000007B470D0081470D00A9470D0052
:1065A8008D470D007D470D00000000000000000031
:1065B8004B4D0D00414D0D00374D0D002D4D0D007B
:1065C800214D0D00154D0D00094D0D00014D0D001B
:1065D800F74C0D00ED4C0D0071520D00000000004D
:1065E80000000000694D0D00B34D0D008B4D0D00EE
:1065F8006B4D0D00934D0D009B4D0D00A34D0D00EF
:10660800AB4D0D000000000000000000FB4D0D0028
:10661800ED4D0D00EF4D0D0066006C6E00666E00CE
:10662800636F64650064657461696C000D0A002518
:106638003031307520005D20002C200028293A20B8
:1066480000205B00636F6465203D20006465746111
:10665800696C73203D20006261756400536572693E
:10666800616C0053657269616C3100747970650002
:10667800706172616D00636D6400696400686E64C6
:10668800007374726D0066696C74006C766C0061DE
:10669800646448616E646C65720072656D6F7665DE
:1066A80048616E646C657200656E756D48616E64F4
:1066B8006C657273004A534F4E53747265616D4C2A
:1066C8006F6748616E646C657200617070006E6F10
:1066D8006E6500747261636500696E666F0077614C
:1066E800726E006572726F720070616E696300612C
:1066F8006C6C000000000000000000006B4F0D00F3
:10670800614F0D00574F0D004D4F0D00414F0D00CB
:10671800354F0D00294F0D00214F0D00174F0D006B
:106728000D4F0D0071520D00666630333A3A313A1A
:106738003130303100746831006D6573687075628E
:1067480000776972696E67007061727365207061A5
:10675800636B6574202564000000000000000000E1
:1067680009520D0013520D001D520D0027520D0045
:1067780031520D003D520D0049520D0055520D0089
:106788005D520D0067520D0071520D0000000000AF
:10679800000000006D540D006F540D000000000053
:1067A80000000000AB540D00AD540D0011560D0053
:1067B800E3550D005A00252B3033643A25303275E5
:1067C8000025592D256D2D25645425483A254D3A27
:1067D8002553257A0061736374696D65007265637A
:1067E800656976656420256420627974657320661E
:1067F800726F6D2025732325640073656E64506184
:10680800636B65742073697A652025642C20257371
:1068180023256400626567696E207061636B657427
:1068280020257323256400000000000000000000FC
:10683800715D0D00955D0D00A1560D00CB570D0043
:1068480099560D00B7560D00D5560D00EF560D00A0
:1068580013570D00AF570D00ED5A0D0051580D009C
:10686800D1590D0081560D00095D0D0055590D00D7
:1068780089580D00CF5C0D00F5570D008F560D009F
:1068880031580D0095560D00F1560D00F0FFFFFF31
:10689800000000000B570D00000000000000000081
:1068A800BF5D0D00E35D0D00EF5D0D0009530D00A8
:1068B800CB5D0D00D75D0D00D15D0D00DD5D0D00D8
:1068C800C15D0D00C55D0D00000000000000000066
:1068D800995E0D00DD5E0D00B75E0D0009530D00D9
:1068E800B15E0D009B5E0D00A35E0D00D75E0D002E
:1068F800AB5E0D00955E0D0000000000000000007A
:10690800000000000000000000000000000000007F
:10691800000000000000000000000000000000006F
:10692800000000000000000000000000000000005F
:10693800000000000000000000000000000000004F
:10694800000000000000000000000000000000003F
:1069580000000000000000004300000025420D0078
:10696800554D0D00FD4E0D00BD510D00F5520D00A9
:1069780051540D0051560D006D560D008D610D00DE
:10698800E1610D00A5620D0029630D00AD630D00E6
:086998000000000000000000F7
:1069A00011000000100000001200000013000000A1
:1069B000DD670D000000000000690D0020690D007A
:1069C00040690D0000000000000000000000000011
:1069D0000000000060690D000000000000000000E1
:1069E00000000000000000000000000000000000A7
:1069F0000000000000000000000000000000000097
:106A00000000000000000000000000000000000086
:086A1000000000004CE303202C
:106A1800FFFFFFFF00000102030405060708090A3B
:106A28000B0C0D0E0F101112131415161718191A36
:086A38001B1C1D1E1F2028007D
:046A4000785634123E
:04000003D0004018D1
:00000001FF
