:02000002D0002C
:1040000000400D00746A0D00000005000E0005015F
:0840100004014601000000005C
:1040180068650D0009480A49884208B505D0094A6B
:10402800824202D0121A02F05BFA0748074A0021BE
:10403800121A02F060FA014808BD00BF44E30320E9
:10404800D0690D00C0E30320C0E30320F0E703209C
:1040580070B502F021F8074C074BE41AA4080025B4
:104068001E46A54204D056F8253098470135F8E792
:1040780070BD00BFD0690D009C690D0000F01AB832
:1040880008B500F01BF9BDE8084001F0D3BF00F007
:104098009FBB00F09DBB00F0A3BB00F0A1BB007864
:1040A800B0FA80F040097047012303707047106828
:1040B80070470000F0B52F4F2F4E38882F4D304CE9
:1040C80085B0012102F01CF80121308802F018F8AF
:1040D8000121288802F014F82088012102F010F844
:1040E8000021388802F01DF80021308802F019F804
:1040F8000021288802F015F82088002102F011F824
:10410800204B21491A68214B1B788DF8003002A8F2
:104118003C2300F01DFD039C7CB16368013B636098
:104128005BB9236820469B689847A368013BA36056
:104138001BB923682046DB6898470823ADF8083088
:10414800134B0393042202AB0E49124800F0D0FA35
:10415800114A1249124800F0C5FB124A1249104888
:1041680000F0C0FB114A12490D4800F0BBFB05B036
:10417800F0BD00BF50E303204CE3032044E30320D9
:1041880048E30320C8E303207C650D00C4E3032053
:10419800B7400D0090650D009B650D0051420D0064
:1041A800C1480D00A3650D00A5420D00A8650D00CE
:1041B800D1410D0000220249024801F01DB800BF9C
:1041C800AD650D00ECE3032008B5FFF7F3FF012010
:1041D80008BD000008B50B4B0021188801F0BAFF94
:1041E800094B0021188801F0B5FF084B00211888F9
:1041F80001F0B0FF064B00211888BDE8084001F027
:10420800A9BF00BF50E303204CE3032044E303208D
:1042180048E3032010B5094B094C1888216801F0C0
:1042280099FF084B2168188801F094FF4FF47A70C1
:1042380000F0F6FABDE81040FFF7CCBF44E30320D6
:1042480054E303204CE3032008B5FFF7B3FF002233
:104258000349044800F0D0FFFFF7DCFF012008BD48
:10426800B4650D00ECE3032010B5094B094C188820
:10427800216801F06FFF084B2168188801F06AFF78
:104288004FF47A7000F0CCFABDE81040FFF7A2BFF7
:1042980048E3032054E3032050E3032008B5FFF765
:1042A80089FF00220349044800F0A6FFFFF7DCFF5E
:1042B800012008BDBE650D00ECE303207047000037
:1042C80010B5084B084C00221A7000F055F8074941
:1042D800204601F088F92046054A0649BDE8104005
:1042E80001F0A0BFC4E30320C8E30320C5650D00A7
:1042F800C0E3032061550D0008B5024B1B689B689D
:10430800019308BD4802030008B5024B1B681B69EE
:10431800019308BD4802030008B5024B1B685B699E
:10432800019308BD4802030008B5024B1B681B6BCC
:10433800019308BD4802030008B5024B1B685B6C7B
:10434800019308BD4802030008B5024B1B68DB6CEB
:10435800019308BD4802030008B5024B1B685B6D5A
:10436800019308BD4802030008B5024B1B685B694E
:10437800019308BD1802030008B5024B1B681B68AF
:10438800019308BD2C02030008B5024B1B685B684B
:10439800019308BD2C02030008B5024B1B689B68FB
:1043A800019308BD2C02030008B5024B1B68DB68AB
:1043B800019308BD2C02030008B5024B1B681B695A
:1043C800019308BD2C02030008B5024B1B689B6AC9
:1043D800019308BD2C02030008B5024B1B689B6FB4
:1043E800019308BD2C02030008B5024B1B681B6A29
:1043F800019308BD2802030008B5024B1B685B6ADD
:10440800019308BD2802030008B5024B1B689B6A8C
:10441800019308BD2802030008B5024B1B68DB6A3C
:10442800019308BD2802030008B5024B1B681B6BEB
:10443800019308BD2802030008B5024B1B685B6B9B
:10444800019308BD2802030008B5024B1B681B6CCA
:10445800019308BD2802030008B5024B1B681B69BD
:10446800019308BD6C02030008B5024B1B685B6929
:10447800019308BD6C02030008B5024B1B689B69D9
:10448800019308BD6C02030008B5024B1B685B6D05
:10449800019308BD6C02030008B5024B1B689B6DB5
:1044A800019308BD6C02030008B5024B1B685B69E9
:1044B800019308BD6402030008B5024B1B689B69A1
:1044C800019308BD6402030008B5024B1B681B6A10
:1044D800019308BD6402030008B5024B1B685B6AC0
:1044E800019308BD6402030008B5024B1B689B6A70
:1044F800019308BD6402030008B5024B1B689B6862
:10450800019308BD6802030008B5024B1B68DB680D
:10451800019308BD6802030008B5024B1B685B687D
:10452800019308BD3802030008B5024B1B689B695C
:10453800019308BD3802030008B5024B1B68DB690C
:10454800019308BD3802030008B5024B1B68DB6AFB
:10455800019308BD3802030008B5024B1B685B6B6A
:10456800019308BD3802030008B5024B1B689B6B1A
:10457800019308BD3802030008B5024B1B68DB69CC
:10458800019308BD3002030008B5024B1B681B6A83
:10459800019308BD3002030008B5024B1B681B6875
:1045A800019308BD3C02030008B5024B1B68DB6899
:1045B800019308BD3C02030008B5024B1B681B6948
:1045C800019308BD3C02030008B5024B1B685B69F8
:1045D800019308BD3C02030008B5024B1B689B69A8
:1045E800019308BD3C02030008B5024B1B68DB6958
:1045F800019308BD3C02030008B5024B1B681B6A07
:10460800019308BD3C02030008B5024B1B689B6A76
:10461800019308BD3C02030008B5024B1B681B68E8
:10462800019308BD4C02030008B5024B1B681B69C7
:10463800019308BD4C02030008B5024B1B685B6977
:10464800019308BD4C02030008B5024B1B689B6927
:10465800019308BD4C02030008B5024B1B68DB69D7
:10466800019308BD4C02030008B5024B1B681B6A86
:10467800019308BD4C02030008B5024B1B681B6D73
:10468800019308BD6002030008B5024B1B685B6814
:10469800019308BD2002030008B5024B1B685B6943
:1046A800019308BD2002030008B5024B1B68DB6CB0
:1046B800019308BD2002030008B5024B1B685B6D1F
:1046C800019308BD2002030008B5034B1B68D3F80B
:1046D8008830019308BD00002002030008B5034B91
:1046E8001B68D3F89430019308BD00002002030032
:1046F80008B5024B1B681B68019308BD4402030000
:1047080008B5024B1B685B68019308BD44020300AF
:1047180008B5024B1B681B6A019308BD44020300DD
:1047280008B5024B1B68DB6B019308BD440203000C
:1047380008B5024B1B685B68019308BD4002030083
:1047480008B5024B1B689B68019308BD4002030033
:1047580008B5024B1B68DB68019308BD40020300E3
:1047680008B5024B1B681B69019308BD4002030092
:1047780008B5024B1B685B69019308BD4002030042
:1047880008B5024B1B689B69019308BD40020300F2
:1047980008B5024B1B68DB69019308BD40020300A2
:1047A80008B5024B1B681B6A019308BD4002030051
:1047B80008B5024B1B681B6B019308BD4002030040
:1047C80008B5024B1B685B6B019308BD40020300F0
:1047D80008B5024B1B681B68019308BD1C02030047
:1047E80008B5024B1B685B68019308BD1C020300F7
:1047F80008B5024B1B689B68019308BD1C020300A7
:1048080008B5024B1B68DB6A019308BD1C02030054
:1048180008B5024B1B681B6B019308BD1C02030003
:104828000021FFF739BF10B5836804460BB901F0C2
:10483800FEFCC3689847A3681BB1032221462046A3
:1048480098472046BDE81040FFF725BC7047002078
:10485800704710B50446FFF71EFC204610BD08B58A
:1048680008B1FFF7F6FF08BD10B58368044613B119
:10487800032201469847204610BD38B5C468D4B114
:104888002378022B02D1E068FFF7AAFF65682DB1F3
:104898002846FFF7E9FF2846FFF7FDFBA5682DB17D
:1048A8002846FFF7E1FF2846FFF7F5FB2046BDE85D
:1048B8003840FFF7F0BB38BD10B588B004466846ED
:1048C80000F091FE694604A800F0AFFE04A8A047D6
:1048D800044604A800F040FE684600F03DFE20466D
:1048E80008B010BDF0B5102485B007460E46154631
:1048F80000212246684601F0FEFD00226946104666
:10490800ADF80040029703960195FFF7F9FE05B050
:10491800F0BD38B5046805467CB16368013B636047
:104928005BB9236820469B689847A368013BA3604E
:104938001BB923682046DB689847284638BD13B55D
:10494800044691E8050000234B600B60206062601C
:1049580001A801930093FFF7DCFF204602B010BDC9
:104968000B68036013B15A6801325A607047F7B593
:104978000C4602AD54F8043B45F8083D06460F4680
:1049880001A82146FFF7ECFF29463046FFF7D7FF7D
:1049980001A8FFF7BEFF2046FFF7BBFF3846FFF729
:1049A8007AFB304603B0F0BD13B50B46044603C886
:1049B8008DE8030093E8030084E803009DE8030002
:1049C80083E8030002B010BD826810B50AB901F08F
:1049D8002EFCC368BDE81040184708B5006800F110
:1049E8001001FFF7F1FF08BD826810B50AB901F0A0
:1049F8001EFCC368BDE81040184708B5006800F100
:104A08001001FFF7F1FF08BD38B5002383608B68FC
:104A180004460D462BB102229847EB68E360AB6869
:104A2800A360204638BD00002DE9F0414FF69C7385
:104A380086B00468B1F904208B8000230F688DF8D4
:104A480000300B604FF00200D4E84F1F994203D1A9
:104A5800C4E8450F002DF7D102D08DF800106AE0A8
:104A680014F10C051EBFE76022821F460123BFF325
:104A78005F8F0020637004F10803BFF35F8F53E872
:104A8800006F43E80002002AF9D1BFF35F8F002EC0
:104A980051D0FFF709FE20B129463046FFF794FFB1
:104AA80043E031466846FFF7AFFFE068B4F91050BD
:104AB80008B101F031FD04901020ADF81450FFF753
:104AC800E6FA054630B34FF00008C0F80880182011
:104AD800FFF7DDFA0446C0B1C0F808800146684611
:104AE800FFF762FF029BA268A360039B0292E26841
:104AF800E360BDF81430A3824FF69C73ADF8143010
:104B0800049B03922361CDF810800E4BEB600E4B93
:104B18002C60AB600498FFF763FE6846FFF7A4FEBD
:104B2800002229460948FFF7C7FD3046FFF79CFEDB
:104B38003046FFF7B0FA3846FFF752FE06B0BDE838
:104B4800F08100BFE3490D00414C0D002F480D00D6
:104B58002DE9F04F8BB007AD4FF0000B0646994694
:104B680014200C230F4690469DF850A0C5F804B0B9
:104B7800C5F808B00793FFF78AFA044638B180F8F9
:104B880000B080F801B0C0F804B0C0F808B0002345
:104B9800102003940493FFF77AFA28B101234360A5
:104BA8008360234B0360C4600490224B0893082061
:104BB800FFF76DFA044628B1039B40F8043B04A9AB
:104BC800FFF7CEFE00955FFA8AF34A46414638461B
:104BD8000994FFF79DFDB8B9039B5B7803F0FF02CA
:104BE80093B94FF69C7305A903A80592ADF8183040
:104BF800FFF71AFF0598FFF7F3FD05A80999FFF7D6
:104C0800B6FE06A8FFF785FE039B059304A906A830
:104C1800FFF7A6FE05A93046FFF791FE06A8FFF7A5
:104C280078FE04A8FFF775FE30460BB0BDE8F08F9C
:104C3800D4650D00A94D0D00022AF8B5044606D02A
:104C4800032A17D0012A20D10B6803601DE0182021
:104C58000E68FFF71CFA054650B13146FFF7D4FE3F
:104C68003069B6F9147008B101F056FC2861AF82BA
:104C780025600AE0046844B12069FFF7B1FD2046C9
:104C8800FFF7F2FD2046FFF706FA0020F8BD38B519
:104C9800002383608B6804460D462BB10222984797
:104CA800EB68E360AB68A360204638BD022A70B5A4
:104CB800044606D0032A11D0012A17D10B680360D5
:104CC80014E014200E68FFF7E2F9054620B13146DA
:104CD800FFF7DDFF337C2B74256007E004682CB1F7
:104CE8002046FFF7C1FD2046FFF7D5F9002070BD2B
:104CF800F0B5002387B00C46BFF35F8F50E8006F14
:104D080040E80032002AF9D1BFF35F8F002E3ED071
:104D18001846FFF7C9FC074620B121463046FFF781
:104D280063FE2EE0314601A8FFF7B1FF23788DF826
:104D380014301020FFF7ABF90546D0B18760142076
:104D4800FFF7A5F9044678B18760014601A8FFF787
:104D58002BFE039BA268A360049B0392E268E360B6
:104D68009DF81430049223740A4BEB600A4B2C60B4
:104D7800AB6001A8FFF778FD002229460748FFF736
:104D88009BFC3046FFF770FD3046FFF784F907B00B
:104D9800F0BD00BF034A0D00B54C0D002F480D00B3
:104DA80030B585B004460D4668461146FFF7DFFD6D
:104DB8007CB124B228460DB101F0AEFB029002A9E5
:104DC8006846ADF80C40FFF72FFE0298FFF708FD84
:104DD8001DE000988DF808404FF00102D0E84F3FE1
:104DE800A34203D1C0E8412F0029F7D102D08DF8A2
:104DF80008300CE010F10C014FF0010318BF0373E9
:104E0800BFF35F8F043000F8033CFFF771FF01A880
:104E1800FFF77FFD05B030BD002211464068FFF75F
:104E2800BFBC002211464068FFF7CABC0022406898
:104E3800FFF7BEBC002281F001014068FFF7A8BC63
:104E480000231A4619464068FFF79ABC00231A4601
:104E580019464068FFF78CBC002211464068FFF7EE
:104E68007FBC002211464068FFF76ABC002202217D
:104E78004068FFF76DBC00231A464068FFF758BC2E
:104E8800024B03225A60024A1A607047D8E3032093
:104E9800F0650D007047F8B5064615460C468F18A4
:104EA800BC4206D0336814F8011B9B68304698470B
:104EB800F6E72846F8BD0022007CFFF795BA0021E6
:104EC800007CFFF799BA0021007CFFF79DBA00210A
:104ED800007CFFF7A1BA0021007CFFF7A5BA10B546
:104EE8000446FFF7D8F8204610BD000010B5044668
:104EF8004FF47A730846A3600021044B2074616064
:104F08002360FFF7A1FA204610BD00BF24660D00FC
:104F18000021007CFFF790BA704710B50446FFF7F0
:104F2800BAF8204610BDF0B5037D062B8DB00E46AD
:104F380000F104074FF0000402D000F1080518E062
:104F48000CAD394605F8304D2F232A460A20FFF7C5
:104F5800ABFA284601F0FBFA33680246DB682946BB
:104F6800304698470FE024B12E21304600F088FAE9
:104F7800044415F8011D0A22304600F0B1FABD427A
:104F88000444F0D120460DB0F0BD000010B5054B2B
:104F98000446112240F8043B002101F0ACFA2046F7
:104FA80010BD00BF4C660D000346074A10B543F814
:104FB800042B01F1100251F8044B43F8044B9142C1
:104FC800F9D10A781A7010BD4C660D00037D042BC8
:104FD80001D1406808E0062B0AD1436853B18368C1
:104FE80043B1C36833B10069003018BF012070476E
:104FF800002070471846704710B59DF8084044EAED
:10500800032343EA024242EA016104234160037533
:1050180010BD37B50D788B784A78C9780091294644
:10502800FFF7EAFF03B030BD014B024A1A60704730
:10503800E0E303200B670D00002211464068FFF7EC
:10504800AFBB002211464068FFF7BABB0022406898
:10505800FFF7AEBB002281F001014068FFF798BB63
:1050680000231A4619464068FFF78ABB00231A46F0
:1050780019464068FFF77CBB002211464068FFF7DD
:105088006FBB002211464068FFF75ABB002202217D
:105098004068FFF75DBB00231A464068FFF748BB2E
:1050A80010B103685B681847704738B50446006854
:1050B800D0B1FFF721F9B8B9237C1BB9206808B132
:1050C800FFF722F9656855B1AB681BB10322294681
:1050D800284698472846FEF7DEFF002363602068CD
:1050E800FFF71AF90023236038BD000038B50B4BD1
:1050F80003600446D0F8CC0108B1FEF7CEFFD4F81F
:10510800C4512DB12846FFF7D0FF2846FEF7C3FF4C
:10511800A06808B1FFF7C4FF204638BD3C670D0002
:105128000068FFF711B9000030B58DB004461122B0
:10513800002101A801F0DFF9062301AA09498DF829
:1051480014300A20FFF7B8F907AD01A906A8FFF740
:105158002BFF0FCD04340FC42B68237000200DB033
:1051680030BD00BF68670D0030B5044689B000F552
:10517800E070FFF7D5FF236883BB4C20FEF787FF5D
:10518800054608B100F0A0FD2068256008B1FFF7CA
:1051980087FF206820B300224FF49A6100F0C3FD16
:1051A80008A9002501F8195D1148FFF755F920688D
:1051B8009DF80720036849F269011B6A984702A80D
:1051C800FFF7E4FE02A8FFF7AFFF002804DB02A9FF
:1051D800206800F02EFE04E0054602E0002500E00D
:1051E800044DD4F8C001FFF7B7F8284609B030BD20
:1051F80075670D00FCFEFFFF2DE9F04705468CB0F2
:1052080016460F4609B10B780BB9354C64E00846D1
:1052180001F09DF98046002E5CD0304601F097F9E8
:10522800441C08F102032344B3F59A6F4FD805F5DF
:10523800E070FFF775FF2846FFF796FF002840DB70
:105248006846FFF7A3FE6846FFF76EFF002838DBC5
:10525800D5F800A0DAF800300DF1040CD3F8389036
:10526800204B0693BCE80F000DF11C0EAEE80F00B2
:10527800DCF800308EF8003049F2690206A9504681
:10528800C84700281DDB002328688DF818300368FC
:105298000122DB6806A998472868036808F101021B
:1052A800DB68394698472CB1286803682246DB68D2
:1052B80031469847286803681B6C984700EAE074F1
:1052C80000E00446D5F8C001FFF746F804E06FF0A7
:1052D800BD0401E03446A4E720460CB0BDE8F087E1
:1052E800F2FEFFFF4C660D0038B50D4C0D4B2360E8
:1052F8000025022304F5E4706360A560C4F8C45176
:10530800C4F8C851FFF718F8074BC4F8CC5123600C
:105318002046064A0649BDE8384000F083BF00BF72
:10532800E4E30320A0670D003C670D00C0E3032001
:10533800F5500D0000231A464068FFF7F9B900221E
:1053480002214068FFF704BA002211464068FFF7BF
:10535800F7B9002211464068FFF702BA00231A463F
:1053680019464068FFF704BA00231A4619464068F0
:10537800FFF706BA002281F001014068FFF708BA7A
:1053880000224068FFF714BA002211464068FFF770
:1053980017BA002211464068FFF702BA70B58CB000
:1053A80014460646FFF7F2FD0CAB0022114643F8FF
:1053B800302D2046FFF7A8F8014658BB009B4BB399
:1053C8005A68022A0ED00A2A24D15C69112201A83F
:1053D80001F091F806238DF8143001AD04F10803AB
:1053E800183405E0596930460431FFF712FE11E020
:1053F800186859682A4603C20833A3421546F7D1EC
:1054080001A906A807ADFFF7CFFD0FCD341D0FC4C6
:105418002B6823700098FFF76FF830460CB070BD0A
:10542800024B034A1A6000225A607047B4E5032011
:10543800A0670D00F8B506460D468F180024BD423A
:105448000CD0336815F8011B9B6830469847002834
:1054580001DB0444F3E7002C08BF04462046F8BDEE
:1054680070B505460C46084649B101F070F82B683E
:10547800024621462846DB68BDE87040184770BDE3
:1054880003689B68184730B58BB00B4600218DF830
:105498002410012A98BF0A220DF12304B3FBF2F568
:1054A80005FB123303F0FF03092B94BF3033373366
:1054B800DBB2214604F801392B46002DEED1FFF767
:1054C800CFFF0BB030BD10B42AB903685DF8044BA8
:1054D8009B68C9B21847D2B25DF8044BFFF7D3BF37
:1054E800FFF7F1BF10B50446FFF7BEF9204610BD1F
:1054F8000348044A04490023836000F093BE00BFB8
:10550800BCE50320C0E30320ED540D00704710B53F
:105518000446FEF7C0FD204610BD000070B5084BDC
:105528000360044600250E4640F80C5FFEF7FCFEBB
:1055380030462671FFF720F8A560204670BD00BFF1
:10554800D4670D000079FFF71FB8704710B50446FF
:10555800FEF7A1FD204610BD10B504460068FFF710
:105568003FF9204610BD10B50446006808B1FFF7A2
:1055780037F900232360A360636010BD38B5044683
:105588000D4600680131FFF733F910B184E82100B6
:10559800012038BD10B50368044613B143688B4237
:1055A80007D22046FFF7EAFF20B1A3680BB92268AB
:1055B8001370012010BD70B50E46114604461546FD
:1055C800FFF7E8FF18B92046FFF7CDFF09E02A46A4
:1055D8003146A560206800F083FF2268A368002197
:1055E800D154204670BD38B500230446036043609B
:1055F800836003730D4639B1084600F0A8FF2946B9
:1056080002462046FFF7D7FF204638BD884210B52E
:105618000B46044607D0096819B19A68FFF7CBFF13
:1056280001E0FFF7A0FF204610BD10B50023044697
:105638000360436083600373FFF7E8FF204610BDF3
:1056480070B504460E4609B9002070BD6AB183687A
:10565800D5182946FFF79EFF0028F5D02068A368D3
:105668003146184400F04FFFA560012070BD38B5E1
:10567800044680688568FFF7E3FFA3689868401BC5
:1056880038BD07B500238DF80410012201A98DF853
:105698000530FFF7D5FF03B05DF804FB08B5806857
:1056A800FFF7EFFF08BD000030B585B000230D46B9
:1056B800029303604360836003731421064B0193D4
:1056C80004460390FFF766FF2B6801A91B6828466C
:1056D8009847204605B030BDE4670D00054B4FF6EE
:1056E8009C7200205A804FF6FF7218709A80FEF75D
:1056F800CBBF00BFCCE50320024B1A68024B1A60EF
:10570800704700BF58E30320D4E5032010B40468B1
:10571800246BA4465DF8044B604703689B6C1847EC
:10572800808E7047028FC08E101A704713B502AB77
:10573800026803F8011DD46819460122A04702B087
:1057480010BD10B503681B690446984728B1E38E5D
:10575800E26B591CE186D05C10BD4FF0FF3010BDE4
:1057680010B503681B690446984718B1E38EE26BCD
:10577800D05C10BD4FF0FF3010BD704710B4034629
:105788000846DC6BD98E1A8F0368521ADB682144ED
:105798005DF8044B1847A0F11000FFF7EFBFF0B514
:1057A80003688DB01C265B6A04460F461546984769
:1057B80001233246002105A8029300F09CFE8DF8D3
:1057C800146038460A268DF81560FEF78DFE112202
:1057D800ADF8160002213046FEF7C6FE00286061CB
:1057E80024DB0422009202AB40F6FF71FEF79CFE18
:1057F800E0B995B10390ADF8100003A9E8B2FEF73F
:1058080033FE98B90623009341F20B0203AB40F62E
:10581800FF716069FEF788FE40B91C2205A960691E
:10582800FEF77AFE10B96564012004E0236820467B
:105838005B6A984700200DB0F0BD10B5044640697A
:10584800002801DBFEF778FE4FF0FF336361002389
:10585800E386238710BD38B5C36B0546C08E13B1E8
:105868002C6C241A00E01C46944228BF1446224699
:10587800184400F035FEEB8E2344EB86204638BDF5
:1058880070B503681B6904460E461546984788B1EB
:10589800236820461B699847E38EE16B8542A8BFC1
:1058A800054619442A46304600F01AFEE38E2B447A
:1058B800E38601E04FF0FF35284670BD70B5044619
:1058C800054B44F8043B01F1200506460FCD0FC4F3
:1058D8002B682370304670BD4C660D00F0B59446B9
:1058E800026889B0976A0A4A02921D1D8E460646CA
:1058F8000FCD03AC0FC42B682370BDF8383000936C
:10590800624602AB71463046B84709B0F0BD00BFE9
:105918004C660D00F0B50368B0F836E09F6A0D4B91
:1059280089B000F12006044602930FCE03AD0FC5DF
:1059380033682B70A38E0093724602ABE16B20464E
:10594800B84723680546DB6920469847284609B0CA
:10595800F0BD00BF4C660D00F0B54378022B8DB04A
:1059680005460C46174601D1011D33E00A2B35D1F7
:105978001122002101A800F0BEFDAB6843B9EB6815
:1059880033B94FF6FF702E69FEF79EFD86421FD091
:1059980005F1080301AE05F1180E1868596832467A
:1059A80003C2083373451646F7D1062301A906A892
:1059B80007AE8DF81430FFF7F7FA0FCE04340FC492
:1059C8003368237057B16888FEF786FD388005E094
:1059D80005F114012046FFF71CFBF3E70DB0F0BDFD
:1059E8002DE9F0418EB00EAB002506461746084655
:1059F80043F8345D2A462946FEF786FD00281FDB5A
:105A0800019BFBB15B69EBB102A8FFF7BFFA019BF1
:105A18002A46586902A9FFF79FFF02A8FFF7D6FA9E
:105A280080B1336803ADD3F838800B4B08930FCDA2
:105A380009AC0FC42B6823703A4608A93046C04702
:105A4800044601E04FF0FF340198FEF755FD20466B
:105A58000EB0BDE8F08100BF4C660D002DE9F0479F
:105A6800D0F81480B8F1000F98B005460C461746D8
:105A7800994600DB11B94FF0FF304EE04FF01C0A99
:105A880009AE52460021304600F035FDCDF810A091
:105A9800B9F1000F14D04FF47A72B9FBF2F11091FA
:105AA80002FB11914A4308231192009341F2060226
:105AB80010AB40F6FF714046FEF736FD08B12CE00A
:105AC800082004AB01932146034600963A466869CC
:105AD800FEF73AFD041E1FDB05F11C0705F1340231
:105AE80030463946FFF738FF00262023394605A8F7
:105AF80010931196FFF7D8FDAB8E0393059B029385
:105B0800074B009301200194334610AA0549FEF77C
:105B1800B3FD05A8FFF720FD204618B0BDE8F087C3
:105B28001D680D0081670D0038B5054614462B7DAC
:105B3800062B084611D11C2313700A235370FEF755
:105B4800D3FC083424F8060C2B1D143553F8042B09
:105B580044F8042BAB42F9D138BD042B0AD11023E9
:105B6800137002235370FEF7BFFC60806868FEF76D
:105B7800ABFC606038BD00002DE9F04F984691B04D
:105B88002023002482468B4604A841461646BDF8C9
:105B9800689008930994FFF787FD049B029308AD6A
:105BA800154B164900932A4623460120CDF80C9040
:105BB8000196FEF761FD1C2704A8FFF7CDFC3A46C5
:105BC8002146284600F097FC2A4649464046FFF7FA
:105BD800ABFF9DF821304BB18DE8A000234632463B
:105BE8005946DAF81400FEF7B7FC01E04FF0FF3031
:105BF80011B0BDE8F08F00BF3A680D0081670D0055
:105C0800F0B591B00C4606460021154609A81C229D
:105C18001F4600F070FC09AA00212046FFF784FF08
:105C28009DF82530022B2ED1002305930A9B04935F
:105C3800DDB102A92846FEF71FFCB0B910A941F84A
:105C4800340D0298FEF720FC60B9039B53B1DA6863
:105C580012685178022903D152680AB1059201E00D
:105C68001B68F3E70398FEF717FC002F4FF00803B3
:105C7800009318BF032204AB08BF0422002130465A
:105C8800FEF752FC1EE00A2B1AD104AC14220021A4
:105C9800204600F030FC0BAB0FCB002F84E80F0040
:105CA8004FF01403009318BF0C22234608BF0D229F
:105CB800292130460895FEF737FC00EAE07001E03C
:105CC8004FF0FF3011B0F0BD38B54FF47A738360F0
:105CD8000B4B03F108026C33002503614FF0FF33CF
:105CE80004464560026043611C30FFF74FF94FF4EA
:105CF8000073E5862587E56323646564204638BD1F
:105D080068680D0010B590F8483004461BB1C06BA8
:105D180008B1FEF7C0F90023E36384F84830236430
:105D2800E386238710BD70B5044616460D46FFF777
:105D3800E9FF0023E66323643EB935B12846FEF740
:105D4800A8F90123E06384F84830E36B03B12564C4
:105D5800206C003018BF012070BD70B5C26B0446BE
:105D68001AB9016C09B1FFF7DEFFE16B0023E38686
:105D7800238741B1226C32B12068056B2046A847C1
:105D88000028C8BF2087236820461B69BDE87040EB
:105D980018470000F0B591B020230546002604A856
:105DA80017460C4608930996FFF77EFC049B01935F
:105DB800104B009308AA33460F4902970120FEF7BB
:105DC8005BFC04A8FFF7C8FBEA6B22B9296C11B188
:105DD8002846FFF7A8FF04340FCC05F120060FC6AC
:105DE80023683370286CAF860023EB862B8711B0AD
:105DF800F0BD00BF54680D0081670D0010B5074B5A
:105E080003F108026C33044602600361FFF715FDD5
:105E18002046FFF777FF204610BD00BF68680D00D9
:105E280010B50446FFF7EAFF2046FEF734F920468E
:105E380010BD02464069002804DB012392F8442083
:105E4800FFF7DEBE4FF0FF30704770474174704770
:105E5800007CFEF7D9BB007CFEF7AEBB007CFEF7EA
:105E6800BBBB007CFEF7B0BB007CFEF7BDBB10B52A
:105E78000446FEF710F9204610BD70B5457C04466F
:105E88000E4625B9007CFEF7BFFB002805DD31462C
:105E9800207CBDE87040FEF787BB284670BD000037
:105EA80010B5044608461146002262604FF47A7223
:105EB800A260054A22600122207462741A46FEF725
:105EC8006BFB204610BD00BFE0680D00007CFEF7AC
:105ED80093BB000038B50C4D296811F0010411D1AD
:105EE8002846FEF7DCF868B1084A094B09482146FC
:105EF800FFF7D6FF2846FEF7D7F8074A07490548AF
:105F080000F090F9034838BD70E6032074E60320DA
:105F1800ECE50320D8E50320C0E30320535E0D0021
:105F28004174704770470021007CFEF78DBB01214A
:105F3800007CFEF789BB007CFEF77EBB007CFEF789
:105F480073BB38B50446007C0D46FEF775FB002888
:105F580001DC607C20B12946207CFEF77DFB012016
:105F680038BD007CFEF780BB10B50446FEF793F8F9
:105F7800204610BD10B50446002363604FF47A73C1
:105F8800A360054B236001230846217463741146FE
:105F9800FEF742FB204610BD10690D0010B5142213
:105FA8000446002100F0A7FA204610BD30B50E4D7A
:105FB80087B001A8FFF7F2FF296811F0010410D19A
:105FC8002846FEF76CF860B101AA21460748FFF79A
:105FD800D1FF2846FEF768F8054A0649034800F04D
:105FE80021F9024807B030BDF8E60320FCE603209B
:105FF800C0E303202D5F0D0008B50C4B33B1FFF74C
:10600800D5FF03681B699847002809DC084B63B172
:10601800FFF760FF03681B699847002803DC08BD89
:10602800AFF30080F2E7AFF3008008BD0000000086
:106038000000000008B5FFF7DFFFFEF795F9014BF8
:10604800186008BD14E7032007B5002300931A461B
:106058006FF07701FEF742FB03B05DF804FB000028
:1060680007B543880A2B08D0502B09D1094B1B6868
:106078003BB103B05DF804EB1847FFF7E5FF06E016
:10608800002300931A466FF07701FEF727FB03B051
:106098005DF804FB10E7032008B500210448FEF76B
:1060A8003FFB00210348BDE80840FEF70DBB00BFD9
:1060B8000000000069600D0010B504460F48FFF7A6
:1060C80041FA28B1A4F10B03022B01D8002010BD1E
:1060D80000F066F8FEF71CFF08B1012CF6D9FFF7AF
:1060E800F9FEFFF7F3FE18B1A4F10903012BEDD96E
:1060F8001E2C8CBF0020012010BD00BF30E70320FC
:106108001E2838B504460D460AD8FF2908D0FFF7DF
:10611800D3FF28B129462046BDE83840FEF73CB9F0
:1061280038BD38B504460D46FEF73EF9FF2810D0B5
:10613800062804D84D2323FA00F0C30709D42046C3
:10614800FFF7BAFF28B129462046BDE83840FEF7D8
:1061580033B938BD38B504460D46FFF7ADFFF0B189
:1061680004212046FEF710F9042805D1A9B22046DB
:10617800BDE83840FEF728B902212046FEF704F9A9
:1061880002280CD12046FEF70FF9012801D0042877
:1061980005D129462046BDE83840FEF71DB938BD6F
:1061A80038B50B4D296811F001040FD12846FDF7C9
:1061B80076FF58B121460748FEF798FE2846FDF7B6
:1061C80073FF054A0549034800F02CF8014838BD1B
:1061D80018E703201CE70320C0E303209D4E0D00B1
:1061E80070B50C4C0C4E0D4D00212046FFF796F96A
:1061F80020460B4C3246294600F014F8012120466F
:10620800FFF78CF9324629462046BDE8704000F079
:1062180009B800BF30E70320C0E3032015550D007F
:1062280040E703200B460146184600F04BB908B575
:10623800FEF7E6FA244B1A68D0075CBF01221A6001
:10624800224B1A68D1075CBF01221A60204B1A68DA
:10625800D2075CBF01221A601E4B1A68D0075CBFC8
:1062680001221A601C4B1A68D1075CBF01221A6010
:106278001A4B1A68D2075CBF01221A60184B1A68B9
:10628800D0075CBF01221A60164B1A68D1075CBFA1
:1062980001221A60144B1A68D2075CBF01221A60E7
:1062A800124B1A68D0075CBF01221A60104B1A689B
:1062B800D1075CBF01221A600E4B1A68D2075CBF77
:1062C80001221A60704700BF7CE7032078E70320AB
:1062D80074E7032070E703206CE7032068E70320D6
:1062E80064E7032060E703205CE7032058E7032006
:1062F80054E7032050E70320184B1A68D1075CBF06
:1063080001221A60164B1A68D2075CBF01221A6074
:10631800144B1A68D0075CBF01221A60124B1A6826
:10632800D1075CBF01221A60104B1A68D2075CBF04
:1063380001221A600E4B1A68D0075CBF01221A604E
:106348000C4B1A68D1075CBF01221A600A4B1A6805
:10635800D2075CBF01221A60704700BF9CE7032088
:1063680098E7032094E7032090E703208CE70320B5
:1063780088E7032084E7032080E70320184B1A6886
:10638800D1075CBF01221A60164B1A68D2075CBF9E
:1063980001221A60144B1A68D0075CBF01221A60E8
:1063A800124B1A68D1075CBF01221A60104B1A6899
:1063B800D2075CBF01221A600E4B1A68D0075CBF77
:1063C80001221A600C4B1A68D1075CBF01221A60BF
:1063D8000A4B1A68D2075CBF01221A60704700BFD7
:1063E800BCE70320B8E70320B4E70320B0E70320A5
:1063F800ACE70320A8E70320A4E70320A0E70320D5
:10640800244B1A68D0075CBF01221A60224B1A6815
:10641800D1075CBF01221A60204B1A68D2075CBF03
:1064280001221A601E4B1A68D0075CBF01221A604D
:106438001C4B1A68D1075CBF01221A601A4B1A68F4
:10644800D2075CBF01221A60184B1A68D0075CBFDC
:1064580001221A60164B1A68D1075CBF01221A6024
:10646800144B1A68D2075CBF01221A60124B1A68D3
:10647800D0075CBF01221A60104B1A68D1075CBFB5
:1064880001221A600E4B1A68D2075CBF01221A60FB
:10649800704700BFECE70320E8E70320E4E70320A8
:1064A800E0E70320DCE70320D8E70320D4E7032054
:1064B800D0E70320CCE70320C8E70320C4E7032084
:1064C800C0E7032010B5054C13462CB10A46014617
:1064D8000220AFF3008010BD204610BD0000000070
:1064E80010B5431E0A44914204D011F8014B03F839
:1064F800014FF8E710BD02440346934202D003F867
:10650800011BFAE77047034611F8012B03F8012B2A
:10651800002AF9D170470000024B0146186800F0C4
:1065280003B800BFBCE3032070B5064608460C4616
:1065380000F00DF8451C29463046FEF769F9064675
:1065480018B12A462146FFF7CBFF304670BD0346F7
:1065580013F8012B002AFBD1181A013870470000E4
:106568001D400D0059400D0085400D0089400D006B
:1065780000000000737761726D2D6C65616465724F
:106588002D6F6E6C696E650066772D76657273691E
:106598006F6E00666F7277617264006261636B0090
:1065A80073746F7000616C6C4F666600676F466F3E
:1065B800727761726400676F4261636B0076302E98
:1065C80038000000000000000000000055480D00E1
:1065D8005B480D0083480D0067480D0057480D00C3
:1065E80000000000000000007F4E0D00754E0D00F9
:1065F8006B4E0D00614E0D00554E0D00494E0D00BD
:106608003D4E0D00354E0D002B4E0D00214E0D0058
:10661800A5530D0000000000000000009D4E0D0075
:10662800E74E0D00BF4E0D009F4E0D00C74E0D00EA
:10663800CF4E0D00D74E0D00DF4E0D0000000000BC
:10664800000000002F4F0D00214F0D00234F0D00BB
:106658006C6E00666E00636F6465006465746169E2
:106668006C000D0A00253031307520005D20002CAB
:10667800200028293A2000205B00636F6465203DD4
:10668800200025690064657461696C73203D2000F1
:10669800626175640053657269616C005365726963
:1066A800616C31007479706500706172616D0063AE
:1066B8006D6400696400686E64007374726D0066CE
:1066C800696C74006C766C0061646448616E646C1B
:1066D80065720072656D6F766548616E646C65728F
:1066E80000656E756D48616E646C657273004A531F
:1066F8004F4E53747265616D4C6F6748616E646C80
:10670800657200617070006E6F6E6500747261630F
:106718006500696E666F007761726E006572726FF0
:10672800720070616E696300616C6C0000000000AB
:10673800000000009F500D0095500D008B500D007B
:1067480081500D0075500D0069500D005D500D0011
:1067580055500D004B500D0041500D00A5530D0034
:10676800666630333A3A313A313030310074683144
:10677800006D65736870756200776972696E67008D
:106788007061727365207061636B657420256400A5
:1067980000000000000000003D530D0047530D00AD
:1067A80051530D005B530D0065530D0071530D00DF
:1067B8007D530D0089530D0091530D009B530D001F
:1067C800A5530D00000000000000000015550D0045
:1067D80017550D00000000000000000053550D0083
:1067E80055550D00A5560D0077560D005A00252B5E
:1067F8003033643A253032750025592D256D2D2505
:10680800645425483A254D3A2553257A0061736327
:1068180074696D65007265636569766564202564D1
:106828002062797465732066726F6D202573232545
:10683800640073656E645061636B65742073697A74
:10684800652025642C20257323256400626567690B
:106858006E207061636B65742025732325640000C6
:106868000000000000000000055E0D00295E0D001C
:1068780035570D005F580D002D570D004B570D0073
:1068880069570D0083570D00A7570D0043580D0099
:10689800815B0D00E5580D00655A0D0015570D0078
:1068A8009D5D0D00E9590D001D590D00635D0D003A
:1068B80089580D0023570D00C5580D0029570D00A4
:1068C80085570D00F0FFFFFF000000009F570D00E7
:1068D8000000000000000000535E0D00775E0D0010
:1068E800835E0D003D540D005F5E0D006B5E0D0074
:1068F800655E0D00715E0D00555E0D00595E0D0060
:1069080000000000000000002D5F0D00715F0D0009
:106918004B5F0D003D540D00455F0D002F5F0D00CE
:10692800375F0D006B5F0D003F5F0D00295F0D00A5
:10693800000000000000000000000000000000004F
:10694800000000000000000000000000000000003F
:10695800000000000000000000000000000000002F
:10696800000000000000000000000000000000001F
:10697800000000000000000000000000000000000F
:1069880000000000000000000000000000000000FF
:1069980043000000C9420D00894E0D0031500D0022
:1069A800F1520D0029540D00F9540D00E5560D0063
:1069B80001570D00E9610D003D620D0001630D00F6
:0869C80085630D0009640D0058
:1069D0001100000010000000120000001300000071
:1069E0005500000015680D000000000038690D001A
:1069F00058690D0078690D000000000000000000DB
:106A0000000000000000000098690D000000000078
:106A10000000000000000000000000000000000076
:106A20000000000000000000000000000000000066
:106A30000000000000000000000000000000000056
:0C6A400000000000000000005CE30320E8
:106A4C00FFFFFFFF00000102030405060708090A07
:106A5C000B0C0D0E0F101112131415161718191A02
:086A6C001B1C1D1E1F20280049
:046A7400785634120A
:04000003D0004018D1
:00000001FF
