:02000002D0002C
:1040000000400D00A46C0D00000005000E0005012D
:0840100004014601000000005C
:104018009C670D0009480A49884208B505D0094A35
:10402800824202D0121A02F056FB0748074A0021C2
:10403800121A02F05BFB014808BD00BF40E30320F1
:10404800006C0D00BCE30320BCE30320F0E7032071
:1040580070B502F0F3F8074C074BE41AA4080025E2
:104068001E46A54204D056F8253098470135F8E792
:1040780070BD00BFF46B0D00C06B0D0000F01AB8E6
:1040880008B500F0E3F8BDE8084002F0A5B800F074
:1040980081BB00F07FBB00F085BB00F083BB0078DC
:1040A800B0FA80F040097047012303707047106828
:1040B80070470000F0B52C4F2C4E38882C4D2D4CF5
:1040C80085B0012102F0EEF80121308802F0EAF80B
:1040D8000121288802F0E6F82088012102F0E2F8A0
:1040E8000021388802F0EFF80021308802F0EBF860
:1040F8000021288802F0E7F82088002102F0E3F880
:104108001D4B1E491A681E4B1B788DF8003002A8FB
:104118003C2300F0D1FC039C7CB16368013B6360E5
:104128005BB9236820469B689847A368013BA36056
:104138001BB923682046DB6898470823ADF8083088
:10414800104B0393042202AB0B490F4800F0BAFA54
:104158000E4A0F490F4801F0DBF80F4A0F490D4886
:1041680001F0D6F805B0F0BD4CE3032048E3032086
:1041780040E3032044E30320C4E30320B0670D00B9
:10418800C0E30320B7400D00C6670D00ED410D00E8
:10419800D1670D00E8E3032021420D00DB670D0025
:1041A80008B50C4B0021188802F0A6F80A4B00212C
:1041B800188802F0A1F8094B0021188802F09CF831
:1041C800074B0021188802F097F83220BDE8084014
:1041D80000F008BB4CE3032048E3032040E303203E
:1041E80044E3032010B5094B094C1888216802F0F4
:1041F80083F8084B2168188802F07EF84FF47A702B
:1042080000F0F0FABDE81040FFF7CABF40E3032012
:1042180050E3032048E3032010B5094B094C1888E4
:10422800216802F069F8084B2168188802F064F8E0
:104238004FF47A7000F0D6FABDE81040FFF7B0BF2F
:1042480044E3032050E303204CE3032070470000BD
:1042580010B5084B084C00221A7000F06DF8074999
:10426800204601F0ACFA2046054A0649BDE8104050
:1042780002F0AAB8C0E30320C4E30320E2670D00FC
:10428800BCE3032039570D0008B5024B1B685B6877
:10429800019308BD4802030008B5024B1B689B68E0
:1042A800019308BD4802030008B5024B1B681B694F
:1042B800019308BD4802030008B5024B1B685B69FF
:1042C800019308BD4802030008B5024B1B681B6B2D
:1042D800019308BD4802030008B5024B1B685B6CDC
:1042E800019308BD4802030008B5024B1B68DB6C4C
:1042F800019308BD4802030008B5024B1B685B6DBB
:10430800019308BD4802030008B5024B1B68DB6E29
:10431800019308BD4802030008B5024B1B689B685F
:10432800019308BD1802030008B5024B1B685B69BE
:10433800019308BD1802030008B5024B1B681B68EF
:10434800019308BD2C02030008B5024B1B685B688B
:10435800019308BD2C02030008B5024B1B689B683B
:10436800019308BD2C02030008B5024B1B68DB68EB
:10437800019308BD2C02030008B5024B1B681B699A
:10438800019308BD2C02030008B5024B1B689B6A09
:10439800019308BD2C02030008B5024B1B689B6FF4
:1043A800019308BD2C02030008B5024B1B681B6A69
:1043B800019308BD2802030008B5024B1B685B6A1D
:1043C800019308BD2802030008B5024B1B689B6ACD
:1043D800019308BD2802030008B5024B1B68DB6A7D
:1043E800019308BD2802030008B5024B1B681B6B2C
:1043F800019308BD2802030008B5024B1B685B6BDC
:10440800019308BD2802030008B5024B1B681B6C0A
:10441800019308BD2802030008B5024B1B681B69FD
:10442800019308BD6C02030008B5024B1B685B6969
:10443800019308BD6C02030008B5024B1B689B6919
:10444800019308BD6C02030008B5024B1B685B6D45
:10445800019308BD6C02030008B5024B1B689B6DF5
:10446800019308BD6C02030008B5024B1B685B6929
:10447800019308BD6402030008B5024B1B689B69E1
:10448800019308BD6402030008B5024B1B681B6A50
:10449800019308BD6402030008B5024B1B685B6A00
:1044A800019308BD6402030008B5024B1B689B6AB0
:1044B800019308BD6402030008B5024B1B689B68A2
:1044C800019308BD6802030008B5024B1B68DB684E
:1044D800019308BD6802030008B5024B1B685B68BE
:1044E800019308BD3802030008B5024B1B689B699D
:1044F800019308BD3802030008B5024B1B68DB694D
:10450800019308BD3802030008B5024B1B68DB6A3B
:10451800019308BD3802030008B5024B1B685B6BAA
:10452800019308BD3802030008B5024B1B689B6B5A
:10453800019308BD3802030008B5024B1B68DB690C
:10454800019308BD3002030008B5024B1B681B6AC3
:10455800019308BD3002030008B5024B1B681B68B5
:10456800019308BD3C02030008B5024B1B68DB68D9
:10457800019308BD3C02030008B5024B1B681B6988
:10458800019308BD3C02030008B5024B1B685B6938
:10459800019308BD3C02030008B5024B1B689B69E8
:1045A800019308BD3C02030008B5024B1B68DB6998
:1045B800019308BD3C02030008B5024B1B681B6A47
:1045C800019308BD3C02030008B5024B1B689B6AB7
:1045D800019308BD3C02030008B5024B1B681B6829
:1045E800019308BD4C02030008B5024B1B681B6908
:1045F800019308BD4C02030008B5024B1B685B69B8
:10460800019308BD4C02030008B5024B1B689B6967
:10461800019308BD4C02030008B5024B1B68DB6917
:10462800019308BD4C02030008B5024B1B681B6AC6
:10463800019308BD4C02030008B5024B1B681B6DB3
:10464800019308BD6002030008B5024B1B685B6854
:10465800019308BD2002030008B5024B1B685B6983
:10466800019308BD2002030008B5024B1B68DB6CF0
:10467800019308BD2002030008B5024B1B685B6D5F
:10468800019308BD2002030008B5034B1B68D3F84B
:104698008830019308BD00002002030008B5034BD1
:1046A8001B68D3F89430019308BD00002002030072
:1046B80008B5034B1B68D3F8A430019308BD00006C
:1046C8002002030008B5024B1B681B68019308BD54
:1046D8004402030008B5024B1B681B6A019308BD1E
:1046E8004402030008B5024B1B68DB6B019308BD4D
:1046F8004402030008B5024B1B685B68019308BDC0
:104708004002030008B5024B1B689B68019308BD73
:104718004002030008B5024B1B68DB68019308BD23
:104728004002030008B5024B1B681B69019308BDD2
:104738004002030008B5024B1B685B69019308BD82
:104748004002030008B5024B1B689B69019308BD32
:104758004002030008B5024B1B68DB69019308BDE2
:104768004002030008B5024B1B681B6A019308BD91
:104778004002030008B5024B1B681B6B019308BD80
:104788004002030008B5024B1B685B6B019308BD30
:104798004002030008B5024B1B681B68019308BD63
:1047A8001C02030008B5024B1B685B68019308BD37
:1047B8001C02030008B5024B1B689B68019308BDE7
:1047C8001C02030008B5024B1B68DB6A019308BD95
:1047D8001C02030008B5024B1B681B6B019308BD44
:1047E8001C0203000021FFF737BF10B58368044699
:1047F8000BB901F008FEC3689847A3681BB10322F0
:104808002146204698472046BDE81040FFF743BCA4
:1048180070470020704710B50446FFF73CFC20465F
:1048280010BD08B508B1FFF7F6FF08BD10B58368DD
:10483800044613B1032201469847204610BD38B5F7
:10484800C468D4B12378022B02D1E068FFF7AAFF2D
:1048580065682DB12846FFF7E9FF2846FFF71BFCDE
:10486800A5682DB12846FFF7E1FF2846FFF713FC9E
:104878002046BDE83840FFF70EBC38BD38B504689F
:1048880005467CB16368013B63605BB923682046D9
:104898009B689847A368013BA3601BB9236820461F
:1048A800DB689847284638BD13B5044691E80500EB
:1048B80000234B600B602060626001A801930093A5
:1048C800FFF7DCFF204602B010BD0B68036013B190
:1048D8005A6801325A607047F7B50C4602AD54F871
:1048E800043B45F8083D06460F4601A82146FFF758
:1048F800ECFF29463046FFF7D7FF01A8FFF7BEFFB8
:104908002046FFF7BBFF3846FFF7C5FB304603B02C
:10491800F0BD13B50B46044603C88DE8030093E8C1
:10492800030084E803009DE8030083E8030002B065
:1049380010BD826810B50AB901F065FDC368BDE80D
:104948001040184708B5006800F11001FFF7F1FFA3
:1049580008BD826810B50AB901F055FDC368BDE805
:104968001040184708B5006800F11001FFF7F1FF83
:1049780008BD38B5002383608B6804460D462BB10B
:1049880002229847EB68E360AB68A360204638BD15
:104998002DE9F0414FF69C7386B00468B1F9042004
:1049A8008B8000230F688DF800300B604FF00200F9
:1049B800D4E84F1F994203D1C4E8450F002DF7D121
:1049C80002D08DF800106AE014F10C051EBFE760F4
:1049D80022821F460123BFF35F8F0020637004F11A
:1049E8000803BFF35F8F53E8006F43E80002002A13
:1049F800F9D1BFF35F8F002E51D0FFF735FE20B1FC
:104A080029463046FFF795FF43E031466846FFF7F1
:104A1800B0FFE068B4F9105008B101F077FE0490D7
:104A28001020ADF81450FFF732FB054630B34FF0B5
:104A38000008C0F808801820FFF729FB0446C0B119
:104A4800C0F8088001466846FFF763FF029BA2682A
:104A5800A360039B0292E268E360BDF81430A3826E
:104A68004FF69C73ADF81430049B03922361CDF884
:104A780010800E4BEB600E4B2C60AB600498FFF778
:104A880091FE6846FFF7D2FE002229460948FFF743
:104A9800F3FD3046FFF7CAFE3046FFF7FCFA38460A
:104AA800FFF780FE06B0BDE8F08100BF4D490D005C
:104AB800A94B0D00F3470D002DE9F04F8BB007AD62
:104AC8004FF0000B0646994614200C230F469046DB
:104AD8009DF850A0C5F804B0C5F808B00793FFF7D3
:104AE800D6FA044638B180F800B080F801B0C0F8B2
:104AF80004B0C0F808B00023102003940493FFF713
:104B0800C6FA28B1012343608360234B0360C46065
:104B18000490224B08930820FFF7B9FA044628B1FD
:104B2800039B40F8043B04A9FFF7CFFE00955FFA0A
:104B38008AF34A46414638460994FFF7CBFDB8B98F
:104B4800039B5B7803F0FF0293B94FF69C7305A9AA
:104B580003A80592ADF81830FFF71AFF0598FFF77C
:104B680021FE05A80999FFF7B7FE06A8FFF786FEFC
:104B7800039B059304A906A8FFF7A7FE05A93046DD
:104B8800FFF792FE06A8FFF779FE04A8FFF776FE66
:104B980030460BB0BDE8F08FF0670D00114D0D00E9
:104BA800022AF8B5044606D0032A17D0012A20D1D4
:104BB8000B6803601DE018200E68FFF768FA0546C9
:104BC80050B13146FFF7D5FE3069B6F9147008B117
:104BD80001F09CFD2861AF8225600AE0046844B1B9
:104BE8002069FFF7DFFD2046FFF720FE2046FFF78C
:104BF80052FA0020F8BD38B5002383608B6804465C
:104C08000D462BB102229847EB68E360AB68A360BE
:104C1800204638BD022A70B5044606D0032A11D0B2
:104C2800012A17D10B68036014E014200E68FFF7FF
:104C38002EFA054620B13146FFF7DDFF337C2B7491
:104C4800256007E004682CB12046FFF7EFFD2046F9
:104C5800FFF721FA002070BDF0B5002387B00C469D
:104C6800BFF35F8F50E8006F40E80032002AF9D1A7
:104C7800BFF35F8F002E3ED01846FFF7F5FC0746BE
:104C880020B121463046FFF764FE2EE0314601A8E8
:104C9800FFF7B1FF23788DF814301020FFF7F7F9EC
:104CA8000546D0B187601420FFF7F1F9044678B1C2
:104CB8008760014601A8FFF72CFE039BA268A3604A
:104CC800049B0392E268E3609DF814300492237415
:104CD8000A4BEB600A4B2C60AB6001A8FFF7A6FDFE
:104CE800002229460748FFF7C7FC3046FFF79EFD1C
:104CF8003046FFF7D0F907B0F0BD00BF6D490D0091
:104D08001D4C0D00F3470D0030B585B004460D4627
:104D180068461146FFF7E0FD7CB124B228460DB184
:104D280001F0F4FC029002A96846ADF80C40FFF7C8
:104D38002FFE0298FFF736FD1DE000988DF8084019
:104D48004FF00102D0E84F3FA34203D1C0E8412F02
:104D58000029F7D102D08DF808300CE010F10C01D1
:104D68004FF0010318BF0373BFF35F8F043000F8DF
:104D7800033CFFF771FF01A8FFF780FD05B030BDC8
:104D8800002211464068FFF7EDBC0022114640683A
:104D9800FFF7F8BC00224068FFF7ECBC002281F066
:104DA80001014068FFF7D6BC00231A46194640683F
:104DB800FFF7C8BC00231A4619464068FFF7BABC7B
:104DC800002211464068FFF7ADBC0022114640683A
:104DD800FFF798BC002202214068FFF79BBC002324
:104DE8001A464068FFF786BC024B03225A60024A03
:104DF8001A607047D4E303200C680D007047F8B5BB
:104E0800064615460C468F18BC4206D0336814F87F
:104E1800011B9B6830469847F6E72846F8BD0022F4
:104E2800007CFFF7C1BA0021007CFFF7C5BA00215A
:104E3800007CFFF7C9BA0021007CFFF7CDBA00213A
:104E4800007CFFF7D1BA10B50446FFF724F92046D5
:104E580010BD000010B504464FF47A730846A360ED
:104E68000021044B207461602360FFF7CDFA2046CF
:104E780010BD00BF40680D000021007CFFF7BCBAE0
:104E8800704710B50446FFF706F9204610BDF0B587
:104E9800037D062B8DB00E4600F104074FF0000489
:104EA80002D000F1080518E00CAD394605F8304D80
:104EB8002F232A460A20FFF7D7FA284601F041FC9B
:104EC80033680246DB682946304698470FE024B12C
:104ED8002E21304600F0C0FB044415F8011D0A22BB
:104EE800304600F0E9FBBD420444F0D120460DB045
:104EF800F0BD000010B5054B0446112240F8043BF4
:104F0800002101F0F3FB204610BD00BF68680D00CA
:104F18000346074A10B543F8042B01F1100251F873
:104F2800044B43F8044B9142F9D10A781A7010BD2A
:104F380068680D00037D042B01D1406808E0062B4A
:104F48000AD1436853B1836843B1C36833B1006978
:104F5800003018BF0120704700207047184670477E
:104F680010B59DF8084044EA032343EA024242EAA6
:104F7800016104234160037510BD37B50D788B7846
:104F88004A78C97800912946FFF7EAFF03B030BD97
:104F9800014B024A1A607047DCE3032029690D00BF
:104FA80010B5836804460BB1C06806E0406828B1B4
:104FB80083680BB901F027FAC36898470123237463
:104FC8000020BDE81040FFF79FB900221146406855
:104FD800FFF7C8BB002211464068FFF7D3BB002289
:104FE8004068FFF7C7BB002281F001014068FFF766
:104FF800B1BB00231A4619464068FFF7A3BB00233C
:105008001A4619464068FFF795BB002211464068CA
:10501800FFF788BB002211464068FFF773BB0022E8
:1050280002214068FFF776BB00231A464068FFF765
:1050380061BB10B103685B681847704738B5044610
:105048000068D0B1FFF728F9B8B9237C1BB92068EC
:1050580008B1FFF729F9656855B1AB681BB10322A0
:105068002946284698472846FFF715F80023636025
:105078002068FFF721F90023236038BD38B50B4BB2
:1050880003600446D0F8CC0108B1FFF706F8D4F85D
:10509800C4512DB12846FFF7D1FF2846FEF7FBFF84
:1050A800A06808B1FFF7C5FF204638BD5C690D0050
:1050B8000068FFF719B92DE9F84F0B9F9DF828B044
:1050C8000646884691469A4604460025236C4B4579
:1050D80029D1636C534526D194F848305B4522D1D9
:1050E8004021404601F04AFB41460246204601F075
:1050F80030FBC0B96FB10C21384601F03FFB0246C6
:1051080038B1582303FB05603946493001F021FBCB
:1051180004E0582000FB056595F84900B0FA80F0D6
:105128004009BDE8F88F0135052D04F15804CDD1AB
:105138000020BDE8F88F00002DE9F04F85B0074644
:105148009DF838A00F9E0196CDF800A089460292DE
:105158000393FFF7B0FF00283CD10446582303FB14
:105168000475D5F84080B8F1000F2ED1402148468B
:1051780001F004FB494683460246284601F0ABFA93
:10518800CBF14002414605EB0B0001F0AFFA029B60
:105198002B64039B6B6485F849802EB10C21304643
:1051A80001F0ECFA054600E035465820444338192A
:1051B8003C442A4631464930254401F08CFA002007
:1051C80085F8490084F848A005E00134052CC6D1CB
:1051D800024800E0002005B0BDE8F08FFCFEFFFFAC
:1051E80007B5002301930093FFF7A6FF03B05DF80E
:1051F80004FB2DE9F341044608460D46904601F0AC
:10520800A0FA04F5DC760746236CABB140212046B2
:1052180001F0B4FA874202460BD32946204601F032
:105228004BFA30B9009043462A4621465820FFF7EA
:105238003FFA5834B442E7D102B0BDE8F08100002B
:1052480030B58DB004461122002101A801F04EFAB4
:10525800062301AA09498DF814300A20FFF70CF932
:1052680007AD01A906A8FFF753FE0FCD04340FC4FC
:105278002B68237000200DB030BD00BF88690D0079
:1052880030B5044689B000F5E070FFF711FF2368D8
:1052980083BB4C20FEF7FBFE054608B100F0E6FD97
:1052A8002068256008B1FFF7C4FE206820B30022FB
:1052B8004FF49A6100F009FE08A9002501F8195D6C
:1052C8001148FFF7A9F820689DF80720036849F2FC
:1052D80069011B6A984702A8FFF70CFE02A8FFF7AE
:1052E800AFFF002804DB02A9206800F074FE04E088
:1052F800054602E0002500E0044DD4F8C001FEF7A1
:10530800FBFF284609B030BD95690D00FCFEFFFF84
:105318002DE9F341044600F5E0700F469046FFF78B
:10532800C7FED4F8BC61FEB91A49142001F05AF836
:10533800054670B1184B83604FF4406306604660C1
:10534800C4600674032201930090144B1449FEF7BD
:105358009BFFD4F8BC61C4F8BC512EB13046FFF7AE
:105368006DFE3046FEF797FE2046FFF789FF0028BE
:1053780007DB42463946201DFFF732FF00EAE07599
:1053880000E00546D4F8C001FEF7B6FF284602B093
:10539800BDE8F081586B0D00BD540D00A94F0D00FC
:1053A80099690D002DE9F041054600F5E0768AB0CF
:1053B8003046FFF77DFE2C68D5F8C001FEF79CFF4C
:1053C800002C63D0D5F8C43163B12368D5F8C41173
:1053D8001F6B20464FF47A734FF49A62B847041E45
:1053E80013DC56E02D494FF49A6001F00AF8D5F81D
:1053F800C431C5F8C40113B11846FEF74EFED5F8FE
:10540800C431002BE1D1264844E02023254A0293E9
:1054180000920023019402AA234903930120FFF775
:105428000BF9D5F8C4315F1C1B786BBB013C2146D6
:10543800384601F0A3F938B3241A002C07EB00080A
:1054480022DD3B5C03BB013C0ED008F1010821467C
:10545800404601F093F9241A002C15DD18F80030A5
:1054680093B9012C02D00FE0DFF844803046FFF7F3
:105478001FFE42463946281DFFF7BBFED5F8C0017E
:10548800FEF73AFF002005E0084803E06420FEF735
:1054980043FF20460AB0BDE8F08100BF586B0D00FD
:1054A800FCFEFFFFA8690D00A1690D00E8FEFFFFE3
:1054B8008A680D0008B504462046FFF773FFFBE72E
:1054C80038B50D4C0D4B23600025022304F5E4701C
:1054D8006360A560C4F8C451C4F8C851FEF7FCFE67
:1054E800074BC4F8CC5123602046064A0649BDE85C
:1054F800384000F069BF00BFE0E30320C0690D0039
:105508005C690D00BCE3032085500D0000231A469A
:105518004068FFF7EFB8002202214068FFF7FAB8A9
:10552800002211464068FFF7EDB800221146406896
:10553800FFF7F8B800231A4619464068FFF7FAB88B
:1055480000231A4619464068FFF7FCB8002281F08C
:1055580001014068FFF7FEB800224068FFF70AB96A
:10556800002211464068FFF70DB900221146406835
:10557800FFF7F8B870B58CB014460646FFF7BAFCCA
:105588000CAB0022114643F8302D2046FEF79CFF55
:10559800014658BB009B4BB35A68022A0ED00A2A10
:1055A80024D15C69112201A801F0A0F806238DF826
:1055B800143001AD04F10803183405E05969304688
:1055C8000431FFF7DAFC11E0186859682A4603C26B
:1055D8000833A3421546F7D101A906A807ADFFF77E
:1055E80097FC0FCD341D0FC42B6823700098FEF76D
:1055F80063FF30460CB070BD024B034A1A600022AC
:105608005A607047B0E50320C0690D00F8B506463A
:105618000D468F180024BD420CD0336815F8011BC5
:105628009B6830469847002801DB0444F3E7002CC8
:1056380008BF04462046F8BD70B505460C46084626
:1056480049B101F07EF82B68024621462846DB68FE
:10565800BDE87040184770BD03689B68184730B5AF
:105668008BB00B4600218DF82410012A98BF0A221E
:105678000DF12304B3FBF2F505FB123303F0FF032E
:10568800092B94BF30333733DBB2214604F8013994
:105698002B46002DEED1FFF7CFFF0BB030BD10B475
:1056A8002AB903685DF8044B9B68C9B21847D2B29F
:1056B8005DF8044BFFF7D3BFFFF7F1BF10B5044601
:1056C800FFF7B4F8204610BD0348044A04490023F4
:1056D800836000F079BE00BFB8E50320BCE3032077
:1056E800C5560D00704710B50446FEF7D4FC204699
:1056F80010BD000070B5084B0360044600250E4637
:1057080040F80C5FFEF7E0FD30462671FEF714FF07
:10571800A560204670BD00BFF4690D000079FEF752
:1057280013BF704710B50446FEF7B5FC204610BD00
:1057380010B504460068FFF735F8204610BD10B5CF
:105748000446006808B1FFF72DF800232360A36022
:10575800636010BD38B504460D4600680131FFF797
:1057680029F810B184E82100012038BD10B503687C
:10577800044613B143688B4207D22046FFF7EAFF7D
:1057880020B1A3680BB922681370012010BD70B551
:105798000E46114604461546FFF7E8FF18B920469D
:1057A800FFF7CDFF09E02A463146A560206800F0E2
:1057B80092FF2268A3680021D154204670BD38B5F5
:1057C8000023044603604360836003730D4639B1C8
:1057D800084600F0B6FF294602462046FFF7D7FFE5
:1057E800204638BD70B504460E4609B9002070BD84
:1057F8006AB18368D5182946FFF7B8FF0028F5D0A5
:105808002068A3683146184400F078FFA56001209D
:1058180070BD38B5044680688568FFF7E3FFA36864
:105828009868401B38BD07B500238DF80410012285
:1058380001A98DF80530FFF7D5FF03B05DF804FB2B
:1058480008B58068FFF7EFFF08BD000030B585B0E8
:1058580000230D46029303604360836003731421A1
:10586800064B019304460390FFF780FF2B6801A9BC
:105878001B6828469847204605B030BD046A0D00CD
:10588800054B4FF69C7200205A804FF6FF72187035
:105898009A80FEF7D9BE00BFC8E50320024B1A68FC
:1058A800024B1A60704700BF54E30320D0E5032081
:1058B80010B40468246BA4465DF8044B6047036881
:1058C8009B6C1847808E7047028FC08E101A7047E5
:1058D80013B502AB026803F8011DD468194601220A
:1058E800A04702B010BD10B503681B69044698476D
:1058F80028B1E38EE26B591CE186D05C10BD4FF0F5
:10590800FF3010BD10B503681B690446984718B1ED
:10591800E38EE26BD05C10BD4FF0FF3010BD7047D6
:1059280010B403460846DC6BD98E1A8F0368521AE6
:10593800DB6821445DF8044B1847A0F11000FFF71D
:10594800EFBFF0B503688DB01C265B6A04460F46AE
:105958001546984701233246002105A8029300F016
:10596800C5FE8DF8146038460A268DF81560FEF7D6
:105978009BFD1122ADF8160002213046FEF7D4FD3A
:105988000028606124DB0422009202AB40F6FF711C
:10599800FEF7AAFDE0B995B10390ADF8100003A990
:1059A800E8B2FEF741FD98B90623009341F20B02D5
:1059B80003AB40F6FF716069FEF796FD40B91C2203
:1059C80005A96069FEF788FD10B96564012004E047
:1059D800236820465B6A984700200DB0F0BD10B5DB
:1059E80004464069002801DBFEF786FD4FF0FF33CF
:1059F80063610023E386238710BD38B5C36B054672
:105A0800C08E13B12C6C241A00E01C46944228BFA7
:105A180014462246184400F05EFEEB8E2344EB86C3
:105A2800204638BD70B503681B6904460E46154606
:105A3800984788B1236820461B699847E38EE16B35
:105A48008542A8BF054619442A46304600F043FE61
:105A5800E38E2B44E38601E04FF0FF35284670BD06
:105A680070B50446054B44F8043B01F12005064691
:105A78000FCD0FC42B682370304670BD68680D00C9
:105A8800F0B59446026889B0976A0A4A02921D1DC9
:105A98008E4606460FCD03AC0FC42B682370BDF8A5
:105AA80038300093624602AB71463046B84709B0B9
:105AB800F0BD00BF68680D00F0B50368B0F836E0C7
:105AC8009F6A0D4B89B000F12006044602930FCE61
:105AD80003AD0FC533682B70A38E0093724602ABDB
:105AE800E16B2046B84723680546DB69204698479E
:105AF800284609B0F0BD00BF68680D00F0B54378CE
:105B0800022B8DB005460C46174601D1011D33E026
:105B18000A2B35D11122002101A800F0E7FDAB685E
:105B280043B9EB6833B94FF6FF702E69FEF7ACFC4A
:105B380086421FD005F1080301AE05F1180E18685A
:105B48005968324603C2083373451646F7D106230F
:105B580001A906A807AE8DF81430FFF7D9F90FCEC2
:105B680004340FC43368237057B16888FEF794FC77
:105B7800388005E005F114012046FFF7FEF9F3E748
:105B88000DB0F0BD2DE9F0418EB00EAB00250646F4
:105B98001746084643F8345D2A462946FEF794FC22
:105BA80000281FDB019BFBB15B69EBB102A8FFF783
:105BB800A1F9019B2A46586902A9FFF79FFF02A88D
:105BC800FFF7B8F980B1336803ADD3F838800B4BD1
:105BD80008930FCD09AC0FC42B6823703A4608A967
:105BE8003046C047044601E04FF0FF340198FEF705
:105BF80063FC20460EB0BDE8F08100BF68680D0068
:105C08002DE9F047D0F81480B8F1000F98B0054698
:105C18000C461746994600DB11B94FF0FF304EE0AD
:105C28004FF01C0A09AE52460021304600F05EFDD6
:105C3800CDF810A0B9F1000F14D04FF47A72B9FB67
:105C4800F2F1109102FB11914A430823119200933B
:105C580041F2060210AB40F6FF714046FEF744FCE5
:105C680008B12CE0082004AB0193214603460096B6
:105C78003A466869FEF748FC041E1FDB05F11C075D
:105C880005F1340230463946FFF738FF0026202355
:105C9800394605A810931196FFF7D8FDAB8E0393EC
:105CA800059B0293074B009301200194334610AAE9
:105CB8000549FEF7C1FC05A8FFF73AFD204618B0D4
:105CC800BDE8F0873D6A0D00A1690D0038B50546AD
:105CD80014462B7D062B084611D11C2313700A236A
:105CE8005370FEF7E1FB083424F8060C2B1D14351D
:105CF80053F8042B44F8042BAB42F9D138BD042BDC
:105D08000AD11023137002235370FEF7CDFB608075
:105D18006868FEF7B9FB606038BD00002DE9F04FF8
:105D2800984691B02023002482468B4604A8414619
:105D38001646BDF8689008930994FFF787FD049B01
:105D4800029308AD154B164900932A4623460120B5
:105D5800CDF80C900196FEF76FFC1C2704A8FFF7FE
:105D6800E7FC3A462146284600F0C0FC2A46494648
:105D78004046FFF7ABFF9DF821304BB18DE8A000FE
:105D8800234632465946DAF81400FEF7C5FB01E00F
:105D98004FF0FF3011B0BDE8F08F00BF5A6A0D0018
:105DA800A1690D00F0B591B00C46064600211546D4
:105DB80009A81C221F4600F099FC09AA00212046C8
:105DC800FFF784FF9DF82530022B2ED10023059381
:105DD8000A9B0493DDB102A92846FEF72DFBB0B952
:105DE80010A941F8340D0298FEF72EFB60B9039B09
:105DF80053B1DA6812685178022903D152680AB19E
:105E0800059201E01B68F3E70398FEF725FB002FD6
:105E18004FF00803009318BF032204AB08BF042205
:105E280000213046FEF760FB1EE00A2B1AD104ACB5
:105E380014220021204600F059FC0BAB0FCB002F99
:105E480084E80F004FF01403009318BF0C22234678
:105E580008BF0D22292130460895FEF745FB00EAC8
:105E6800E07001E04FF0FF3011B0F0BD38B54FF4ED
:105E78007A7383600B4B03F108026C3300250361CE
:105E88004FF0FF3304464560026043611C30FFF762
:105E980031F84FF40073E5862587E563236465646C
:105EA800204638BD886A0D0010B590F84830044681
:105EB8001BB1C06B08B1FEF7EEF80023E36384F86A
:105EC80048302364E386238710BD70B50446164620
:105ED8000D46FFF7E9FF0023E66323643EB935B1B9
:105EE8002846FEF7D6F80123E06384F84830E36BD0
:105EF80003B12564206C003018BF012070BD70B557
:105F0800C26B04461AB9016C09B1FFF7DEFFE16BF9
:105F18000023E386238741B1226C32B12068056BE8
:105F28002046A8470028C8BF2087236820461B6949
:105F3800BDE8704018470000F0B591B02023054631
:105F4800002604A817460C4608930996FFF77EFC1E
:105F5800049B0193104B009308AA33460F490297FC
:105F68000120FEF769FB04A8FFF7E2FBEA6B22B900
:105F7800296C11B12846FFF7A8FF04340FCC05F1AE
:105F880020060FC623683370286CAF860023EB8683
:105F98002B8711B0F0BD00BF746A0D00A1690D0018
:105FA80010B5074B03F108026C3304460260036125
:105FB800FFF715FD2046FFF777FF204610BD00BF0D
:105FC800886A0D0010B50446FFF7EAFF2046FEF781
:105FD80062F8204610BD02464069002804DB012310
:105FE80092F84420FFF7DEBE4FF0FF30704770474D
:105FF80041747047007CFEF7E7BA007CFEF7BCBA34
:10600800007CFEF7C9BA007CFEF7BEBA007CFEF73A
:10601800CBBA10B50446FEF73EF8204610BD70B561
:10602800457C04460E4625B9007CFEF7CDFA0028CB
:1060380005DD3146207CBDE87040FEF795BA28465C
:1060480070BD000010B50446084611460022626083
:106058004FF47A72A260054A2260012220746274A9
:106068001A46FEF779FA204610BD00BF006B0D00F6
:10607800007CFEF7A1BA000038B50C4D296811F074
:10608800010411D12846FEF70AF868B1084A094BFD
:1060980009482146FFF7D6FF2846FEF705F8074AC4
:1060A8000749054800F090F9034838BD6CE603201D
:1060B80070E60320E8E50320D4E50320BCE30320D1
:1060C800F75F0D004174704770470021007CFEF7B0
:1060D8009BBA0121007CFEF797BA007CFEF78CBAC8
:1060E800007CFEF781BA38B50446007C0D46FEF701
:1060F80083FA002801DC607C20B12946207CFEF769
:106108008BFA012038BD007CFEF78EBA10B5044624
:10611800FDF7C1FF204610BD10B50446002363609B
:106128004FF47A73A360054B23600123084621745A
:1061380063741146FEF750FA204610BD306B0D000F
:1061480010B514220446002100F0D0FA204610BDF4
:1061580030B50E4D87B001A8FFF7F2FF296811F09E
:10616800010410D12846FDF79AFF60B101AA214623
:106178000748FFF7D1FF2846FDF796FF054A06496D
:10618800034800F021F9024807B030BDF4E60320C7
:10619800F8E60320BCE30320D1600D0008B50C4BE2
:1061A80033B1FFF7D5FF03681B699847002809DC5E
:1061B800084B63B1FFF760FF03681B699847002825
:1061C80003DC08BDAFF30080F2E7AFF3008008BD41
:1061D800000000000000000008B5FFF7DFFFFEF731
:1061E800A3F8014B186008BD10E7032007B500238A
:1061F80000931A466FF07701FEF750FA03B05DF886
:1062080004FB000007B543880A2B08D0502B09D19E
:10621800094B1B683BB103B05DF804EB1847FFF767
:10622800E5FF06E0002300931A466FF07701FEF7BA
:1062380035FA03B05DF804FB0CE7032008B500212C
:106248000448FEF74FFA00210348BDE80840FEF76E
:106258001BBA00BF000000000D620D0010B5044617
:106268000F48FFF75BFA28B1A4F10B03022B01D802
:10627800002010BD00F066F8FEF7FEFD08B1012C05
:10628800F6D9FFF7F9FEFFF7F3FE18B1A4F10903F9
:10629800012BEDD91E2C8CBF0020012010BD00BFA2
:1062A8002CE703201E2838B504460D460AD8FF29D6
:1062B80008D0FFF7D3FF28B129462046BDE838406B
:1062C800FEF74AB838BD38B504460D46FEF74CF817
:1062D800FF2810D0062804D84D2323FA00F0C3075E
:1062E80009D42046FFF7BAFF28B129462046BDE861
:1062F8003840FEF741B838BD38B504460D46FFF7BB
:10630800ADFFF0B104212046FEF71EF8042805D1A0
:10631800A9B22046BDE83840FEF736B8022120462B
:10632800FEF712F802280CD12046FEF71DF80128C6
:1063380001D0042805D129462046BDE83840FEF79B
:106348002BB838BD38B50B4D296811F001040FD1B1
:106358002846FDF7A4FE58B121460748FEF77AFD06
:106368002846FDF7A1FE054A0549034800F02CF828
:10637800014838BD14E7032018E70320BCE30320D5
:10638800054E0D0070B50C4C0C4E0D4D00212046ED
:10639800FFF7B0F920460B4C3246294600F014F8B6
:1063A80001212046FFF7A6F9324629462046BDE8D6
:1063B800704000F009B800BF2CE70320BCE30320BD
:1063C800ED560D003CE703200B460146184600F049
:1063D80065B90000024B1868BFF35F8F704700BFB4
:1063E8004CE7032010B5002814BF044601242046BA
:1063F800FEF7D0F920B9FFF7EDFF08B18047F6E7BF
:1064080010BDFFF7EFBF08B5FEF7DCF9244B1A689B
:10641800D0075CBF01221A60224B1A68D1075CBF03
:1064280001221A60204B1A68D2075CBF01221A6049
:106438001E4B1A68D0075CBF01221A601C4B1A68F1
:10644800D1075CBF01221A601A4B1A68D2075CBFD9
:1064580001221A60184B1A68D0075CBF01221A6023
:10646800164B1A68D1075CBF01221A60144B1A68D0
:10647800D2075CBF01221A60124B1A68D0075CBFB2
:1064880001221A60104B1A68D1075CBF01221A60FA
:106498000E4B1A68D2075CBF01221A60704700BF12
:1064A8007CE7032078E7032074E7032070E70320E4
:1064B8006CE7032068E7032064E7032060E7032014
:1064C8005CE7032058E7032054E7032050E7032044
:1064D800184B1A68D1075CBF01221A60164B1A685C
:1064E800D2075CBF01221A60144B1A68D0075CBF40
:1064F80001221A60124B1A68D1075CBF01221A6088
:10650800104B1A68D2075CBF01221A600E4B1A683A
:10651800D0075CBF01221A600C4B1A68D1075CBF18
:1065280001221A600A4B1A68D2075CBF01221A605E
:10653800704700BF9CE7032098E7032094E70320F7
:1065480090E703208CE7032088E7032084E70320F3
:1065580080E70320184B1A68D1075CBF01221A6034
:10656800164B1A68D2075CBF01221A60144B1A68CE
:10657800D0075CBF01221A60124B1A68D1075CBFB2
:1065880001221A60104B1A68D2075CBF01221A60F8
:106598000E4B1A68D0075CBF01221A600C4B1A68B0
:1065A800D1075CBF01221A600A4B1A68D2075CBF88
:1065B80001221A60704700BFBCE70320B8E7032038
:1065C800B4E70320B0E70320ACE70320A8E70320E3
:1065D800A4E70320A0E70320244B1A68D0075CBF78
:1065E80001221A60224B1A68D1075CBF01221A6087
:1065F800204B1A68D2075CBF01221A601E4B1A682A
:10660800D0075CBF01221A601C4B1A68D1075CBF17
:1066180001221A601A4B1A68D2075CBF01221A605D
:10662800184B1A68D0075CBF01221A60164B1A680B
:10663800D1075CBF01221A60144B1A68D2075CBFED
:1066480001221A60124B1A68D0075CBF01221A6037
:10665800104B1A68D1075CBF01221A600E4B1A68EA
:10666800D2075CBF01221A60704700BFECE7032025
:10667800E8E70320E4E70320E0E70320DCE7032062
:10668800D8E70320D4E70320D0E70320CCE7032092
:10669800C8E70320C4E70320C0E7032010B5054C72
:1066A80013462CB10A4601460220AFF3008010BD04
:1066B800204610BD0000000010B501390244904288
:1066C80007D010F8013B11F8014FA342F7D0181B6F
:1066D80010BD002010BD10B5431E0A44914204D0DD
:1066E80011F8014B03F8014FF8E710BD02440346C7
:1066F800934202D003F8011BFAE77047034611F8EA
:10670800012B03F8012B002AF9D17047024B0146EF
:10671800186800F003B800BFB8E3032070B5064658
:1067280008460C4600F00DF8451C29463046FEF791
:1067380051F8064618B12A462146FFF7CCFF3046E5
:1067480070BD034613F8012B002AFBD1181A013833
:10675800704730B582B1451E013915F8013F11F86F
:10676800014FA34206D1EC431444E04201D0002B70
:10677800F3D11C46181B30BD104630BD10B503467A
:1067880001448B4204D01A785C1C0AB12346F8E70E
:10679800181A10BD1D400D0059400D0085400D0010
:1067A80089400D0000000000737761726D2D666FDF
:1067B8006C6C6F7765722D6F6E6C696E65006677AD
:1067C8002D76657273696F6E00676F466F727761B9
:1067D800726400676F4261636B0076302E38000088
:1067E800000000000000000019480D001F480D00BF
:1067F80047480D002B480D001B480D000000000005
:1068080000000000E74D0D00DD4D0D00D34D0D00DB
:10681800C94D0D00BD4D0D00B14D0D00A54D0D002C
:106828009D4D0D00934D0D00894D0D007D550D00BA
:106838000000000000000000054E0D004F4E0D0046
:10684800274E0D00074E0D002F4E0D00374E0D0040
:106858003F4E0D00474E0D000000000000000000F4
:10686800974E0D00894E0D008B4E0D0066006C6E24
:1068780000666E00636F64650064657461696C002E
:106888000D0A00253031307520005D20002C2000D5
:1068980028293A2000205B00636F6465203D2000B2
:1068A80025690064657461696C73203D200062612C
:1068B80075640053657269616C0053657269616C37
:1068C80031007479706500706172616D00636D6488
:1068D80000696400686E64007374726D0066696CA8
:1068E80074006C766C0061646448616E646C6572F7
:1068F8000072656D6F766548616E646C65720065DF
:106908006E756D48616E646C657273004A534F4EC4
:1069180053747265616D4C6F6748616E646C657223
:1069280000617070006E6F6E65007472616365005F
:10693800696E666F007761726E006572726F7200C1
:1069480070616E696300616C6C00000000000000FB
:106958000000000031500D0027500D001D500D00A3
:1069680013500D0007500D00FB4F0D00EF4F0D00A9
:10697800E74F0D00DD4F0D00D34F0D007D550D0085
:10698800666630333A3A313A313030310074683122
:10699800006D65736870756200776972696E67006B
:1069A8007061727365207061636B65742025640083
:1069B800000000000000000015550D001F550D00D7
:1069C80029550D0033550D003D550D0049550D0055
:1069D80055550D0061550D0069550D0073550D0095
:1069E8007D550D000000000000000000ED560D0070
:1069F800EF560D0000000000000000002B570D00AE
:106A08002D570D0049580D001B580D005A00252B15
:106A18003033643A253032750025592D256D2D25E2
:106A2800645425483A254D3A2553257A0061736305
:106A380074696D65007265636569766564202564AF
:106A48002062797465732066726F6D202573232523
:106A5800640073656E645061636B65742073697A52
:106A6800652025642C2025732325640062656769E9
:106A78006E207061636B65742025732325640000A4
:106A88000000000000000000A95F0D00CD5F0D00B0
:106A9800D9580D00035A0D00D1580D00EF580D00BC
:106AA8000D590D0027590D004B590D00E7590D00E0
:106AB800255D0D00895A0D00095C0D00B9580D00BF
:106AC800415F0D008D5B0D00C15A0D00075F0D0081
:106AD8002D5A0D00C7580D00695A0D00CD580D00EC
:106AE80029590D00F0FFFFFF0000000043590D0079
:106AF8000000000000000000F75F0D001B600D00A3
:106B080027600D0015560D0003600D000F600D0085
:106B180009600D0015600D00F95F0D00FD5F0D00A7
:106B28000000000000000000D1600D0015610D009C
:106B3800EF600D0015560D00E9600D00D3600D00E3
:106B4800DB600D000F610D00E3600D00CD600D00EE
:106B5800000000000000000000000000000000002D
:106B6800000000000000000000000000000000001D
:106B7800000000000000000000000000000000000D
:106B880000000000000000000000000000000000FD
:106B980000000000000000000000000000000000ED
:106BA80000000000000000000000000000000000DD
:106BB800000000004300000059420D00F14D0D0097
:106BC800994F0D00C9540D0001560D00D1560D0006
:106BD80089580D00A5580D008D630D0015640D0032
:106BE800D9640D005D650D00E1650D000000000031
:086BF800000000000000000095
:106C0000110000001000000012000000130000003E
:106C100055000000356A0D00000000005C6B0D009F
:106C20007C6B0D009C6B0D0000000000000000005C
:106C30000000000000000000BC6B0D000000000020
:106C40000000000000000000000000000000000044
:106C50000000000000000000000000000000000034
:106C60000000000000000000000000000000000024
:0C6C7000000000000000000058E30320BA
:106C7C00FFFFFFFF00000102030405060708090AD5
:106C8C000B0C0D0E0F101112131415161718191AD0
:086C9C001B1C1D1E1F20280017
:046CA40078563412D8
:04000003D0004018D1
:00000001FF
