:02000002D0002C
:1040000000400D00446F0D00000005000E0005018A
:0840100004014601000000005C
:1040180030690D0009480A49884208B505D0094A9F
:10402800824202D0121A02F090FB0748074A002188
:10403800121A02F095FB014808BD00BF40E30320B7
:10404800A06E0D00BCE30320BCE30320F0E70320CF
:1040580070B502F029F9074C074BE41AA4080025AB
:104068001E46A54204D056F8253098470135F8E792
:1040780070BD00BF986E0D00646E0D0000F01AB898
:1040880008B500F0D5F8BDE8084002F0DBB800F04C
:104098006BBB00F069BB00F06FBB00F06DBB007834
:1040A800B0FA80F040097047012303707047106828
:1040B80070470000F0B5314F314E3888314D324CE1
:1040C80085B0012102F024F90121308802F020F99D
:1040D8000121288802F01CF92088012102F018F932
:1040E8000021388802F025F90021308802F021F9F2
:1040F8000021288802F01DF92088002102F019F912
:10410800224B23491A68234B1B788DF8003002A8EC
:104118003C2300F0C1FC039C7CB16368013B6360F5
:104128005BB9236820469B689847A368013BA36056
:104138001BB923682046DB6898470823ADF8083088
:10414800154B0393042202AB1049144800F0A4FA5B
:10415800134A1449144801F0CBF8144A1449124878
:1041680001F0C6F8134A14490F4801F0C1F8134A80
:1041780013490D4801F0BCF805B0F0BD4CE303202D
:1041880048E3032040E3032044E30320C4E303207F
:1041980044690D00C0E30320B7400D005A690D00C3
:1041A80009420D0065690D00E8E3032015420D0082
:1041B8006B690D0021420D0071690D002D420D0043
:1041C80078690D0037B50546084602F09DFA1028B3
:1041D8000446A8B20CDD214602F0C4F801F0EEFF57
:1041E80000942B46054A012101F064FA03B030BD62
:1041F800002103B0BDE8304002F0B4B87F690D007B
:10420800014B1868FFF7DEBF4CE30320014B186829
:10421800FFF7D8BF48E30320014B1868FFF7D2BF68
:1042280044E30320014B1868FFF7CCBF40E30320A9
:104238007047000010B5084B084C00221A7000F0B7
:104248006DF80749204601F0F0FA2046054A06496C
:10425800BDE8104002F0EEB8C0E30320C4E3032039
:104268008A690D00BCE30320A5570D0008B5024B71
:104278001B685B68019308BD4802030008B5024B40
:104288001B689B68019308BD4802030008B5024BF0
:104298001B681B69019308BD4802030008B5024B5F
:1042A8001B685B69019308BD4802030008B5024B0F
:1042B8001B681B6B019308BD4802030008B5024B3D
:1042C8001B685B6C019308BD4802030008B5024BEC
:1042D8001B68DB6C019308BD4802030008B5024B5C
:1042E8001B685B6D019308BD4802030008B5024BCB
:1042F8001B68DB6E019308BD4802030008B5024B3A
:104308001B689B68019308BD1802030008B5024B9F
:104318001B685B69019308BD1802030008B5024BCE
:104328001B681B68019308BD2C02030008B5024BEB
:104338001B685B68019308BD2C02030008B5024B9B
:104348001B689B68019308BD2C02030008B5024B4B
:104358001B68DB68019308BD2C02030008B5024BFB
:104368001B681B69019308BD2C02030008B5024BAA
:104378001B689B6A019308BD2C02030008B5024B19
:104388001B689B6F019308BD2C02030008B5024B04
:104398001B681B6A019308BD2802030008B5024B7D
:1043A8001B685B6A019308BD2802030008B5024B2D
:1043B8001B689B6A019308BD2802030008B5024BDD
:1043C8001B68DB6A019308BD2802030008B5024B8D
:1043D8001B681B6B019308BD2802030008B5024B3C
:1043E8001B685B6B019308BD2802030008B5024BEC
:1043F8001B681B6C019308BD2802030008B5024B1B
:104408001B681B69019308BD6C02030008B5024BC9
:104418001B685B69019308BD6C02030008B5024B79
:104428001B689B69019308BD6C02030008B5024B29
:104438001B685B6D019308BD6C02030008B5024B55
:104448001B689B6D019308BD6C02030008B5024B05
:104458001B685B69019308BD6402030008B5024B41
:104468001B689B69019308BD6402030008B5024BF1
:104478001B681B6A019308BD6402030008B5024B60
:104488001B685B6A019308BD6402030008B5024B10
:104498001B689B6A019308BD6402030008B5024BC0
:1044A8001B689B68019308BD6802030008B5024BAE
:1044B8001B68DB68019308BD6802030008B5024B5E
:1044C8001B685B68019308BD3802030008B5024BFE
:1044D8001B689B69019308BD3802030008B5024BAD
:1044E8001B68DB69019308BD3802030008B5024B5D
:1044F8001B68DB6A019308BD3802030008B5024B4C
:104508001B685B6B019308BD3802030008B5024BBA
:104518001B689B6B019308BD3802030008B5024B6A
:104528001B68DB69019308BD3002030008B5024B24
:104538001B681B6A019308BD3002030008B5024BD3
:104548001B681B68019308BD3C02030008B5024BB9
:104558001B68DB68019308BD3C02030008B5024BE9
:104568001B681B69019308BD3C02030008B5024B98
:104578001B685B69019308BD3C02030008B5024B48
:104588001B689B69019308BD3C02030008B5024BF8
:104598001B68DB69019308BD3C02030008B5024BA8
:1045A8001B681B6A019308BD3C02030008B5024B57
:1045B8001B689B6A019308BD3C02030008B5024BC7
:1045C8001B681B68019308BD4C02030008B5024B29
:1045D8001B681B69019308BD4C02030008B5024B18
:1045E8001B685B69019308BD4C02030008B5024BC8
:1045F8001B689B69019308BD4C02030008B5024B78
:104608001B68DB69019308BD4C02030008B5024B27
:104618001B681B6A019308BD4C02030008B5024BD6
:104628001B681B6D019308BD6002030008B5024BAF
:104638001B685B68019308BD2002030008B5024BA4
:104648001B68DB6C019308BD2002030008B5024B10
:104658001B685B6D019308BD2002030008B5034B7E
:104668001B68D3F88830019308BD000020020300BE
:1046780008B5034B1B68D3F89430019308BD0000BC
:104688002002030008B5034B1B68D3F8A43001933C
:1046980008BD00002002030008B5024B1B681B6818
:1046A800019308BD4402030008B5024B1B681B6A4E
:1046B800019308BD4402030008B5024B1B68DB6B7D
:1046C800019308BD4402030008B5024B1B685B68F0
:1046D800019308BD4002030008B5024B1B689B68A4
:1046E800019308BD4002030008B5024B1B68DB6854
:1046F800019308BD4002030008B5024B1B681B6903
:10470800019308BD4002030008B5024B1B685B69B2
:10471800019308BD4002030008B5024B1B689B6962
:10472800019308BD4002030008B5024B1B68DB6912
:10473800019308BD4002030008B5024B1B681B6AC1
:10474800019308BD4002030008B5024B1B681B6BB0
:10475800019308BD4002030008B5024B1B685B6B60
:10476800019308BD4002030008B5024B1B681B6893
:10477800019308BD1C02030008B5024B1B685B6867
:10478800019308BD1C02030008B5024B1B689B6817
:10479800019308BD1C02030008B5024B1B685B6A45
:1047A800019308BD1C02030008B5024B1B68DB6AB5
:1047B800019308BD1C02030008B5024B1B681B6B64
:1047C800019308BD1C02030010B5836804460BB9A9
:1047D80001F04FFEC3689847A3681BB10322214626
:1047E800204698472046BDE81040FFF754BC704764
:1047F8000020704710B50446FFF74DFC204610BD59
:1048080008B508B1FFF7F6FF08BD10B58368044680
:1048180013B1032201469847204610BD38B5C46835
:10482800D4B12378022B02D1E068FFF7A5FF6568B1
:104838002DB12846FFF7E9FF2846FFF72CFCA568AD
:104848002DB12846FFF7E1FF2846FFF724FC204654
:10485800BDE83840FFF71FBC38BD38B504680546C9
:104868007CB16368013B63605BB9236820469B6841
:104878009847A368013BA3601BB923682046DB68FF
:104888009847284638BD13B5044691E8050000232B
:104898004B600B602060626001A801930093FFF7F2
:1048A800DCFF204602B010BD0B68036013B15A68E4
:1048B80001325A607047F7B50C4602AD54F8043B14
:1048C80045F8083D06460F4601A82146FFF7ECFFCC
:1048D80029463046FFF7D7FF01A8FFF7BEFF20465D
:1048E800FFF7BBFF3846FFF7D6FB304603B0F0BDF5
:1048F80013B50B46044603C88DE8030093E803008C
:1049080084E803009DE8030083E8030002B010BDBB
:10491800826810B50AB901F0ACFDC368BDE8104063
:10492800184708B5006800F11001FFF7F1FF08BD4E
:10493800826810B50AB901F09CFDC368BDE8104053
:10494800184708B5006800F11001FFF7F1FF08BD2E
:1049580038B5002383608B6804460D462BB10222CC
:104968009847EB68E360AB68A360204638BD000059
:104978002DE9F0414FF69C7386B00468B1F9042024
:104988008B8000230F688DF800300B604FF0020019
:10499800D4E84F1F994203D1C4E8450F002DF7D141
:1049A80002D08DF800106AE014F10C051EBFE76014
:1049B80022821F460123BFF35F8F0020637004F13A
:1049C8000803BFF35F8F53E8006F43E80002002A33
:1049D800F9D1BFF35F8F002E51D0FFF72FFE20B122
:1049E80029463046FFF794FF43E031466846FFF713
:1049F800AFFFE068B4F9105008B101F0C1FE0490AF
:104A08001020ADF81450FFF742FB054630B34FF0C5
:104A18000008C0F808801820FFF739FB0446C0B129
:104A2800C0F8088001466846FFF762FF029BA2684B
:104A3800A360039B0292E268E360BDF81430A3828E
:104A48004FF69C73ADF81430049B03922361CDF8A4
:104A580010800E4BEB600E4B2C60AB600498FFF798
:104A68008BFE6846FFF7D1FE002229460948FFF76A
:104A7800EDFD3046FFF7C9FE3046FFF70CFB384620
:104A8800FFF77AFE06B0BDE8F08100BF2B490D00A4
:104A9800894B0D00D1470D002DE9F04F8BB007ADC4
:104AA8004FF0000B0646994614200C230F469046FB
:104AB8009DF850A0C5F804B0C5F808B00793FFF7F3
:104AC800E6FA044638B180F800B080F801B0C0F8C2
:104AD80004B0C0F808B00023102003940493FFF733
:104AE800D6FA28B1012343608360234B0360C46076
:104AF8000490224B08930820FFF7C9FA044628B10E
:104B0800039B40F8043B04A9FFF7CEFE00955FFA2B
:104B18008AF34A46414638460994FFF7C5FDB8B9B5
:104B2800039B5B7803F0FF0293B94FF69C7305A9CA
:104B380003A80592ADF81830FFF71AFF0598FFF79C
:104B48001BFE05A80999FFF7B6FE06A8FFF785FE24
:104B5800039B059304A906A8FFF7A6FE05A93046FE
:104B6800FFF791FE06A8FFF778FE04A8FFF775FE89
:104B780030460BB0BDE8F08F98690D00F14C0D0080
:104B8800022AF8B5044606D0032A17D0012A20D1F4
:104B98000B6803601DE018200E68FFF778FA0546D9
:104BA80050B13146FFF7D4FE3069B6F9147008B138
:104BB80001F0E6FD2861AF8225600AE0046844B18F
:104BC8002069FFF7D9FD2046FFF71FFE2046FFF7B3
:104BD80062FA0020F8BD38B5002383608B6804466C
:104BE8000D462BB102229847EB68E360AB68A360DF
:104BF800204638BD022A70B5044606D0032A11D0D3
:104C0800012A17D10B68036014E014200E68FFF71F
:104C18003EFA054620B13146FFF7DDFF337C2B74A1
:104C2800256007E004682CB12046FFF7EEFD20461A
:104C3800FFF731FA002070BDF0B5002387B00C46AD
:104C4800BFF35F8F50E8006F40E80032002AF9D1C7
:104C5800BFF35F8F002E3ED01846FFF7EFFC0746E4
:104C680020B121463046FFF763FE2EE0314601A809
:104C7800FFF7B1FF23788DF814301020FFF707FAFB
:104C88000546D0B187601420FFF701FA044678B1D1
:104C98008760014601A8FFF72BFE039BA268A3606B
:104CA800049B0392E268E3609DF814300492237435
:104CB8000A4BEB600A4B2C60AB6001A8FFF7A5FD1F
:104CC800002229460748FFF7C1FC3046FFF79DFD43
:104CD8003046FFF7E0F907B0F0BD00BF4B490D00C3
:104CE800FD4B0D00D1470D0030B585B004460D468B
:104CF80068461146FFF7DFFD7CB124B228460DB1A6
:104D080001F03EFD029002A96846ADF80C40FFF79D
:104D18002FFE0298FFF730FD1DE000988DF808403F
:104D28004FF00102D0E84F3FA34203D1C0E8412F22
:104D38000029F7D102D08DF808300CE010F10C01F1
:104D48004FF0010318BF0373BFF35F8F043000F8FF
:104D5800033CFFF771FF01A8FFF77FFD05B030BDE9
:104D6800002211464068FFF7E7BC00221146406860
:104D7800FFF7F2BC00224068FFF7E6BC002281F092
:104D880001014068FFF7D0BC00231A461946406865
:104D9800FFF7C2BC00231A4619464068FFF7B4BCA7
:104DA800002211464068FFF7A7BC00221146406860
:104DB800FFF792BC002202214068FFF795BC002350
:104DC8001A464068FFF780BC024B03225A60024A29
:104DD8001A607047D4E30320B4690D007047F8B532
:104DE800064615460C468F18BC4206D0336814F8A0
:104DF800011B9B6830469847F6E72846F8BD002215
:104E0800007CFFF7C3BA0021007CFFF7C7BA002176
:104E1800007CFFF7CBBA0021007CFFF7CFBA002156
:104E2800007CFFF7D3BA10B50446FFF734F92046E3
:104E380010BD000010B504464FF47A730846A3600D
:104E48000021044B207461602360FFF7CFFA2046ED
:104E580010BD00BFE8690D000021007CFFF7BEBA55
:104E6800704710B50446FFF716F9204610BDF0B597
:104E7800037D062B8DB00E4600F104074FF00004A9
:104E880002D000F1080518E00CAD394605F8304DA0
:104E98002F232A460A20FFF7D9FA284601F08BFC6F
:104EA80033680246DB682946304698470FE024B14C
:104EB8002E21304600F0C0FB044415F8011D0A22DB
:104EC800304600F0F5FBBD420444F0D120460DB059
:104ED800F0BD000010B5054B0446112240F8043B14
:104EE800002101F03DFC204610BD00BF106A0D00F6
:104EF8000346074A10B543F8042B01F1100251F894
:104F0800044B43F8044B9142F9D10A781A7010BD4A
:104F1800106A0D00037D042B01D1406808E0062BC0
:104F28000AD1436853B1836843B1C36833B1006998
:104F3800003018BF0120704700207047184670479E
:104F480010B59DF8084044EA032343EA024242EAC6
:104F5800016104234160037510BD37B50D788B7866
:104F68004A78C97800912946FFF7EAFF03B030BDB7
:104F7800014B024A1A607047DCE30320CE6A0D0039
:104F880010B5836804460BB1C06806E0406828B1D4
:104F980083680BB901F06DFAC3689847012323743D
:104FA8000020BDE81040FFF7A1B900221146406873
:104FB800FFF7C2BB002211464068FFF7CDBB0022B5
:104FC8004068FFF7C1BB002281F001014068FFF78C
:104FD800ABBB00231A4619464068FFF79DBB002368
:104FE8001A4619464068FFF78FBB002211464068F1
:104FF800FFF782BB002211464068FFF76DBB002215
:1050080002214068FFF770BB00231A464068FFF78B
:105018005BBB10B103685B681847704738B5044636
:105028000068D0B1FFF72AF9B8B9237C1BB920680A
:1050380008B1FFF72BF9656855B1AB681BB10322BE
:105048002946284698472846FFF725F80023636035
:105058002068FFF723F90023236038BD38B50B4BD0
:1050680003600446D0F8CC0108B1FFF716F8D4F86D
:10507800C4512DB12846FFF7D1FF2846FFF70BF89A
:10508800A06808B1FFF7C5FF204638BD006B0D00CA
:105098000068FFF71BB92DE9F84F0B9F9DF828B062
:1050A8000646884691469A4604460025236C4B4599
:1050B80029D1636C534526D194F848305B4522D1F9
:1050C8004021404601F094FB41460246204601F04B
:1050D8007AFBC0B96FB10C21384601F089FB024652
:1050E80038B1582303FB05603946493001F06BFBA2
:1050F80004E0582000FB056595F84900B0FA80F0F7
:105108004009BDE8F88F0135052D04F15804CDD1CB
:105118000020BDE8F88F00002DE9F04F85B0074664
:105128009DF838A00F9E0196CDF800A089460292FE
:105138000393FFF7B0FF00283CD10446582303FB34
:105148000475D5F84080B8F1000F2ED140214846AB
:1051580001F04EFB494683460246284601F0F5FA1F
:10516800CBF14002414605EB0B0001F0F9FA029B36
:105178002B64039B6B6485F849802EB10C21304663
:1051880001F036FB054600E03546582044433819FF
:105198003C442A4631464930254401F0D6FA0020DD
:1051A80085F8490084F848A005E00134052CC6D1EB
:1051B800024800E0002005B0BDE8F08FFCFEFFFFCC
:1051C80007B5002301930093FFF7A6FF03B05DF82E
:1051D80004FB2DE9F341044608460D46904601F0CC
:1051E800EAFA04F5DC760746236CABB14021204689
:1051F80001F0FEFA874202460BD32946204601F009
:1052080095FA30B9009043462A4621465820FFF7C0
:1052180039FA5834B442E7D102B0BDE8F081000051
:1052280030B58DB004461122002101A801F098FA8A
:10523800062301AA09498DF814300A20FFF70EF950
:1052480007AD01A906A8FFF753FE0FCD04340FC41C
:105258002B68237000200DB030BD00BF2C6B0D00F3
:1052680030B5044689B000F5E070FFF711FF2368F8
:1052780083BB4C20FEF70BFF054608B100F02CFE5F
:105288002068256008B1FFF7C4FE206820B300221B
:105298004FF49A6100F04FFE08A9002501F8195D46
:1052A8001148FFF7ABF820689DF80720036849F21A
:1052B80069011B6A984702A8FFF70CFE02A8FFF7CE
:1052C800AFFF002804DB02A9206800F0BAFE04E062
:1052D800054602E0002500E0044DD4F8C001FEF7C1
:1052E800FDFF284609B030BD396B0D00FCFEFFFFFD
:1052F8002DE9F341044600F5E0700F469046FFF7AC
:10530800C7FED4F8BC61FEB91A49142001F0A0F810
:10531800054670B1184B83604FF4406306604660E1
:10532800C4600674032201930090144B1449FEF7DD
:105338009DFFD4F8BC61C4F8BC512EB13046FFF7CC
:105348006DFE3046FEF7A7FE2046FFF789FF0028CE
:1053580007DB42463946201DFFF732FF00EAE075B9
:1053680000E00546D4F8C001FEF7B8FF284602B0B1
:10537800BDE8F081FC6C0D009D540D00894F0D00B7
:105388003D6B0D002DE9F041054600F5E0768AB049
:105398003046FFF77DFE2C68D5F8C001FEF79EFF6A
:1053A800002C63D0D5F8C43163B12368D5F8C41193
:1053B8001F6B20464FF47A734FF49A62B847041E65
:1053C80013DC56E02D494FF49A6001F050F8D5F8F7
:1053D800C431C5F8C40113B11846FEF75EFED5F80E
:1053E800C431002BE1D1264844E02023254A02930A
:1053F80000920023019402AA234903930120FFF796
:105408000DF9D5F8C4315F1C1B786BBB013C2146F4
:10541800384601F0EDF938B3241A002C07EB0008E0
:1054280022DD3B5C03BB013C0ED008F1010821469C
:10543800404601F0DDF9241A002C15DD18F800307B
:1054480093B9012C02D00FE0DFF844803046FFF713
:105458001FFE42463946281DFFF7BBFED5F8C0019E
:10546800FEF73CFF002005E0084803E06420FEF753
:1054780045FF20460AB0BDE8F08100BFFC6C0D0076
:10548800FCFEFFFF4C6B0D00456B0D00E8FEFFFFB7
:10549800326A0D0008B504462046FFF773FFFBE7A4
:1054A80038B50D4C0D4B23600025022304F5E4703C
:1054B8006360A560C4F8C451C4F8C851FEF7FEFE85
:1054C800074BC4F8CC5123602046064A0649BDE87C
:1054D800384000F0AFBF00BFE0E30320646B0D006D
:1054E800006B0D00BCE3032065500D0000231A4635
:1054F8004068FFF7E9B8002202214068FFF7F4B8D6
:10550800002211464068FFF7E7B8002211464068BC
:10551800FFF7F2B800231A4619464068FFF7F4B8B7
:1055280000231A4619464068FFF7F6B8002281F0B2
:1055380001014068FFF7F8B800224068FFF704B996
:10554800002211464068FFF707B90022114640685B
:10555800FFF7F2B870B58CB014460646FFF7BAFCF0
:105568000CAB0022114643F8302D2046FEF79EFF73
:10557800014658BB009B4BB35A68022A0ED00A2A30
:1055880024D15C69112201A801F0EAF806238DF8FC
:10559800143001AD04F10803183405E059693046A8
:1055A8000431FFF7DAFC11E0186859682A4603C28B
:1055B8000833A3421546F7D101A906A807ADFFF79E
:1055C80097FC0FCD341D0FC42B6823700098FEF78D
:1055D80065FF30460CB070BD024B034A1A600022CA
:1055E8005A607047B0E50320646B0D00F8B50646B5
:1055F8000D468F180024BD420CD0336815F8011BE6
:105608009B6830469847002801DB0444F3E7002CE8
:1056180008BF04462046F8BD70B505460C46084646
:1056280049B101F0C8F82B68024621462846DB68D4
:10563800BDE87040184770BD03689B68184738B5C7
:105648000D210546FFF7F8FF0A2104462846FFF713
:10565800F3FF204438BD30B58BB00B4600218DF8E0
:105668002410012A98BF0A220DF12304B3FBF2F596
:1056780005FB123303F0FF03092B94BF3033373394
:10568800DBB2214604F801392B46002DEED1FFF795
:10569800C3FF0BB030BD10B42AB903685DF8044BE2
:1056A8009B68C9B21847D2B25DF8044BFFF7D3BF65
:1056B800FFF7F1BF0CB42DE9F04387B000AF07F155
:1056C8003804054654F8049B3C600E4623464A4677
:1056D8001421381DFFF760F8132805D8391D28460E
:1056E800FFF79AFF044613E000F1080323F00703CD
:1056F800E846ADEB030D411C23464A4668463C602C
:10570800FFF74AF869462846FFF786FF0446C5466C
:105718001EB12846FFF793FF044420461C37BD46B8
:10572800BDE8F04302B0704710B50446FFF76DF8C6
:10573800204610BD0348044A04490023836000F052
:1057480079BE00BFB8E50320BCE3032031570D0044
:10575800704710B50446FEF79EFC204610BD0000B9
:1057680070B5084B0360044600250E4640F80C5FF0
:10577800FEF79CFD30462671FEF7D0FEA560204658
:1057880070BD00BF986B0D000079FEF7CFBE704763
:1057980010B50446FEF77FFC204610BD10B5044640
:1057A8000068FEF7E9FF204610BD10B50446006802
:1057B80008B1FEF7E1FF00232360A360636010BD1A
:1057C80038B504460D4600680131FEF7DDFF10B11B
:1057D80084E82100012038BD10B50368044613B1E0
:1057E80043688B4207D22046FFF7EAFF20B1A3683F
:1057F8000BB922681370012010BD70B50E46114612
:1058080004461546FFF7E8FF18B92046FFF7CDFF15
:1058180009E02A463146A560206800F096FF226814
:10582800A3680021D154204670BD38B50023044632
:1058380003604360836003730D4639B1084600F086
:10584800BAFF294602462046FFF7D7FF204638BD53
:1058580070B504460E4609B9002070BD6AB1836868
:10586800D5182946FFF7B8FF0028F5D02068A368A7
:105878003146184400F07CFFA560012070BD38B5A2
:10588800044680688568FFF7E3FFA3689868401BB3
:1058980038BD07B500238DF80410012201A98DF841
:1058A8000530FFF7D5FF03B05DF804FB08B5806845
:1058B800FFF7EFFF08BD000030B585B000230D46A7
:1058C800029303604360836003731421064B0193C2
:1058D80004460390FFF780FF2B6801A91B68284640
:1058E8009847204605B030BDA86B0D00054B4FF614
:1058F8009C7200205A804FF6FF7218709A80FEF74B
:1059080095BE00BFC8E50320024B1A68024B1A6017
:10591800704700BF50E30320D0E5032010B40468AB
:10592800246BA4465DF8044B604703689B6C1847DA
:10593800808E7047028FC08E101A704713B502AB65
:10594800026803F8011DD46819460122A04702B075
:1059580010BD10B503681B690446984728B1E38E4B
:10596800E26B591CE186D05C10BD4FF0FF3010BDD2
:1059780010B503681B690446984718B1E38EE26BBB
:10598800D05C10BD4FF0FF3010BD704710B4034617
:105998000846DC6BD98E1A8F0368521ADB682144DB
:1059A8005DF8044B1847A0F11000FFF7EFBFF0B502
:1059B80003688DB01C265B6A04460F461546984757
:1059C80001233246002105A8029300F0C9FE8DF894
:1059D800146038460A268DF81560FEF757FD112227
:1059E800ADF8160002213046FEF790FD00286061F0
:1059F80024DB0422009202AB40F6FF71FEF766FD3D
:105A0800E0B995B10390ADF8100003A9E8B2FEF72C
:105A1800FDFC98B90623009341F20B0203AB40F654
:105A2800FF716069FEF752FD40B91C2205A9606943
:105A3800FEF744FD10B96564012004E023682046A0
:105A48005B6A984700200DB0F0BD10B50446406968
:105A5800002801DBFEF742FD4FF0FF3363610023AE
:105A6800E386238710BD38B5C36B0546C08E13B1D6
:105A78002C6C241A00E01C46944228BF1446224687
:105A8800184400F062FEEB8E2344EB86204638BDB6
:105A980070B503681B6904460E461546984788B1D9
:105AA800236820461B699847E38EE16B8542A8BFAF
:105AB800054619442A46304600F047FEE38E2B443B
:105AC800E38601E04FF0FF35284670BD70B5044607
:105AD800054B44F8043B01F1200506460FCD0FC4E1
:105AE8002B682370304670BD106A0D00F0B59446DF
:105AF800026889B0976A0A4A02921D1D8E460646B8
:105B08000FCD03AC0FC42B682370BDF83830009359
:105B1800624602AB71463046B84709B0F0BD00BFD7
:105B2800106A0D00F0B50368B0F836E09F6A0D4BB7
:105B380089B000F12006044602930FCE03AD0FC5CD
:105B480033682B70A38E0093724602ABE16B20463C
:105B5800B84723680546DB6920469847284609B0B8
:105B6800F0BD00BF106A0D00F0B54378022B8DB070
:105B780005460C46174601D1011D33E00A2B35D1E5
:105B88001122002101A800F0EBFDAB6843B9EB68D6
:105B980033B94FF6FF702E69FEF768FC86421FD0B6
:105BA80005F1080301AE05F1180E18685968324668
:105BB80003C2083373451646F7D1062301A906A880
:105BC80007AE8DF81430FFF793F90FCE04340FC4E5
:105BD8003368237057B16888FEF750FC388005E0B9
:105BE80005F114012046FFF7B8F9F3E70DB0F0BD51
:105BF8002DE9F0418EB00EAB002506461746084643
:105C080043F8345D2A462946FEF750FC00281FDB7E
:105C1800019BFBB15B69EBB102A8FFF75BF9019B44
:105C28002A46586902A9FFF79FFF02A8FFF772F9F1
:105C380080B1336803ADD3F838800B4B08930FCD90
:105C480009AC0FC42B6823703A4608A93046C047F0
:105C5800044601E04FF0FF340198FEF71FFC204690
:105C68000EB0BDE8F08100BF106A0D002DE9F047C5
:105C7800D0F81480B8F1000F98B005460C461746C6
:105C8800994600DB11B94FF0FF304EE04FF01C0A87
:105C980009AE52460021304600F062FDCDF810A052
:105CA800B9F1000F14D04FF47A72B9FBF2F11091E8
:105CB80002FB11914A4308231192009341F2060214
:105CC80010AB40F6FF714046FEF700FC08B12CE02F
:105CD800082004AB01932146034600963A466869BA
:105CE800FEF704FC041E1FDB05F11C0705F1340256
:105CF80030463946FFF738FF00262023394605A8E5
:105D080010931196FFF7D8FDAB8E0393059B029372
:105D1800074B009301200194334610AA0549FEF76A
:105D28007DFC05A8FFF73AFD204618B0BDE8F087CE
:105D3800E16B0D00456B0D0038B5054614462B7D0B
:105D4800062B084611D11C2313700A235370FEF743
:105D58009DFB083424F8060C2B1D143553F8042B2E
:105D680044F8042BAB42F9D138BD042B0AD11023D7
:105D7800137002235370FEF789FB60806868FEF792
:105D880075FB606038BD00002DE9F04F984691B072
:105D98002023002482468B4604A841461646BDF8B7
:105DA800689008930994FFF787FD049B029308AD58
:105DB800154B164900932A4623460120CDF80C902E
:105DC8000196FEF72BFC1C2704A8FFF7E7FC3A46D0
:105DD8002146284600F0C4FC2A4649464046FFF7BB
:105DE800ABFF9DF821304BB18DE8A0002346324629
:105DF8005946DAF81400FEF781FB01E04FF0FF3056
:105E080011B0BDE8F08F00BFFE6B0D00456B0D00B3
:105E1800F0B591B00C4606460021154609A81C228B
:105E28001F4600F09DFC09AA00212046FFF784FFC9
:105E38009DF82530022B2ED1002305930A9B04934D
:105E4800DDB102A92846FEF7E9FAB0B910A941F870
:105E5800340D0298FEF7EAFA60B9039B53B1DA6889
:105E680012685178022903D152680AB1059201E0FB
:105E78001B68F3E70398FEF7E1FA002F4FF00803D9
:105E8800009318BF032204AB08BF04220021304648
:105E9800FEF71CFB1EE00A2B1AD104AC14220021C9
:105EA800204600F05DFC0BAB0FCB002F84E80F0001
:105EB8004FF01403009318BF0C22234608BF0D228D
:105EC800292130460895FEF701FB00EAE07001E061
:105ED8004FF0FF3011B0F0BD38B54FF47A738360DE
:105EE8000B4B03F108026C33002503614FF0FF33BD
:105EF80004464560026043611C30FEF7EBFF4FF437
:105F08000073E5862587E56323646564204638BD0C
:105F18002C6C0D0010B590F8483004461BB1C06BCE
:105F280008B1FEF7B8F80023E36384F84830236427
:105F3800E386238710BD70B5044616460D46FFF765
:105F4800E9FF0023E66323643EB935B12846FEF72E
:105F5800A0F80123E06384F84830E36B03B12564BB
:105F6800206C003018BF012070BD70B5C26B0446AC
:105F78001AB9016C09B1FFF7DEFFE16B0023E38674
:105F8800238741B1226C32B12068056B2046A847AF
:105F98000028C8BF2087236820461B69BDE87040D9
:105FA80018470000F0B591B020230546002604A844
:105FB80017460C4608930996FFF77EFC049B01934D
:105FC800104B009308AA33460F4902970120FEF7A9
:105FD80025FB04A8FFF7E2FBEA6B22B9296C11B193
:105FE8002846FFF7A8FF04340FCC05F120060FC69A
:105FF80023683370286CAF860023EB862B8711B09B
:10600800F0BD00BF186C0D00456B0D0010B5074BB7
:1060180003F108026C33044602600361FFF715FDC3
:106028002046FFF777FF204610BD00BF2C6C0D00FF
:1060380010B50446FFF7EAFF2046FEF72CF8204685
:1060480010BD02464069002804DB012392F8442071
:10605800FFF7DEBE4FF0FF3070477047417470475E
:10606800007CFEF7A3BA007CFEF778BA007CFEF746
:1060780085BA007CFEF77ABA007CFEF787BA10B5BD
:106088000446FEF708F8204610BD70B5457C044666
:106098000E4625B9007CFEF789FA002805DD314651
:1060A800207CBDE87040FEF751BA284670BD00005C
:1060B80010B5044608461146002262604FF47A7211
:1060C800A260054A22600122207462741A46FEF713
:1060D80035FA204610BD00BFA46C0D00007CFEF709
:1060E8005DBA000038B50C4D296811F0010411D1D2
:1060F8002846FDF7D4FF68B1084A094B09482146EC
:10610800FFF7D6FF2846FDF7CFFF074A074905489E
:1061180000F090F9034838BD6CE6032070E60320D0
:10612800E8E50320D4E50320BCE3032063600D0009
:106138004174704770470021007CFEF757BA01216F
:10614800007CFEF753BA007CFEF748BA007CFEF7E5
:106158003DBA38B50446007C0D46FEF73FFA0028E4
:1061680001DC607C20B12946207CFEF747FA01203B
:1061780038BD007CFEF74ABA10B50446FDF78BFF20
:10618800204610BD10B50446002363604FF47A73AF
:10619800A360054B236001230846217463741146EC
:1061A800FEF70CFA204610BDD46C0D0010B5142271
:1061B8000446002100F0D4FA204610BD30B50E4D3B
:1061C80087B001A8FFF7F2FF296811F0010410D188
:1061D8002846FDF764FF60B101AA21460748FFF78A
:1061E800D1FF2846FDF760FF054A0649034800F03D
:1061F80021F9024807B030BDF4E60320F8E6032091
:10620800BCE303203D610D0008B50C4B33B1FFF72B
:10621800D5FF03681B699847002809DC084B63B160
:10622800FFF760FF03681B699847002803DC08BD77
:10623800AFF30080F2E7AFF3008008BD0000000074
:106248000000000008B5FFF7DFFFFEF75FF8014B1D
:10625800186008BD10E7032007B5002300931A460D
:106268006FF07701FEF704FA03B05DF804FB000055
:1062780007B543880A2B08D0502B09D1094B1B6856
:106288003BB103B05DF804EB1847FFF7E5FF06E004
:10629800002300931A466FF07701FEF7E9F903B07F
:1062A8005DF804FB0CE7032008B500210448FEF75D
:1062B80003FA00210348BDE80840FEF7CFB900BF44
:1062C8000000000079620D0010B504460F48FFF782
:1062D8005BFA28B1A4F10B03022B01D8002010BDF2
:1062E80000F066F8FEF7B8FD08B1012CF6D9FFF703
:1062F800F9FEFFF7F3FE18B1A4F10903012BEDD95C
:106308001E2C8CBF0020012010BD00BF2CE70320ED
:106318001E2838B504460D460AD8FF2908D0FFF7CD
:10632800D3FF28B129462046BDE83840FEF706B815
:1063380038BD38B504460D46FEF708F8FF2810D0DA
:10634800062804D84D2323FA00F0C30709D42046B1
:10635800FFF7BAFF28B129462046BDE83840FDF7C7
:10636800FDBF38BD38B504460D46FFF7ADFFF0B1A7
:1063780004212046FDF7DAFF042805D1A9B22046FA
:10638800BDE83840FDF7F2BF02212046FDF7CEFFF9
:1063980002280CD12046FDF7D9FF012801D0042896
:1063A80005D129462046BDE83840FDF7E7BF38BD8E
:1063B80038B50B4D296811F001040FD12846FDF7B7
:1063C8006EFE58B121460748FEF734FD2846FDF712
:1063D8006BFE054A0549034800F02CF8014838BD12
:1063E80014E7032018E70320BCE30320E54D0D0064
:1063F80070B50C4C0C4E0D4D00212046FFF7B0F93E
:1064080020460B4C3246294600F014F8012120465C
:10641800FFF7A6F9324629462046BDE8704000F04D
:1064280009B800BF2CE70320BCE3032059570D002F
:106438003CE703200B460146184600F069B9000006
:10644800024B1868BFF35F8F704700BF4CE703200B
:1064580010B5002814BF044601242046FEF784F92D
:1064680020B9FFF7EDFF08B18047F6E710BDFFF749
:10647800EFBF08B5FEF798F9244B1A68D0075CBF40
:1064880001221A60224B1A68D1075CBF01221A60E8
:10649800204B1A68D2075CBF01221A601E4B1A688B
:1064A800D0075CBF01221A601C4B1A68D1075CBF79
:1064B80001221A601A4B1A68D2075CBF01221A60BF
:1064C800184B1A68D0075CBF01221A60164B1A686D
:1064D800D1075CBF01221A60144B1A68D2075CBF4F
:1064E80001221A60124B1A68D0075CBF01221A6099
:1064F800104B1A68D1075CBF01221A600E4B1A684C
:10650800D2075CBF01221A60704700BF7CE70320F6
:1065180078E7032074E7032070E703206CE7032083
:1065280068E7032064E7032060E703205CE70320B3
:1065380058E7032054E7032050E70320184B1A6854
:10654800D1075CBF01221A60164B1A68D2075CBFDC
:1065580001221A60144B1A68D0075CBF01221A6026
:10656800124B1A68D1075CBF01221A60104B1A68D7
:10657800D2075CBF01221A600E4B1A68D0075CBFB5
:1065880001221A600C4B1A68D1075CBF01221A60FD
:106598000A4B1A68D2075CBF01221A60704700BF15
:1065A8009CE7032098E7032094E7032090E7032063
:1065B8008CE7032088E7032084E7032080E7032093
:1065C800184B1A68D1075CBF01221A60164B1A686B
:1065D800D2075CBF01221A60144B1A68D0075CBF4F
:1065E80001221A60124B1A68D1075CBF01221A6097
:1065F800104B1A68D2075CBF01221A600E4B1A684A
:10660800D0075CBF01221A600C4B1A68D1075CBF27
:1066180001221A600A4B1A68D2075CBF01221A606D
:10662800704700BFBCE70320B8E70320B4E70320A6
:10663800B0E70320ACE70320A8E70320A4E7032082
:10664800A0E70320244B1A68D0075CBF01221A6018
:10665800224B1A68D1075CBF01221A60204B1A68C6
:10666800D2075CBF01221A601E4B1A68D0075CBFB4
:1066780001221A601C4B1A68D1075CBF01221A60FC
:106688001A4B1A68D2075CBF01221A60184B1A68A5
:10669800D0075CBF01221A60164B1A68D1075CBF8D
:1066A80001221A60144B1A68D2075CBF01221A60D3
:1066B800124B1A68D0075CBF01221A60104B1A6887
:1066C800D1075CBF01221A600E4B1A68D2075CBF63
:1066D80001221A60704700BFECE70320E8E70320B7
:1066E800E4E70320E0E70320DCE70320D8E7032002
:1066F800D4E70320D0E70320CCE70320C8E7032032
:10670800C4E70320C0E703200A22002100F002B9F1
:1067180010B5054C13462CB10A4601460220AFF3CA
:10672800008010BD204610BD0000000010B50139E2
:106738000244904207D010F8013B11F8014FA342E0
:10674800F7D0181B10BD002010BD10B5431E0A4419
:10675800914204D011F8014B03F8014FF8E710BD3E
:1067680002440346934202D003F8011BFAE770473C
:10677800034611F8012B03F8012B002AF9D17047C1
:10678800024B0146186800F003B800BFB8E30320C5
:1067980070B5064608460C4600F00DF8451C29461B
:1067A8003046FEF709F8064618B12A462146FFF793
:1067B800CCFF304670BD034613F8012B002AFBD1ED
:1067C800181A0138704730B582B1451E013915F8DD
:1067D800013F11F8014FA34206D1EC431444E042B3
:1067E80001D0002BF3D11C46181B30BD104630BD1C
:1067F80010B5034601448B4204D01A785C1C0AB1D8
:106808002346F8E7181A10BD2DE9F047804640489E
:10681800D0F800900F463D4615F8014B09EB0400EF
:10682800407800F0080000F0FF0608B12F46F2E7B4
:106838002D2C03D1BD1C7C78012603E02B2C04BF32
:106848007C78BD1C13B1102B0AD15BE0302C57D1DA
:10685800287800F0DF0058284DD16C7810230235D5
:10686800002E14BF4FF0004C6FF0004C0027BCFB0B
:10687800F3FA384603FB1ACC09EB040E9EF801E044
:106888001EF0040F01D0303C0BE01EF0030E1BD0AD
:10689800BEF1010F0CBF4FF0370E4FF0570ECEEB85
:1068A8000404A34210DDB7F1FF3F0AD0504506D8D3
:1068B80001D1644503DC03FB0040012701E04FF0F0
:1068C800FF3715F8014BD7E77B1C0CD1002E4FF092
:1068D800220314BF4FF000406FF00040C8F80030AA
:1068E8002AB9BDE8F08706B1404272B107B1691E06
:1068F8001160BDE8F0873024002BB1D10823AFE741
:106908000A23ADE7302CA3D0AAE7BDE8F08700BF83
:1069180054E3032013460A46014602480068FFF77D
:1069280073BF00BFB8E303201D400D0059400D00A0
:1069380085400D0089400D000000000073776172EA
:106948006D2D666F6C6C6F7765722D6F6E6C696EEE
:10695800650066772D76657273696F6E006C656683
:106968007452006C656674460072696768745200F8
:106978007269676874460025692056616C3A20255B
:10698800690076312E300000000000000000000091
:10699800F7470D00FD470D0025480D0009480D007B
:1069A800F9470D000000000000000000C74D0D0071
:1069B800BD4D0D00B34D0D00A94D0D009D4D0D00B1
:1069C800914D0D00854D0D007D4D0D00734D0D0051
:1069D800694D0D005D550D0000000000000000002D
:1069E800E54D0D002F4E0D00074E0D00E74D0D0033
:1069F8000F4E0D00174E0D001F4E0D00274E0D00B7
:106A08000000000000000000774E0D00694E0D00E8
:106A18006B4E0D0066006C6E00666E00636F6465F9
:106A28000064657461696C000D0A002530313075A9
:106A380020005D20002C200028293A2000205B003F
:106A4800636F6465203D200064657461696C732020
:106A58003D2000626175640053657269616C005382
:106A6800657269616C31007479706500706172617A
:106A78006D00636D6400696400686E64007374720D
:106A88006D0066696C74006C766C006164644861C2
:106A98006E646C65720072656D6F766548616E64D0
:106AA8006C657200656E756D48616E646C657273B5
:106AB800004A534F4E53747265616D4C6F6748615D
:106AC8006E646C657200617070006E6F6E65007444
:106AD8007261636500696E666F007761726E00654A
:106AE80072726F720070616E696300616C6C000095
:106AF800000000000000000011500D0007500D00BC
:106B0800FD4F0D00F34F0D00E74F0D00DB4F0D005B
:106B1800CF4F0D00C74F0D00BD4F0D00B34F0D00F7
:106B28005D550D00666630333A3A313A31303031CE
:106B380000746831006D65736870756200776972FA
:106B4800696E67007061727365207061636B65744C
:106B5800202564000000000000000000F5540D002E
:106B6800FF540D0009550D0013550D001D550D005E
:106B780029550D0035550D0041550D0049550D009D
:106B880053550D005D550D00000000000000000089
:106B980059570D005B570D00000000000000000071
:106BA80097570D0099570D00B5580D0087580D00DF
:106BB8005A00252B3033643A253032750025592D7B
:106BC800256D2D25645425483A254D3A2553257AB7
:106BD8000061736374696D650072656365697665E4
:106BE800642025642062797465732066726F6D2055
:106BF80025732325640073656E645061636B657447
:106C08002073697A652025642C2025732325640068
:106C1800626567696E207061636B657420257323F4
:106C280025640000000000000000000015600D0051
:106C380039600D0045590D006F5A0D003D590D0082
:106C48005B590D0079590D0093590D00B7590D0086
:106C5800535A0D00915D0D00F55A0D00755C0D003D
:106C680025590D00AD5F0D00F95B0D002D5B0D0082
:106C7800735F0D00995A0D0033590D00D55A0D0058
:106C880039590D0095590D00F0FFFFFF0000000075
:106C9800AF590D00000000000000000063600D0007
:106CA80087600D0093600D00F5550D006F600D00B5
:106CB8007B600D0075600D0081600D0065600D0042
:106CC80069600D0000000000000000003D610D003B
:106CD80081610D005B610D00F5550D0055610D00DA
:106CE8003F610D0047610D007B610D004F610D0094
:106CF80039610D000000202020202020202020289D
:106D0800282828282020202020202020202020205B
:106D18002020202020208810101010101010101093
:106D280010101010101004040404040404040404D3
:106D38001010101010101041414141414101010152
:106D4800010101010101010101010101010101012B
:106D58000110101010101042424242424202020238
:106D680002020202020202020202020202020202FB
:106D780002101010102000000000000000000000A9
:106D880000000000000000000000000000000000FB
:106D980000000000000000000000000000000000EB
:106DA80000000000000000000000000000000000DB
:106DB80000000000000000000000000000000000CB
:106DC80000000000000000000000000000000000BB
:106DD80000000000000000000000000000000000AB
:106DE800000000000000000000000000000000009B
:106DF800000000000000000000000000000000008B
:106E0800000000000000000000000000000000007A
:106E1800000000000000000000000000000000006A
:106E2800000000000000000000000000000000005A
:106E3800000000000000000000000000000000004A
:106E4800000000000000000000000000000000003A
:106E58000000000000000000430000003D420D005B
:106E6800D14D0D00794F0D00A9540D00E1550D00CD
:106E78003D570D00F5580D0011590D00F9630D002F
:106E880081640D0045650D00C9650D004D660D0056
:086E98000000000000000000F2
:106EA000110000001000000012000000130000009C
:106EB000D96B0D00FD6C0D0000000000006E0D0090
:106EC000206E0D00406E0D0000000000000000006C
:106ED0000000000000000000606E0D0000000000D7
:106EE00000000000000000000000000000000000A2
:106EF0000000000000000000000000000000000092
:106F00000000000000000000000000000000000081
:0C6F1000000000000000000058E3032017
:106F1C00FFFFFFFF00000102030405060708090A32
:106F2C000B0C0D0E0F101112131415161718191A2D
:086F3C001B1C1D1E1F20280074
:046F44007856341235
:04000003D0004018D1
:00000001FF
