:02000002D0002C
:1040000000400D00D46E0D00000005000E000501FB
:0840100004014601000000005C
:10401800C8680D0009480A49884208B505D0094A08
:10402800824202D0121A02F05CFB0748074A0021BC
:10403800121A02F061FB014808BD00BF40E30320EB
:10404800306E0D00BCE30320BCE30320F0E703203F
:1040580070B502F0F5F8074C074BE41AA4080025E0
:104068001E46A54204D056F8253098470135F8E792
:1040780070BD00BF2C6E0D00F86D0D0000F03AB851
:1040880008B500F0EFF8BDE8084002F0A7B800F066
:1040980085BB00F083BB00F089BB00F087BB0078CC
:1040A800B0FA80F040097047012303707047106828
:1040B8007047000008B50B4B0021188802F01EF964
:1040C800094B0021188802F019F9084B00211888BB
:1040D80002F014F9064B00211888BDE8084002F0E8
:1040E8000DB900BF4CE3032048E3032044E3032059
:1040F80040E30320F0B5344F344E3888344D354C06
:1041080085B0012102F0D0F80121308802F0CCF806
:104118000121288802F0C8F82088012102F0C4F89B
:104128000021388802F0D1F80021308802F0CDF85B
:104138000021288802F0C9F82088002102F0C5F87B
:10414800254B26491A68264B1B788DF8003002A8A3
:104158003C2300F0B3FC039C7CB16368013B6360C3
:104168005BB9236820469B689847A368013BA36016
:104178001BB923682046DB6898470823ADF8083048
:10418800184B0393042202AB1349174800F09EFA18
:10419800164A1749174801F0BDF8174A1749154834
:1041A80001F0B8F8164A1749124801F0B3F8164A50
:1041B8001649104801F0AEF8154A16490D4801F0A5
:1041C800A9F805B0F0BD00BF4CE3032048E3032085
:1041D80040E3032044E30320C4E30320DC680D002C
:1041E800C0E30320B7400D00F2680D003D420D000A
:1041F800FD680D00E8E3032049420D0003690D0046
:1042080055420D0009690D0061420D0010690D004D
:10421800BD400D0017690D0010B50446084602F0B0
:104228003FFA10280146A0B2D8BF0021BDE81040CF
:1042380002F064B8014B1868FFF7EEBF4CE30320A7
:10424800014B1868FFF7E8BF48E30320014B1868E3
:10425800FFF7E2BF44E30320014B1868FFF7DCBF18
:1042680040E303207047000010B5084B084C0022BB
:104278001A7000F06DF80749204601F0A2FA2046AE
:10428800054A0649BDE8104002F0A0B8C0E3032083
:10429800C4E303201E690D00BCE303203D570D0055
:1042A80008B5024B1B685B68019308BD4802030010
:1042B80008B5024B1B689B68019308BD48020300C0
:1042C80008B5024B1B681B69019308BD480203002F
:1042D80008B5024B1B685B69019308BD48020300DF
:1042E80008B5024B1B681B6B019308BD480203000D
:1042F80008B5024B1B685B6C019308BD48020300BC
:1043080008B5024B1B68DB6C019308BD480203002B
:1043180008B5024B1B685B6D019308BD480203009A
:1043280008B5024B1B68DB6E019308BD4802030009
:1043380008B5024B1B689B68019308BD180203006F
:1043480008B5024B1B685B69019308BD180203009E
:1043580008B5024B1B681B68019308BD2C020300BB
:1043680008B5024B1B685B68019308BD2C0203006B
:1043780008B5024B1B689B68019308BD2C0203001B
:1043880008B5024B1B68DB68019308BD2C020300CB
:1043980008B5024B1B681B69019308BD2C0203007A
:1043A80008B5024B1B689B6A019308BD2C020300E9
:1043B80008B5024B1B689B6F019308BD2C020300D4
:1043C80008B5024B1B681B6A019308BD280203004D
:1043D80008B5024B1B685B6A019308BD28020300FD
:1043E80008B5024B1B689B6A019308BD28020300AD
:1043F80008B5024B1B68DB6A019308BD280203005D
:1044080008B5024B1B681B6B019308BD280203000B
:1044180008B5024B1B685B6B019308BD28020300BB
:1044280008B5024B1B681B6C019308BD28020300EA
:1044380008B5024B1B681B69019308BD6C02030099
:1044480008B5024B1B685B69019308BD6C02030049
:1044580008B5024B1B689B69019308BD6C020300F9
:1044680008B5024B1B685B6D019308BD6C02030025
:1044780008B5024B1B689B6D019308BD6C020300D5
:1044880008B5024B1B685B69019308BD6402030011
:1044980008B5024B1B689B69019308BD64020300C1
:1044A80008B5024B1B681B6A019308BD6402030030
:1044B80008B5024B1B685B6A019308BD64020300E0
:1044C80008B5024B1B689B6A019308BD6402030090
:1044D80008B5024B1B689B68019308BD680203007E
:1044E80008B5024B1B68DB68019308BD680203002E
:1044F80008B5024B1B685B68019308BD38020300CE
:1045080008B5024B1B689B69019308BD380203007C
:1045180008B5024B1B68DB69019308BD380203002C
:1045280008B5024B1B68DB6A019308BD380203001B
:1045380008B5024B1B685B6B019308BD380203008A
:1045480008B5024B1B689B6B019308BD380203003A
:1045580008B5024B1B68DB69019308BD30020300F4
:1045680008B5024B1B681B6A019308BD30020300A3
:1045780008B5024B1B681B68019308BD3C02030089
:1045880008B5024B1B68DB68019308BD3C020300B9
:1045980008B5024B1B681B69019308BD3C02030068
:1045A80008B5024B1B685B69019308BD3C02030018
:1045B80008B5024B1B689B69019308BD3C020300C8
:1045C80008B5024B1B68DB69019308BD3C02030078
:1045D80008B5024B1B681B6A019308BD3C02030027
:1045E80008B5024B1B689B6A019308BD3C02030097
:1045F80008B5024B1B681B68019308BD4C020300F9
:1046080008B5024B1B681B69019308BD4C020300E7
:1046180008B5024B1B685B69019308BD4C02030097
:1046280008B5024B1B689B69019308BD4C02030047
:1046380008B5024B1B68DB69019308BD4C020300F7
:1046480008B5024B1B681B6A019308BD4C020300A6
:1046580008B5024B1B681B6D019308BD600203007F
:1046680008B5024B1B685B68019308BD2002030074
:1046780008B5024B1B68DB6C019308BD20020300E0
:1046880008B5024B1B685B6D019308BD200203004F
:1046980008B5034B1B68D3F88830019308BD0000A8
:1046A8002002030008B5034B1B68D3F8943001932C
:1046B80008BD00002002030008B5034B1B68D3F8AF
:1046C800A430019308BD00002002030008B5024B86
:1046D8001B681B68019308BD4402030008B5024B20
:1046E8001B681B6A019308BD4402030008B5024B0E
:1046F8001B68DB6B019308BD4402030008B5024B3D
:104708001B685B68019308BD4002030008B5024BB3
:104718001B689B68019308BD4002030008B5024B63
:104728001B68DB68019308BD4002030008B5024B13
:104738001B681B69019308BD4002030008B5024BC2
:104748001B685B69019308BD4002030008B5024B72
:104758001B689B69019308BD4002030008B5024B22
:104768001B68DB69019308BD4002030008B5024BD2
:104778001B681B6A019308BD4002030008B5024B81
:104788001B681B6B019308BD4002030008B5024B70
:104798001B685B6B019308BD4002030008B5024B20
:1047A8001B681B68019308BD1C02030008B5024B77
:1047B8001B685B68019308BD1C02030008B5024B27
:1047C8001B689B68019308BD1C02030008B5024BD7
:1047D8001B68DB6A019308BD1C02030008B5024B85
:1047E8001B681B6B019308BD1C02030010B583688E
:1047F80004460BB901F009FEC3689847A3681BB1CA
:1048080003222146204698472046BDE81040FFF77E
:1048180042BC70470020704710B50446FFF73BFCC8
:10482800204610BD08B508B1FFF7F6FF08BD10B562
:104838008368044613B1032201469847204610BDF9
:1048480038B5C468D4B12378022B02D1E068FFF7E9
:10485800ADFF65682DB12846FFF7E9FF2846FFF749
:104868001AFCA5682DB12846FFF7E1FF2846FFF797
:1048780012FC2046BDE83840FFF70DBC38BD38B5FE
:10488800046805467CB16368013B63605BB92368D3
:1048980020469B689847A368013BA3601BB923681F
:1048A8002046DB689847284638BD13B5044691E88A
:1048B800050000234B600B602060626001A8019333
:1048C8000093FFF7DCFF204602B010BD0B680360C1
:1048D80013B15A6801325A607047F7B50C4602ADF9
:1048E80054F8043B45F8083D06460F4601A8214602
:1048F800FFF7ECFF29463046FFF7D7FF01A8FFF77F
:10490800BEFF2046FFF7BBFF3846FFF7C4FB304623
:1049180003B0F0BD13B50B46044603C88DE8030089
:1049280093E8030084E803009DE8030083E803009C
:1049380002B010BD826810B50AB901F066FDC368FF
:10494800BDE81040184708B5006800F11001FFF7EE
:10495800F1FF08BD826810B50AB901F056FDC368B9
:10496800BDE81040184708B5006800F11001FFF7CE
:10497800F1FF08BD38B5002383608B6804460D46F7
:104988002BB102229847EB68E360AB68A36020462E
:1049980038BD00002DE9F0414FF69C7386B00468DD
:1049A800B1F904208B8000230F688DF800300B606C
:1049B8004FF00200D4E84F1F994203D1C4E8450FD5
:1049C800002DF7D102D08DF800106AE014F10C0523
:1049D8001EBFE76022821F460123BFF35F8F0020BE
:1049E800637004F10803BFF35F8F53E8006F43E877
:1049F8000002002AF9D1BFF35F8F002E51D0FFF7D4
:104A080037FE20B129463046FFF794FF43E0314690
:104A18006846FFF7AFFFE068B4F9105008B101F03D
:104A28007BFE04901020ADF81450FFF730FB0546CC
:104A380030B34FF00008C0F808801820FFF727FBB4
:104A48000446C0B1C0F8088001466846FFF762FF17
:104A5800029BA268A360039B0292E268E360BDF830
:104A68001430A3824FF69C73ADF81430049B039264
:104A78002361CDF810800E4BEB600E4B2C60AB60C1
:104A88000498FFF793FE6846FFF7D1FE00222946F7
:104A98000948FFF7F5FD3046FFF7C9FE3046FFF736
:104AA800FAFA3846FFF782FE06B0BDE8F08100BF8B
:104AB8004F490D00AD4B0D00F5470D002DE9F04FA6
:104AC8008BB007AD4FF0000B0646994614200C2317
:104AD8000F4690469DF850A0C5F804B0C5F808B038
:104AE8000793FFF7D4FA044638B180F800B080F88D
:104AF80001B0C0F804B0C0F808B000231020039437
:104B08000493FFF7C4FA28B1012343608360234B61
:104B18000360C4600490224B08930820FFF7B7FA9B
:104B2800044628B1039B40F8043B04A9FFF7CEFED6
:104B380000955FFA8AF34A46414638460994FFF7DA
:104B4800CDFDB8B9039B5B7803F0FF0293B94FF62C
:104B58009C7305A903A80592ADF81830FFF71AFF52
:104B68000598FFF723FE05A80999FFF7B6FE06A8E2
:104B7800FFF785FE039B059304A906A8FFF7A6FE89
:104B880005A93046FFF791FE06A8FFF778FE04A8AE
:104B9800FFF775FE30460BB0BDE8F08F2C690D00AD
:104BA800154D0D00022AF8B5044606D0032A17D081
:104BB800012A20D10B6803601DE018200E68FFF75A
:104BC80066FA054650B13146FFF7D4FE3069B6F9AA
:104BD800147008B101F0A0FD2861AF8225600AE0D9
:104BE800046844B12069FFF7E1FD2046FFF71FFE86
:104BF8002046FFF750FA0020F8BD38B5002383603F
:104C08008B6804460D462BB102229847EB68E36097
:104C1800AB68A360204638BD022A70B5044606D0AA
:104C2800032A11D0012A17D10B68036014E014205D
:104C38000E68FFF72CFA054620B13146FFF7DDFF75
:104C4800337C2B74256007E004682CB12046FFF7FD
:104C5800EEFD2046FFF71FFA002070BDF0B50023D7
:104C680087B00C46BFF35F8F50E8006F40E8003212
:104C7800002AF9D1BFF35F8F002E3ED01846FFF708
:104C8800F7FC074620B121463046FFF763FE2EE0C9
:104C9800314601A8FFF7B1FF23788DF814301020B2
:104CA800FFF7F5F90546D0B187601420FFF7EFF953
:104CB800044678B18760014601A8FFF72BFE039BE5
:104CC800A268A360049B0392E268E3609DF8143035
:104CD800049223740A4BEB600A4B2C60AB6001A86A
:104CE800FFF7A5FD002229460748FFF7C9FC304613
:104CF800FFF79DFD3046FFF7CEF907B0F0BD00BFC6
:104D08006F490D00214C0D00F5470D0030B585B0F9
:104D180004460D4668461146FFF7DFFD7CB124B214
:104D280028460DB101F0F8FC029002A96846ADF8DA
:104D38000C40FFF72FFE0298FFF738FD1DE00098A2
:104D48008DF808404FF00102D0E84F3FA34203D14D
:104D5800C0E8412F0029F7D102D08DF808300CE0C7
:104D680010F10C014FF0010318BF0373BFF35F8FFD
:104D7800043000F8033CFFF771FF01A8FFF77FFD3F
:104D880005B030BD002211464068FFF7EFBC002295
:104D980011464068FFF7FABC00224068FFF7EEBCF6
:104DA800002281F001014068FFF7D8BC00231A46B1
:104DB80019464068FFF7CABC00231A4619464068DE
:104DC800FFF7BCBC002211464068FFF7AFBC0022C9
:104DD80011464068FFF79ABC002202214068FFF79D
:104DE8009DBC00231A464068FFF788BC024B03228B
:104DF8005A60024A1A607047D4E3032048690D00DC
:104E08007047F8B5064615460C468F18BC4206D0C2
:104E1800336814F8011B9B6830469847F6E7284624
:104E2800F8BD0022007CFFF7CBBA0021007CFFF719
:104E3800CFBA0021007CFFF7D3BA0021007CFFF72E
:104E4800D7BA0021007CFFF7DBBA10B50446FFF79C
:104E580022F9204610BD000010B504464FF47A73BD
:104E68000846A3600021044B207461602360FFF7AB
:104E7800D7FA204610BD00BF7C690D000021007CD8
:104E8800FFF7C6BA704710B50446FFF704F9204685
:104E980010BDF0B5037D062B8DB00E4600F104075A
:104EA8004FF0000402D000F1080518E00CAD3946B7
:104EB80005F8304D2F232A460A20FFF7E1FA284645
:104EC80001F045FC33680246DB68294630469847BE
:104ED8000FE024B12E21304600F0C0FB044415F841
:104EE800011D0A22304600F0E9FBBD420444F0D11E
:104EF80020460DB0F0BD000010B5054B0446112248
:104F080040F8043B002101F0F7FB204610BD00BF2C
:104F1800A4690D000346074A10B543F8042B01F1B4
:104F2800100251F8044B43F8044B9142F9D10A7826
:104F38001A7010BDA4690D00037D042B01D14068CF
:104F480008E0062B0AD1436853B1836843B1C368AC
:104F580033B10069003018BF012070470020704746
:104F68001846704710B59DF8084044EA032343EA01
:104F7800024242EA016104234160037510BD37B55E
:104F88000D788B784A78C97800912946FFF7EAFFAF
:104F980003B030BD014B024A1A607047DCE30320BE
:104FA800636A0D0010B5836804460BB1C06806E05B
:104FB800406828B183680BB901F027FAC36898479D
:104FC800012323740020BDE81040FFF7A9B900228F
:104FD80011464068FFF7CABB002211464068FFF738
:104FE800D5BB00224068FFF7C9BB002281F0010150
:104FF8004068FFF7B3BB00231A4619464068FFF71D
:10500800A5BB00231A4619464068FFF797BB002244
:1050180011464068FFF78ABB002211464068FFF737
:1050280075BB002202214068FFF778BB00231A46AF
:105038004068FFF763BB10B103685B6818477047A7
:1050480038B504460068D0B1FFF732F9B8B9237C07
:105058001BB9206808B1FFF733F9656855B1AB682B
:105068001BB103222946284698472846FFF713F81C
:10507800002363602068FFF72BF90023236038BD05
:1050880038B50B4B03600446D0F8CC0108B1FFF7E4
:1050980004F8D4F8C4512DB12846FFF7D1FF2846AB
:1050A800FEF7F9FFA06808B1FFF7C5FF204638BD35
:1050B800946A0D000068FFF723B92DE9F84F0B9F9C
:1050C8009DF828B00646884691469A46044600252B
:1050D800236C4B4529D1636C534526D194F848304D
:1050E8005B4522D14021404601F04EFB4146024635
:1050F800204601F034FBC0B96FB10C21384601F0ED
:1051080043FB024638B1582303FB05603946493052
:1051180001F025FB04E0582000FB056595F84900DF
:10512800B0FA80F04009BDE8F88F0135052D04F18B
:105138005804CDD10020BDE8F88F00002DE9F04FCC
:1051480085B007469DF838A00F9E0196CDF800A0BF
:10515800894602920393FFF7B0FF00283CD104462A
:10516800582303FB0475D5F84080B8F1000F2ED101
:105178004021484601F008FB494683460246284636
:1051880001F0AFFACBF14002414605EB0B0001F00C
:10519800B3FA029B2B64039B6B6485F849802EB19C
:1051A8000C21304601F0F0FA054600E0354658205B
:1051B800444338193C442A4631464930254401F0D5
:1051C80090FA002085F8490084F848A005E00134E9
:1051D800052CC6D1024800E0002005B0BDE8F08FDC
:1051E800FCFEFFFF07B5002301930093FFF7A6FF1E
:1051F80003B05DF804FB2DE9F341044608460D466B
:10520800904601F0A4FA04F5DC760746236CABB1AE
:105218004021204601F0B8FA874202460BD32946BE
:10522800204601F04FFA30B9009043462A462146FD
:105238005820FFF741FA5834B442E7D102B0BDE82C
:10524800F081000030B58DB004461122002101A87C
:1052580001F052FA062301AA09498DF814300A20F0
:10526800FFF716F907AD01A906A8FFF753FE0FCD02
:1052780004340FC42B68237000200DB030BD00BF6C
:10528800C06A0D0030B5044689B000F5E070FFF73C
:1052980011FF236883BB4C20FEF7F9FE054608B1D1
:1052A80000F0E6FD2068256008B1FFF7C4FE20681D
:1052B80020B300224FF49A6100F009FE08A90025E6
:1052C80001F8195D1148FFF7B3F820689DF8072029
:1052D800036849F269011B6A984702A8FFF70CFEA8
:1052E80002A8FFF7AFFF002804DB02A9206800F03E
:1052F80074FE04E0054602E0002500E0044DD4F801
:10530800C001FFF705F8284609B030BDCD6A0D0089
:10531800FCFEFFFF2DE9F341044600F5E0700F465F
:105328009046FFF7C7FED4F8BC61FEB91A491420AD
:1053380001F05AF8054670B1184B83604FF440638A
:1053480006604660C4600674032201930090144B03
:105358001449FEF7A5FFD4F8BC61C4F8BC512EB1BE
:105368003046FFF76DFE3046FEF795FE2046FFF704
:1053780089FF002807DB42463946201DFFF732FF28
:1053880000EAE07500E00546D4F8C001FEF7C0FF6A
:10539800284602B0BDE8F081906C0D00C1540D00A4
:1053A800AD4F0D00D16A0D002DE9F041054600F51D
:1053B800E0768AB03046FFF77DFE2C68D5F8C0014C
:1053C800FEF7A6FF002C63D0D5F8C43163B123687B
:1053D800D5F8C4111F6B20464FF47A734FF49A62C4
:1053E800B847041E13DC56E02D494FF49A6001F0CB
:1053F8000AF8D5F8C431C5F8C40113B11846FEF748
:105408004CFED5F8C431002BE1D1264844E02023D6
:10541800254A029300920023019402AA2349039388
:105428000120FFF715F9D5F8C4315F1C1B786BBB59
:10543800013C2146384601F0A7F938B3241A002C5C
:1054480007EB000822DD3B5C03BB013C0ED008F1F2
:1054580001082146404601F097F9241A002C15DD71
:1054680018F8003093B9012C02D00FE0DFF844801F
:105478003046FFF71FFE42463946281DFFF7BBFEA0
:10548800D5F8C001FEF744FF002005E0084803E016
:105498006420FEF74DFF20460AB0BDE8F08100BF4A
:1054A800906C0D00FCFEFFFFE06A0D00D96A0D004C
:1054B800E8FEFFFFC4690D0008B504462046FFF763
:1054C80073FFFBE738B50D4C0D4B23600025022315
:1054D80004F5E4706360A560C4F8C451C4F8C85109
:1054E800FEF706FF074BC4F8CC5123602046064A56
:1054F8000649BDE8384000F069BF00BFE0E303207B
:10550800F86A0D00946A0D00BCE3032089500D0071
:1055180000231A464068FFF7F1B8002202214068CC
:10552800FFF7FCB8002211464068FFF7EFB80022E9
:1055380011464068FFF7FAB800231A461946406832
:10554800FFF7FCB800231A4619464068FFF7FEB873
:10555800002281F001014068FFF700B9002240688D
:10556800FFF70CB9002211464068FFF70FB9002277
:1055780011464068FFF7FAB870B58CB01446064675
:10558800FFF7BAFC0CAB0022114643F8302D204639
:10559800FEF7A6FF014658BB009B4BB35A68022A88
:1055A8000ED00A2A24D15C69112201A801F0A4F8BE
:1055B80006238DF8143001AD04F10803183405E012
:1055C800596930460431FFF7DAFC11E01868596868
:1055D8002A4603C20833A3421546F7D101A906A8F3
:1055E80007ADFFF797FC0FCD341D0FC42B68237050
:1055F8000098FEF76DFF30460CB070BD024B034AB1
:105608001A6000225A607047B0E50320F86A0D005E
:10561800F8B506460D468F180024BD420CD03368F5
:1056280015F8011B9B6830469847002801DB0444A5
:10563800F3E7002C08BF04462046F8BD70B50546C0
:105648000C46084649B101F082F82B68024621460B
:105658002846DB68BDE87040184770BD03689B6842
:10566800184730B58BB00B4600218DF82410012A5D
:1056780098BF0A220DF12304B3FBF2F505FB1233A0
:1056880003F0FF03092B94BF30333733DBB22146D5
:1056980004F801392B46002DEED1FFF7CFFF0BB0F0
:1056A80030BD10B42AB903685DF8044B9B68C9B2D1
:1056B8001847D2B25DF8044BFFF7D3BFFFF7F1BF2D
:1056C80010B50446FFF7B3F8204610BD0348044A56
:1056D80004490023836000F079BE00BFB8E50320C9
:1056E800BCE30320C9560D00704710B50446FEF709
:1056F800D2FC204610BD000070B5084B036004467C
:1057080000250E4640F80C5FFEF7EAFD304626718C
:10571800FEF71EFFA560204670BD00BF2C6B0D0074
:105728000079FEF71DBF704710B50446FEF7B3FCBD
:10573800204610BD10B504460068FFF737F820462C
:1057480010BD10B50446006808B1FFF72FF8002314
:105758002360A360636010BD38B504460D46006839
:105768000131FFF72BF810B184E82100012038BD82
:1057780010B50368044613B143688B4207D220462C
:10578800FFF7EAFF20B1A3680BB922681370012064
:1057980010BD70B50E46114604461546FFF7E8FFE2
:1057A80018B92046FFF7CDFF09E02A463146A56023
:1057B800206800F096FF2268A3680021D154204693
:1057C80070BD38B5002304460360436083600373EB
:1057D8000D4639B1084600F0BAFF29460246204670
:1057E800FFF7D7FF204638BD70B504460E4609B905
:1057F800002070BD6AB18368D5182946FFF7B8FF45
:105808000028F5D02068A3683146184400F07CFFD2
:10581800A560012070BD38B5044680688568FFF72B
:10582800E3FFA3689868401B38BD07B500238DF8CF
:105838000410012201A98DF80530FFF7D5FF03B048
:105848005DF804FB08B58068FFF7EFFF08BD0000AE
:1058580030B585B000230D46029303604360836032
:1058680003731421064B019304460390FFF780FF4E
:105878002B6801A91B6828469847204605B030BD0B
:105888003C6B0D00054B4FF69C7200205A804FF67A
:10589800FF7218709A80FEF7E3BE00BFC8E50320C8
:1058A800024B1A68024B1A60704700BF50E303208E
:1058B800D0E5032010B40468246BA4465DF8044BBB
:1058C800604703689B6C1847808E7047028FC08EB4
:1058D800101A704713B502AB026803F8011DD468AB
:1058E80019460122A04702B010BD10B503681B6914
:1058F8000446984728B1E38EE26B591CE186D05CD8
:1059080010BD4FF0FF3010BD10B503681B69044689
:10591800984718B1E38EE26BD05C10BD4FF0FF30B2
:1059280010BD704710B403460846DC6BD98E1A8F39
:105938000368521ADB6821445DF8044B1847A0F14C
:105948001000FFF7EFBFF0B503688DB01C265B6A47
:1059580004460F461546984701233246002105A8FC
:10596800029300F0C9FE8DF8146038460A268DF8B7
:105978001560FEF7A5FD1122ADF81600022130468C
:10598800FEF7DEFD0028606124DB0422009202ABF2
:1059980040F6FF71FEF7B4FDE0B995B10390ADF89C
:1059A800100003A9E8B2FEF74BFD98B9062300934F
:1059B80041F20B0203AB40F6FF716069FEF7A0FDF0
:1059C80040B91C2205A96069FEF792FD10B965640B
:1059D800012004E0236820465B6A984700200DB048
:1059E800F0BD10B504464069002801DBFEF790FDC4
:1059F8004FF0FF3363610023E386238710BD38B57A
:105A0800C36B0546C08E13B12C6C241A00E01C46EB
:105A1800944228BF14462246184400F062FEEB8EDA
:105A28002344EB86204638BD70B503681B690446DD
:105A38000E461546984788B1236820461B69984743
:105A4800E38EE16B8542A8BF054619442A463046D5
:105A580000F047FEE38E2B44E38601E04FF0FF356C
:105A6800284670BD70B50446054B44F8043B01F167
:105A7800200506460FCD0FC42B682370304670BD35
:105A8800A4690D00F0B59446026889B0976A0A4A7D
:105A980002921D1D8E4606460FCD03AC0FC42B681F
:105AA8002370BDF838300093624602AB7146304629
:105AB800B84709B0F0BD00BFA4690D00F0B5036890
:105AC800B0F836E09F6A0D4B89B000F12006044615
:105AD80002930FCE03AD0FC533682B70A38E0093CE
:105AE800724602ABE16B2046B84723680546DB697E
:105AF80020469847284609B0F0BD00BFA4690D00AC
:105B0800F0B54378022B8DB005460C46174601D1F7
:105B1800011D33E00A2B35D11122002101A800F024
:105B2800EBFDAB6843B9EB6833B94FF6FF702E69EC
:105B3800FEF7B6FC86421FD005F1080301AE05F159
:105B4800180E18685968324603C20833734516465A
:105B5800F7D1062301A906A807AE8DF81430FFF780
:105B6800D9F90FCE04340FC43368237057B168884D
:105B7800FEF79EFC388005E005F114012046FFF78A
:105B8800FEF9F3E70DB0F0BD2DE9F0418EB00EAB94
:105B9800002506461746084643F8345D2A46294636
:105BA800FEF79EFC00281FDB019BFBB15B69EBB194
:105BB80002A8FFF7A1F9019B2A46586902A9FFF735
:105BC8009FFF02A8FFF7B8F980B1336803ADD3F897
:105BD80038800B4B08930FCD09AC0FC42B6823708A
:105BE8003A4608A93046C047044601E04FF0FF3462
:105BF8000198FEF76DFC20460EB0BDE8F08100BFAD
:105C0800A4690D002DE9F047D0F81480B8F1000F11
:105C180098B005460C461746994600DB11B94FF077
:105C2800FF304EE04FF01C0A09AE524600213046C4
:105C380000F062FDCDF810A0B9F1000F14D04FF4B8
:105C48007A72B9FBF2F1109102FB11914A430823D1
:105C58001192009341F2060210AB40F6FF714046E4
:105C6800FEF74EFC08B12CE0082004AB0193214656
:105C7800034600963A466869FEF752FC041E1FDB8D
:105C880005F11C0705F1340230463946FFF738FFA5
:105C980000262023394605A810931196FFF7D8FD52
:105CA800AB8E0393059B0293074B0093012001944D
:105CB800334610AA0549FEF7CBFC05A8FFF73AFDC5
:105CC800204618B0BDE8F087756B0D00D96A0D0045
:105CD80038B5054614462B7D062B084611D11C23E2
:105CE80013700A235370FEF7EBFB083424F8060CF4
:105CF8002B1D143553F8042B44F8042BAB42F9D16F
:105D080038BD042B0AD11023137002235370FEF7F9
:105D1800D7FB60806868FEF7C3FB606038BD000091
:105D28002DE9F04F984691B02023002482468B46F7
:105D380004A841461646BDF8689008930994FFF7F1
:105D480087FD049B029308AD154B164900932A461C
:105D580023460120CDF80C900196FEF779FC1C270C
:105D680004A8FFF7E7FC3A462146284600F0C4FCA1
:105D78002A4649464046FFF7ABFF9DF821304BB114
:105D88008DE8A000234632465946DAF81400FEF79B
:105D9800CFFB01E04FF0FF3011B0BDE8F08F00BF3E
:105DA800926B0D00D96A0D00F0B591B00C4606460D
:105DB8000021154609A81C221F4600F09DFC09AACF
:105DC80000212046FFF784FF9DF82530022B2ED1B5
:105DD800002305930A9B0493DDB102A92846FEF728
:105DE80037FBB0B910A941F8340D0298FEF738FB1B
:105DF80060B9039B53B1DA6812685178022903D15C
:105E080052680AB1059201E01B68F3E70398FEF7B0
:105E18002FFB002F4FF00803009318BF032204AB99
:105E280008BF042200213046FEF76AFB1EE00A2B59
:105E38001AD104AC14220021204600F05DFC0BAB03
:105E48000FCB002F84E80F004FF01403009318BF06
:105E58000C22234608BF0D22292130460895FEF75B
:105E68004FFB00EAE07001E04FF0FF3011B0F0BDE9
:105E780038B54FF47A7383600B4B03F108026C3327
:105E8800002503614FF0FF3304464560026043611B
:105E98001C30FFF731F84FF40073E5862587E5637A
:105EA80023646564204638BDC06B0D0010B590F8BA
:105EB800483004461BB1C06B08B1FEF7ECF800236C
:105EC800E36384F848302364E386238710BD70B504
:105ED800044616460D46FFF7E9FF0023E6632364F0
:105EE8003EB935B12846FEF7D4F80123E06384F8BB
:105EF8004830E36B03B12564206C003018BF0120E3
:105F080070BD70B5C26B04461AB9016C09B1FFF7D0
:105F1800DEFFE16B0023E386238741B1226C32B1B7
:105F28002068056B2046A8470028C8BF208723683B
:105F380020461B69BDE8704018470000F0B591B0D5
:105F480020230546002604A817460C460893099600
:105F5800FFF77EFC049B0193104B009308AA33467D
:105F68000F4902970120FEF773FB04A8FFF7E2FB35
:105F7800EA6B22B9296C11B12846FFF7A8FF04344F
:105F88000FCC05F120060FC623683370286CAF8646
:105F98000023EB862B8711B0F0BD00BFAC6B0D0062
:105FA800D96A0D0010B5074B03F108026C3304469B
:105FB80002600361FFF715FD2046FFF777FF2046D3
:105FC80010BD00BFC06B0D0010B50446FFF7EAFF17
:105FD8002046FEF760F8204610BD024640690028BA
:105FE80004DB012392F84420FFF7DEBE4FF0FF30B8
:105FF8007047704741747047007CFEF7F1BA007C27
:10600800FEF7C6BA007CFEF7D3BA007CFEF7C8BA22
:10601800007CFEF7D5BA10B50446FEF73CF82046DA
:1060280010BD70B5457C04460E4625B9007CFEF7C8
:10603800D7FA002805DD3146207CBDE87040FEF720
:106048009FBA284670BD000010B5044608461146A0
:10605800002262604FF47A72A260054A226001222F
:10606800207462741A46FEF783FA204610BD00BFFA
:10607800386C0D00007CFEF7ABBA000038B50C4D4B
:10608800296811F0010411D12846FEF708F868B113
:10609800084A094B09482146FFF7D6FF2846FEF76C
:1060A80003F8074A0749054800F090F9034838BD46
:1060B8006CE6032070E60320E8E50320D4E503201E
:1060C800BCE30320FB5F0D0041747047704700215B
:1060D800007CFEF7A5BA0121007CFEF7A1BA007C7E
:1060E800FEF796BA007CFEF78BBA38B50446007CFA
:1060F8000D46FEF78DFA002801DC607C20B12946A8
:10610800207CFEF795FA012038BD007CFEF798BA8E
:1061180010B50446FDF7BFFF204610BD10B5044674
:10612800002363604FF47A73A360054B2360012357
:106138000846217463741146FEF75AFA204610BDCA
:10614800686C0D0010B514220446002100F0D4FA42
:10615800204610BD30B50E4D87B001A8FFF7F2FFFD
:10616800296811F0010410D12846FDF798FF60B1A5
:1061780001AA21460748FFF7D1FF2846FDF794FFFB
:10618800054A0649034800F021F9024807B030BD26
:10619800F4E60320F8E60320BCE30320D5600D00F5
:1061A80008B50C4B33B1FFF7D5FF03681B69984757
:1061B800002809DC084B63B1FFF760FF03681B691F
:1061C8009847002803DC08BDAFF30080F2E7AFF37F
:1061D800008008BD000000000000000008B5FFF7BF
:1061E800DFFFFEF7ADF8014B186008BD10E703208C
:1061F80007B5002300931A466FF07701FEF752FAAD
:1062080003B05DF804FB000007B543880A2B08D0EB
:10621800502B09D1094B1B683BB103B05DF804EB67
:106228001847FFF7E5FF06E0002300931A466FF0D2
:106238007701FEF737FA03B05DF804FB0CE703209B
:1062480008B500210448FEF751FA00210348BDE8CB
:106258000840FEF71DBA00BF0000000011620D00E3
:1062680010B504460F48FFF75BFA28B1A4F10B03F9
:10627800022B01D8002010BD00F066F8FEF7FEFDE5
:1062880008B1012CF6D9FFF7F9FEFFF7F3FE18B1B4
:10629800A4F10903012BEDD91E2C8CBF002001208D
:1062A80010BD00BF2CE703201E2838B504460D4654
:1062B8000AD8FF2908D0FFF7D3FF28B1294620467E
:1062C800BDE83840FEF754B838BD38B504460D4629
:1062D800FEF756F8FF2810D0062804D84D2323FAD5
:1062E80000F0C30709D42046FFF7BAFF28B12946B2
:1062F8002046BDE83840FEF74BB838BD38B50446EF
:106308000D46FFF7ADFFF0B104212046FEF728F84F
:10631800042805D1A9B22046BDE83840FEF740B8A8
:1063280002212046FEF71CF802280CD12046FEF771
:1063380027F8012801D0042805D129462046BDE8C0
:106348003840FEF735B838BD38B50B4D296811F01F
:1063580001040FD12846FDF7A2FE58B1214607488F
:10636800FEF77AFD2846FDF79FFE054A05490348D2
:1063780000F02CF8014838BD14E7032018E7032083
:10638800BCE30320094E0D0070B50C4C0C4E0D4DAE
:1063980000212046FFF7B0F920460B4C324629462B
:1063A80000F014F801212046FFF7A6F932462946E5
:1063B8002046BDE8704000F009B800BF2CE7032074
:1063C800BCE30320F1560D003CE703200B460146D1
:1063D800184600F069B90000024B1868BFF35F8FD8
:1063E800704700BF4CE7032010B5002814BF0446CF
:1063F80001242046FEF7D2F920B9FFF7EDFF08B1D6
:106408008047F6E710BDFFF7EFBF08B5FEF7DEF9E6
:10641800244B1A68D0075CBF01221A60224B1A6805
:10642800D1075CBF01221A60204B1A68D2075CBFF3
:1064380001221A601E4B1A68D0075CBF01221A603D
:106448001C4B1A68D1075CBF01221A601A4B1A68E4
:10645800D2075CBF01221A60184B1A68D0075CBFCC
:1064680001221A60164B1A68D1075CBF01221A6014
:10647800144B1A68D2075CBF01221A60124B1A68C3
:10648800D0075CBF01221A60104B1A68D1075CBFA5
:1064980001221A600E4B1A68D2075CBF01221A60EB
:1064A800704700BF7CE7032078E7032074E70320E8
:1064B80070E703206CE7032068E7032064E7032004
:1064C80060E703205CE7032058E7032054E7032034
:1064D80050E70320184B1A68D1075CBF01221A60E5
:1064E800164B1A68D2075CBF01221A60144B1A684F
:1064F800D0075CBF01221A60124B1A68D1075CBF33
:1065080001221A60104B1A68D2075CBF01221A6078
:106518000E4B1A68D0075CBF01221A600C4B1A6830
:10652800D1075CBF01221A600A4B1A68D2075CBF08
:1065380001221A60704700BF9CE7032098E70320F8
:1065480094E7032090E703208CE7032088E70320E3
:1065580084E7032080E70320184B1A68D1075CBF43
:1065680001221A60164B1A68D2075CBF01221A6012
:10657800144B1A68D0075CBF01221A60124B1A68C4
:10658800D1075CBF01221A60104B1A68D2075CBFA2
:1065980001221A600E4B1A68D0075CBF01221A60EC
:1065A8000C4B1A68D1075CBF01221A600A4B1A68A3
:1065B800D2075CBF01221A60704700BFBCE7032006
:1065C800B8E70320B4E70320B0E70320ACE70320D3
:1065D800A8E70320A4E70320A0E70320244B1A68B8
:1065E800D0075CBF01221A60224B1A68D1075CBF32
:1065F80001221A60204B1A68D2075CBF01221A6078
:106608001E4B1A68D0075CBF01221A601C4B1A681F
:10661800D1075CBF01221A601A4B1A68D2075CBF07
:1066280001221A60184B1A68D0075CBF01221A6051
:10663800164B1A68D1075CBF01221A60144B1A68FE
:10664800D2075CBF01221A60124B1A68D0075CBFE0
:1066580001221A60104B1A68D1075CBF01221A6028
:106668000E4B1A68D2075CBF01221A60704700BF40
:10667800ECE70320E8E70320E4E70320E0E7032052
:10668800DCE70320D8E70320D4E70320D0E7032082
:10669800CCE70320C8E70320C4E70320C0E70320B2
:1066A8000A22002100F002B910B5054C13462CB19E
:1066B8000A4601460220AFF3008010BD204610BDF7
:1066C8000000000010B501390244904207D010F8CC
:1066D800013B11F8014FA342F7D0181B10BD002051
:1066E80010BD10B5431E0A44914204D011F8014B65
:1066F80003F8014FF8E710BD02440346934202D065
:1067080003F8011BFAE77047034611F8012B03F859
:10671800012B002AF9D17047024B0146186800F096
:1067280003B800BFB8E3032070B5064608460C4618
:1067380000F00DF8451C29463046FEF74FF806468E
:1067480018B12A462146FFF7CCFF304670BD0346F4
:1067580013F8012B002AFBD1181A0138704730B5FD
:1067680082B1451E013915F8013F11F8014FA342C6
:1067780006D1EC431444E04201D0002BF3D11C466F
:10678800181B30BD104630BD10B5034601448B427E
:1067980004D01A785C1C0AB12346F8E7181A10BD11
:1067A8002DE9F04780464048D0F800900F463D4616
:1067B80015F8014B09EB0400407800F0080000F0E0
:1067C800FF0608B12F46F2E72D2C03D1BD1C7C78BB
:1067D800012603E02B2C04BF7C78BD1C13B1102BC1
:1067E8000AD15BE0302C57D1287800F0DF00582818
:1067F8004DD16C7810230235002E14BF4FF0004C99
:106808006FF0004C0027BCFBF3FA384603FB1ACCA8
:1068180009EB040E9EF801E01EF0040F01D0303C95
:106828000BE01EF0030E1BD0BEF1010F0CBF4FF0A2
:10683800370E4FF0570ECEEB0404A34210DDB7F12C
:10684800FF3F0AD0504506D801D1644503DC03FB5D
:106858000040012701E04FF0FF3715F8014BD7E75B
:106868007B1C0CD1002E4FF0220314BF4FF00040C8
:106878006FF00040C8F800302AB9BDE8F08706B1CB
:10688800404272B107B1691E1160BDE8F08730243B
:10689800002BB1D10823AFE70A23ADE7302CA3D0F2
:1068A800AAE7BDE8F08700BF54E3032013460A4671
:1068B800014602480068FFF773BF00BFB8E3032032
:1068C8001D400D0059400D0085400D0089400D0008
:1068D80000000000737761726D2D666F6C6C6F77C6
:1068E80065722D6F6E6C696E650066772D766572C0
:1068F80073696F6E006C65667452006C65667446E9
:10690800007269676874520072696768744600614A
:106918006C6C4F66660076312E3200000000000075
:10692800000000001B480D0021480D0049480D00DB
:106938002D480D001D480D0000000000000000005B
:10694800EB4D0D00E14D0D00D74D0D00CD4D0D0067
:10695800C14D0D00B54D0D00A94D0D00A14D0D0007
:10696800974D0D008D4D0D0081550D000000000064
:1069780000000000094E0D00534E0D002B4E0D0077
:106988000B4E0D00334E0D003B4E0D00434E0D00D7
:106998004B4E0D0000000000000000009B4E0D0053
:1069A8008D4E0D008F4E0D006C6E00666E00636F8D
:1069B80064650064657461696C000D0A00253031F6
:1069C800307520005D20002C200028293A20002066
:1069D8005B00636F6465203D200025690064657471
:1069E80061696C73203D20006261756400536572B3
:1069F80069616C0053657269616C31007479706506
:106A080000706172616D00636D6400696400686E96
:106A180064007374726D0066696C74006C766C0047
:106A280061646448616E646C65720072656D6F764E
:106A38006548616E646C657200656E756D48616E5F
:106A4800646C657273004A534F4E53747265616D7E
:106A58004C6F6748616E646C657200617070006E9F
:106A68006F6E6500747261636500696E666F0077AA
:106A780061726E006572726F720070616E69630098
:106A8800616C6C00000000000000000035500D0033
:106A98002B500D0021500D0017500D000B500D000C
:106AA800FF4F0D00F34F0D00EB4F0D00E14F0D00B0
:106AB800D74F0D0081550D00666630333A3A313AAA
:106AC8003130303100746831006D657368707562FB
:106AD80000776972696E6700706172736520706112
:106AE800636B65742025640000000000000000004E
:106AF80019550D0023550D002D550D0037550D0066
:106B080041550D004D550D0059550D0065550D00A9
:106B18006D550D0077550D0081550D0000000000E2
:106B280000000000F1560D00F3560D0000000000B3
:106B3800000000002F570D0031570D004D580D0073
:106B48001F580D005A00252B3033643A2530327512
:106B58000025592D256D2D25645425483A254D3A93
:106B68002553257A0061736374696D6500726563E6
:106B7800656976656420256420627974657320668A
:106B8800726F6D2025732325640073656E645061F0
:106B9800636B65742073697A652025642C202573DE
:106BA80023256400626567696E207061636B657494
:106BB8002025732325640000000000000000000069
:106BC800AD5F0D00D15F0D00DD580D00075A0D00B7
:106BD800D5580D00F3580D0011590D002B590D0013
:106BE8004F590D00EB590D00295D0D008D5A0D0010
:106BF8000D5C0D00BD580D00455F0D00915B0D004B
:106C0800C55A0D000B5F0D00315A0D00CB580D0011
:106C18006D5A0D00D1580D002D590D00F0FFFFFFE2
:106C28000000000047590D000000000000000000AF
:106C3800FB5F0D001F600D002B600D0019560D0045
:106C480007600D0013600D000D600D0019600D0048
:106C5800FD5F0D0001600D00000000000000000055
:106C6800D5600D0019610D00F3600D0019560D0077
:106C7800ED600D00D7600D00DF600D0013610D00A1
:106C8800E7600D00D1600D000000202020202020AA
:106C980020202028282828282020202020202020C4
:106CA80020202020202020202020881010101010C4
:106CB8001010101010101010101004040404040414
:106CC80004040404101010101010104141414141F7
:106CD800410101010101010101010101010101015C
:106CE80001010101011010101010104242424242ED
:106CF800420202020202020202020202020202022C
:106D08000202020202101010102000000000000011
:106D1800000000000000000000000000000000006B
:106D2800000000000000000000000000000000005B
:106D3800000000000000000000000000000000004B
:106D4800000000000000000000000000000000003B
:106D5800000000000000000000000000000000002B
:106D6800000000000000000000000000000000001B
:106D7800000000000000000000000000000000000B
:106D880000000000000000000000000000000000FB
:106D980000000000000000000000000000000000EB
:106DA80000000000000000000000000000000000DB
:106DB80000000000000000000000000000000000CB
:106DC80000000000000000000000000000000000BB
:106DD80000000000000000000000000000000000AB
:106DE8000000000000000000000000004300000058
:106DF80071420D00F54D0D009D4F0D00CD540D0055
:106E080005560D00D5560D008D580D00A9580D00DA
:106E180091630D0019640D00DD640D0061650D00BE
:086E2800E5650D00000000000B
:106E3000110000001000000012000000130000000C
:106E40006D6B0D00916C0D0000000000946D0D0045
:106E5000B46D0D00D46D0D000000000000000000B6
:106E60000000000000000000F46D0D0000000000B4
:106E70000000000000000000000000000000000012
:106E80000000000000000000000000000000000002
:106E900000000000000000000000000000000000F2
:0C6EA000000000000000000058E3032088
:106EAC00FFFFFFFF00000102030405060708090AA3
:106EBC000B0C0D0E0F101112131415161718191A9E
:086ECC001B1C1D1E1F202800E5
:046ED40078563412A6
:04000003D0004018D1
:00000001FF
