:02000002D0002C
:1040000000400D0014700D00000005000E000501B9
:0840100004014601000000005C
:10401800006A0D0009480A49884208B505D0094ACE
:10402800824202D0121A02F0F8FB0748074A002120
:10403800121A02F0FDFB014808BD00BF40E303204F
:10404800706F0D00BCE30320BCE30320F0E70320FE
:1040580070B502F06BF9074C074BE41AA408002569
:104068001E46A54204D056F8253098470135F8E792
:1040780070BD00BF686F0D00346F0D0000F01AB8F6
:1040880008B500F0EBF8BDE8084002F01DB900F0F3
:10409800A9BB00F0A7BB00F0ADBB00F0ABBB00783C
:1040A800B0FA80F040097047012303707047106828
:1040B80070470000F0B53C4F3C4E3D4D3D4C85B03F
:1040C80002F0BEF84FF4165102F0AEF8012138881C
:1040D80002F060F90121308802F05CF9012128889A
:1040E80002F058F92088012102F054F90C2138888F
:1040F80002F0A0F90C21308802F09CF90C212888E4
:1041080002F098F90C21208802F094F900213888EF
:1041180002F051F90021308802F04DF90021288879
:1041280002F049F92088002102F045F9224B234981
:104138001A68234B1B788DF8003002A83C2300F046
:10414800E9FC039C7CB16368013B63605BB923684D
:1041580020469B689847A368013BA3601BB9236866
:104168002046DB6898470823ADF80830154B0393C1
:10417800042202AB1049144800F0CCFA134A14493F
:10418800144801F0F3F8144A1449124801F0EEF803
:10419800134A14490F4801F0E9F8134A13490D4826
:1041A80001F0E4F805B0F0BD4CE3032048E3032038
:1041B80040E3032044E30320C4E30320146A0D0012
:1041C800C0E30320B7400D002A6A0D0035420D00F8
:1041D800356A0D00E8E3032041420D003B6A0D00FB
:1041E8004D420D00416A0D0059420D00486A0D000C
:1041F80037B50546084602F0EFFA10280446A8B27B
:104208000CDD214602F0F0F802F01AF800942B4673
:10421800054A012101F08CFA03B030BD002103B03A
:10422800BDE8304002F0E0B84F6A0D00014B186855
:10423800FFF7DEBF4CE30320014B1868FFF7D8BF38
:1042480048E30320014B1868FFF7D2BF44E303207B
:10425800014B1868FFF7CCBF40E30320704700000C
:1042680010B5084B084C00221A7000F06DF8074989
:10427800204601F018FB2046054A0649BDE81040D3
:1042880002F040B9C0E30320C4E303205A6A0D00DA
:10429800BCE3032021580D0008B5024B1B685B687E
:1042A800019308BD4802030008B5024B1B689B68D0
:1042B800019308BD4802030008B5024B1B681B693F
:1042C800019308BD4802030008B5024B1B685B69EF
:1042D800019308BD4802030008B5024B1B681B6B1D
:1042E800019308BD4802030008B5024B1B685B6CCC
:1042F800019308BD4802030008B5024B1B68DB6C3C
:10430800019308BD4802030008B5024B1B685B6DAA
:10431800019308BD4802030008B5024B1B68DB6E19
:10432800019308BD4802030008B5024B1B689B684F
:10433800019308BD1802030008B5024B1B685B69AE
:10434800019308BD1802030008B5024B1B681B68DF
:10435800019308BD2C02030008B5024B1B685B687B
:10436800019308BD2C02030008B5024B1B689B682B
:10437800019308BD2C02030008B5024B1B68DB68DB
:10438800019308BD2C02030008B5024B1B681B698A
:10439800019308BD2C02030008B5024B1B689B6AF9
:1043A800019308BD2C02030008B5024B1B685B6E25
:1043B800019308BD2C02030008B5024B1B689B6ED5
:1043C800019308BD2C02030008B5024B1B681B6F44
:1043D800019308BD2C02030008B5024B1B685B6FF4
:1043E800019308BD2C02030008B5024B1B689B6FA4
:1043F800019308BD2C02030008B5024B1B681B6A19
:10440800019308BD2802030008B5024B1B685B6ACC
:10441800019308BD2802030008B5024B1B689B6A7C
:10442800019308BD2802030008B5024B1B68DB6A2C
:10443800019308BD2802030008B5024B1B681B6BDB
:10444800019308BD2802030008B5024B1B685B6B8B
:10445800019308BD2802030008B5024B1B681B6CBA
:10446800019308BD2802030008B5024B1B681B69AD
:10447800019308BD6C02030008B5024B1B685B6919
:10448800019308BD6C02030008B5024B1B689B69C9
:10449800019308BD6C02030008B5024B1B685B6DF5
:1044A800019308BD6C02030008B5024B1B689B6DA5
:1044B800019308BD6C02030008B5024B1B685B69D9
:1044C800019308BD6402030008B5024B1B689B6991
:1044D800019308BD6402030008B5024B1B681B6A00
:1044E800019308BD6402030008B5024B1B685B6AB0
:1044F800019308BD6402030008B5024B1B689B6A60
:10450800019308BD6402030008B5024B1B689B6851
:10451800019308BD6802030008B5024B1B68DB68FD
:10452800019308BD6802030008B5024B1B685B686D
:10453800019308BD3802030008B5024B1B689B694C
:10454800019308BD3802030008B5024B1B68DB69FC
:10455800019308BD3802030008B5024B1B68DB6AEB
:10456800019308BD3802030008B5024B1B685B6B5A
:10457800019308BD3802030008B5024B1B689B6B0A
:10458800019308BD3802030008B5024B1B68DB69BC
:10459800019308BD3002030008B5024B1B681B6A73
:1045A800019308BD3002030008B5024B1B681B6865
:1045B800019308BD3C02030008B5024B1B68DB6889
:1045C800019308BD3C02030008B5024B1B681B6938
:1045D800019308BD3C02030008B5024B1B685B69E8
:1045E800019308BD3C02030008B5024B1B689B6998
:1045F800019308BD3C02030008B5024B1B68DB6948
:10460800019308BD3C02030008B5024B1B681B6AF6
:10461800019308BD3C02030008B5024B1B689B6A66
:10462800019308BD3C02030008B5024B1B681B68D8
:10463800019308BD4C02030008B5024B1B685B6878
:10464800019308BD4C02030008B5024B1B681B69A7
:10465800019308BD4C02030008B5024B1B685B6957
:10466800019308BD4C02030008B5024B1B689B6907
:10467800019308BD4C02030008B5024B1B68DB69B7
:10468800019308BD4C02030008B5024B1B681B6A66
:10469800019308BD4C02030008B5024B1B681B6D53
:1046A800019308BD6002030008B5024B1B685B68F4
:1046B800019308BD2002030008B5024B1B68DB6CA0
:1046C800019308BD2002030008B5024B1B685B6D0F
:1046D800019308BD2002030008B5034B1B68D3F8FB
:1046E8008830019308BD00002002030008B5034B81
:1046F8001B68D3F89430019308BD00002002030022
:1047080008B5034B1B68D3F8A430019308BD00001B
:104718002002030008B5024B1B681B68019308BD03
:104728004402030008B5024B1B681B6A019308BDCD
:104738004402030008B5024B1B68DB6B019308BDFC
:104748004402030008B5024B1B685B68019308BD6F
:104758004002030008B5024B1B689B68019308BD23
:104768004002030008B5024B1B68DB68019308BDD3
:104778004002030008B5024B1B681B69019308BD82
:104788004002030008B5024B1B685B69019308BD32
:104798004002030008B5024B1B689B69019308BDE2
:1047A8004002030008B5024B1B68DB69019308BD92
:1047B8004002030008B5024B1B681B6A019308BD41
:1047C8004002030008B5024B1B681B6B019308BD30
:1047D8004002030008B5024B1B685B6B019308BDE0
:1047E8004002030008B5024B1B681B68019308BD13
:1047F8001C02030008B5024B1B685B68019308BDE7
:104808001C02030008B5024B1B689B68019308BD96
:104818001C02030008B5024B1B685B6A019308BDC4
:104828001C02030008B5024B1B68DB6A019308BD34
:104838001C02030008B5024B1B681B6B019308BDE3
:104848001C02030010B5836804460BB901F079FE19
:10485800C3689847A3681BB103222146204698479E
:104868002046BDE81040FFF716BC7047002070478F
:1048780010B50446FFF70FFC204610BD08B508B177
:10488800FFF7F6FF08BD10B58368044613B103228D
:1048980001469847204610BD38B5C468D4B123787E
:1048A800022B02D1E068FFF7A5FF65682DB1284605
:1048B800FFF7E9FF2846FFF7EEFBA5682DB128466C
:1048C800FFF7E1FF2846FFF7E6FB2046BDE8384042
:1048D800FFF7E1BB38BD38B5046805467CB16368AD
:1048E800013B63605BB9236820469B689847A368CF
:1048F800013BA3601BB923682046DB68984728461C
:1049080038BD13B5044691E8050000234B600B60E1
:104918002060626001A801930093FFF7DCFF204646
:1049280002B010BD0B68036013B15A6801325A60B7
:104938007047F7B50C4602AD54F8043B45F8083DFE
:1049480006460F4601A82146FFF7ECFF29463046E8
:10495800FFF7D7FF01A8FFF7BEFF2046FFF7BBFF11
:104968003846FFF798FB304603B0F0BD13B50B4649
:10497800044603C88DE8030093E8030084E80300B5
:104988009DE8030083E8030002B010BD826810B5FB
:104998000AB901F0D6FDC368BDE81040184708B54C
:1049A800006800F11001FFF7F1FF08BD826810B53B
:1049B8000AB901F0C6FDC368BDE81040184708B53C
:1049C800006800F11001FFF7F1FF08BD38B50023BA
:1049D80083608B6804460D462BB102229847EB682A
:1049E800E360AB68A360204638BD00002DE9F041C4
:1049F8004FF69C7386B00468B1F904208B800023BD
:104A08000F688DF800300B604FF00200D4E84F1F9C
:104A1800994203D1C4E8450F002DF7D102D08DF893
:104A280000106AE014F10C051EBFE76022821F46E1
:104A38000123BFF35F8F0020637004F10803BFF305
:104A48005F8F53E8006F43E80002002AF9D1BFF3F3
:104A58005F8F002E51D0FFF72FFE20B12946304638
:104A6800FFF794FF43E031466846FFF7AFFFE06881
:104A7800B4F9105008B101F0EBFE04901020ADF825
:104A88001450FFF704FB054630B34FF00008C0F898
:104A980008801820FFF7FBFA0446C0B1C0F8088068
:104AA80001466846FFF762FF029BA268A360039B6A
:104AB8000292E268E360BDF81430A3824FF69C735B
:104AC800ADF81430049B03922361CDF810800E4B8F
:104AD800EB600E4B2C60AB600498FFF78BFE6846CA
:104AE800FFF7D1FE002229460948FFF7EDFD3046C1
:104AF800FFF7C9FE3046FFF7CEFA3846FFF77AFED1
:104B080006B0BDE8F08100BFA7490D00054C0D00B7
:104B18004D480D002DE9F04F8BB007AD4FF0000B5D
:104B28000646994614200C230F4690469DF850A03F
:104B3800C5F804B0C5F808B00793FFF7A8FA04460B
:104B480038B180F800B080F801B0C0F804B0C0F8FF
:104B580008B00023102003940493FFF798FA28B1B3
:104B6800012343608360234B0360C4600490224B9D
:104B780008930820FFF78BFA044628B1039B40F8F6
:104B8800043B04A9FFF7CEFE00955FFA8AF34A4674
:104B9800414638460994FFF7C5FDB8B9039B5B78D1
:104BA80003F0FF0293B94FF69C7305A903A8059279
:104BB800ADF81830FFF71AFF0598FFF71BFE05A898
:104BC8000999FFF7B6FE06A8FFF785FE039B059334
:104BD80004A906A8FFF7A6FE05A93046FFF791FE2F
:104BE80006A8FFF778FE04A8FFF775FE30460BB05D
:104BF800BDE8F08F686A0D006D4D0D00022AF8B50A
:104C0800044606D0032A17D0012A20D10B68036076
:104C18001DE018200E68FFF73AFA054650B13146F4
:104C2800FFF7D4FE3069B6F9147008B101F010FE30
:104C38002861AF8225600AE0046844B12069FFF763
:104C4800D9FD2046FFF71FFE2046FFF724FA002073
:104C5800F8BD38B5002383608B6804460D462BB138
:104C680002229847EB68E360AB68A360204638BD32
:104C7800022A70B5044606D0032A11D0012A17D19A
:104C88000B68036014E014200E68FFF700FA05466D
:104C980020B13146FFF7DDFF337C2B74256007E038
:104CA80004682CB12046FFF7EEFD2046FFF7F3F924
:104CB800002070BDF0B5002387B00C46BFF35F8FAE
:104CC80050E8006F40E80032002AF9D1BFF35F8F47
:104CD800002E3ED01846FFF7EFFC074620B12146CC
:104CE8003046FFF763FE2EE0314601A8FFF7B1FF1B
:104CF80023788DF814301020FFF7C9F90546D0B194
:104D080087601420FFF7C3F9044678B1876001462D
:104D180001A8FFF72BFE039BA268A360049B0392E4
:104D2800E268E3609DF81430049223740A4BEB6048
:104D38000A4B2C60AB6001A8FFF7A5FD00222946AD
:104D48000748FFF7C1FC3046FFF79DFD3046FFF7E7
:104D5800A2F907B0F0BD00BFC7490D00794C0D009E
:104D68004D480D0030B585B004460D4668461146DD
:104D7800FFF7DFFD7CB124B228460DB101F068FDD4
:104D8800029002A96846ADF80C40FFF72FFE029882
:104D9800FFF730FD1DE000988DF808404FF0010244
:104DA800D0E84F3FA34203D1C0E8412F0029F7D1F3
:104DB80002D08DF808300CE010F10C014FF001031F
:104DC80018BF0373BFF35F8F043000F8033CFFF78D
:104DD80071FF01A8FFF77FFD05B030BD0022114625
:104DE8004068FFF7E7BC002211464068FFF7F2BCB5
:104DF80000224068FFF7E6BC002281F0010140680C
:104E0800FFF7D0BC00231A4619464068FFF7C2BC1A
:104E180000231A4619464068FFF7B4BC0022114621
:104E28004068FFF7A7BC002211464068FFF792BC14
:104E3800002202214068FFF795BC00231A4640680B
:104E4800FFF780BC024B03225A60024A1A6070477F
:104E5800D4E30320846A0D007047F8B5064615466A
:104E68000C468F18BC4206D0336814F8011B9B68A7
:104E780030469847F6E72846F8BD0022007CFFF741
:104E8800BBBA0021007CFFF7BFBA0021007CFFF706
:104E9800C3BA0021007CFFF7C7BA0021007CFFF7E6
:104EA800CBBA10B50446FFF7F6F8204610BD00004F
:104EB80010B504464FF47A730846A3600021044BEA
:104EC800207461602360FFF7C7FA204610BD00BF59
:104ED800B86A0D000021007CFFF7B6BA704710B51C
:104EE8000446FFF7D8F8204610BDF0B5037D062B21
:104EF8008DB00E4600F104074FF0000402D000F117
:104F0800080518E00CAD394605F8304D2F232A4620
:104F18000A20FFF7D1FA284601F0B5FC33680246AB
:104F2800DB682946304698470FE024B12E213046E9
:104F380000F0C0FB044415F8011D0A22304600F0B9
:104F4800F5FBBD420444F0D120460DB0F0BD000091
:104F580010B5054B0446112240F8043B002101F02E
:104F680067FC204610BD00BFE06A0D000346074AF3
:104F780010B543F8042B01F1100251F8044B43F823
:104F8800044B9142F9D10A781A7010BDE06A0D00FD
:104F9800037D042B01D1406808E0062B0AD1436841
:104FA80053B1836843B1C36833B10069003018BF97
:104FB80001207047002070471846704710B59DF8CB
:104FC800084044EA032343EA024242EA0161042317
:104FD8004160037510BD37B50D788B784A78C9786C
:104FE80000912946FFF7EAFF03B030BD014B024AA2
:104FF8001A607047DCE303209E6B0D0010B58368D0
:1050080004460BB1C06806E0406828B183680BB954
:1050180001F097FAC3689847012323740020BDE87C
:105028001040FFF779B9002211464068FFF7C2BB6C
:10503800002211464068FFF7CDBB00224068FFF709
:10504800C1BB002281F001014068FFF7ABBB002320
:105058001A4619464068FFF79DBB00231A461946B1
:105068004068FFF78FBB002211464068FFF782BBFC
:10507800002211464068FFF76DBB002202214068FC
:10508800FFF770BB00231A464068FFF75BBB10B1FF
:1050980003685B681847704738B504460068D0B1A4
:1050A800FFF702F9B8B9237C1BB9206808B1FFF7EC
:1050B80003F9656855B1AB681BB103222946284638
:1050C80098472846FEF7E7FF002363602068FFF74C
:1050D800FBF80023236038BD38B50B4B036004464A
:1050E800D0F8CC0108B1FEF7D8FFD4F8C4512DB1DF
:1050F8002846FFF7D1FF2846FEF7CDFFA06808B184
:10510800FFF7C5FF204638BDD06B0D000068FFF7DC
:10511800F3B82DE9F84F0B9F9DF828B0064688464E
:1051280091469A4604460025236C4B4529D1636C69
:10513800534526D194F848305B4522D1402140465A
:1051480001F0BEFB41460246204601F0A4FBC0B96F
:105158006FB10C21384601F0B3FB024638B1582331
:1051680003FB05603946493001F095FB04E05820FF
:1051780000FB056595F84900B0FA80F04009BDE8E4
:10518800F88F0135052D04F15804CDD10020BDE874
:10519800F88F00002DE9F04F85B007469DF838A03C
:1051A8000F9E0196CDF800A0894602920393FFF75F
:1051B800B0FF00283CD10446582303FB0475D5F8FA
:1051C8004080B8F1000F2ED14021484601F078FB0D
:1051D800494683460246284601F01FFBCBF14002B0
:1051E800414605EB0B0001F023FB029B2B64039B5C
:1051F8006B6485F849802EB10C21304601F060FBC4
:10520800054600E035465820444338193C442A46B0
:1052180031464930254401F000FB002085F849005B
:1052280084F848A005E00134052CC6D1024800E006
:10523800002005B0BDE8F08FFCFEFFFF07B5002396
:1052480001930093FFF7A6FF03B05DF804FB2DE977
:10525800F341044608460D46904601F014FB04F558
:10526800DC760746236CABB14021204601F028FBD1
:10527800874202460BD32946204601F0BFFA30B9CF
:10528800009043462A4621465820FFF739FA5834F9
:10529800B442E7D102B0BDE8F081000030B58DB06E
:1052A80004461122002101A801F0C2FA062301AA2E
:1052B80009498DF814300A20FFF706F907AD01A94E
:1052C80006A8FFF753FE0FCD04340FC42B682370D4
:1052D80000200DB030BD00BFFC6B0D0030B504469A
:1052E80089B000F5E070FFF711FF236883BB4C20FD
:1052F800FEF7CDFE054608B100F02CFE20682560BB
:1053080008B1FFF7C4FE206820B300224FF49A6169
:1053180000F04FFE08A9002501F8195D1148FFF7B4
:10532800A3F820689DF80720036849F269011B6A01
:10533800984702A8FFF70CFE02A8FFF7AFFF002866
:1053480004DB02A9206800F0BAFE04E0054602E08A
:10535800002500E0044DD4F8C001FEF7D5FF28462B
:1053680009B030BD096C0D00FCFEFFFF2DE9F341CB
:10537800044600F5E0700F469046FFF7C7FED4F8E4
:10538800BC61FEB91A49142001F0CAF8054670B18B
:10539800184B83604FF4406306604660C46006742F
:1053A800032201930090144B1449FEF775FFD4F8BB
:1053B800BC61C4F8BC512EB13046FFF76DFE3046D3
:1053C800FEF769FE2046FFF789FF002807DB424603
:1053D8003946201DFFF732FF00EAE07500E0054678
:1053E800D4F8C001FEF790FF284602B0BDE8F0816E
:1053F800CC6D0D0019550D0005500D000D6C0D00FC
:105408002DE9F041054600F5E0768AB03046FFF711
:105418007DFE2C68D5F8C001FEF776FF002C63D01E
:10542800D5F8C43163B12368D5F8C4111F6B204681
:105438004FF47A734FF49A62B847041E13DC56E0AF
:105448002D494FF49A6001F07AF8D5F8C431C5F8BF
:10545800C40113B11846FEF720FED5F8C431002B5D
:10546800E1D1264844E02023254A029300920023F4
:10547800019402AA234903930120FFF70DF9D5F8F7
:10548800C4315F1C1B786BBB013C2146384601F0D8
:1054980017FA38B3241A002C07EB000822DD3B5C0E
:1054A80003BB013C0ED008F101082146404601F03B
:1054B80007FA241A002C15DD18F8003093B9012CCE
:1054C80002D00FE0DFF844803046FFF71FFE424667
:1054D8003946281DFFF7BBFED5F8C001FEF714FFBB
:1054E800002005E0084803E06420FEF71DFF204681
:1054F8000AB0BDE8F08100BFCC6D0D00FCFEFFFFD7
:105508001C6C0D00156C0D00E8FEFFFF026B0D0012
:1055180008B504462046FFF773FFFBE738B50D4C86
:105528000D4B23600025022304F5E4706360A56039
:10553800C4F8C451C4F8C851FEF7D6FE074BC4F8E6
:10554800CC5123602046064A0649BDE8384000F0A1
:10555800D9BF00BFE0E30320346C0D00D06B0D0011
:10556800BCE30320E1500D0000231A464068FFF712
:10557800E9B8002202214068FFF7F4B8002211467A
:105588004068FFF7E7B8002211464068FFF7F2B815
:1055980000231A4619464068FFF7F4B800231A4654
:1055A80019464068FFF7F6B8002281F0010140680B
:1055B800FFF7F8B800224068FFF704B90022114647
:1055C8004068FFF707B9002211464068FFF7F2B8B4
:1055D80070B58CB014460646FFF7BAFC0CAB002237
:1055E800114643F8302D2046FEF796FF014658BB7A
:1055F800009B4BB35A68022A0ED00A2A24D15C6950
:10560800112201A801F014F906238DF8143001AD18
:1056180004F10803183405E0596930460431FFF7EE
:10562800DAFC11E0186859682A4603C20833A34215
:105638001546F7D101A906A807ADFFF797FC0FCDCE
:10564800341D0FC42B6823700098FEF75DFF3046A9
:105658000CB070BD024B034A1A6000225A607047B2
:10566800B0E50320346C0D00F8B506460D468F18DA
:105678000024BD420CD0336815F8011B9B683046E6
:105688009847002801DB0444F3E7002C08BF0446D0
:105698002046F8BD70B505460C46084649B101F0EC
:1056A800F2F82B68024621462846DB68BDE87040C0
:1056B800184770BD03689B68184738B50D21054623
:1056C800FFF7F8FF0A2104462846FFF7F3FF2044B6
:1056D80038BD30B58BB00B4600218DF82410012A57
:1056E80098BF0A220DF12304B3FBF2F505FB123330
:1056F80003F0FF03092B94BF30333733DBB2214665
:1057080004F801392B46002DEED1FFF7C3FF0BB08B
:1057180030BD10B42AB903685DF8044B9B68C9B260
:105728001847D2B25DF8044BFFF7D3BFFFF7F1BFBC
:105738000CB42DE9F04387B000AF07F138040546F3
:1057480054F8049B3C600E4623464A461421381DF3
:10575800FFF760F8132805D8391D2846FFF79AFF88
:10576800044613E000F1080323F00703E846ADEB15
:10577800030D411C23464A4668463C60FFF74AF839
:1057880069462846FFF786FF0446C5461EB12846E7
:10579800FFF793FF044420461C37BD46BDE8F0439D
:1057A80002B0704710B50446FFF76DF8204610BDEB
:1057B8000348044A04490023836000F0A3BE00BFE5
:1057C800B8E50320BCE30320AD570D00704710B5C2
:1057D8000446FEF760FC204610BD000070B5084B7B
:1057E8000360044600250E4640F80C5FFEF774FD82
:1057F80030462671FEF7C8FEA560204670BD00BF82
:10580800686C0D000079FEF7C7BE704710B50446F6
:10581800FEF741FC204610BD10B504460068FEF7AF
:10582800E9FF204610BD10B50446006808B1FEF730
:10583800E1FF00232360A360636010BD38B5044610
:105848000D4600680131FEF7DDFF10B184E8210044
:10585800012038BD10B50368044613B143688B4274
:1058680007D22046FFF7EAFF20B1A3680BB92268E8
:105878001370012010BD70B50E461146044615463A
:10588800FFF7E8FF18B92046FFF7CDFF09E02A46E1
:105898003146A560206800F0C0FF2268A368002197
:1058A800D154204670BD38B50023044603604360D8
:1058B800836003730D4639B1084600F0E4FF2946BA
:1058C80002462046FFF7D7FF204638BD70B504468C
:1058D8000E4609B9002070BD6AB18368D5182946FB
:1058E800FFF7B8FF0028F5D02068A36831461844B0
:1058F80000F0A6FFA560012070BD38B50446806899
:105908008568FFF7E3FFA3689868401B38BD07B5B3
:1059180000238DF80410012201A98DF80530FFF746
:10592800D5FF03B05DF804FB08B58068FFF7EFFF0B
:1059380008BD000030B585B000230D460293036012
:105948004360836003731421064B0193044603905C
:10595800FFF780FF2B6801A91B6828469847204657
:1059680005B030BD786C0D00054B4FF69C720020D9
:105978005A804FF6FF7218709A80FEF795BE00BFE6
:10598800C8E50320024B1A68024B1A60704700BF33
:1059980050E30320D0E5032010B40468246BA44628
:1059A8005DF8044B604703689B6C1847808E70470E
:1059B800028FC08E101A704713B502AB026803F845
:1059C800011DD46819460122A04702B010BD10B5C8
:1059D80003681B690446984728B1E38EE26B591C9B
:1059E800E186D05C10BD4FF0FF3010BD10B50368E4
:1059F8001B690446984718B1E38EE26BD05C10BD72
:105A08004FF0FF3010BD704710B403460846DC6BFA
:105A1800D98E1A8F0368521ADB6821445DF8044B4B
:105A28001847A0F11000FFF7EFBFF0B503688DB07D
:105A38001C265B6A04460F461546984701233246E2
:105A4800002105A8029300F0F3FE8DF81460384693
:105A58000A268DF81560FEF74FFD1122ADF81600E5
:105A680002213046FEF788FD0028606124DB04220D
:105A7800009202AB40F6FF71FEF75EFDE0B995B10A
:105A88000390ADF8100003A9E8B2FEF7F5FC98B949
:105A98000623009341F20B0203AB40F6FF716069E5
:105AA800FEF74AFD40B91C2205A96069FEF73CFDD6
:105AB80010B96564012004E0236820465B6A9847B2
:105AC80000200DB0F0BD10B504464069002801DB88
:105AD800FEF73AFD4FF0FF3363610023E386238727
:105AE80010BD38B5C36B0546C08E13B12C6C241A93
:105AF80000E01C46944228BF14462246184400F091
:105B08008CFEEB8E2344EB86204638BD70B50368C7
:105B18001B6904460E461546984788B123682046F7
:105B28001B699847E38EE16B8542A8BF0546194477
:105B38002A46304600F071FEE38E2B44E38601E0EE
:105B48004FF0FF35284670BD70B50446054B44F844
:105B5800043B01F1200506460FCD0FC42B682370C6
:105B6800304670BDE06A0D00F0B59446026889B011
:105B7800976A0A4A02921D1D8E4606460FCD03AC4F
:105B88000FC42B682370BDF838300093624602AB0F
:105B980071463046B84709B0F0BD00BFE06A0D0055
:105BA800F0B50368B0F836E09F6A0D4B89B000F194
:105BB8002006044602930FCE03AD0FC533682B7041
:105BC800A38E0093724602ABE16B2046B847236868
:105BD8000546DB6920469847284609B0F0BD00BF56
:105BE800E06A0D00F0B54378022B8DB005460C46EF
:105BF800174601D1011D33E00A2B35D111220021AE
:105C080001A800F015FEAB6843B9EB6833B94FF64D
:105C1800FF702E69FEF760FC86421FD005F108036D
:105C280001AE05F1180E18685968324603C20833E8
:105C380073451646F7D1062301A906A807AE8DF8C5
:105C48001430FFF793F90FCE04340FC43368237070
:105C580057B16888FEF748FC388005E005F1140163
:105C68002046FFF7B8F9F3E70DB0F0BD2DE9F04194
:105C78008EB00EAB002506461746084643F8345D3D
:105C88002A462946FEF748FC00281FDB019BFBB18A
:105C98005B69EBB102A8FFF75BF9019B2A465869DB
:105CA80002A9FFF79FFF02A8FFF772F980B13368D6
:105CB80003ADD3F838800B4B08930FCD09AC0FC454
:105CC8002B6823703A4608A93046C047044601E0CD
:105CD8004FF0FF340198FEF717FC20460EB0BDE8E0
:105CE800F08100BFE06A0D002DE9F047D0F814807C
:105CF800B8F1000F98B005460C461746994600DBE8
:105D080011B94FF0FF304EE04FF01C0A09AE524671
:105D18000021304600F08CFDCDF810A0B9F1000F3D
:105D280014D04FF47A72B9FBF2F1109102FB119181
:105D38004A4308231192009341F2060210AB40F641
:105D4800FF714046FEF7F8FB08B12CE0082004ABD1
:105D580001932146034600963A466869FEF7FCFB24
:105D6800041E1FDB05F11C0705F1340230463946D5
:105D7800FFF738FF00262023394605A8109311960F
:105D8800FFF7D8FDAB8E0393059B0293074B009357
:105D980001200194334610AA0549FEF77DFC05A8A9
:105DA800FFF73AFD204618B0BDE8F087B16C0D004A
:105DB800156C0D0038B5054614462B7D062B084694
:105DC80011D11C2313700A235370FEF795FB083476
:105DD80024F8060C2B1D143553F8042B44F8042B17
:105DE800AB42F9D138BD042B0AD11023137002231A
:105DF8005370FEF781FB60806868FEF76DFB60609A
:105E080038BD00002DE9F04F984691B020230024BA
:105E180082468B4604A841461646BDF8689008930A
:105E28000994FFF787FD049B029308AD154B1649AB
:105E380000932A4623460120CDF80C900196FEF7E0
:105E48002BFC1C2704A8FFF7E7FC3A462146284606
:105E580000F0EEFC2A4649464046FFF7ABFF9DF8A6
:105E680021304BB18DE8A000234632465946DAF876
:105E78001400FEF779FB01E04FF0FF3011B0BDE8E8
:105E8800F08F00BFCE6C0D00156C0D00F0B591B011
:105E98000C4606460021154609A81C221F4600F09C
:105EA800C7FC09AA00212046FFF784FF9DF825308A
:105EB800022B2ED1002305930A9B0493DDB102A97E
:105EC8002846FEF7E1FAB0B910A941F8340D029856
:105ED800FEF7E2FA60B9039B53B1DA6812685178A9
:105EE800022903D152680AB1059201E01B68F3E761
:105EF8000398FEF7D9FA002F4FF00803009318BF54
:105F0800032204AB08BF042200213046FEF714FB2D
:105F18001EE00A2B1AD104AC14220021204600F0FE
:105F280087FC0BAB0FCB002F84E80F004FF0140356
:105F3800009318BF0C22234608BF0D2229213046A2
:105F48000895FEF7F9FA00EAE07001E04FF0FF303B
:105F580011B0F0BD38B54FF47A7383600B4B03F181
:105F680008026C33002503614FF0FF330446456097
:105F7800026043611C30FEF7EBFF4FF40073E586C7
:105F88002587E56323646564204638BDFC6C0D00F5
:105F980010B590F8483004461BB1C06B08B1FEF745
:105FA8007AF80023E36384F848302364E386238780
:105FB80010BD70B5044616460D46FFF7E9FF0023ED
:105FC800E66323643EB935B12846FEF762F801233B
:105FD800E06384F84830E36B03B12564206C00303B
:105FE80018BF012070BD70B5C26B04461AB9016CA8
:105FF80009B1FFF7DEFFE16B0023E386238741B198
:10600800226C32B12068056B2046A8470028C8BF1B
:106018002087236820461B69BDE8704018470000A8
:10602800F0B591B020230546002604A817460C4673
:1060380008930996FFF77EFC049B0193104B00938D
:1060480008AA33460F4902970120FEF725FB04A84A
:10605800FFF7E2FBEA6B22B9296C11B12846FFF77A
:10606800A8FF04340FCC05F120060FC6236833704F
:10607800286CAF860023EB862B8711B0F0BD00BFDC
:10608800E86C0D00156C0D0010B5074B03F1080204
:106098006C33044602600361FFF715FD2046FFF7E5
:1060A80077FF204610BD00BFFC6C0D0010B50446FC
:1060B800FFF7EAFF2046FDF7EEFF204610BD024637
:1060C8004069002804DB012392F84420FFF7DEBE74
:1060D8004FF0FF307047704741747047007CFEF7FF
:1060E8009BBA007CFEF770BA007CFEF77DBA007C94
:1060F800FEF772BA007CFEF77FBA10B50446FDF7CA
:10610800CAFF204610BD70B5457C04460E4625B929
:10611800007CFEF781FA002805DD3146207CBDE8C9
:106128007040FEF749BA284670BD000010B5044615
:1061380008461146002262604FF47A72A260054A4E
:1061480022600122207462741A46FEF72DFA204656
:1061580010BD00BF746D0D00007CFEF755BA00003D
:1061680038B50C4D296811F0010411D12846FDF706
:1061780096FF68B1084A094B09482146FFF7D6FF40
:106188002846FDF791FF074A0749054800F0BAF984
:10619800034838BD6CE6032070E60320E8E50320D9
:1061A800D4E50320BCE30320DF600D004174704791
:1061B80070470021007CFEF757BA0121007CFEF7EA
:1061C80053BA007CFEF748BA007CFEF73DBA38B5F2
:1061D8000446007C0D46FEF73FFA002801DC607C8F
:1061E80020B12946207CFEF747FA012038BD007C03
:1061F800FEF74ABA10B50446FDF74DFF204610BD1C
:1062080010B50446002363604FF47A73A360054B0E
:10621800236001230846217463741146FEF704FACB
:10622800204610BDA46D0D000022007CFEF704BAC4
:1062380010B514220446002100F0FAFA204610BDD9
:1062480030B50E4D87B001A8FFF7F2FF296811F0AD
:10625800010410D12846FDF722FF60B101AA2146AA
:106268000748FFF7CDFF2846FDF71EFF054A0649F8
:10627800034800F047F9024807B030BDF4E60320B0
:10628800F8E60320BCE30320B9610D0008B50C4B08
:1062980033B1FFF7D5FF03681B699847002809DC6D
:1062A800084B63B1FFF75CFF03681B699847002838
:1062B80003DC08BDAFF30080F2E7AFF3008008BD50
:1062C800000000000000000008B5FFF7DFFFFEF740
:1062D80033F8014B186008BD10E7032007B5002309
:1062E80000931A466FF07701FEF700FA03B05DF8E5
:1062F80004FB000007B543880A2B08D0502B09D1AE
:10630800094B1B683BB103B05DF804EB1847FFF776
:10631800E5FF06E0002300931A466FF07701FEF7C9
:10632800E5F903B05DF804FB0CE7032008B500218C
:106338000448FEF7FFF900210348BDE80840FEF7CE
:10634800CBB900BF00000000FD620D0010B5044687
:106358000F48FFF757FA28B1A4F10B03022B01D815
:10636800002010BD00F08CF8FEF7B4FD08B1012C38
:10637800F6D9FFF7F5FEFFF7EFFE18B1A4F1090310
:10638800012BEDD91E2C8CBF0020012010BD00BFB1
:106398002CE703201E2838B504460D460AD8FF29E5
:1063A80008D0FFF7D3FF28B129462046BDE838407A
:1063B800FDF7DABF38BD38B504460D46FDF7DCFFFA
:1063C800FF2810D0062804D84D2323FA00F0C3076D
:1063D80009D42046FFF7BAFF28B129462046BDE870
:1063E8003840FDF7D1BF38BD38B504460D46FFF734
:1063F800ADFFF0B104212046FDF7AEFF042805D11A
:10640800A9B22046BDE83840FDF7C6BF02212046A4
:10641800FDF7A2FF02280CD12046FDF7ADFF0128A9
:1064280001D0042805D129462046BDE83840FDF7AB
:10643800DBBF38BD38B504460D46FFF787FFE8B126
:1064480004212046FDF788FF042808D12046294664
:10645800FDF7B2FF2046BDE83840FDF7A5BF022191
:106468002046FDF779FF022808D120462946FDF786
:10647800B3FF2046BDE83840FDF7A6BF002038BD71
:1064880038B50B4D296811F001040FD12846FDF7E6
:1064980006FE58B121460748FEF70AFD2846FDF7D3
:1064A80003FE054A0549034800F02CF8014838BDA9
:1064B80014E7032018E70320BCE30320614E0D0016
:1064C80070B50C4C0C4E0D4D00212046FFF786F997
:1064D80020460B4C3246294600F014F8012120468C
:1064E800FFF77CF9324629462046BDE8704000F0A7
:1064F80009B800BF2CE70320BCE30320D5570D00E3
:106508003CE703200B460146184600F069B9000035
:10651800024B1868BFF35F8F704700BF4CE703203A
:1065280010B5002814BF044601242046FEF75AF986
:1065380020B9FFF7EDFF08B18047F6E710BDFFF778
:10654800EFBF08B5FEF76EF9244B1A68D0075CBF99
:1065580001221A60224B1A68D1075CBF01221A6017
:10656800204B1A68D2075CBF01221A601E4B1A68BA
:10657800D0075CBF01221A601C4B1A68D1075CBFA8
:1065880001221A601A4B1A68D2075CBF01221A60EE
:10659800184B1A68D0075CBF01221A60164B1A689C
:1065A800D1075CBF01221A60144B1A68D2075CBF7E
:1065B80001221A60124B1A68D0075CBF01221A60C8
:1065C800104B1A68D1075CBF01221A600E4B1A687B
:1065D800D2075CBF01221A60704700BF7CE7032026
:1065E80078E7032074E7032070E703206CE70320B3
:1065F80068E7032064E7032060E703205CE70320E3
:1066080058E7032054E7032050E70320184B1A6883
:10661800D1075CBF01221A60164B1A68D2075CBF0B
:1066280001221A60144B1A68D0075CBF01221A6055
:10663800124B1A68D1075CBF01221A60104B1A6806
:10664800D2075CBF01221A600E4B1A68D0075CBFE4
:1066580001221A600C4B1A68D1075CBF01221A602C
:106668000A4B1A68D2075CBF01221A60704700BF44
:106678009CE7032098E7032094E7032090E7032092
:106688008CE7032088E7032084E7032080E70320C2
:10669800184B1A68D1075CBF01221A60164B1A689A
:1066A800D2075CBF01221A60144B1A68D0075CBF7E
:1066B80001221A60124B1A68D1075CBF01221A60C6
:1066C800104B1A68D2075CBF01221A600E4B1A6879
:1066D800D0075CBF01221A600C4B1A68D1075CBF57
:1066E80001221A600A4B1A68D2075CBF01221A609D
:1066F800704700BFBCE70320B8E70320B4E70320D6
:10670800B0E70320ACE70320A8E70320A4E70320B1
:10671800A0E70320244B1A68D0075CBF01221A6047
:10672800224B1A68D1075CBF01221A60204B1A68F5
:10673800D2075CBF01221A601E4B1A68D0075CBFE3
:1067480001221A601C4B1A68D1075CBF01221A602B
:106758001A4B1A68D2075CBF01221A60184B1A68D4
:10676800D0075CBF01221A60164B1A68D1075CBFBC
:1067780001221A60144B1A68D2075CBF01221A6002
:10678800124B1A68D0075CBF01221A60104B1A68B6
:10679800D1075CBF01221A600E4B1A68D2075CBF92
:1067A80001221A60704700BFECE70320E8E70320E6
:1067B800E4E70320E0E70320DCE70320D8E7032031
:1067C800D4E70320D0E70320CCE70320C8E7032061
:1067D800C4E70320C0E703200A22002100F002B921
:1067E80010B5054C13462CB10A4601460220AFF3FA
:1067F800008010BD204610BD0000000010B5013912
:106808000244904207D010F8013B11F8014FA3420F
:10681800F7D0181B10BD002010BD10B5431E0A4448
:10682800914204D011F8014B03F8014FF8E710BD6D
:1068380002440346934202D003F8011BFAE770476B
:10684800034611F8012B03F8012B002AF9D17047F0
:10685800024B0146186800F003B800BFB8E30320F4
:1068680070B5064608460C4600F00DF8451C29464A
:106878003046FDF7DFFF064618B12A462146FFF7E6
:10688800CCFF304670BD034613F8012B002AFBD11C
:10689800181A0138704730B582B1451E013915F80C
:1068A800013F11F8014FA34206D1EC431444E042E2
:1068B80001D0002BF3D11C46181B30BD104630BD4B
:1068C80010B5034601448B4204D01A785C1C0AB107
:1068D8002346F8E7181A10BD2DE9F04780464048CE
:1068E800D0F800900F463D4615F8014B09EB04001F
:1068F800407800F0080000F0FF0608B12F46F2E7E4
:106908002D2C03D1BD1C7C78012603E02B2C04BF61
:106918007C78BD1C13B1102B0AD15BE0302C57D109
:10692800287800F0DF0058284DD16C781023023504
:10693800002E14BF4FF0004C6FF0004C0027BCFB3A
:10694800F3FA384603FB1ACC09EB040E9EF801E073
:106958001EF0040F01D0303C0BE01EF0030E1BD0DC
:10696800BEF1010F0CBF4FF0370E4FF0570ECEEBB4
:106978000404A34210DDB7F1FF3F0AD0504506D802
:1069880001D1644503DC03FB0040012701E04FF01F
:10699800FF3715F8014BD7E77B1C0CD1002E4FF0C1
:1069A800220314BF4FF000406FF00040C8F80030D9
:1069B8002AB9BDE8F08706B1404272B107B1691E35
:1069C8001160BDE8F0873024002BB1D10823AFE770
:1069D8000A23ADE7302CA3D0AAE7BDE8F08700BFB3
:1069E80054E3032013460A46014602480068FFF7AD
:1069F80073BF00BFB8E303201D400D0059400D00D0
:106A080085400D0089400D00000000007377617219
:106A18006D2D666F6C6C6F7765722D6F6E6C696E1D
:106A2800650066772D76657273696F6E006C6566B2
:106A38007452006C65667446007269676874520027
:106A48007269676874460025692056616C3A20258A
:106A5800690076312E3000000000000000000000C0
:106A680073480D0079480D00A1480D0085480D00B8
:106A780075480D000000000000000000434E0D00A6
:106A8800394E0D002F4E0D00254E0D00194E0D00EC
:106A98000D4E0D00014E0D00F94D0D00EF4D0D008E
:106AA800E54D0D00D9550D00000000000000000064
:106AB800614E0D00AB4E0D00834E0D00634E0D0070
:106AC8008B4E0D00934E0D009B4E0D00A34E0D00F6
:106AD8000000000000000000F34E0D00E54E0D0020
:106AE800E74E0D0066006C6E00666E00636F6465AD
:106AF8000064657461696C000D0A002530313075D9
:106B080020005D20002C200028293A2000205B006E
:106B1800636F6465203D200064657461696C73204F
:106B28003D2000626175640053657269616C0053B1
:106B3800657269616C3100747970650070617261A9
:106B48006D00636D6400696400686E64007374723C
:106B58006D0066696C74006C766C006164644861F1
:106B68006E646C65720072656D6F766548616E64FF
:106B78006C657200656E756D48616E646C657273E4
:106B8800004A534F4E53747265616D4C6F6748618C
:106B98006E646C657200617070006E6F6E65007473
:106BA8007261636500696E666F007761726E006579
:106BB80072726F720070616E696300616C6C0000C4
:106BC80000000000000000008D500D0083500D00F3
:106BD80079500D006F500D0063500D0057500D0097
:106BE8004B500D0043500D0039500D002F500D0033
:106BF800D9550D00666630333A3A313A3130303182
:106C080000746831006D6573687075620077697229
:106C1800696E67007061727365207061636B65747B
:106C280020256400000000000000000071550D00E0
:106C38007B550D0085550D008F550D0099550D009C
:106C4800A5550D00B1550D00BD550D00C5550D00DC
:106C5800CF550D00D9550D000000000000000000C0
:106C6800D5570D00D7570D000000000000000000A8
:106C780013580D0015580D0031590D0003590D001A
:106C88005A00252B3033643A253032750025592DAA
:106C9800256D2D25645425483A254D3A2553257AE6
:106CA8000061736374696D65007265636569766513
:106CB800642025642062797465732066726F6D2084
:106CC80025732325640073656E645061636B657476
:106CD8002073697A652025642C2025732325640098
:106CE800626567696E207061636B65742025732324
:106CF80025640000000000000000000091600D0005
:106D0800B5600D00C1590D00EB5A0D00B9590D00C1
:106D1800D7590D00F5590D000F5A0D00335A0D00C3
:106D2800CF5A0D000D5E0D00715B0D00F15C0D007A
:106D3800A1590D0029600D00755C0D00A95B0D00BF
:106D4800EF5F0D00155B0D00AF590D00515B0D0095
:106D5800B5590D00115A0D00F0FFFFFF00000000AB
:106D68002B5A0D000000000000000000DF600D003D
:106D780003610D000F610D0071560D00EB600D00F1
:106D8800F7600D00F1600D00FD600D00E1600D0081
:106D9800E5600D000000000000000000B9610D0072
:106DA800FD610D00D7610D0071560D00D1610D0018
:106DB800BB610D00C3610D00F7610D00CB610D00D3
:106DC800B5610D0000002020202020202020202850
:106DD800282828282020202020202020202020208B
:106DE80020202020202088101010101010101010C3
:106DF8001010101010100404040404040404040403
:106E08001010101010101041414141414101010181
:106E1800010101010101010101010101010101015A
:106E28000110101010101042424242424202020267
:106E3800020202020202020202020202020202022A
:106E480002101010102000000000000000000000D8
:106E5800000000000000000000000000000000002A
:106E6800000000000000000000000000000000001A
:106E7800000000000000000000000000000000000A
:106E880000000000000000000000000000000000FA
:106E980000000000000000000000000000000000EA
:106EA80000000000000000000000000000000000DA
:106EB80000000000000000000000000000000000CA
:106EC80000000000000000000000000000000000BA
:106ED80000000000000000000000000000000000AA
:106EE800000000000000000000000000000000009A
:106EF800000000000000000000000000000000008A
:106F08000000000000000000000000000000000079
:106F18000000000000000000000000000000000069
:106F280000000000000000004300000069420D005E
:106F38004D4E0D00F54F0D0025550D005D560D0009
:106F4800B9570D0071590D008D590D00C9640D0018
:106F580051650D0015660D0099660D001D670D0041
:086F6800000000000000000021
:106F700011000000100000001200000013000000CB
:106F8000A96C0D00CD6D0D0000000000D06E0D004D
:106F9000F06E0D00106F0D000000000000000000FA
:106FA0000000000000000000306F0D000000000035
:106FB00000000000000000000000000000000000D1
:106FC00000000000000000000000000000000000C1
:106FD00000000000000000000000000000000000B1
:0C6FE000000000000000000058E3032047
:106FEC00FFFFFFFF00000102030405060708090A62
:106FFC000B0C0D0E0F101112131415161718191A5D
:08700C001B1C1D1E1F202800A3
:047014007856341264
:04000003D0004018D1
:00000001FF
